:020000040800F2
:10000000B84B002029030008C9300008152D00084E
:100010009530000805080008E139000800000000DC
:10002000000000000000000000000000690200085D
:10003000770C000800000000C502000889320008A3
:100040004303000843030008430300084303000878
:100050004303000843030008430300084303000868
:100060004303000843030008430300084303000858
:100070004303000843030008430300084303000848
:100080004303000843030008430300084303000838
:10009000490800084303000843030008430300081D
:1000A000430300086D3300084303000843030008BE
:1000B00079330008430300084303000843030008A2
:1000C00043030008430300084303000843030008F8
:1000D0004303000895390008430300084303000860
:1000E00043030008430300084303000843030008D8
:1000F00043030008430300084303000843030008C8
:1001000043030008430300084303000843030008B7
:1001100043030008430300084303000843030008A7
:100120004303000843030008910B00084303000841
:100130004303000843030008430300084303000887
:10014000990800084303000843030008430300081C
:1001500043030008430300089D0B00084303000805
:100160004303000843030008430300084303000857
:100170004303000843030008430300080000000095
:10018000430300084303000800F002F800F05CF8A5
:100190000AA090E8000C82448344AAF10107DA45E2
:1001A00001D100F051F8AFF2090EBAE80F0013F0D8
:1001B000010F18BFFB1A43F001031847A84E0000B7
:1001C000C84E00000A444FF0000C10F8013B13F039
:1001D000070408BF10F8014B1D1108BF10F8015BA0
:1001E000641E05D010F8016B641E01F8016BF9D193
:1001F00013F0080F1EBF10F8014BAD1C0C1B09D1EA
:100200006D1E58BF01F801CBFAD505E014F8016B5B
:1002100001F8016B6D1EF9D59142D6D370470000ED
:100220000023002400250026103A28BF78C1FBD8FF
:10023000520728BF30C148BF0B6070471FB504F09C
:1002400088FE1FBD10B510BD00F074F91146FFF710
:10025000F5FF03F03DFC00F092F903B4FFF7F2FF65
:1002600003BC00F095F900002C4B19680868B0E851
:10027000F04F80F30988BFF36F8F4FF0000080F3D9
:10028000118870470000000008480068006880F38B
:1002900008884FF0000080F3148862B661B6BFF39F
:1002A0004F8FBFF36F8F00DF00BF00BF08ED00E08E
:1002B000DFF80C00016841F470010160704700BF75
:1002C00088ED00E0EFF30980BFF36F8F134B1A68DE
:1002D0001EF0100F08BF20ED108A20E9F04F1060CB
:1002E00009B44FF0500080F31188BFF34F8FBFF374
:1002F0006F8F03F0D9FF4FF0000080F3118809BC25
:1003000019680868B0E8F04F1EF0100F08BFB0EC95
:10031000108A80F30988BFF36F8F70473000002088
:10032000EFF30580704700000948804709480047FF
:10033000FEE7FEE7FEE7FEE7FEE7FEE7FEE7FEE795
:10034000FEE7FEE704480549054A064B70470000F2
:100350004933000889010008B8450020B84B002047
:10036000B8470020B847002053EA020C00F069802B
:100370002DE9F04B4FF00006002B1FBFB3FA83F5B9
:1003800003FA05F424FA05F65E4012BF1643B2FAEA
:1003900082F502FA05F4C5F120051EBF22FA05FC1C
:1003A00044EA0C04203556EA044C4FEA144418BFC2
:1003B000641C4FF000084FF00009904271EB030CF1
:1003C00039D3002919BFB1FA81F701FA07F6B0FA5B
:1003D00080F700FA07F6C7F120071EBF20FA07FCD6
:1003E00046EA0C062037B6FBF4FCA7EB0507103FE6
:1003F00007F01F0BCBF120060CFA0BFB2CFA06F6CC
:1004000044BFB3460026202FA4BF5E464FF0000B2A
:100410005BEA060C08BF4FF0010B19EB0B09ABFBB5
:10042000027C48EB0608C01B06FB02CC0BFB03CC8E
:1004300071EB0C01C1E70B46024641464846BDE858
:10044000F08B13B54FF000004FF00001AFF30080C8
:10045000BDE81C40704710B5203AC0F00B80B1E8F1
:100460001850203AA0E81850B1E81850A0E81850E9
:10047000BFF4F5AF5FEA027C24BFB1E81850A0E8F2
:10048000185044BF18C918C0BDE810405FEA827C0C
:1004900024BF51F8043B40F8043B08BF7047D20723
:1004A00028BF31F8023B48BF11F8012B28BF20F8C4
:1004B000023B48BF00F8012B70474FF0000200B527
:1004C000134694469646203922BFA0E80C50A0E877
:1004D0000C50B1F12001BFF4F7AF090728BFA0E825
:1004E0000C5048BF0CC05DF804EB890028BF40F8F1
:1004F000042B08BF704748BF20F8022B11F0804F33
:1005000018BF00F8012B704770477047704710B54F
:1005100000F008F8006810BD10B5044600F002F8BD
:10052000046010BD004870475445002000487047E3
:10053000544500207546FFF7F9FFAE4605006946B1
:10054000534620F00700854618B020B5FFF7FAFEA5
:10055000BDE820404FF000064FF000074FF00008C4
:100560004FF0000B21F00701AC46ACE8C009ACE845
:10057000C009ACE8C009ACE8C0098D46704710B5A9
:100580000446AFF300802046BDE81040FFF765BE8B
:1005900001491820ABBEFEE7260002007047026842
:1005A000426001608A1A8260416901EBD173B2EB4B
:1005B000630F02DD511A816007E04B4203EBD373F6
:1005C000B2EB630F01DA11448160D0E902211144DA
:1005D000C160C169012902D10021C160C1617047B8
:1005E000704700002DE9F0412DED048B0026754C7D
:1005F00094F901009FED741A774F744B7449D7ED4D
:10060000000A2746734A97ED070A744D012730EE1A
:10061000C09A082820D2DFE800F00423699BB51FA8
:10062000BCD36F4880ED001A1F709FED6E0A6E48B4
:1006300080ED000A6D4941F2883008809FED6C0B17
:1006400003F0DFF99FED6C1B51EC100B53EC112BF9
:1006500004F0E8F800D26770BDEC048BBDE8F081CF
:1006600081ED000A94ED080A82ED000AA06B04F007
:10067000FFFB41EC180B19EE100A04F0F9FB41ECFA
:10068000100B03F0BEF953EC182B51EC100B04F0D7
:10069000C9F81CD2A06B04F0EBFB95ED000AD4ED79
:1006A000080A41EC180B30EE600A10EE100A04F054
:1006B000DFFB41EC100B03F0A4F953EC182B51ECC9
:1006C000100B04F0AFF802D22069401C206194EDB9
:1006D000040AD4ED0B0AB8EEC00AB4EEE00AF1EE5B
:1006E00010FAB9DD022060702661B5E71E70E06B7C
:1006F00004F0BEFB41EC180B19EE100A04F0B8FB35
:1007000041EC100B03F07DF953EC182B51EC100B5E
:1007100004F0C2F9A0D2E06B04F0AAFB95ED000A48
:10072000D4ED080A41EC180B30EE600A10EE100A06
:1007300004F09EFB41EC100B03F063F953EC182B13
:1007400051EC100B04F0A8F986D20320607083E707
:100750006069401C606100EE100AD4ED0C0AB8EE2E
:10076000C00AB4EEE00AF1EE10FABEDD94ED090A1B
:1007700081ED000A94ED0A0A82ED000A6661042008
:10078000607069E71E48C07A0128AED1062060700B
:1007900062E7A069401CA06100EE100AD4ED0D0ACA
:1007A000B8EEC00AB4EEE00AF1EE10FA9DDD1F705B
:1007B00081ED001A82ED001AA661072060704BE7F8
:1007C000267249E7FC02002000000000BC00002067
:1007D000B4000020B8000020C4000020C8000020A1
:1007E000B000002000A00C46AC000020A8000020B3
:1007F00000000000000000000000000000001440A5
:1008000040450020FEE7000000B58BB000200690B8
:1008100007900121089147F6FE7201920390029021
:10082000049005900E200A90099101A9054800F056
:10083000CDFA044800F045FF0221024800F042FAD8
:100840000BB000BD90050020014800F0D1BB0000B6
:100850009005002000B58BB00E2006900020079078
:100860000121089147F6FE720192039002900490D4
:1008700005901C200A90099101A9064800F0A6FAEB
:10088000044800F01EFF0221024800F01BFA0BB0E2
:1008900000BD0000B8050020014800F0A9BB000021
:1008A000B805002070B505461646104C21600021A1
:1008B0006160A160E1602361012332462146284640
:1008C00000F012FA00280FD00223324621462846B3
:1008D00000F00AFA002807D0324621462846BDE833
:1008E0007040042300F000BA70BD0000684400208E
:1008F0007CB5DDE90645160A8DF800608DF801200B
:100900001A0A8DF802208DF80330220A8DF804208F
:100910008DF805402A0A8DF806208DF8075089B217
:1009200008236A46FFF7BEFF7CBD90ED020AD0EDBA
:10093000060A70EE600AC0ED070A80ED060A7047ED
:1009400010B504462DED068B94ED000AD4ED060A91
:1009500070EE608AC4ED028AD4ED03AA94ED040A15
:100960002AEE808A20EE08AAD4ED010A40EE208A01
:1009700018EE900A04F07CFA41EC100B03F041F8F9
:10098000B0EE409AB2EE000AF0EE609A2AEE800ACB
:1009900010EE100A04F06CFA53EC192B03F07EFFF2
:1009A00028EE080A41EC190B10EE100A04F060FA68
:1009B00053EC192B03F082FE41EC100B03F02BF8E3
:1009C00051EC100B03F048FE0AEE900A1AEE100AE2
:1009D00004F04EFA41EC190B18EE900A04F048FAB4
:1009E00041EC100B03F00DF853EC192B51EC100BEC
:1009F00004F052F812D2B0EE680A02F02DFC00EEBC
:100A0000100A7AEEC80AD4ED018AB8EEC00A20EEC8
:100A1000200AF6EE000A40EE208A07E094ED040A70
:100A2000C8EE800A94ED010A70EE808A18EE100A72
:100A300004F01EFA41EC190B18EE900A04F018FAB3
:100A400041EC100B02F0DDFF53EC192B51EC100BB5
:100A500004F022F80ED2B0EE680A02F0FDFB00EEC0
:100A6000100AD4ED030AB8EEC00AF1EE600A20EED7
:100A7000200A07E094ED030AB1EE400A60EE280A6E
:100A800080EE880AD4ED001AD4ED050A94ED011A1F
:100A900040EE811AC4ED001A00EE801A84ED011AAE
:100AA000BDEC068B10BD00001CB5DFF8B4902D4DD9
:100AB000DFF8B4A0DFF8B4B02D4E2E4C2E4F4FF01F
:100AC000000899ED000A85ED000A9AED0B0A85ED04
:100AD000010A244802F0FAFA9BED000A86ED000AAA
:100AE000264890ED0B0A86ED010A214802F0EEFA45
:100AF000234890ED000A234802F02EFC84ED110AF1
:100B000097ED0A0A84ED120A97ED0B0A84ED010AAB
:100B1000184802F06BFB95ED080A4FF40071BDEE2A
:100B2000C00A10EE100A00B2CDE9000896ED080ADE
:100B3000BDEEC00A10EE100A94ED220A03B2BDEE1B
:100B4000C00A10EE100A02B20F48FFF7D1FE0F489C
:100B5000007802F067FB012002F0D7FFB1E7000048
:100B6000B400002074020020CC000020B800002057
:100B7000B8020020E80100204C0100200C010020F8
:100B8000B0000020CC010020B8050020BC000020EF
:100B9000014800F023BE000070060020014800F06C
:100BA0001DBE0000D00600200168CAB2103A18230A
:100BB000B2FBF3F2064B9B5CC3656FF30901032A9A
:100BC00002D9091D816500E08165806D70470000D4
:100BD0001050000810B5014600208A6A8B694FF05A
:100BE000C074002B0ED0B3F5005F1AD062B3012A97
:100BF0002AD0022A28D0032A03D1C96AC90100D504
:100C0000012010BD1AB1012A06D0022AF9D1C96A01
:100C1000C901F6D5012010BDC96AA142FBD101204E
:100C200010BD52B1012A0AD0022A06D0032AF7D1F8
:100C3000C96AA142F4D1012010BD012010BDC96ACA
:100C4000C901FBD5012010BD012010BD30B50468DD
:100C5000256825F480252560046863608368402B3F
:100C600004D0036899600068C26030BD03689A6070
:100C70000068C16030BD704772B6FEE770474A78C1
:100C8000097842EA012100EE101AB8EE400A80ED20
:100C9000080ABDEEC00A10EE100A00B2704700004C
:100CA0008878C978020604D5054A42EA002008433C
:100CB00001E041EA002000EE100AB8EEC00A7047D9
:100CC0000000FFFF90F82020012A07D0022A05D05B
:100CD000416A41F480214162012070470068426905
:100CE0000A43426100207047F0B590F82050046834
:100CF000A468012D07D0022D05D0416A41F480215E
:100D000041620120F0BD04F0806504F000663543C7
:100D100001D1E50053D5C4F301640125A5401D6050
:100D20008B684FF4C0759BB1CE6805EB0417334355
:100D30004E6843EAC6030668F3514FF4C27307686E
:100D400003EB04130E69FE50097D012909D00DE063
:100D50000E88CB6805EB041743EA46530668F35147
:100D6000EBE70168CE5846F48076CE501179D379FE
:100D7000567941EA036193791B0443EA0623194338
:100D80004FF4C676036806EB041699511178D378B0
:100D900041EA0361937852781B0443EA022211432B
:100DA0004FF4C473026803EB0413D150006805EBE1
:100DB0000411425842F0010242500020F0BD416A45
:100DC00041F4001141620120F0BD000010B590F81F
:100DD0002020012A07D0022A05D0416A41F480214F
:100DE0004162012010BD3C4800F50070026842F0ED
:100DF00001020260026822F47C52026002684B6ABF
:100E000042EA032202600A7D02F01F0301229A4097
:100E1000C3699343C361A0F50070CB69B3B9D0F83F
:100E20000C329343C0F80C328C894B6864F31F4337
:100E30004C6900EBC404C4F840320C890B6864F3BD
:100E40001F434C6900EBC404C4F84432CB69012B46
:100E500016D1D0F80C321343C0F80C320C884B6812
:100E600064F31F434C6900EBC404C4F840320C899E
:100E7000CB6864F31F434C6900EBC404C4F84432EC
:100E80008B697BB1D0F804321343C0F804320B698C
:100E900073B1D0F814321343C0F81432096A01292F
:100EA0000CD010E0D0F804329343C0F80432EEE7DF
:100EB000D0F814329343C0F81432EFE7D0F81C1284
:100EC0001143C0F81C12D0F8001221F00101C0F843
:100ED0000012002010BD000000640040704770B593
:100EE00090F82040012C07D0022C05D0416A41F433
:100EF00080214162012070BD21B104682469A407EA
:100F00002AD003E00468E468A4071FD04FF4D87423
:100F1000056804EB01142D5905F0040595600DB327
:100F200005682D59ED08556005682C5904F0020438
:100F3000D4604FF4DA74056804EB01142E5906F0FE
:100F40000F06082E13D30825156114E0416A41F4F9
:100F500000114162012070BD416A41F400114162FB
:100F6000012070BD05682D596D0D1560DCE72D5908
:100F700005F00F05156105682D59C5F30725956125
:100F800005682C59240C54614FF4DC72046802EBA0
:100F90000112A4581C700468A458240A5C700468E8
:100FA000A458240C9C700468A258120EDA704FF4F6
:100FB000DE72046802EB0112A4581C710468A45884
:100FC000240A5C710468A458240C9C710468A2581B
:100FD000120EDA7131B10068016941F0200101613E
:100FE000002070BD0068C16841F02001C160F7E7D2
:100FF0002DE9F05F0546002428684669D0F8049082
:101000008768D0F80CA0D0F810B0D0F81880F1079D
:1010100048D0F90714D001218160B80703D52846CC
:1010200000F07CFB0CE0780702D54FF4006407E089
:10103000380702D54FF4805402E0284600F06DFBDB
:10104000F80516D529684FF480708860B80503D577
:10105000284600F065FB0CE0780502D544F4005406
:1010600007E0380502D544F4804402E0284600F049
:1010700056FBF80316D529684FF480308860B80312
:1010800003D5284600F04EFB0CE0780302D544F46B
:10109000004407E0380302D544F4803402E02846D7
:1010A00000F03FFB300707D55FEACA6004D544F47F
:1010B000007429681020C86070074FF0080707D532
:1010C0005FEA0A7004D52868C760284600F0BAF9BC
:1010D000B00706D52868C068800702D0284600F00F
:1010E000B3F9700607D55FEACB6004D544F4806499
:1010F000296810200861B00607D55FEA0B7004D597
:1011000028680761284600F0D9FAF00606D5286855
:101110000069800702D0284600F0D1FAB00308D554
:101120005FEAC96005D5296810204860284600F0AC
:10113000C7FAF00307D55FEA097004D5286847604D
:10114000284600F0F0FA300446D55FEA497040D5F1
:10115000F00504D55FEAC87001D044F00104B00581
:1011600004D55FEA887001D544F00204700504D507
:101170005FEA487001D544F00404300529D518F021
:10118000700F26D008F07000402815D006DC10281B
:1011900009D020280AD0302816D10AE050280ED0D5
:1011A000602811D10EE044F008040DE044F0100472
:1011B0000AE044F0200407E044F0400404E044F076
:1011C000800401E044F480742868816921F0700192
:1011D0008161296804204860002C05D0686A20439A
:1011E00068622846FFF77AFEBDE8F09F70B50446B6
:1011F000002C03D094F8200010B104E0012070BD51
:10120000204600F09DF82068016841F0010101606E
:1012100000F05EFD054605260CE000F059FD401B80
:101220000A2807D9606A40F40030606284F82060C0
:10123000012070BD20684068C007EED020680168BA
:1012400021F00201016000F043FD05460CE000F0D2
:101250003FFD401B0A2807D9606A40F400306062F5
:1012600084F82060012070BD206840688007EED4BB
:10127000207E01283FD02068016821F080010160B4
:10128000607E01283DD02068016821F040010160A6
:10129000A07E01283BD02068016821F02001016078
:1012A000E07E012839D02068016841F0100101601A
:1012B000207F012837D02068016821F008010160F3
:1012C000607F012835D02068016821F004010160A9
:1012D000D4E902010843D4E90412114308436168C8
:1012E000491E08432168C86100206062012084F81B
:1012F0002000002070BD2068016841F0800101607D
:10130000BEE72068016841F040010160C0E7206845
:10131000016841F020010160C2E72068016821F006
:1013200010010160C4E72068016841F00801016014
:10133000C6E72068016841F004010160C8E70000C9
:101340002DE9F04387B00446142102A8FFF7B5F851
:10135000384D394BDFF8D890296822680126364C81
:1013600002273648491C10334FF0030C4FF0090890
:101370004A4529D12960012907D1196841F0007136
:101380001960196801F000710191216841F00201B2
:101390002160216801F0020101914FF44071029136
:1013A00003970496CDF814C0CDF8188002A900F078
:1013B0009FFB00220521142000F022FD142000F0E4
:1013C00011FD07B0BDE8F083DFF874904A45F8D10D
:1013D0001A6842F080621A601A6802F08062019214
:1013E0002960012907D1196841F000711960196855
:1013F00001F000710191216841F002012160216832
:1014000001F0020101916021029103970496CDF849
:1014100014C0CDF8188002A900F06AFB0022052153
:10142000402000F0EDFC402000F0DCFCC9E70000AB
:1014300000640040180000203038024000040240E0
:10144000006800407047000030B587B004468A4904
:1014500020688A4D884256D1894B6A460021204631
:10146000FFF73DFD009A00208549202A13D0A2F500
:101470000072013A1CD0012A32D0A2F580720F3AD4
:1014800041D14878097840EA01207E4908802888BF
:10149000401C288037E049787B4A802900D1D072EF
:1014A000882901D10120D072E88A401CE8822AE014
:1014B000764A1368012B0FD00868D06092ED030ABA
:1014C000D2ED050A30EE600A82ED040A48689060A9
:1014D0006E48FFF72AFA16E00B6853611060F5E7D3
:1014E0006B4A1368012B58D00868D06092ED030A4C
:1014F000D2ED050A30EE600A82ED040A4868906079
:101500006348FFF712FA63492068884243D15C4B75
:101510006A46083300212046FFF7E1FC0098A0F559
:1015200000700138DFED5C0A9FED5C1A39D00128AC
:1015300071D002282FD1524959480831FFF79FFB3B
:1015400000EE100A564CB8EEC00A84ED080A4C4969
:1015500068460831FFF7A4FB84ED090A94ED080AF8
:101560002046BCEEC00A10EE101AFFF718F894EDF2
:10157000030AB8EEC00A20EE200A20EE010A84ED2C
:101580000A0A94ED090A84ED0B0A464880ED000A28
:101590002889401C288107B030BD0B68536110605A
:1015A000ACE7374940480831FFF769FB00EE100A05
:1015B0003D4CB8EEC00A84ED080A3149684608314E
:1015C000FFF76EFB84ED090A94ED080A2046BCEE95
:1015D000C00A10EE101AFEF7E2FF94ED030AB8EE0F
:1015E000C00A20EE200A60EE010A9FED301A80EE5C
:1015F000810A84ED0A0AD4ED090AB3EE031AC0EE9B
:10160000811AC4ED0B1A2A4880ED000AE888401CB4
:10161000E880C0E7FFE71A4926480831FFF72FFBAB
:1016200000EE100A234CB8EEC00A84ED080A1449F3
:1016300068460831FFF734FB84ED090A94ED080A87
:101640002046BCEEC00A10EE101AFEF7A8FF94ED7B
:10165000030AB8EEC00A20EE200A20EE010A84ED4B
:101660000A0A94ED090A84ED0B0A134880ED000A7A
:101670006889401C68818EE700640040F6440020C1
:1016800098000020BE00002040450020AC01002052
:101690008C01002000680040000000390000B443C5
:1016A000CC000020C40000204C01002000001042AB
:1016B000C00000200C010020C800002070477047C7
:1016C000704770B5044694F82000012805D0606A80
:1016D00040F400206062012070BD022084F82000E8
:1016E0002068016821F00101016000F0F1FA05466F
:1016F0000DE000F0EDFA401B0A2808D9606A40F4BA
:1017000000306062052084F82000012070BD206850
:101710004068C007EDD1606270BD70477047704788
:1017200070477047704770472DE9F0410446A76D38
:1017300000F0CEFA054694F835000026022806D0BF
:101740008020606584F834600120BDE8F081206865
:10175000016821F0160101602068416921F08001D3
:101760004161206C08B9A06C20B12068016821F0AB
:10177000080101602068016821F0010101600BE0AF
:1017800000F0A6FA401B052806D920203434206238
:10179000032060702670D8E720680068C007EFD18A
:1017A00034343F2094F828108840B86001206070DD
:1017B00026700020C9E790F83510022903D0802157
:1017C000416501207047052180F8351000680168E7
:1017D00021F0010101600020704700002DE9F8436D
:1017E00004464FF00009CDF800906F484FF41651B1
:1017F0000068B0FBF1F7A56D2E6894F85C00082234
:1018000002FA00F1314210D02068016849070CD576
:10181000016821F00401016094F85C0002FA00F113
:10182000A960606D40F00100606594F85C104FF0B5
:10183000010808FA01F0304208D021684969090618
:1018400004D5A860606D40F00200606594F85C10FB
:1018500004208840304208D021680968890704D5EF
:10186000A860606D40F00400606594F85C10102082
:101870008840304220D02168096809071CD5A8603B
:101880002068016849030CD50068000304D4216C6A
:1018900091B1204688470FE0A16C69B12046884786
:1018A0000AE00168C90503D4016821F0080101605C
:1018B000216C09B12046884794F85C1020208840AC
:1018C00030424CD021680968C90648D5A86094F810
:1018D000350005280BD020680168490330D5006821
:1018E000000328D4616C51B32046884737E0206854
:1018F000016821F0160101602068416921F0800132
:101900004161206C08B9A06C20B12068016821F009
:101910000801016094F85C103F208840A86084F8BA
:10192000358084F83490216D00293BD001B02046E9
:10193000BDE8F0430847E16B09B1204688470EE057
:101940000168C90507D4016821F01001016084F81D
:10195000358084F83490E16B09B120468847606D8A
:1019600000281FD0606DC00714D0052084F8350012
:101970002068016821F0010101600098401C00907E
:10198000B84203D820680068C007F6D184F83580D3
:1019900084F83490E16C002904D001B02046BDE801
:1019A000F0430847BDE8F8832C0000202DE9F04102
:1019B000044600F08DF905465CB1022084F835003C
:1019C000002684F834602068016821F0010101607C
:1019D0000DE00120BDE8F08100F07AF9401B0528F8
:1019E00005D920206065032084F83500F2E72068DF
:1019F0000068C007F0D121680A6820480240D4E995
:101A000001031843D4E903352B4318436369184392
:101A1000A3691843E3691843236A18431043626AB1
:101A2000042A03D1D4E90B231A4310430860206829
:101A3000406920F00700656A29460543012704290B
:101A40000DD1A06A0543E06A48B12046FFF7C2F80D
:101A500028B14020606584F835700120BAE720681D
:101A600045612046FFF7A0F894F85C203F219140A3
:101A70008160666584F835700020ABE73F8010F028
:101A80002DE9F04104460025A66D94F834000128A4
:101A90000DD0012084F8340094F835700020012F17
:101AA00007D084F8340002252846BDE8F0810220E2
:101AB000FBE7022784F8357060652046FFF7C6F81B
:101AC00094F85C103F208840B0602068016841F0C5
:101AD00016010160206C20B12068016841F0080106
:101AE00001602068016841F001010160DCE700004D
:101AF0002DE9F84F0022DFF89C914FF001080327F1
:101B00004FF00F0C09F1040AA9F1040B08FA02F5D1
:101B10000B682B40AB426ED10C7904F00304012C0E
:101B200001D0022C15D18668540007FA04FE26EA7B
:101B30000E06D1F80CE00EFA04FE4EEA060EC0F8CE
:101B400008E04468AC430D79C5F300159540254382
:101B500045600C79E443A40708D0C568540007FA2F
:101B600004F6B5438E68A6402E43C6600C7904F097
:101B70000304022C11D1D40800EB8406356A540703
:101B8000E40E0CFA04FE25EA0E05D1F810E00EFA78
:101B900004FE4EEA050EC6F820E00568540007FA78
:101BA00004F6B5430E7906F00306A6402E43066000
:101BB0004C6814F4403F67D0374C256845F48045A5
:101BC0002560246804F480440094344C22F003051A
:101BD0002E19D6F8085894074FEA147E0CFA0EF422
:101BE000A5432F4CA04201D1002424E02D4CA0425B
:101BF00002D101241FE047E02B4CA04201D1022476
:101C000019E02A4CA04201D1032414E0284CA04240
:101C100001D104240FE0274CA04201D105240AE0A1
:101C2000254CA04201D1062405E0244CA04201D15C
:101C3000072400E0082404FA0EF42C43C6F80848F0
:101C4000D9F800409C434D68ED0200D51C43C9F80B
:101C50000040DAF800409C434D68AD0200D51C43BB
:101C6000CAF80040DBF800409C434D68AD0300D546
:101C70001C43CBF80040074D083D2C689C434E6840
:101C8000F60300D51C432C60521C102AFFF43EAF13
:101C9000BDE8F88F083C0140443802400030014064
:101CA000000002400004024000080240000C024014
:101CB000001002400014024000180240001C0240C4
:101CC000002A01D0816170470904816170470000DA
:101CD00001488068704700002000002002488168A9
:101CE00002781144816070472000002010B50B4835
:101CF000016841F400710160016841F48061016094
:101D0000016841F480710160032000F099F80F2010
:101D100000F006F800F04AF8002010BD003C024038
:101D200030B587B0054600241B48016841F0010129
:101D30000160006800F00100009001A902A800F015
:101D400037F900F069F940001449B0FBF1F1491E80
:101D50001448134A026040F2E732C26041600461F5
:101D60008460846100F0C6FB044694B90D4800F01D
:101D700003FC04466CB9192000F034F8102D07D28A
:101D800000222946192000F03BF80748056000E0D2
:101D9000012407B0204630BD4438024040420F00C5
:101DA00000000140300700202400002082B00C48D1
:101DB000016841F480410160006800F480400190B6
:101DC0000748001F016841F080510160006800F081
:101DD0008050019000220F21901E02B000F010B838
:101DE00044380240002809DB00F01F020121914025
:101DF0004009800000F1E020C0F8001170470000A9
:101E0000F0B40D460D4B1B68C3F30223C3F1070466
:101E1000042C00D90424191D072901D2002300E055
:101E2000DB1E012606FA04F1491E294099409E4016
:101E3000761E16403143F0BC01F0D3BD0CED00E03E
:101E400000F00701054A10684FF6FF03184040EA0A
:101E50000120034908431060704700000CED00E0CA
:101E60000000FA052DE9F04704460D46002C13D07A
:101E7000DFF82891D9F80000EFB200F00700A8427F
:101E80000CD289F80070D9F8000000F00700A842D1
:101E900004D00120BDE8F0870120FBE72068404E18
:101EA000810712D5400703D5306840F4E050306018
:101EB0002078000703D5306840F460403060306817
:101EC000A16820F0F000084330602078C00731D0CE
:101ED000334960680839012808D002280BD003284C
:101EE00009D0096889070BD40120D3E70968890361
:101EF00006D40120CEE70968890101D40120C9E791
:101F0000316821F0030101433160FFF7E1FE8046B3
:101F100041F2883A07E0FFF7DBFEA0EB08005045EE
:101F200001D90320B6E73068616800F00C00B0EB1F
:101F3000810FF0D1D9F8000000F00700A84209D9BC
:101F400089F80070D9F8000000F00700A84201D01D
:101F500001209FE72078400705D53068E16820F42C
:101F6000E050084330602078000706D530682169CA
:101F700020F4604040EAC100306000F05DF8316854
:101F8000084AC1F30311515CC8400749086007487B
:101F90000068FFF7C5FE00207CE70000003C02401F
:101FA00008380240185000082C00002024000020AF
:101FB0000F2202600B4A136803F0030343601368A7
:101FC00003F0F0038360136803F4E053C360126806
:101FD00002F46042D20802610348006800F0070082
:101FE0000860704708380240003C02400148006821
:101FF000704700002C00002000B5FFF7F7FF0449F0
:102000000968044AC1F38221515CC84000BD000048
:10201000083802402850000800B5FFF7E7FF0449E0
:102020000968044AC1F34231515CC84000BD000058
:10203000083802402850000810B51748006810F012
:102040000C01164816D04310042912D0082911D1CA
:10205000114C241F216801F03F02216849020AD572
:102060002068C0F38810A0FB03010023FEF77CF971
:1020700009E0184610BD21680023C1F38811A1FBB7
:102080000001FEF771F92168C1F30141491C4900C3
:10209000B0FBF1F010BD0000083802400024F4004D
:1020A0002DE9F84F0446002C13D02078DFF8A083E8
:1020B000C007A8F1040556D008F104000168C1F377
:1020C000810101290CD00068C0F38100022803D0EF
:1020D0000DE00120BDE8F88FD8F80000400206D5D9
:1020E000286880033FD5606870BB0120F2E7606814
:1020F000B0F5803F10D0B0F5A02F12D0286820F4A2
:1021000080302860286820F4802028606068E0B172
:10211000FFF7DEFD064614E0286840F480302860B2
:10212000F4E7286840F480202860286840F4803074
:102130002860EBE7FFF7CCFD801B642801D9032062
:10214000C8E728688003F5D50DE0FFF7C1FD064616
:1021500006E0FFF7BDFD801B642801D90320B9E725
:1021600028688003F5D42078BA4F80074FF0000923
:1021700048D5B748001D016811F00C0F08D0006861
:10218000C0F38100022813D1D8F8000040020FD418
:102190002868800704D5E068012801D0012099E76C
:1021A0002868216920F0F80040EAC100286029E091
:1021B000E068B8B101203860FFF78AFD064606E006
:1021C000FFF786FD801B022801D9032082E72868DB
:1021D0008007F5D52868216920F0F80040EAC100A1
:1021E00028600FE0C7F80090FFF772FD064606E092
:1021F000FFF76EFD801B022801D903206AE72868DB
:102200008007F5D42078000729D5DFF844A292484A
:1022100061690AF1700A89B101210160FFF758FD77
:10222000064606E0FFF754FD801B022801D9032073
:1022300050E7DAF800008007F4D510E0C0F800900D
:10224000FFF746FD064606E0FFF742FD801B022829
:1022500001D903203EE7DAF800008007F4D42078A3
:10226000400778D54FF0000A79483C300068C0003C
:102270000BD477483C30016841F080510160006820
:1022800000F0805000904FF0010ADFF8D0B1DBF889
:102290000000C00514D4DBF8000040F48070CBF8D7
:1022A0000000FFF715FD064606E0FFF711FD801B55
:1022B000022801D903200DE7DBF80000C005F4D5A2
:1022C000634EA0686C3601280FD0052812D0306804
:1022D00020F001003060306820F004003060A06819
:1022E000F8B1FFF7F5FC834617E0306840F00100D5
:1022F0003060F4E7306840F004003060306840F04F
:1023000001003060EBE7FFF7E3FCA0EB0B0141F2CB
:102310008830814201D90320DCE630688007F2D59D
:1023200010E0FFF7D5FC834609E0FFF7D1FCA0EBF6
:102330000B0141F28830814201D90320CAE630689E
:102340008007F2D4BAF1010F05D141483C30016851
:1023500021F080510160A069C0B33D49091D0968A1
:102360004FF0FF36C1F38101022946D0022805D083
:10237000C7F86090FFF7ACFC04463AE0C7F86090FD
:10238000FFF7A6FC814607E0FFF7A2FCA0EB0900DF
:10239000022801D903209DE628688001F4D4D4E9FD
:1023A00007010843616AA26A890106EB520241EA09
:1023B0000241084394F82C1040EA0160C8F800007C
:1023C00001203866FFF784FC044607E03DE0FFF794
:1023D0007FFC001B022801D903207BE628688001CE
:1023E000F5D532E0FFF774FC001B022801D9032069
:1023F00070E628688001F5D427E0012823D0D8F8BA
:102400000000E26900F4800191421AD1226A00F0D2
:102410003F01914215D147F6C071626A0140B1EBAC
:10242000821F0ED1A26A00F4403106EB5202B1EBDA
:10243000024F06D194F82C1000F07060B0EB016FE1
:1024400003D0012046E6012044E6002042E60000D9
:102450000438024000004742800E474200700040AE
:102460007047704770B590F83C20012A31D00126A2
:1024700080F83C60022280F83D200268546893682E
:1024800024F070050C682C435460134C0268A2427F
:1024900014D0B2F1804F11D0104CA2420ED0104C8B
:1024A000A2420BD00F4CA24208D00F4CA24205D042
:1024B0000E4CA24202D00E4CA24204D123F0800363
:1024C0004968194391603C3046700021017000203A
:1024D00070BD022070BD00000000014000040040FB
:1024E00000080040000C0040000401400040014092
:1024F0000018004010B50446002C03D094F83D00AD
:1025000010B107E0012010BD002084F83C002046F7
:1025100000F016F8022084F83D00211D206800F02C
:1025200031FF01203D3460726070A070E070207156
:102530006071A071E07120722070002010BD000059
:1025400008B50068B0F1804F12D10A48016841F027
:1025500001010160006800F00100009000220521E7
:102560001C20FFF74DFCBDE808401C20FFF73ABCDB
:1025700008BD00004038024090F83D10012901D00C
:1025800001207047022180F83D100168CA6842F0BE
:102590000102CA6000681449884214D0B0F1804F2B
:1025A00011D0124988420ED0114988420BD01149EE
:1025B000884208D01049884205D01049884202D08C
:1025C0000F49884209D1816801F00701062908D026
:1025D000016841F00101016003E0016841F001017F
:1025E000016000207047000000000140000400402E
:1025F00000080040000C0040000401400040014081
:102600000018004070B50446002594F83C000128ED
:1026100017D0012684F83C60022084F83D00206831
:10262000826822F0770222F47F4282600868502894
:1026300038D00DDC202853D005DC90B3102811D100
:102640004EE0022070BD30284AD040280AD13DE03B
:10265000602831D070280CD0B0F5805F03D0B0F581
:10266000005F12D001253C3466700020207028469F
:1026700070BDCB68D1E90121206800F0EDFE206833
:10268000816841F077018160EDE7CB68D1E90121F4
:10269000206800F0E1FE2068816841F4804181609B
:1026A000E1E71DE0CA684968206800F0E7FE5021B4
:1026B000206800F0DBFED6E7CA684968206800F0B1
:1026C000EEFE6021206800F0D1FECCE7CA684968C0
:1026D000206800F0D3FE4021206800F0C7FEC2E76A
:1026E00022680146104600F0C1FEBCE770472DE9A4
:1026F000F04104462068C56806694FF00007B1073D
:1027000014D5A90712D5F91E016101202077206890
:102710008069800703D02046FFF7E8FF05E02046E8
:1027200000F081F8204600F07FF82777700717D572
:10273000680715D521686FF0040008610220207732
:102740002068806910F4407F03D02046FFF7CEFF59
:1027500005E0204600F067F8204600F065F827778E
:10276000300716D5280714D521686FF008000861D6
:10277000042020772068C069800703D02046FFF737
:10278000B5FF05E0204600F04EF8204600F04CF87A
:102790002777F00617D5E80615D521686FF01000E9
:1027A0000861082020772068C06910F4407F03D0BA
:1027B0002046FFF79BFF05E0204600F034F8204656
:1027C00000F032F82777F00708D0E80706D0216834
:1027D0006FF001000861204600F028F8300608D5A7
:1027E000280606D521686FF0800008612046FFF7B3
:1027F00037FE700608D5680606D521686FF04000E0
:102800000861204600F01CF8B0060AD5A80608D5D5
:1028100021686FF0200008612046BDE8F041FFF715
:1028200020BEBDE8F0817047704700000068034992
:10283000884201D1FFF752BA704700000000014002
:102840007047704708B590F84110212909D10168F7
:10285000143151E8002F42F0800241E80023002BA0
:10286000F5D190F84210222923D101680A684968FD
:102870000091016949B101680C3151E8002F42F41F
:10288000807241E80023002BF5D10168143151E832
:10289000002F42F0010241E80023002BF5D101682E
:1028A000143151E8002F42F0400241E80023002B90
:1028B000F5D1002008BD10B5044620684069C0F37A
:1028C000C01094F84110212911D180B12068143032
:1028D00050E8001F21F0800140E80012002AF5D1E5
:1028E000A06B08B1FEF720FF204600F0D5FE20685F
:1028F0004069C0F3801094F84210222911D180B1B0
:102900002068143050E8001F21F0400140E8001218
:10291000002AF5D1E06B08B1FEF706FF204600F073
:1029200087FE002010BD7047F8B504462268106885
:10293000D168536900F00F06002E08D1850606D530
:102940008D0604D52046BDE8F84000F0B3BE002552
:10295000002E66D003F0010601F49077374360D073
:10296000C20705D0CA0503D5626C42F00102626459
:10297000420705D5DA0703D0626C42F002026264B6
:10298000820705D5DA0703D0626C42F00402626464
:10299000020707D501F02002324303D0626C42F0F7
:1029A00008026264626C002A31D0800604D5880671
:1029B00002D5204600F07EFE20684069C0F38010FA
:1029C000616C090700D438B3204600F031FE20685E
:1029D000406940061CD52068143050E8001F21F0E3
:1029E000400140E80012002AF5D1E06B60B15F4978
:1029F0000165E06BFEF7DFFE002808D0E06B016D9B
:102A000001B0BDE8F04008472046FFF78CFFF8BD55
:102A10002046FFF788FFF8BD2046FFF784FF656476
:102A2000F8BD236B012B7DD1C3067BD5CB0679D5B1
:102A300010685068009050694FF0200340064FF036
:102A400002064FD5E26B1068406880B2DF00E8B341
:102A5000A18D81423BD9E085D069B8422DD0206854
:102A60000C3050E8001F21F4807140E80012002A69
:102A7000F5D12068143050E8001F21F0010140E832
:102A80000012002AF5D12068143050E8001F21F010
:102A9000400140E80012002AF5D184F84230256355
:102AA00020680C3050E8001F21F0100140E80012AF
:102AB000002AF5D1E06BFEF737FE6663A08DE18D4D
:102AC000401A81B22046FFF7BCFEF8BDFFE7A18D9A
:102AD0008142FAD1D069B842F7D166632046FFF748
:102AE000B0FEF2E7A08DE18D401A81B2E08D0028A2
:102AF000EBD00029E9D020680C3050E8002F22F4F8
:102B0000907240E80027002FF5D12068143050E87B
:102B1000002F22F0010240E80027002FF5D184F8B1
:102B2000423000E00FE0256320680C3050E8002FB1
:102B300022F0100240E80023002BF5D16663204606
:102B4000FFF77FFEC1E7020606D50A0604D5204638
:102B5000BDE8F84000F0EEBE4006B6D54806B4D554
:102B60002046BDE8F84000F08ABD00003535000879
:102B700070B50446002C04D094F84100002510B133
:102B800006E0012070BD84F84050204600F024F893
:102B9000242084F841002068C16821F40051C160FC
:102BA000204600F0EBFD2068016921F490410161AD
:102BB0002068416921F02A0141612068C16841F41F
:102BC0000051C1606564202084F8410084F842000F
:102BD0006563002070BD00002DE9F04186B0054618
:102BE000142101A8FDF769FC3049286888425AD1B0
:102BF00000262F48016841F010010160006800F0D4
:102C0000100000902A481438016841F00101016069
:102C1000006800F0010000904FF4C06001900220B5
:102C2000029001200390032004900720059001A941
:102C30002048FEF75DFF214C1F4820604FF00068E0
:102C4000C4F80480A660E660071527616661A66186
:102C5000E661266266622046FEF7A8FE08B1FEF72E
:102C60000BF8EC63A5631448144C78306034206092
:102C7000C4F804804020A060E66027616661A66118
:102C8000E661266266622046FEF790FE08B1FDF717
:102C9000F3FFAC63A563002205212520FFF7B0F800
:102CA0002520FFF79FF806B0BDE8F0810010014035
:102CB0004438024000000240406402407006002098
:102CC00090F84230202B01D00220704721B11AB178
:102CD0000023036300F0DCBD01207047704770479C
:102CE00090F84130202B01D00220704779B172B1A9
:102CF00001628284C28400214164212180F8411054
:102D00000068C16841F08001C16000207047012067
:102D100070477047FEE77047704770470FB4F8B5CB
:102D200001269DF818000024304D002801D02E7394
:102D30002C70287B08B1FFF7EFFF9DF81A0008B14F
:102D40002E726C70287A08B1FDF74CFC9DF81B00C0
:102D500008B16E72AC70687A08B1FFF7DEFF9DF8BB
:102D6000210008B1AE73AC71A87B08B1FDF786FFF6
:102D70009DF81C0008B1AE72EC70A87A28B10A98D0
:102D8000009006A80FC8FDF72BFC9DF81D0008B1A8
:102D9000EE722C71E87A08B100F06FFA9DF822000B
:102DA00008B1EE73EC71E87B08B100F06BFA9DF8A6
:102DB0001E0008B16E736C71687B08B1FFF7ABFF42
:102DC0000B484471297B0171297A8171697AC1713B
:102DD000A97B0172A97A4172E97A8172697BC17219
:102DE000E97B0173F8BC5DF814FB0000FC020020D5
:102DF000E444002008B5074C074D2069009094E892
:102E00000F00FFF78BFFE889401CE881012001F0EB
:102E1000D7F9F2E740450020F644002010B50F48EE
:102E20000D4901600321416000218160C1604FF4C0
:102E3000002202614FF440124261017641768176B0
:102E4000C17601774177FEF7D1F9002803D0BDE8BC
:102E50001040FDF711BF10BD006400409005002038
:102E600010B50F480D4901600321416000218160C8
:102E7000C1604FF4002202614FF4401242610176BA
:102E800041768176C17601774177FEF7AFF9002868
:102E900003D0BDE81040FDF7EFBE10BD0068004054
:102EA000B805002008B50D48016841F480010160B3
:102EB000006800F480000090002205213A20FEF70F
:102EC0009FFF3A20FEF78EFF002205214620FEF7E5
:102ED00097FFBDE808404620FEF784BF3038024027
:102EE00010B5AAB01C22214923A8FDF7B4FA00218D
:102EF00023A800F017FE1E4C20601C221B491C3129
:102F00001CA8FDF7A8FA00211CA800F00BFE6060C9
:102F10001C221649383115A8FDF79DFA002115A885
:102F200000F000FEA0601C22104954310EA8FDF7ED
:102F300092FA00210EA800F0F5FDE0601C220B497A
:102F4000703107A8FDF787FA002107A800F0EAFD15
:102F500020611C2205498C316846FDF77CFA00216E
:102F6000684600F0DFFD60612AB010BD684F0008C0
:102F70000000002030B587B0142102A8FDF79DFAAB
:102F80001A48016841F080010160016801F0800188
:102F90000191016841F004010160016801F0040140
:102FA0000191016841F001010160016801F0010136
:102FB0000191016841F002010160006800F0020027
:102FC00001900B4D4FF48864012221462846FEF7FC
:102FD00077FE02940121039104910321059102A936
:102FE0002846FEF785FD07B030BD000030380240AE
:102FF0000008024010B586B00024029403940494A3
:1030000005940094019414484FF08041016042F20D
:10301000CF014160846042F20F71C160046184613C
:10302000FFF768FA08B1FDF727FE4FF480500290D1
:1030300002A90948FFF7E6FA08B1FDF71DFE009462
:10304000019469460448FFF70DFA002801D0FDF706
:1030500013FE06B010BD0000E005002010B50C48BE
:103060000A4901604FF4E121416000218160C160A3
:1030700001610C2242618161C161FFF779FD002885
:1030800003D0BDE81040FDF7F7BD10BD00100140B2
:1030900028060020FEE7000001250A4C002600203B
:1030A00004EB40010A8BA2F2B632652A01D30D86E9
:1030B00000E00E86401C1028F2DB012001F080F8B1
:1030C000EDE70000F6440020FEE7000010B50446DE
:1030D0002DED048B94ED000AD4ED010A30EE609AD8
:1030E00084ED059A206B01F0C3FE41EC180B19EE3C
:1030F000100A01F0BDFE41EC100B00F082FC53EC15
:10310000182B51EC100B01F08DFB03D89FED360A04
:1031100084ED050AA06A01F0ABFE41EC180B606972
:1031200001F0A6FE41EC100B00F06BFC53EC182BE9
:1031300051EC100B01F076FB07D294ED070AD4EDA9
:10314000050A30EE200A84ED070AD4ED070A94ED53
:10315000090AF4EEC00AF1EE10FA02DD84ED070A66
:1031600008E0B1EE400AF4EEC00AF1EE10FA01D226
:1031700084ED070AD4ED020A94ED050A20EE801AC8
:1031800084ED0D1AD4ED030AD4ED071A60EEA11AEE
:10319000C4ED0E1AD4ED060A70EE600A94ED042A0E
:1031A00062EE200AC4ED0F0A31EE211A31EE201A28
:1031B00084ED081AD4ED0B1AB4EEE11AF1EE10FA10
:1031C00002DDC4ED081A08E0F1EE611AB4EEE11A6E
:1031D000F1EE10FA01D2C4ED081A84ED060AC4ED2E
:1031E000100ABDEC048B10BD0000000010B50446B1
:1031F00004F14400FFF76AFF94ED190A84ED000A18
:103200002046FFF763FF94ED080A84ED220A10BD03
:10321000034CA08A401CA082012000F0D1FFF8E7F7
:10322000F644002000B585B04021009100218DF8C2
:1032300009108DF8081001218DF80A108DF80B0087
:1032400001230DF10B0240210248FDF72BFB05B0D5
:1032500000BD000090050020B5EEC00AF1EE10FAA6
:1032600001DD01207047B5EEC00AF1EE10FA02D27E
:103270004FF0FF307047002070477047012000F08A
:103280009FFFFBE77047000010B5502080F31188C6
:10329000BFF34F8FBFF36F8F01F010F918B10449DE
:1032A0004FF080500860002080F3118810BD0000AE
:1032B00004ED00E030B593B0302107A8FDF7FDF82C
:1032C000142102A8FDF7F9F800251D48016841F016
:1032D00080510160006800F0805001901948016839
:1032E00041F480410160006800F4804001900120B9
:1032F00007900004089002240D9480010E90042091
:103300000F90A82110911194129007A8FEF7C8FE03
:1033100008B1FDF7B1FC0F200290039404954FF41F
:10332000A05005904FF480500690052102A8FEF7AA
:1033300099FD002801D0FDF79FFC13B030BD0000BF
:1033400040380240007000400248016841F47001BA
:103350000160704788ED00E010B5044684ED060A70
:103360002046FDF7EDFA94ED000A10BD0148FFF785
:10337000BEB90000300700200148FFF7B8B90000CF
:10338000E00500202DE9F0410268284D284E294F24
:10339000DFF8A4C0294B4FF08048A84209D040452F
:1033A00007D0B04205D0B84203D0604501D0984262
:1033B00003D122F070044A682243A8421BD0404542
:1033C00019D0B04217D0B84215D0604513D09842FA
:1033D00011D01B4CA0420ED01A4CA0420BD01A4C5C
:1033E000A04208D0194CA04205D0194CA04202D0EE
:1033F000184CA04203D122F44074CA6822434C699D
:1034000022F0800222438C68C4620C688462A84265
:1034100001D0984201D109690163016841F00401BA
:103420000160012141610260BDE8F08100000140BE
:103430000004004000080040000C0040000401406F
:103440000040014000440140004801400018004095
:10345000001C00400020004010B5846824F47F4424
:1034600042EA03220A432243826010BD826822F0AE
:1034700070020A4342F007018160704710B5036A89
:10348000046A24F001040462846924F0F00444EA2C
:10349000021423F00A020A438461026210BD10B5CF
:1034A000036A046A24F010040462846924F47044FA
:1034B00044EA023223F0A00343EA0111826101626F
:1034C00010BD0000174F184C184D6626267038782E
:1034D0006070002005EB4001C0F1070291F8301048
:1034E0009140A2781143A170401C0828F2DB08200B
:1034F00005EB4001C0F10F0291F830109140E278E5
:103500001143E170401C1028F2DB122206490848E2
:10351000FFF7E6FB688A401C6882012000F050FE3D
:10352000D4E70000BC000020E4440020F644002062
:103530002806002010B5806B0021C185FFF7F3F944
:1035400010BD70B5846B20684069C0F3C01094F85A
:1035500041100025212904D118B1E584204600F04E
:103560009BF820684069C0F3801094F8421022292B
:1035700004D118B1E585204600F05AF8606C40F09F
:10358000100060642046FFF7CEF970BD10B501460B
:10359000886B096809684FF00003C9052ED4C385FC
:1035A00001680C3151E8002F22F4807241E80024B8
:1035B000002CF5D10168143151E8002F22F00102EE
:1035C00041E80024002CF5D10168143151E8002FA6
:1035D00022F0400241E80024002CF5D1202180F89F
:1035E0004210016B012909D101680C3151E8002F0B
:1035F00022F0100241E80024002CF5D14363016B56
:10360000012902D0FFF76AFB10BD818DFFF719F980
:1036100010BD10B5806B01214163016B012902D0FF
:10362000FFF75DFB10BD818D4908FFF70AF910BD5A
:1036300001680C3151E8002F22F4907241E8002318
:10364000002BF5D10168143151E8002F22F001025E
:1036500041E80023002BF5D1016B012909D1016854
:103660000C3151E8002F22F0100241E80023002B1A
:10367000F5D1202180F8421000210163704710B578
:103680000168CA6822F04002CA60202180F8411017
:10369000FFF73FFB002010BD01680C3151E8002FFF
:1036A00022F0C00241E80023002BF5D1202180F850
:1036B0004110704708B590F84210222901D002202D
:1036C00008BD82684FF480539A4201D1016921B14B
:1036D000816A9A421DD052B10BE0816A0268526839
:1036E000C2F308020A80816A891C816209E00269CA
:1036F0007AB10268526802F07F020A70816A491C3E
:103700008162C18D491E0904090CC18505D00020C4
:1037100008BD026852680A70F0E70168CA6822F0C2
:103720002002CA600168CA6822F48072CA60016817
:103730004A6922F001024A61202180F842100021EA
:103740004163026B012A03D0FFF7C8FA002008BDCD
:10375000016301680C3151E8002F22F0100241E8AA
:103760000023002BF5D101680A68D20602D50A6849
:1037700049680091818DFFF764F8E7E72DE9F04192
:10378000044620680169E26821F440511143016157
:10379000A1682069E2690143606910430143206820
:1037A000C26849F20C639A430A43C26020684169C7
:1037B000A26921F440711143416133492068884274
:1037C00002D03249884202D1FEF726FC01E0FEF722
:1037D00013FCE1690023192764253226B1F5004F57
:1037E00028D061688B0F8A00A0FB0701FCF7BCFDA5
:1037F0000146B0FBF5F07A42504301EB800006EB46
:103800000010B0FBF5F000F0F002B1FBF5F002EBB8
:103810000012B1FBF5F07B42584301EB800006EB50
:103820000010B0FBF5F0216800F00F001044886034
:10383000BDE8F08161684A18A0FB07015B41FCF715
:1038400093FD0146B0FBF5F00201B1FBF5F06FF01E
:103850001803584301EB800006EBC000B0FBF5F005
:1038600000F0F80002EB4002B1FBF5F0584301EB29
:10387000800006EBC000B0FBF5F0216800F0070007
:1038800010448860D4E7000000100140001401409B
:1038900037B582B004461346039AA262A38500207E
:1038A0006064222184F84210E56B1F49E963E56BEF
:1038B0001E492964E56B1E49E964E16B08652168CE
:1038C000E06B091DFEF7DCF838B1102060642020A1
:1038D00084F84200012005B030BD206801684068CE
:1038E0000190206948B120680C3050E8001F41F475
:1038F000807140E80012002AF5D12068143050E8A9
:10390000001F41F0010140E80012002AF5D12068B3
:10391000143050E8001F41F0400140E80012002A36
:10392000F5D10020D7E700008D35000813360008D8
:103930004335000890F84110212901D0022070473A
:103940008168B1F5805F01D1016961B1016A4A1CEA
:103950000262026809785160C18C491E0904090C91
:10396000C1840AD013E0016A02680988C1F3080122
:103970005160016A891C0162EEE70168CA6822F0A1
:103980008002CA600068C16841F04001C160002047
:103990007047000038B50F4C20680168C943C9065C
:1039A00012D40168406800902046FEF784FFE06B67
:1039B00000684068084908601E2208492046FFF751
:1039C0007FF92046FEF73EFFBDE838400148FEF78C
:1039D000ABBF0000280600201C000020804400200F
:1039E000FEE70907090E002804DB00F1E02080F85B
:1039F0000014704700F00F0000F1E02080F8141D63
:103A000070472DED020B019820F0004001909DEDD4
:103A1000000B02B0704700B52DED048BB0EE409A5C
:103A2000F0EE609A83B051EC190B01F06BF841ECA9
:103A3000180B18EE100A18EE901A8DED008B002866
:103A400018BF0120084320F00040C0F17F6000F162
:103A5000E040C00F14D019EE101A19EE900A8DED47
:103A6000009B002918BF0121084320F00040C0F14D
:103A70007F6000F1E040C00F04BF0120FCF74CFD67
:103A8000B0EE480A03B0F0EE680ABDEC048B00BD4E
:103A900010B50648FCF7B8FE0448FDF712FEBDE875
:103AA000104002210148FDF70DB9000090050020EB
:103AB00010B50648FCF7CEFE0448FDF702FEBDE84F
:103AC000104002210148FDF7FDB80000B8050020B4
:103AD000FEF70CF9FFF7EEFBFFF74CFAFFF7E2F900
:103AE000FFF79CF9FFF7BCF9FFF7B8FAFFF782FA86
:103AF00000F080FAFFF7F4F900F00FF8FEE7014656
:103B00000020842900D0C81C704710B5002800D1BF
:103B1000012000F055FB002010BD10B500F078FB2F
:103B2000002010BD7FB504460D466169B4F9080058
:103B3000002910D0A16971B1FFF7E1FFD4E9052197
:103B4000CDE901210090D4E900102B46226900F054
:103B500087FC039010E0FFF7D2FF03A9CDE9000135
:103B6000208A2B4682B2D4E9001000F047FC0128DD
:103B700002D0002004B070BD0398FBE72DE9F041AE
:103B800004460F46174EF5683068001D00F04EFAE7
:103B900038B9306890F82C10012088403169814391
:103BA0003161601C07D137B13168BDE8F041091DB2
:103BB0000D4800F07FBA2C4430684460AC4206D215
:103BC0003168B06B091DBDE8F04100F05BBA3168A7
:103BD000706B091D00F056FAB06A844200D2B462DC
:103BE000BDE8F081300000205408002070B5044684
:103BF00000F06CFA1C4DA868401CA860286810B141
:103C0000686938B10CE02C60A868012808D100F080
:103C1000F3F805E02868E16AC06A884200D82C60A1
:103C2000686A401C6862E06A01212A698140114388
:103C300029610E4900EB800001EB8000211D00F09E
:103C400039FA00F063FA686900280CD02868E16A44
:103C5000C06A884207D206494FF080500860BFF31F
:103C60004F8FBFF36F8F70BD3000002078070020AA
:103C700004ED00E070B50C4D0C4E11E000F026FA9A
:103C8000F068C468201D00F0D1F9A868401EA86043
:103C90006868401E686000F039FA204600F008F8B5
:103CA00068680028EAD170BD30000020400800207C
:103CB00010B5044694F8510000280BD0012811D00B
:103CC000022814D0502080F31188BFF34F8FBFF328
:103CD0006F8FFEE7206B00F02FFA2046BDE8104002
:103CE00000F02ABA2046BDE8104000F025BA10BD09
:103CF0004FF470510F48420706D0C01D20F0070056
:103D00000C49411AC1F570510B4A106000235360F1
:103D10000144083921F00701183A11604B600B602B
:103D20000B1A436001604068906050604FF00040A3
:103D3000506170476808002084000020074E4FF053
:103D40008054074DFFF796FF30680128FAD92C60A0
:103D5000BFF34F8FBFF36F8FF4E7000078070020A9
:103D600004ED00E02DE9F0478246DDE908580A9CA1
:103D70009946521E206B00EB820020F00706700768
:103D800007D0502080F31188BFF34F8FBFF36F8FA0
:103D9000FEE7002761B1002023180A5C83F8342075
:103DA0000A5C12B1401C1028F6D384F8437001E07D
:103DB00084F83470072D00D30625E5626564A76496
:103DC000201D00F05CF904F1180000F058F924619E
:103DD000C5F10700A0616462E76484F850704A4648
:103DE0005146304600F0F4F82060B8F1000F01D0E1
:103DF000C8F80040BDE8F08770B50024124D04EB10
:103E0000840005EB800000F02FF9641C072CF6D32A
:103E10000D488C3000F028F90B48A03000F024F950
:103E20000948B43000F020F90748C83000F01CF908
:103E30000548DC3000F018F9034904488C3141632F
:103E40001431816370BD000078070020300000202D
:103E500030B5134900E011460A688242FBD34B6833
:103E60005C18844203D140681844486008460D68D5
:103E700044682318AB420DD1094B183B1B689A428A
:103E800006D05268224442600A681268026002E06A
:103E9000036000E00260814200D0086030BD000095
:103EA000840000200748416B0968002905D0416B58
:103EB000C968C9684968816270474FF0FF31816203
:103EC000704700003000002009484068401C07D0BF
:103ED000502080F31188BFF34F8FBFF36F8FFEE741
:103EE000502080F31188BFF34F8FBFF36F8FFEE731
:103EF0008C0000202DE9F0410546002600F0CCF9A9
:103F0000324F386808B9FFF7F3FE786905424DD1A2
:103F10008DB1083568070ED005F00700C0F1080024
:103F20000544680707D0502080F31188BFF34F8FF6
:103F3000BFF36F8FFEE7CDB37868854236D823494B
:103F400018310846046801E0214604466068A8422A
:103F500002D220680028F7D13868844226D00E6843
:103F60000836206808606068411B10290ED9601966
:103F7000420707D0502080F31188BFF34F8FBFF363
:103F80006F8FFEE741606560FFF762FF61687868E8
:103F9000401A7860BA68904200D2B86078690143EC
:103FA000616000202060F868401CF86000F0EEFAC4
:103FB000700707D0502080F31188BFF34F8FBFF3F5
:103FC0006F8FFEE73046BDE8F08100006C000020F6
:103FD00024384FF08073036221F00101C16104496C
:103FE000816142606FF0020140F8201970470000C3
:103FF000C93E000810B51E2209490A48FEF760FEB6
:1040000008480068C16841F01001C1600648FEF729
:10401000B3FAFFF73DFDBDE81040FFF749BD0000D2
:104020008044002028060020E00500200169D0E936
:1040300001329A60D0E901235A604A68824201D174
:1040400082684A60002202610868401E08600868B1
:1040500070470000034B036003F1540008608020A8
:10406000106070473C03002000F1080141604FF0F0
:10407000FF328260C1600161002101607047002150
:104080000161704730B50C68621C02D000F1080273
:1040900002E0026904E01A4653681D68A542FAD995
:1040A00053684B6099608A60516008610168491CDF
:1040B000016030BD42684A6093688B6093685960C4
:1040C000916008610168491C01607047502080F3CD
:1040D0001188BFF34F8FBFF36F8F0A494868401CA8
:1040E000486001280CD10848006810F0FF0F07D085
:1040F000502080F31188BFF34F8FBFF36F8FFEE71F
:10410000704700008C00002004ED00E00949486879
:10411000002806D0401E4860002801D180F3118895
:104120007047502080F31188BFF34F8FBFF36F8F1C
:10413000FEE700008C00002070B500282AD0083867
:104140000446154D60686969084207D1502080F324
:104150001188BFF34F8FBFF36F8FFEE722683AB12C
:10416000502080F31188BFF34F8FBFF36F8FFEE7AE
:104170008843606000F090F860686968084468608F
:104180002046FFF765FE2869401C2861BDE87040A5
:1041900000F0FCB970BD00006C0000204FF0E02082
:1041A00000210161816105494FF47A720968B1FB10
:1041B000F2F1491E41610721016170472C00002086
:1041C00010B502460020002A12D00F48006B38B10B
:1041D000502080F31188BFF34F8FBFF36F8FFEE73E
:1041E00000F05AF800211046FFF7C8FC00F0CEF9A5
:1041F000002807D105494FF080500860BFF34F8F6A
:10420000BFF36F8F10BD00003000002004ED00E010
:1042100010B586B000240594049403AA04A905A847
:10422000FFF718FFDDE90410CDE9004102900023FB
:1042300015A11748039A00F013F91649C86208B18E
:10424000012000E00020012809D0401C19D1502095
:1042500080F31188BFF34F8FBFF36F8FFEE75020BD
:1042600080F31188BFF34F8FBFF36F8F4FF0FF3094
:10427000886201204861CC6006B0BDE8104000F0C3
:1042800043B806B010BD000049444C450000000092
:104290003D3D0008300000200248016B491C0163CD
:1042A0007047000030000020154A106B002802D033
:1042B0000120D06170470020D0611069B0FA80F011
:1042C000C0F11F000F4900EB800051F8203073B19E
:1042D00001EB800041684968416000F108039942A0
:1042E00001D1496841604068C06810607047502043
:1042F00080F31188BFF34F8FBFF36F8FFEE700008D
:1043000030000020780700201CB537480168374A84
:10431000914207D1502080F31188BFF34F8FBFF334
:104320006F8FFEE700683149491E884207D150204F
:1043300080F31188BFF34F8FBFF36F8FFEE72C49D7
:1043400008780190FF200870087800909DF8000020
:104350009DF8002000F0F000904207D0502080F33C
:104360001188BFF34F8FBFF36F8FFEE79DF80000FA
:10437000204C00F0500020700720A06006E0A068EC
:10438000401EA0609DF80000400000909DF80000D5
:104390000006F4D4A068032807D0502080F31188C9
:1043A000BFF34F8FBFF36F8FFEE74FF44070A060F5
:1043B000019808700C482030016841F470010160D8
:1043C000016841F070410160FFF7E8FE0020606085
:1043D000FBF76EFF0848016841F040410160FBF7C0
:1043E00053FF00201CBD000000ED00E071C20F4132
:1043F00000E400E08C00002034EF00E02DE9FF5FD6
:104400008146DDE90E788A4616469B46B000FFF7E6
:1044100071FD054628000AD05420FFF76BFD0446C5
:104420000CB1256304E02846FFF786FE00E0002477
:104430009CB1002084F85100CDE90240CDE900781C
:104440005B46324651464846FFF78CFC2046FFF754
:10445000CDFB012004B0BDE8F09F4FF0FF30F9E73D
:10446000F0B585B00746DDE90A600C9C002815D040
:10447000E4B1542503952063022084F85100002004
:1044800004ADCDE90240CDE900653846FFF76AFC8E
:104490002046FFF7ABFB049805B0F0BD502080F339
:1044A0001188BFF34F8FBFF36F8FFEE7502080F36B
:1044B0001188BFF34F8FBFF36F8FFEE72DE9F041F7
:1044C0000026304F386B002805D0B869401CB86111
:1044D0003046BDE8F081FD686D1CFD609DB9786BCC
:1044E000006838B1502080F31188BFF34F8FBFF3BD
:1044F0006F8FFEE7786BB96B7963B863386A401CDD
:104500003862FFF7CFFCB86ADFF87C8085420DD3B4
:10451000786B006838B1786BC068C46860688542A1
:1045200012D2B86202E04FF0FF30B8623868C06A59
:1045300000EB800058F82000012800D90126F86916
:104540000028C5D00126C3E7201DFFF76FFDA06A34
:1045500018B104F11800FFF769FDE06A01213A691A
:1045600081401143396100EB800008EB8000211D80
:10457000FFF7A0FDE06A3968C96A8842C8D30126FE
:10458000C6E7000030000020780700202DE9F04148
:10459000002400272D4D286B002807D0FFF796FD3B
:1045A000286B401E2863286B40B14AE0502080F3FE
:1045B0001188BFF34F8FBFF36F8FFEE7A868E8B392
:1045C000DFF88C8001261EE0D8F80C00C46804F1E6
:1045D0001800FFF72BFD201DFFF728FDE06A2A6970
:1045E00006FA00F111432961194900EB8000B43942
:1045F00001EB8000211DFFF75DFDE06A2968C96AB3
:10460000884200D3EE61D8F800000028DCD10CB15C
:10461000FFF748FCAC6944B1FFF750FF00B1EE6111
:10462000641E002CF8D10020A861E86930B1012790
:10463000084938070860BFF34F8F00E001E0BFF37F
:104640006F8FFFF763FD3846BDE8F0813000002032
:104650002C08002004ED00E021F00042A2F160529D
:10466000B2F5801F01F0004328BFD2F17F6C0BD957
:104670005FEA001C43EAC20242EB507018BF704769
:1046800028BF20F001007047B2F5801FBCBF18465C
:1046900070474FEA410C1CF5001F02D2084600F09B
:1046A0005DBC70B500F0A4F900000089FFF7F6BF0B
:1046B0004FF00040A0F580007047000010B591EA6F
:1046C000030F48BF83F0004300F1F082841A71EBBE
:1046D000030C05D2121943EB0C03001B61EB0C0118
:1046E000DFF824E14FEA1154A4EB135C1EEA430FF8
:1046F00018BF9EEA445F73D023EA0E03DCF1200E5C
:1047000021EA045143F4801332D322FA0CFE10EB59
:104710000E0023FA0CFE41EB0E01CCF1200E03FA41
:104720000EFE10EB0E0051F10001B1F5801FCCF12F
:10473000200E32D201EB045112FA0EF2BDE8104005
:1047400058BF7047401C38BF5FEA420218BF70472D
:10475000002814BF20F0010041F100014FEA41039D
:1047600013F5001F38BF7047A1F1C04100F08EB9AA
:10477000012A43EB0302ACF1200CDCF11F0E32BF27
:104780004FF0000E23FA0CF310EB030041EB045141
:10479000B4EB115FD0D0A1EB045101F580114908B1
:1047A0005FEA300001EB04510ED350F1000038BF36
:1047B00012FA0EFE08D1BDE81040C9E7401C38BF10
:1047C0005FEA4202CAD1C3E7BDE810404FEA4103A5
:1047D00013F5001F38BF7047A1F1C04100F056B972
:1047E0009EEA445F08D011EA5E0FBDE8104004BFA6
:1047F00001F0004100207047BDE8104070B500F0A6
:10480000F7F800BF64FBBE3E0000E0FF491058BF50
:10481000C1F140415B1058BFC3F140438B42EFF3FD
:104820000080704751EA030C17D41CF5801F58BF55
:10483000BCF5801F00F10680994218BF704708BF81
:104840009042704707D711F5801F58BF13F5801F9E
:1048500019D499427047894270471CF5801F08D5CA
:10486000BCF5801FF7D58B4218BF704708BF824246
:1048700070474FF4001C1CEB410F38BF1CEB430F7B
:1048800001D28B42704770B500F0B2F89224490013
:104890004FF000514FF08053FFF7B8BFDFF848C129
:1048A00070B51CEA111E1EBF1CEA13159EEA0C0F00
:1048B00095EA0C0F00F06F8081EA030423EA4C13A1
:1048C0004EEAD47E21EA4C1141F4801143F4801366
:1048D000AE44A1FB024CA0FB0365AEF17F7E36190E
:1048E00055EB0C05A1FB034C4CF10003A0FB021C93
:1048F00016EB0C06654153F10003094218BF46F060
:10490000010613F4007F0BD14FEA03314FEA053063
:10491000340341EA155140EA16506FF003020AE0F1
:104920004FEAC3214FEAC520F40241EA555140EA5B
:1049300056506FF0020202EB2E4201EB025585EA5F
:10494000CE710AD05FEA440C18BF24F0004450F145
:10495000000041F1000120EAD47040F2FE7C624583
:1049600000D270BDA84214BF4FF080444FF04044C5
:10497000002E08BF0024BEF1806FA8BFA1F1C04186
:10498000BDE8704080F282804FF0000001F1C0412C
:1049900001F0004170479EEA0C0F0CEA131518BF96
:1049A00095EA0C0F06D04FF0000081EA030E0EF0DE
:1049B000004170BD00F01CF88900013E00F007B80E
:1049C00000F009B84FEA430C5FEA5C5C08D081EA6A
:1049D000030100F05BB84FEA410C5FEA5C5CF6D182
:1049E0004FF00000014970470000FF070000F87F0A
:1049F0000EF1020E2EF0030E5EF8046B364205D463
:104A0000012A43EB030515F5001F12D8012841EBDD
:104A1000010C1CF5001F0CD80ED14FEAD17C15F506
:104A2000001F0CEB4C0C0CF1020C08BF4CEBD37CC0
:104A300004E04FF0080C01E04FEAD37C0CEB4C058E
:104A400026FA05F606F00706B6F1040C06D20EEBC0
:104A5000860CBDE870404CF0010C6047DFE80CF0BC
:104A6000090B02024FF000414FF00000A1F50021B8
:104A700070BD19461046012851EB010418BFD4F54A
:104A8000001484BF002001F0004170BD0808A0F5AB
:104A900000114FEA3101704753EA010C17D41CF59D
:104AA000801F58BFBCF5801F00F106808B4218BFE5
:104AB000704708BF8242704707D713F5801F58BF61
:104AC00011F5801F19D48B4270479B4270471CF52B
:104AD000801F08D5BCF5801FF7D5994218BF7047D5
:104AE00008BF904270474FF4001C1CEB430F38BFC7
:104AF0001CEB410F01D2994270470FB40CBC03BCB0
:104B0000FFF7C1BE2DE9F04101F5801CBCF5001F87
:104B1000C0F2A9804FEA115C21EA0C510CF1FD0CA6
:104B200041F480115FEA5C0C0CF5C07C01D34000BD
:104B3000494130A4890241EA905187028E0E0A0C45
:104B4000A45D04FB04F602FB06F6C6F14046A4FB96
:104B50000662F60D46EA422606FB06F4A4FB012394
:104B60005242C3F1404338BF5B1EA6FB0242002401
:104B7000E6FB0324D20B42EA4446A6FB0623A1FB34
:104B800002E2A3FB07E4E3FB61426442C2F1404E50
:104B900038BFAEF1010EA6FB04234FF00002E6FB86
:104BA0000E32A2FB03463400E2FB6264A1FB06E680
:104BB000A4FB07E8E4FB61687642C8F1405838BFBF
:104BC000A8F10108A2FB06E4A3FB08E5E2FB685498
:104BD000A1FB05E6A7FB04E8E1FB648618F12005CC
:104BE00056F10006A809A8F11B08B10908F03F0812
:104BF000B8F10A0F40EA86601CD901EB0C51BDE800
:104C0000F08100BFFCF5EEE8E2DDD8D3CFCBC7C31F
:104C1000C0BDB9B6B4B1AEACA9A7A5A3A19F9D9BD9
:104C20009A9896959392908F8D8C8B89888786859C
:104C300084838281A0FB006800FB01F208EB42083C
:104C4000B8EB872807D5341858EB0104D5D5401C9C
:104C500051F10001D1E7341A78EB0104CDD4401EA4
:104C600071F10001C9E75FEA4C0C5FEA9C5C0DD171
:104C700005D34FF0000001F00041BDE8F081BDE830
:104C8000F04170B5FFF7B4FE6DDBFFBEBDE8F0414B
:104C90004FF00000004970470000F87F10B591EA1E
:104CA000030F48BF83F000433FF510AD841A71EB4A
:104CB000030C07D212198CF0004C43EB0C03001BC1
:104CC00061EB0C01DFF8A4E14FEA1154A4EB135C93
:104CD0001EEA430F18BF9EEA445F00F0B08023EA4B
:104CE0006E03524221EA0451C3EB6E0338BF5B1ED0
:104CF000DCF1200E25D322FA0CFE10EB0E0043FA55
:104D00000CFE41EB0E01CCF1200E03FA0EFE10EB6F
:104D10000E0051F10001CCF1200E29D412FA0EF24E
:104D200001EB0451BDE8104058BF7047401C1CBF48
:104D3000B2F1004F704700280CBF491C20F0010061
:104D4000704712EB020E43EB030218BF4FF0010E47
:104D50004EEA4202ACF1200CDCF11E0E54D943FAAB
:104D60000CFE10EB0E0051F1FF31CCF11E0ED5D52B
:104D70000EF1010E12FA0EFE404141EB010101EB72
:104D8000445C5FEA5C5C10D910EBDE7001EB04510F
:104D900038BFBEF1004FBDE8104018BF7047002873
:104DA0000CBF491C20F00100704730D24FEAD42CD0
:104DB00011F5001124F400641BD0B1FA81F20B3A12
:104DC000A41AA41ED2F12003914030FA03F3194330
:104DD000904001EBCC71002C01EB0451BDE8104078
:104DE000A8BF704701F1C0414FF0000001F0004141
:104DF0007047B0FA80F310FA03F100D110BDE41A45
:104E0000173C4805C90AE4E701EB045110BD4910FD
:104E100001EB0451BDE810404FEA300002E04FF0D2
:104E2000000170474A0008BF0042F8D0B2F5001FE9
:104E300028BF704701F000414FF0000070479EEA24
:104E4000445F07D011EA5E0FBDE8104004BF0021A7
:104E500000207047BDE8104070B5FFF7C9FD00BFE6
:104E600040DFF63E83F00041104670470000E0FF4F
:104E700043004FEAD30C4FEA3C0C43401FBF4007AE
:104E80000CF1605113F0FE4F70471CF0006F03D11E
:104E900000200CF0004170470CF0004343EA5070D2
:104EA00010B540EACC0000F00EF800BF0000009200
:104EB0004FEA0001FFF7EABD4FF000414FF000005C
:104EC000A1F5002170470EF1020E2EF0030E5EF8E0
:104ED000044B244204D44FEA4102B2F17F4F11D86F
:104EE0004FEA4003B3F17F4F0CD80ED14FEAD07C8C
:104EF000B2F17F4F0CEB4C0C0CF1020C08BF4CEBE9
:104F0000D17C04E04FF0080C01E04FEAD17C0CEBBF
:104F10004C0324FA03F404F00704B4F1040C06D2A1
:104F20000EEB840CBDE810404CF0010C6047DFE84C
:104F30000CF0070802024FF00040A0F5800010BD01
:104F40000846420018BFD2F1807288BF00F00040CE
:104F500010BD4FF04070E1EE100A7047FF2141EAAA
:104F6000D050C00570470000485000087D3200084E
:104F700000000000000000008000000000000000B1
:104F80000000000040500008F52D0008FDFF000063
:104F90000000000080000000000000000000000091
:104FA00054500008A90A0008FDFF0000000000009E
:104FB0008000000000000000000000005C500008BD
:104FC00099300008FDFF0000000000008000000094
:104FD00000000000000000003050000811320008FE
:104FE000FDFF000000000000800000000000000045
:104FF0000000000038500008C5340008FDFF000024
:105000000000000080000000000000000000000020
:105010000006101600061016000000000000000038
:10502000010203040607080900000000010203044E
:1050300075736172745258007573617274545800BC
:105040006C6F67696300000064656661756C745419
:1050500061736B00636F6E74726F6C006D6F6E695D
:10506000746F720084500008000000203C030000B0
:10507000C4010008FC5000083C0300207C480000EC
:1050800020020008012032018210036124F41AAAD0
:10509000010128299C01210A29202C097D40091E93
:1050A00024092B84E00C409C456F12033B6F128354
:1050B0003A0B1048431469347B1C4604011D0B1F36
:1050C000804044042280EA432F34420AD7A33B366F
:1050D0000112237A441320410B1D606A8C0942445B
:1050E0000912C81B9CC50412452B803B0462C523D2
:0C50F000B4421AA0041AC80403003443A0
:040000050800018965
:00000001FF
