:020000040800F2
:10000000684B0020610200084F3E0008AB39000831
:10001000413E00085D0C0008F149000800000000A6
:10002000000000000000000000000000A101000826
:10003000DF11000800000000FD01000899400008E1
:100040007B0200087B0200087B0200087B0200089C
:100050007B0200087B0200087B0200087B0200088C
:100060007B0200087B0200087B0200087B0200087C
:100070007B0200087B0200087B0200087B0200086C
:100080007B0200087B0200087B0200087B0200085C
:10009000A90C00087B0200087B0200087B02000814
:1000A0007B020008B54100087B0200087B020008C3
:1000B000C54100087B0200087B0200087B020008A3
:1000C0007B0200087B0200087B0200087B0200081C
:1000D0007B020008914900087B0200087B020008AF
:1000E0007B0200087B0200087B0200087B020008FC
:1000F0007B0200087B0200087B0200087B020008EC
:100100007B0200087B0200087B0200087B020008DB
:100110007B0200087B0200087B0200087B020008CB
:100120007B0200087B020008B51000087B02000873
:100130007B0200087B0200087B0200087B020008AB
:10014000010D00087B0200087B0200087B0200080A
:100150007B0200087B020008C51000087B02000833
:100160007B0200087B0200087B0200087B0200087B
:100170007B0200087B0200087B02000800000000F0
:100180007B0200087B020008DFF810D000F05EFB65
:10019000004800471D4B0008AFF30080684B00206B
:1001A0002C4B19680868B0E8F04F80F30988BFF35A
:1001B0006F8F4FF0000080F311887047000000003F
:1001C00008480068006880F308884FF0000080F35A
:1001D000148862B661B6BFF34F8FBFF36F8F00DF35
:1001E00000BF00BF08ED00E0DFF80C00016841F43B
:1001F00070010160704700BF88ED00E0EFF30980F7
:10020000BFF36F8F134B1A681EF0100F08BF20ED5D
:10021000108A20E9F04F106009B44FF0500080F3CD
:100220001188BFF34F8FBFF36F8F05F081F94FF047
:10023000000080F3118809BC19680868B0E8F04F25
:100240001EF0100F08BFB0EC108A80F30988BFF3CE
:100250006F8F704730000020EFF30580704700007B
:100260000648804706480047FEE7FEE7FEE7FEE750
:10027000FEE7FEE7FEE7FEE7FEE7FEE78141000856
:10028000890100082DE9F05F0546002092469B4653
:1002900088460646814640241BE02846414647469C
:1002A000224600F0CCF953465A46C01A914110D369
:1002B00011461846224600F0B3F92D1A67EB0108E3
:1002C0004F4622460120002100F0AAF917EB000951
:1002D0004E41201EA4F10104DFDC484631462A4687
:1002E0004346BDE8F09F40EA01039B0703D009E0C5
:1002F00008C9121F08C0042AFAD203E011F8013B12
:1003000000F8013B521EF9D27047D2B201E000F86A
:10031000012B491EFBD270470022F6E710B51346A9
:100320000A4604461946FFF7F0FF204610BD2DE9A6
:10033000FE4F804681EA0300C00F0C46009021F07A
:10034000004123F00045B8EB0200A94105D2404628
:10035000214690461C460B46024623F000401043BF
:1003600047D0270DC7F30A00C3F30A510290401A81
:10037000019040286BDAC3F3130040F4801B00980F
:10038000924620B10023D2EB030A63EB0B0B0198DA
:100390005946C0F14002504600F042F906460D466B
:1003A00050465946019A00F05AF910EB0800614195
:1003B000002487EA115284EAE7731A4340D0009A76
:1003C00062B3019A012A4FEA075215DC001B61EB68
:1003D00002014FF0004202EA0752CDE90042001C40
:1003E00041F5801132462B4600F091F903B0BDE88B
:1003F000F08F40462146F9E7001B61EB0201001C2B
:1004000041F5801300185B412018A2F5001747EB57
:10041000030140EAD570B6196D4111E06D084FEA4D
:10042000360645EAC0754FEA0752001B61EB020130
:10043000001C41F5801149084FEA30000019514174
:1004400032462B4603B0BDE8F04F00F051B900989A
:10045000012240000023D0EB020263EBE07300981E
:1004600021464FEAE074B8EB000061EB0401E9E7D4
:1004700083F000435BE781F0004158E72DE9FE4F30
:1004800081EA030404F0004421F0004100944FF09D
:10049000000B23F0004350EA01045ED052EA03044B
:1004A0005BD0C3F30A54C1F30A552C44A4F2F334CD
:1004B0000194A0FB0254C1F3130141F48011C3F372
:1004C000130343F4801301FB024400FB034E840A30
:1004D000970A44EA815447EA8357A4FB07680295C8
:1004E0008D0A05FB07854FEA932C04FB0C54270566
:1004F000029D4FEA065847EA1637B5EB08056EEB42
:10050000070C870E920E47EA811742EA8312A7FB77
:100510000201B6EB0B0164EB00042B0D43EA0C3334
:100520005E1844EB1C50DA465146E7FB0201C5F366
:1005300013044FEA0B3343EA14534FEA0432019C8D
:1005400043EA0603A4F10C040294009CCDE900B434
:1005500000F0DDF803B0BDE8F08F00200146F9E7B8
:1005600000F0004230F000400AD0C10D01F560718A
:10057000C0F3160042EA0151C20840071143704718
:10058000002001467047000030B5041E71F10004E0
:1005900004DB4FF00044404264EB0101141E73F190
:1005A000000405DB1C464FF00043524263EB04039A
:1005B0008B4208BF824230BD30B5041E71F1000489
:1005C00004DB4FF00044404264EB0101141E73F160
:1005D000000405DB1C464FF00043524263EB04036A
:1005E000994208BF904230BD01F0004330B421F081
:1005F000004150EA010206D00A0DA2F56072C1F373
:100600001301002A02DC30BC00207047440F44EA8A
:10061000C104C100E01830BC00EBC25000F031B89A
:10062000202A04DB203A00FA02F1002070479140B2
:10063000C2F1200320FA03F3194390407047202AA7
:1006400004DB203A21FA02F00021704721FA02F37C
:10065000D040C2F120029140084319467047202A39
:1006600006DBCB17203A41FA02F043EAE07306E0DA
:1006700041FA02F3D040C2F12002914008431946EA
:1006800070470029A8BF7047401C490008BF20F0F0
:100690000100704710B4B0FA80FC00FA0CF050EA88
:1006A000010404BF10BC704749B1CCF1200421FA09
:1006B00004F411FA0CF118BF012121430843A3EB04
:1006C0000C01CB1D4FEA00614FEA102042BF002011
:1006D00010BC704700EBC35010440029A4BF10BCED
:1006E0007047401C490008BF20F0010010BC704753
:1006F00010B5141E73F1000408DA401C41F100012A
:1007000092185B411A4301D120F0010010BD2DE980
:10071000F04D92469B4611B1B1FA81F202E0B0FA77
:1007200080F220329046FFF77BFF04460F4640EAF6
:100730000A0041EA0B0153465A46084313D01146BA
:1007400053EA010019D0C8F140025046FFF777FF85
:1007500005460E46504659464246FFF761FF08439C
:1007600005D0012004E020463946BDE8F08D002088
:10077000054346EAE0762C4337430A986305E40ACA
:10078000A0EB08000022FD0A44EA47540A3002D5D3
:1007900000200146E9E7010510196941DDE9084536
:1007A00000196941BDE8F04DA2E72DE9F04D0023A5
:1007B0001A461B1A8A4103DB00200146BDE8F08D72
:1007C000C1F30A52C1F3130141F480154FF0000B3D
:1007D000D10702D100186D41521E0027044640F295
:1007E000FF11384601EB620A3E4680460246002071
:1007F0004FF48011FFF723FFC2197141BB1846EB7C
:100800000100B4EB030C75EB000C04D3E41A65EBA8
:10081000000517460E46241908F101006D41804677
:100820003428E3DDF91946EB0600091BA84103D281
:100830004FF0FF32134601E0002213461BEB070086
:1008400046EB0A51BDE8F04DFFF752BF064C074D8D
:1008500006E0E06840F0010394E807009847103490
:10086000AC42F6D3FFF794FC8C5B0008AC5B00084D
:1008700070B58C1810F8015B15F0070301D110F862
:10088000013B2A1106D110F8012B03E010F8016B8F
:1008900001F8016B5B1EF9D12B0705D40023521E12
:1008A0000DD401F8013BFAE710F8013BCB1A921C7A
:1008B00003E013F8015B01F8015B521EF9D5A14278
:1008C000D8D3002070BD10B5026842600160D0E945
:1008D0000023D21A8260426902EBD2748368B3EBC0
:1008E000640F04DD43698268D21A82600BE04369B9
:1008F0005A4202EBD2748368B3EB640F03DA4369A4
:1009000082681A448260D0E902321A44C260C26925
:10091000012A02D10022C260C26110BD70470000EE
:1009200010B52DED068BB24890F9000008283AD298
:10093000DFE800F0043AABFDFC39FBFA9FEDAD0AAD
:10094000AD4880ED000A0120AC4908709FEDAC0A6B
:10095000AC4880ED000A41F28830AB490880A648D7
:1009600090ED000ADFEDA30A30EE600A10EE101AD7
:100970000846FFF7F5FD41EC190BB0EE490AF0EE21
:10098000690A04F053F8B0EE408AF0EE608A9FEDF9
:100990009F0B53EC102B51EC180BFFF7F5FD02D217
:1009A0000120934908701EE19A4890ED000A9A4888
:1009B00080ED000A994890ED000A994880ED000A00
:1009C00098480068FFF7CCFD41EC180B964890ED75
:1009D000000A9048D0ED000A30EE600A10EE101ABE
:1009E0000846FFF7BDFD41EC1A0BB0EE4A0AF0EEE7
:1009F0006A0A04F01BF8B0EE409AF0EE609A53ECED
:100A0000182B51EC190BFFF7BFFD2AD2854800685F
:100A1000FFF7A6FD41EC180B844890ED000A7F48D3
:100A2000D0ED000A30EE600A10EE101A0846FFF70B
:100A300097FD41EC1A0BB0EE4A0AF0EE6A0A03F099
:100A4000F5FFB0EE409AF0EE609A53EC182B51ECA3
:100A5000190BFFF799FD04D275480068401C7449D2
:100A60000860734890ED000AB8EEC00A7148D0EDF6
:100A7000000AB4EEE00AF1EE10FA05DD02205C494E
:100A8000087000206A490860ADE000205B490870EA
:100A900069480068FFF764FD41EC180B624890ED6F
:100AA000000A5C48D0ED000A30EE600A10EE101A21
:100AB0000846FFF755FD41EC1A0BB0EE4A0AF0EE7E
:100AC0006A0A03F0B3FFB0EE409AF0EE609A53EC7E
:100AD000182B51EC190BFFF76FFD2DD2564800680B
:100AE000FFF73EFD41EC180B504890ED000A4B48D3
:100AF000D0ED000A30EE600A10EE101A0846FFF73B
:100B00002FFD41EC1A0BB0EE4A0AF0EE6A0A03F030
:100B10008DFFB0EE409AF0EE609A53EC182B51EC3A
:100B2000190BFFF749FD03E059E032E029E004E04A
:100B300002D203202E49087055E040480068401C4E
:100B40003E490860084690ED000AB8EEC00A3C48ED
:100B5000D0ED000AB4EEE00AF1EE10FA10DD3948EB
:100B600090ED000A2C4880ED000A374890ED000A0D
:100B70002B4880ED000A0020086004201C49087002
:100B800031E03248C06A012802D1062018490870B5
:100B900029E02F480068401C2D490860084690ED68
:100BA000000AB8EEC00A2B48D0ED000AB4EEE00A05
:100BB000F1EE10FA12DD0120104908709FED0D0AC8
:100BC000154880ED000A9FED0B0A154880ED000ADC
:100BD00000201F49086007200549087003E0002035
:100BE0001D49087000BF00BFBDEC068B10BD0000A2
:100BF0007604002000000000B8000020C40000209F
:100C000000A00C46B0000020AC0000200000000056
:100C100000001440F0040020BC000020F404002078
:100C2000C000002014050020D4000020D8000020BF
:100C300094040020000500201C05002098040020DA
:100C400004050020F8040020FC0400202C470020AC
:100C50009C04002008050020E804002000BFFEE7F7
:100C600010B58AB004460020059006900120079038
:100C700047F6FE70009000200290019003900490CF
:100C80000E200990012008906946064800F094FB68
:100C9000044801F0F2F80221024800F0D3FA0AB049
:100CA00010BD00007C07002010B5024800F0DFFCFA
:100CB00010BD00007C07002010B58AB004460E204D
:100CC0000590002006900120079047F6FE700090E6
:100CD000002002900190039004901C2009900120B4
:100CE00008906946054800F067FB044801F0C5F824
:100CF0000221024800F0A6FA0AB010BDA4070020A5
:100D000010B5024800F0B3FC10BD0000A40700209D
:100D10002DE9F04106460C4617461D460E48046074
:100D200000200D4948608860C860084605610123BD
:100D30003A46304600F09BFA60B102233A46064933
:100D4000304600F094FA28B104233A46024930466E
:100D500000F08DFABDE8F081544600202DE9FC47F3
:100D600081460E4614461D46DDE90A78200A8DF8B4
:100D70000000E0B28DF80100280A8DF80200E8B208
:100D80008DF80300380A8DF80400F8B28DF80500DC
:100D90004FEA18208DF8060008F0FF008DF80700D4
:100DA000B1B208236A464846FFF7B2FFBDE8FC87A8
:100DB00090ED020AD0ED060A30EE600A80ED070AD7
:100DC00090ED020A80ED060A7047000030B52DED67
:100DD000108B83B004469FED7B0AB0EE40FA94ED91
:100DE000000AD4ED060A30EE600A84ED020A94EDA2
:100DF000030AD4ED040A20EE200AB0EE408A94EDF6
:100E0000040A20EE080A10EE105A94ED020AD4EDFE
:100E1000040A94ED011A00EE810AF0EE408A18EE01
:100E2000900AFFF79DFB41EC1E0BB0EE4E0AF0EE70
:100E30006E0A03F0FBFDB0EE40DAF0EE60DA94EDFE
:100E4000030AF2EE000A20EE200A10EE101A0846FD
:100E5000FFF786FB53EC1D2BCDE900019DED000B48
:100E600051EC100BFFF70AFB41EC1B0B28EE080AB4
:100E700010EE101A0846FFF773FB41EC1C0B53EC05
:100E80001B2BFFF754FA41EC1A0BB0EE4A0AF0EEB6
:100E90006A0A03F0D5FDB0EE409AF0EE609A51EC8C
:100EA000190BFFF7A1FB02902846FFF759FB41EC15
:100EB000190B18EE900AFFF753FB41EC1B0BB0EE39
:100EC0004B0AF0EE6B0A03F0B1FDB0EE40AAF0EE73
:100ED00060AA53EC192B51EC1A0BFFF76DFB18D2DB
:100EE000B0EE680A03F0C0F800EE100AF8EEC00A8F
:100EF0009DED020A30EE480A60EE800AB0EE001A5C
:100F000080EE810AD4ED010A30EE200AB0EE40FAFC
:100F100009E0D4ED040A88EEA00AD4ED010A30EE0F
:100F2000200AB0EE40FA18EE100AFFF719FB41EC68
:100F3000190B1FEE100AFFF713FB41EC1B0BB0EE71
:100F40004B0AF0EE6B0A03F071FDB0EE40AAF0EE32
:100F500060AA53EC192B51EC1A0BFFF72DFB10D2A2
:100F6000B0EE4F0A03F080F800EE100AB8EEC00AA7
:100F7000D4ED030ABFEE001A60EE810A60EE20FA9B
:100F800009E094ED030AFFEE000A20EE200A20EEAD
:100F90000F0AC0EE08FA94ED000AD4ED050A94EDAC
:100FA000011A00EE810A84ED000A94ED010AD4EDE5
:100FB000050A00EEAF0A84ED010A03B0BDEC108B08
:100FC00030BD0000000000001CB500BF2D4890EDB2
:100FD000000A2D4880ED000A2C4890ED0B0A2A48A3
:100FE00080ED010A02F036FF294890ED000A2948F9
:100FF00080ED000A284890ED0B0A264880ED010A92
:1010000002F028FF254890ED000A254803F0C2F8B9
:10101000244880ED110A244890ED0A0A214880ED09
:10102000120A214890ED0B0A1E4880ED010A02F0D9
:10103000E3FF0021144890ED080ABDEEC00A10EE4F
:10104000100A00B2CDE90001124890ED080ABDEE89
:10105000C00A10EE100A03B2124890ED220ABDEE4B
:10106000C00A10EE100A02B24FF400710F48FFF7E9
:1010700075FE0F48007802F0DDFF012003F06DFDE2
:10108000A4E70000BC00002050030020E400002082
:10109000C00000209403002024010020B80000209C
:1010A0001C020020C402002064010020A4070020CC
:1010B000C400002010B5024800F080FF10BD000001
:1010C0005C08002010B5024800F078FF10BD000059
:1010D000BC0800200146087810381823B0FBF3F252
:1010E0000848805CC865032A05D908686FF30900C1
:1010F000001D886503E008686FF309008865886D46
:1011000070470000385B0008014600208A6A8B693E
:10111000CBB932B1012A0DD0022A03D0032A10D153
:101120000EE000BFCB6A03F08073B3F1807F00D183
:10113000012007E0CB6AB3F1C07F00D1012001E0BC
:1011400000E000BF34E08B69B3F5005F1AD132B123
:10115000012A07D0022A03D0032A11D10AE000BFD6
:1011600001200EE0CB6A03F08073B3F1807F00D1E1
:10117000012006E0CB6AB3F1C07F00D1012000E07E
:1011800000BF15E032B1012A05D0022A04D0032A9B
:101190000CD103E000BF00BF012008E0CB6A03F0E0
:1011A0008073B3F1807F00D1012000E000BF00BF59
:1011B000704730B50468246824F4802405682C60E6
:1011C000046863608468402C04D10468A2600468E9
:1011D000E16003E00468A1600468E26030BD70472C
:1011E00072B600BFFEE77047024648780B7840EAC7
:1011F000032000EE100AB8EEC00A82ED080A92ED54
:10120000080ABDEEC00A10EE100A00B270470000D6
:1012100030B503460A4A8C7804F080043CB11404CB
:101220008D7844EA0524CD7844EA050003E0CC78C3
:101230008D7844EA052000EE100AB8EEC00A30BDF1
:10124000FFFF0F0010B5024692F82030012B01D0AD
:10125000022B06D1106840690843146860610020C1
:1012600010BD506A40F4802050620120F8E7F0B5CC
:1012700004460D461E4694F8207020688368A868CE
:1012800000B900E000BF012F01D0022F7DD103F093
:10129000806030B903F0006018B903F08050002876
:1012A0007ED0C3F30161012088403060A86860B936
:1012B000B5F800C0E86840EA4C5C206800F5C070F2
:1012C00000EB0110C0F800C00FE0D5E901C040EA12
:1012D000CC00D5F80CC040EA0C00D4F800C00CF5E6
:1012E000C07C0CEB011CCCF80000D5F810C02068C5
:1012F00000F5C07000EB0110C0F804C0287D012883
:101300000ED1206800F5C07000EB0110406840F479
:10131000807C206800F5C07000EB0110C0F804C0AC
:10132000D079000692F806C040EA0C4092F805C059
:1013300040EA0C2092F804C040EA0C00D4F800C047
:101340000CF5C07C0CEB011CCCF80C00D07800062E
:1013500092F802C040EA0C4092F801C040EA0C202A
:1013600092F800C040EA0C00D4F800C00CF5C07C34
:101370000CEB011CCCF80800206800F5C07000EBF5
:101380000110006840F0010C01E00FE008E0206867
:1013900000F5C07000EB0110C0F800C00020F0BDE7
:1013A000606A40F4001060620120F8E7606A40F46F
:1013B000802060620120F2E7F0B504460A4694F806
:1013C0002050012D01D0022D7ED1424901F500713E
:1013D000086840F001000860086820F47C5008604C
:1013E0000868566A40EA06200860107D00F01F0673
:1013F000012000FA06F3C8699843C861A1F500719D
:10140000D069C8B9D1F80C029843C1F80C02908891
:1014100080B2968940EA064601F51070576940F897
:101420003760108880B2168940EA064601F51070D0
:10143000576900EBC7004660D069012819D1D1F87F
:101440000C021843C1F80C02908880B2168840EA5A
:10145000064601F51070576940F83760908980B2F0
:10146000168940EA064601F51070576900EBC7007F
:101470004660906928B9D1F804029843C1F8040283
:1014800004E0D1F804021843C1F80402106928B935
:10149000D1F814029843C1F8140204E0D1F8140200
:1014A0001843C1F81402106A012804D1D1F81C02B3
:1014B0001843C1F81C02D1F8000220F00100C1F865
:1014C00000020020F0BDFFE7606A40F48020606207
:1014D0000120F7E700640040704770B5044694F8B7
:1014E0002050012D01D0022D7DD151B92068C06856
:1014F00000F0030080B9606A40F4001060620120CF
:1015000070BD2068006900F0030028B9606A40F4EB
:10151000001060620120F3E7206800F5D87000EB4E
:101520000110006800F004009060906840B92068E5
:1015300000F5D87000EB01100068400D106007E066
:10154000206800F5D87000EB01100068C0085060FA
:10155000206800F5D87000EB0110006800F0020070
:10156000D060206800F5D87000EB0110406800F0F2
:101570000F00082802D30820106108E0206800F559
:10158000D87000EB0110406800F00F001061206877
:1015900000F5D87000EB0110406800F47F40000AAD
:1015A0009061206800F5D87000EB01104068000CD5
:1015B0005061206800F5D87000EB01108068187049
:1015C000206800F5D87000EB0110806800F47F40BF
:1015D000000A5870206800F5D87000EB0110806890
:1015E00000F47F0000E03CE0000C9870206800F5FB
:1015F000D87000EB01108068000ED870206800F5EC
:10160000D87000EB0110C0681871206800F5D87020
:1016100000EB0110C06800F47F40000A5871206898
:1016200000F5D87000EB0110C06800F47F00000CDA
:101630009871206800F5D87000EB0110C068000EAA
:10164000D87131B92068C06840F020002668F06089
:1016500005E02068006940F0200026683061002025
:101660004EE7606A40F480206062012048E72DE97F
:10167000F05F04460025206846692068D0F8049091
:10168000206887682068D0F80CA02068D0F810B0D7
:101690002068D0F8188006F00100002855D007F027
:1016A0000100C0B101202168886007F0020018B174
:1016B000204600F012FC0EE007F0040010B145F4E3
:1016C000006508E007F0080010B145F4805502E01D
:1016D000204600F001FC07F48070C8B14FF4807020
:1016E0002168886007F4007018B1204600F0F7FB0D
:1016F0000EE007F4806010B145F4005508E007F4EF
:10170000006010B145F4804502E0204600F0E6FBA1
:1017100007F48030C8B14FF480302168886007F446
:10172000003018B1204600F0DCFB0EE007F480200A
:1017300010B145F4004508E007F4002010B145F46D
:10174000803502E0204600F0CBFB06F0080038B1FF
:101750000AF0100020B145F4007510202168C8601F
:1017600006F0040040B10AF0080028B10820216802
:10177000C860204600F00CFA06F0020038B120687C
:10178000C06800F0030010B1204600F003FA06F034
:10179000400038B10BF0100020B145F480651020F6
:1017A0002168086106F0200040B10BF0080028B164
:1017B000082021680861204600F05CFB06F010005C
:1017C00038B12068006900F0030010B1204600F035
:1017D00052FB06F4003040B109F0100028B110208F
:1017E00021684860204600F047FB06F4803040B195
:1017F00009F0080028B1082021684860204600F060
:1018000071FB06F4004088B309F0040078B306F4D5
:10181000807020B108F0010008B145F0010506F420
:10182000007020B108F0020008B145F0020506F48E
:10183000806020B108F0040008B145F0040506F40A
:101840000060A0B108F0700088B108F07000402876
:1018500017D006DC10280BD020280CD0302819D146
:101860000CE0502810D0602814D110E01DE019E0E1
:1018700045F008050FE045F010050CE045F02005A7
:1018800009E045F0400506E045F0800503E045F439
:10189000807500E000BF00BF2068806920F0700004
:1018A000216888610420216848602DB1606A28435E
:1018B00060622046FFF710FEBDE8F09F70B5044659
:1018C0000CB9012070BD94F8200010B9204600F03A
:1018D000AFF82068006840F001002168086000F05F
:1018E0004DFE05460DE000F049FE401B0A2808D9D0
:1018F000606A40F400306062052084F82000012016
:10190000E0E72068406800F001000028EBD0206884
:10191000006820F002002168086000F02FFE0546F4
:101920000DE000F02BFE401B0A2808D9606A40F445
:1019300000306062052084F820000120C2E72068A2
:10194000406800F002000028EBD1207E012806D17B
:101950002068006840F080002168086005E0206889
:10196000006820F0800021680860607E012806D1B0
:101970002068006840F040002168086005E02068A9
:10198000006820F0400021680860A07E012806D190
:101990002068006840F020002168086005E02068A9
:1019A000006820F0200021680860E07E012806D150
:1019B0002068006820F010002168086005E02068B9
:1019C000006840F0100021680860207F012806D1DF
:1019D0002068006840F008002168086005E0206881
:1019E000006820F0080021680860607F012806D1A7
:1019F0002068006840F004002168086005E0206865
:101A0000006820F0040021680860D4E9020108435E
:101A100021690843616908436168491E08432168D8
:101A2000C86100206062012084F82000002049E79E
:101A300010B586B00446142101A8FEF76DFC4F498D
:101A40002068884242D14E480068401C4C490860DA
:101A50000846006801280FD100BF002000904948C7
:101A6000006840F00070474908600846006800F0D0
:101A70000070009000BF00BF00BF002000904148F0
:101A80001038006840F002003E49103908600846EE
:101A9000006800F00200009000BF00BF4FF44070EB
:101AA000019002200290012003900320049009205D
:101AB000059001A9344800F061FC002205211420A2
:101AC00000F01AFE142000F003FE54E02F492068B5
:101AD000884250D100BF002000902A48006840F0A2
:101AE0008060284908600846006800F08060009027
:101AF00000BF00BF22480068401C2149086008461A
:101B0000006801280FD100BF002000901D48006828
:101B100040F000701B4908600846006800F0007043
:101B2000009000BF00BF00BF002000901548103893
:101B3000006840F002001349103908600846006848
:101B400000F00200009000BF00BF60200190022062
:101B5000029001200390032004900920059001A920
:101B6000094800F00BFC00220521402000F0C4FDD4
:101B7000402000F0ADFD06B010BD00000064004044
:101B80001800002040380240000402400068004075
:101B90007047000010B588B00446A4492068884208
:101BA00078D1A34B01AA00212046FFF796FC0198AB
:101BB000202816D0A0F2012050B3012847D0A0F26F
:101BC0000F10002863D19A4840789949097840EA73
:101BD00001209849088098480088401C9649088050
:101BE00056E09348407800F0080010B9002093496F
:101BF000C8628F48407800F00800082802D1012010
:101C00008E49C8628C48C08A401C8B49C8823FE01C
:101C10008B480068012807D18948854909684161D6
:101C20000020874908600BE0854881490968C16048
:101C300090ED030AD0ED050A30EE600A80ED040A4B
:101C40007F487B4949688160FFF7B2F820E07D4812
:101C50000068012807D17B48754909684161002067
:101C6000784908600BE0774871490968C16090EDD8
:101C7000030AD0ED050A30EE600A80ED040A7148CF
:101C80006B4949688160FFF793F801E002E000BF0B
:101C900000BF00BF6C49206888427CD16B4B01AA11
:101CA00000212046FFF719FC0198A0F2012020B185
:101CB000012842D002286FD17AE064496448FFF7D6
:101CC00093FA00EE100AB8EEC00A614880ED080AE7
:101CD0005E4901A8FFF79CFA5D4880ED090A90ED86
:101CE000080ABCEEC00A10EE101AFEF7ECFD5848C8
:101CF00090ED030AF8EEC00A9FED561A80EE810AB5
:101D0000DFED550A20EE200ADFED540A80EE201A9E
:101D100080ED0A1A90ED090AF3EE030A80EE201A0C
:101D200080ED0B1A90ED0A0A4D4880ED000A4248FA
:101D3000C088401C4049C88073E044494948FFF7C7
:101D400053FA00EE100AB8EEC00A464880ED080AC1
:101D50003E4901A8FFF75CFA424880ED090A90ED80
:101D6000080ABCEEC00A10EE101AFEF7ACFD3D48A2
:101D700090ED030AB8EEC00ADFED360A80EE201AB5
:101D80009FED350A21EE000A80ED0A0A90ED090A5E
:101D900080ED0B0A01E046E042E090ED0B0A32488C
:101DA00080ED000A24484089401C2349488138E0DE
:101DB00026492E48FFF718FA00EE100AB8EEC00ABE
:101DC0002A4880ED080A214901A8FFF721FA27488F
:101DD00080ED090A90ED080ABCEEC00A10EE101A58
:101DE000FEF771FD214890ED030AB8EEC00ADFED61
:101DF000190A80EE201A9FED180A21EE000A80EDE4
:101E00000A0A90ED090A80ED0B0A90ED0B0A1848BA
:101E100080ED000A08480089401C0749088100E05D
:101E200000BF00BF00BF08B010BD0000006400404C
:101E300099000020C6000020E24600202C47002028
:101E4000C4010020A401002000680040A10000207F
:101E500064010020000000460000B443000010426E
:101E6000D000002024010020D8000020E400002041
:101E7000D400002070477047704770B5044694F84E
:101E80002000012822D1022084F820002068006868
:101E900020F001002168086000F070FB05460DE0AD
:101EA00000F06CFB401B0A2808D9606A40F400303F
:101EB0006062052084F82000012070BD2068406821
:101EC00000F001000028EBD16062F6E7606A40F4A0
:101ED000002060620120F0E770477047704770474C
:101EE00070477047704770B50446A56D00F046FB1B
:101EF000064694F83500022808D08020606500BFAF
:101F0000002084F8340000BF012070BD2068006804
:101F100020F01600216808602068406920F08000E9
:101F200021684861206C08B9A06C28B1206800685D
:101F300020F00800216808602068006820F0010097
:101F40002168086010E000F019FB801B05280BD900
:101F500020206065032084F8350000BF002084F84D
:101F6000340000BF0320D0E72068006800F00100C3
:101F70000028E8D194F85C103F208840A860012038
:101F800084F8350000BF002084F8340000BF00BF93
:101F9000BBE7014691F83500022803D08020486550
:101FA00001207047052081F835000868006820F09E
:101FB00001000A6810600020F3E70000F8B504464D
:101FC000002000908C4800684FF41651B0FBF1F7E8
:101FD000A56D2E6894F85C1008208840304098B1B8
:101FE0002068006800F0040070B12068006820F0EC
:101FF00004002168086094F85C1008208840A860FC
:10200000606D40F00100606594F85C10012088402C
:10201000304068B12068406900F0800040B194F819
:102020005C1001208840A860606D40F0020060658F
:1020300094F85C1004208840304068B12068006843
:1020400000F0020040B194F85C1004208840A860C1
:10205000606D40F00400606594F85C1010208840CA
:10206000304078B32068006800F0080050B394F85E
:102070005C1010208840A8602068006800F4802070
:1020800080B12068006800F4002028B9206CC8B135
:102090002046216C884715E0A06C98B12046A16CC1
:1020A00088470FE02068006800F4807028B9206835
:1020B000006820F0080021680860206C10B12046FC
:1020C000216C884794F85C1020208840304000281C
:1020D00065D02068006800F0100000285FD094F8F8
:1020E0005C1020208840A86094F83500052828D18D
:1020F0002068006820F016002168086020684069A8
:1021000020F0800021684861206C08B9A06C28B1DB
:102110002068006820F008002168086094F85C10CE
:102120003F208840A860012084F8350000BF0020CF
:1021300084F8340000BF206D10B12046216D88471F
:10214000F8BD2068006800F4802080B12068006835
:1021500000F4002028B9606C10B12046616C8847FB
:102160001DE0E06BD8B12046E16B884717E020689E
:10217000006800F4807068B92068006820F01000E2
:1021800021680860012084F8350000BF002084F831
:10219000340000BFE06B10B12046E16B8847606DF2
:1021A00038B3606D00F00100F0B1052084F835000F
:1021B0002068006820F001002168086000BF0098D6
:1021C000401C0090B84200D905E02068006800F08B
:1021D00001000028F3D100BF012084F8350000BFC2
:1021E000002084F8340000BFE06C10B12046E16CA0
:1021F000884700BFA4E700002C0000202DE9F04133
:102200000446002500F0BAF9074614B90120BDE8DC
:10221000F081606A00B100BF022084F8350000BF81
:10222000002084F8340000BF2068006820F001001E
:10223000216808600AE000F0A1F9C01B052805D953
:1022400020206065032084F83500E0E720680068FE
:1022500000F001000028EED1206805682148054003
:10226000D4E901010843E168084321690843616931
:102270000843A1690843E1690843216A084305430B
:10228000606A042803D1D4E90B01084305432068A0
:1022900005602068456925F00705606A0543606AA6
:1022A00004280DD1A06A0543E06A48B12046FEF734
:1022B0002BFF28B140206065012084F83500A6E797
:1022C000206845612046FEF705FF064694F85C103D
:1022D0003F208840B06000206065012084F8350010
:1022E000002094E73F8010F02DE9F04704460D46AA
:1022F00016461F464FF00008D4F8589000BF94F8D7
:102300003400012802D10220BDE8F087012084F8C2
:10231000340000BF94F83500012825D1022084F84C
:102320003500002060653B46324629462046FEF7D0
:1023300040FF94F85C103F208840C9F808002068EE
:10234000006840F0160021680860206C28B1206801
:10235000006840F00800216808602068006840F0CC
:1023600001002168086006E000BF002084F8340006
:1023700000BF4FF002084046C6E70000F8B502462D
:102380000B460025002400200021D6E0012606FA95
:1023900001F51E6806EA0504AC4274D11E7906F008
:1023A0000306012E04D01E7906F00306022E13D177
:1023B00090684F000326BE40B0434F00DE68BE4029
:1023C00030439060506801268E40B0431E79C6F3BA
:1023D00000168E40304350601E7906F00306032E2F
:1023E00009D0D0684F000326BE40B0434F009E681E
:1023F000BE403043D0601E7906F00306022E13D192
:10240000CF0802F1200656F827004E07F70E0F26D8
:10241000BE40B0434F07FF0E1E69BE403043CF0899
:1024200002F1200646F8270010684F000326BE4040
:10243000B0431E7906F003064F00BE4030431060E3
:102440005E6806F44036002E76D000BF0026009667
:102450003C4E366846F480463A4F3E603E4636680B
:1024600006F48046009600BF00BF374E8F0856F82E
:1024700027008E07370F0F26BE40B043334EB242BF
:1024800002D1002624E057E0314EB24201D10126AC
:102490001EE0304EB24201D1022619E02E4EB24269
:1024A00001D1032614E02D4EB24201D104260FE0E3
:1024B0002B4EB24201D105260AE02A4EB24201D18A
:1024C000062605E0284EB24201D1072600E0082684
:1024D0008F073F0FBE4030431B4E8F0846F8270042
:1024E000224E3068A0435E6806F4801606B1204391
:1024F0001E4E3060361D3068A0435E6806F400163C
:1025000006B12043194E361D3060184E361F306814
:10251000A0435E6806F4003606B12043134E361F12
:102520003060361F3068A0435E6806F4803606B11E
:1025300020430E4E083E3060491C1029FFF426AFA0
:10254000F8BD000044380240083801400000024055
:102550000004024000080240000C0240001002404B
:102560000014024000180240001C0240083C0140D8
:102570000AB1816101E00B04836170470148006882
:1025800070470000200000200348006803490978D4
:1025900008440149086070472000002028000020FE
:1025A00010B50D48006840F400700B4908600846FB
:1025B000006840F4806008600846006840F480705D
:1025C0000860032000F0D6F80F2000F007F800F0B4
:1025D00055F8002010BD0000003C0240F0B587B067
:1025E00004460026002700BF002000901E48006817
:1025F00040F001001C4908600846006800F0010036
:10260000009000BF00BF01A902A800F089F900F006
:10261000BFF946001548B6FBF0F0471E14481549AF
:10262000086040F2E7311348C16047600021016152
:102630008160816100F0BEFC054695B90D4800F04F
:102640000FFD05466DB9192000F042F8102C07D295
:1026500000222146192000F04FF80748046000E0EE
:102660000125284607B0F0BD4438024040420F0023
:10267000000001401C0900202400002008B500BF14
:10268000002000901148006840F480400F49086025
:102690000846006800F48040009000BF00BF00BF03
:1026A00000200090081F006840F08050091F08605B
:1026B0000846006800F08050009000BF00BF002274
:1026C0000F21901E00F018F808BD000044380240A9
:1026D0000146084600280DDB00BF00BF00F01F03C5
:1026E00001229A4043099B0003F1E023C3F8002133
:1026F00000BF00BF00BF70472DE9F05F80460D4668
:102700001646002702F076F9074639462A46334630
:1027100001F00700C0F1070ABAF1040F02D94FF027
:10272000040A01E0C0F1070AD14600F1040ABAF137
:10273000070F02D24FF0000A01E0A0F1030AD446CD
:102740004FF0010A0AFA09FAAAF1010A0AEA020A92
:102750000AFA0CFA4FF0010B0BFA0CFBABF1010B70
:102760000BEA030B4AEA0B042146404602F04AF901
:10277000BDE8F09F00BF00F00702064B19684FF656
:10278000FF031940044B0B4343EA0221014B19603C
:1027900000BF70470CED00E00000FA0570B504467C
:1027A0000D460CB9012070BD5848006800F00700C4
:1027B000A84209D255490D700846006800F007008C
:1027C000A84201D00120EEE7207800F002000228A4
:1027D0001DD1207800F00400042805D14C48006881
:1027E00040F4E0504A490860207800F008000828CA
:1027F00005D14748006840F46040454908604448B6
:10280000006820F0F000A168084341490860207882
:1028100000F00100A8B36068012807D13C480838DF
:102820000068C0F34040B8B90120BCE760680228E6
:1028300002D06068032807D1354808380068C0F323
:10284000406048B90120AEE7314808380068C0F35D
:10285000400008B90120A6E72D48006820F00300D9
:10286000616808432A490860FFF788FE064609E0C8
:10287000FFF784FE801B41F28831884202D9032091
:1028800091E707E02248006800F00C006168B0EBB7
:10289000810FEDD11D48006800F00700A84209D95A
:1028A0001A490D700846006800F00700A84201D0E0
:1028B000012078E7207800F00400042807D11448AC
:1028C000006820F4E050E16808431149086020786E
:1028D00000F00800082808D10D48006820F4604086
:1028E000216940EAC1000A49086000F061F808491E
:1028F0000968C1F30311074A515CC84006490860E2
:1029000006480068FFF76AFE00204CE7003C0240E2
:1029100008380240405B00082C0000202400002002
:102920000F2202600D4A126802F0030242600B4A55
:10293000126802F0F0028260084A126802F4E05263
:10294000C260064A126802F46042D2080261044A78
:10295000126802F007020A6070470000083802405F
:10296000003C024001480068704700002C00002035
:1029700000B5FFF7F7FF04490968C1F38221034A54
:10298000515CC84000BD000008380240505B0008A0
:1029900000B5FFF7E7FF04490968C1F34231034A74
:1029A000515CC84000BD000008380240505B000880
:1029B0002DE9F047002400250026A146254800689F
:1029C00000F00C0020B1042805D008283AD105E019
:1029D000DFF8849039E0DFF8849036E01D48001F6E
:1029E000006800F03F041B48001F006800F48000EE
:1029F00078B11A481749091F0968C1F38811A0FB6B
:102A000001700146224600233846FDF73BFC05468F
:102A10000EE011480F49091F0968C1F38811A0FB96
:102A200001700146224600233846FDF72BFC05467F
:102A30000848001F0068C0F30140401C4600B5FB79
:102A4000F6F902E0DFF8109000BF00BF4846BDE88D
:102A5000F0870000083802400024F40000127A00D9
:102A6000F8B504460CB90120F8BD207800F001004B
:102A7000002874D0F948006800F00C0004280DD03C
:102A8000F648006800F00C00082813D1F348001F36
:102A9000006800F48000B0F5800F0BD1EF480838D3
:102AA0000068C0F34040002859D06068002856D123
:102AB0000120D9E700BF6068B0F5803F08D1E74842
:102AC0000838006840F48030E449083908601EE0A6
:102AD0006068B0F5A02F0DD1E0480838006840F4D8
:102AE0008020DE49083908600846006840F48030DC
:102AF00008600CE0D9480838006820F48030D749D5
:102B0000083908600846006820F48020086000BF8B
:102B1000606890B1FFF732FD054606E0FFF72EFD35
:102B2000401B642801D903209EE7CC480838006880
:102B3000C0F340400028F1D011E0FFF71FFD05462B
:102B400006E0FFF71BFD401B642801D903208BE73B
:102B5000C24808380068C0F340400028F1D120780E
:102B600000F0020002285FD1BC48006800F00C00B1
:102B700058B1BA48006800F00C0008281CD1B748CA
:102B8000001F006800F48000B0B9B448083800683D
:102B9000C0F3400020B1E068012801D0012063E7C4
:102BA000AE480838006820F0F800216940EAC1000A
:102BB000AA490839086037E0E06800B30120A84955
:102BC0000860FFF7DBFC054606E0FFF7D7FC401B7B
:102BD000022801D9032047E7A04808380068C0F35D
:102BE00040000028F1D09D480838006820F0F80027
:102BF000216940EAC10099490839086014E00020C1
:102C000097490860FFF7BAFC054606E0FFF7B6FCF7
:102C1000401B022801D9032026E7904808380068A5
:102C2000C0F340000028F1D1207800F00800082807
:102C30002CD16069A8B101208A490860FFF79EFC89
:102C4000054606E0FFF79AFC401B022801D9032045
:102C50000AE782486C300068C0F340000028F1D0D9
:102C600014E000207F490860FFF788FC054606E075
:102C7000FFF784FC401B022801D90320F4E67748C3
:102C80006C300068C0F340000028F1D1207800F0DB
:102C90000400042870D1002770483830006800F024
:102CA000805090B900BF002000906C483830006818
:102CB00040F080506949383108600846006800F0EB
:102CC0008050009000BF00BF01276748006800F4F3
:102CD0008070B0B96448006840F480706249086050
:102CE000FFF74CFC054606E0FFF748FC401B0228B6
:102CF00001D90320B8E65C48006800F48070002821
:102D0000F2D000BFA068012808D15448683000689C
:102D100040F001005149683108601DE0A0680528B5
:102D20000DD14E486830006840F004004B496831CE
:102D300008600846006840F0010008600CE0474861
:102D40006830006820F00100444968310860084696
:102D5000006820F00400086000BFA068A8B1FFF779
:102D60000DFC054609E0FFF709FC401B41F28831E4
:102D7000884202D9032077E626E0384868300068A8
:102D8000C0F340000028EED013E0FFF7F7FB054644
:102D900008E0FFF7F3FB401B41F28831884201D97C
:102DA000032061E62D4868300068C0F34000002829
:102DB000EFD1012F07D129483830006820F080502A
:102DC00026493831086000BFA069002845D0234853
:102DD000006800F00C0008285DD0A069022845D1E9
:102DE00000201F490866FFF7C9FB054606E0FFF70C
:102DF000C5FB401B022801D9032035E617480838D7
:102E00000068C0F340600028F1D1D4E9070108430D
:102E1000616A40EA81110122A06AC2EB500041EAD6
:102E200000412C20005D41EA00600C49091F086048
:102E300001200B490866FFF7A1FB054606E0FFF7F6
:102E40009DFB401B022801D903200DE603480838EA
:102E50000068C0F340600028F1D049E00838024023
:102E600000004742800E4742007000400020214988
:102E70000866FFF783FB054606E0FFF77FFB401B74
:102E8000022801D90320EFE51B480068C0F3406029
:102E90000028F2D12CE0A069012800D1E4E5164811
:102EA000001D0668A069012820D006F48001E069B1
:102EB00081421BD106F03F01206A814216D147F6BC
:102EC000C0703040616AB0EB811F0FD106F4403111
:102ED0000122A06AC2EB5000B1EB004F06D106F010
:102EE00070612C20005DB1EB006F01D00120BBE5CB
:102EF0000020B9E5000047420038024070477047A3
:102F000030B502460B4600BF92F83C00012801D1C3
:102F1000022030BD012082F83C0000BF022082F870
:102F20003D00106844681068816824F070041868D7
:102F3000044310684460184D1068A8421BD0106804
:102F4000B0F1804F17D0154D1068A84213D0144D22
:102F50001068A8420FD0134D1068A8420BD0124D34
:102F60001068A84207D0114D1068A84203D0104D38
:102F70001068A84205D121F080015868014310680B
:102F80008160012082F83D0000BF002082F83C00F3
:102F900000BF00BFBDE7000000000140000400408A
:102FA00000080040000C00400004014000400140C7
:102FB0000018004010B504460CB9012010BD94F86B
:102FC0003D0028B9002084F83C00204600F026F897
:102FD000022084F83D00211D206801F0FBF801204B
:102FE00084F8460000BF84F83E0001213F200155CF
:102FF000402001554120015500BF00BF012084F849
:10300000420043200155442001554520015500BF91
:10301000012084F83D000020D0E7000038B50446C8
:103020002068B0F1804F17D100BF002000900B48FE
:10303000006840F00100094908600846006800F097
:103040000100009000BF00BF002205211C20FFF7F7
:1030500053FB1C20FFF73CFB38BD0000403802400A
:10306000014691F83D00012801D00120704702205F
:1030700081F83D000868C06840F001000B68D86026
:103080001A4B086898421BD00868B0F1804F17D0DF
:10309000174B0868984213D0164B086898420FD017
:1030A000154B086898420BD0144B0868984207D01B
:1030B000134B0868984203D0124B086898420CD111
:1030C0000868806800F00702062A0CD008680068CB
:1030D00040F001000B68186005E00868006840F0E7
:1030E00001000B6818600020C0E7000000000140EC
:1030F0000004004000080040000C004000040140B3
:1031000000400140001800402DE9F04104460D4602
:10311000002700BF94F83C00012802D10220BDE83E
:10312000F081012084F83C0000BF022084F83D00BB
:103130002068866826F0770626F47F462068866039
:103140002868502833D00CDC202850D004DC00281C
:103150004BD0102851D149E0302849D040284CD1DB
:1031600039E060282DD0702807D0B0F5805F03D0FB
:10317000B0F5005F41D10DE041E0D5E902136A6886
:10318000206801F097F82068866846F07706206886
:10319000866034E0D5E902136A68206801F08AF895
:1031A0002068806840F480402168886027E0EA68F1
:1031B0006968206801F092F85021206801F085F8D4
:1031C0001DE0EA686968206801F09BF860212068CA
:1031D00001F07BF813E0EA686968206801F07EF886
:1031E0004021206801F071F809E000BF00BF00BF76
:1031F0002968206801F069F801E0012700BF00BFDD
:10320000012084F83D0000BF002084F83C0000BF8E
:10321000384684E7704770B504462068C568206862
:10322000066906F00200022819D105F00200022802
:1032300015D1401F2168086101202077206880692E
:1032400000F0030018B12046FFF7E4FF05E0204638
:1032500000F097F8204600F095F80020207706F05F
:103260000400042819D105F00400042815D1C04336
:1032700021680861022020772068806900F440708E
:1032800018B12046FFF7C6FF05E0204600F079F8A8
:10329000204600F077F80020207706F00800082884
:1032A00019D105F00800082815D1C043216808612C
:1032B000042020772068C06900F0030018B1204680
:1032C000FFF7A8FF05E0204600F05BF8204600F07D
:1032D00059F80020207706F01000102819D105F0C9
:1032E0001000102815D1C0432168086108202077FC
:1032F0002068C06900F4407018B12046FFF78AFFCB
:1033000005E0204600F03DF8204600F03BF80020A4
:10331000207706F0010048B105F0010030B16FF0F0
:10332000010021680861204600F02EF806F08000B8
:10333000802809D105F08000802805D1C04321688C
:1033400008612046FFF7DAFD06F04000402809D169
:1033500005F04000402805D1C0432168086120469F
:1033600000F01EF806F02000202809D105F020000A
:10337000202805D1C043216808612046FFF7BFFD22
:1033800070BD70477047000010B5044603492068BF
:10339000884201D1FFF7F8F810BD0000000001409D
:1033A0007047704708B5014691F8410021280ED1B9
:1033B00000BF00BF0A68143252E8002F42F08000BC
:1033C0000A68143242E80003002BF3D100BF91F8E1
:1033D0004200222839D100BF002000900868006810
:1033E000009008684068009000BF00BF086970B195
:1033F00000BF00BF0A680C3252E8002F42F4807010
:103400000A680C3242E80003002BF3D100BF00BF72
:1034100000BF0A68143252E8002F42F001000A6827
:10342000143242E80003002BF3D100BF00BF00BFFD
:103430000A68143252E8002F42F040000A68143241
:1034400042E80003002BF3D100BF002008BD70B597
:103450000446002520684069C0F3C01594F8410077
:10346000212817D1B5B100BF00BF2168143151E840
:10347000001F21F080002168143141E80002002A79
:10348000F3D100BFA06B10B1A06BFEF72CFD20465E
:1034900001F03BF820684069C0F3801594F84200C1
:1034A000222817D1B5B100BF00BF2168143151E8FF
:1034B000001F21F040002168143141E80002002A79
:1034C000F3D100BFE06B10B1E06BFEF70CFD2046BE
:1034D00000F0D5FF002070BD704700002DE9F84FC7
:1034E0000446206805682068C668206847694FF070
:1034F0000009CA4605F00F09B9F1000F0AD105F01D
:10350000200038B106F0200020B1204601F010F86C
:10351000BDE8F88FB9F1000F7CD007F0010018B9B1
:1035200006F49070002875D005F0010030B106F463
:10353000807018B1606C40F00100606405F0040018
:1035400030B107F0010018B1606C40F00200606417
:1035500005F0020030B107F0010018B1606C40F0D6
:103560000400606405F0080048B106F0200010B9BE
:1035700007F0010018B1606C40F008006064606CF6
:10358000002846D005F0200028B106F0200010B138
:10359000204600F0CDFF20684069C0F3801A606CBF
:1035A00000F0080010B9BAF1000F2DD0204600F04D
:1035B00066FF2068406900F04000402820D100BF2D
:1035C00000BF2168143151E8001F21F0400021683C
:1035D000143141E80002002AF3D100BFE06B50B182
:1035E0007F48E16B0865E06BFEF7D3FC88B1E06BC8
:1035F000016D88470DE02046FFF76EFF09E009E006
:103600002046FFF769FF04E02046FFF765FF002032
:1036100060647DE7206B012878D105F01000002858
:1036200074D006F010000028FAD000BF00200090EF
:1036300020680068009020684068009000BF00BFCC
:103640002068406900F04000402870D1E06B0068BD
:1036500040681FFA80F8B8F1000F58D0A08D40459F
:1036600055DDA4F82E80E06BC069B0F5807F43D0B3
:1036700000BF00BF21680C3151E8001F21F48070A9
:1036800021680C3141E80002002AF3D100BF00BFDD
:1036900000BF2168143151E8001F21F001002168AA
:1036A000143141E80002002AF3D100BF00BF00BF7F
:1036B0002168143151E8001F21F0400021681431C5
:1036C00041E80002002AF3D100BF202084F8420024
:1036D0000020206300BF00BF21680C3151E8001FAB
:1036E00021F0100021680C3141E80002002AF3D1DA
:1036F00000BFE06BFEF7F7FB02206063A08DE28D58
:10370000801A81B22046FFF74CFE0EE052E0A08DF9
:1037100040450AD1E06BC069B0F5807F05D1022039
:103720006063A18D2046FFF73CFEF1E6FFE7A08D28
:10373000E18D401A1FFA80F8E08DD0B3B8F1000F88
:1037400037D000BF00BF21680C3151E8001F21F4C1
:10375000907021680C3141E80002002AF3D100BFCB
:1037600000BF00BF2168143151E8001F21F00100A3
:103770002168143141E80002002AF3D100BF202063
:1037800084F842000020206300BF00BF21680C3194
:1037900051E8001F21F0100021680C3141E80002BF
:1037A000002AF3D100BF0220606341462046FFF7A4
:1037B000F8FDADE605F0800030B106F0800018B1EC
:1037C000204601F0B5F8A3E605F0400030B106F060
:1037D000400018B1204600F088FE99E600BF97E649
:1037E0004543000810B504460CB9012010BDA0697E
:1037F00000B100E000BF94F8410028B9002084F82F
:103800004000204600F02AF8242084F84100206877
:10381000C06820F400502168C860204600F006FF10
:103820002068006920F490402168086120684069A0
:1038300020F02A00216848612068C06840F40050E8
:103840002168C86000206064202084F8410084F86A
:1038500042000020606300BFC8E7000010B586B0DA
:103860000446142101A8FCF757FD3D492068884211
:1038700074D100BF002000903A48006840F010006A
:10388000384908600846006800F01000009000BF4A
:1038900000BF00BF0020009032481438006840F09C
:1038A00001003049143908600846006800F0010042
:1038B000009000BF00BF4FF4C06001900220029052
:1038C00001200390032004900720059001A92648B9
:1038D000FEF754FD2548264908604FF00060486017
:1038E000002123488160C1604FF4806101610021A3
:1038F00041618161C16101624162FEF77FFC08B1F3
:10390000FDF76EFC00BF1A48E063846300BF1748F0
:103910007830184908604FF0006048604021154831
:1039200081600021C1604FF480610161002141612B
:103930008161C16101624162FEF760FC08B1FDF77F
:103940004FFC00BF0B48A063846300BF0022052129
:103950002520FEF7D1FE2520FEF7BAFE06B010BDE9
:103960000010014044380240000002404064024020
:103970005C080020BC08002070B504460D461646C1
:1039800094F8420020280BD105B10EB9012070BD7A
:103990000020206332462946204600F05DFFF6E70E
:1039A0000220F4E770477047704700BFFEE770479A
:1039B00000BF00BF704770470FB400B58BB00C98C4
:1039C00028B101204849087000204849087046483D
:1039D000007808B1FFF7ECFF0E9828B101204449A8
:1039E00008700020434908704148007808B1FCF78E
:1039F00097FF0F9828B101203F49087000203F49E8
:103A000008703D48007808B1FFF7D5FF159828B138
:103A100001203B49087000203A4908703848007876
:103A200008B1FDF7E0FB109828B101203649087075
:103A30000020364908703448007840B1282210A987
:103A40006846FCF750FC0CA80FC8FCF767FF1198FC
:103A500028B101202E49087000202E4908702C48FA
:103A6000007808B100F011FB169828B101202A490E
:103A700008700020294908702748007808B100F034
:103A80000AFB129828B10120254908700020254919
:103A900008702348007808B1FFF789FF0020224909
:103AA000087148718871C871087248728872C8724A
:103AB00008730D48007808710D48007888710E4829
:103AC0000078C8710E48007808720F480078487274
:103AD0000F480078887212480078C8720E48007843
:103AE00008730BB05DF814FBEC0400207404002094
:103AF000E804002076040020E90400207704002078
:103B0000EE0400207B040020EA040020780400205A
:103B1000EB04002079040020EF0400207C04002046
:103B2000ED0400207A040020D04600208AB000BFB7
:103B3000282209496846FCF7D6FB074810380FC809
:103B4000FFF73AFF0548C089401C0449C88101209D
:103B500001F060FCECE700003C470020E24600205A
:103B600010B50E480E4908600320486000210C483B
:103B70008160C1604FF4002101614FF44011416147
:103B80000021017641768176C17601774177FDF794
:103B900095FE08B1FDF724FB10BD00000064004055
:103BA0007C07002010B50E480E49086003204860CD
:103BB00000210C488160C1604FF4002101614FF485
:103BC000401141610021017641768176C17601770D
:103BD0004177FDF773FE08B1FDF702FB10BD000051
:103BE00000680040A407002008B500BF0020009036
:103BF0000E48006840F480000C49086008460068E0
:103C000000F48000009000BF00BF002205213A2090
:103C1000FEF772FD3A20FEF75BFD002205214620EB
:103C2000FEF76AFD4620FEF753FD08BD303802401E
:103C300000B5ABB01C22244924A8FCF754FB00219A
:103C400024A800F09BFF214908601C221E491C315A
:103C50001DA8FCF748FB00211DA800F08FFF1C49A0
:103C600008601C221849383116A8FCF73CFB0021DB
:103C700016A800F083FF174908601C22124954312E
:103C80000FA8FCF730FB00210FA800F077FF1249C6
:103C900008601C220C49703108A8FCF724FB0021A5
:103CA00008A800F06BFF0D4908601C2206498C3102
:103CB00001A8FCF718FB002101A800F05FFF0849EC
:103CC00008602BB000BD0000905A000800000020E2
:103CD00004000020080000200C000020100000203C
:103CE0001400002000B587B0142102A8FCF714FBD3
:103CF00000BF002001902748006840F0800025495F
:103D000008600846006800F08000019000BF00BF16
:103D100000BF002001900846006840F004000860E1
:103D20000846006800F00400019000BF00BF00BF1B
:103D3000002001900846006840F001000860084635
:103D4000006800F00100019000BF00BF00BF00202C
:103D500001900846006840F00200086008460068CC
:103D600000F00200019000BF00BF01224FF4886103
:103D70000948FEF7FDFB4FF4886002900120039094
:103D800004900320059002A90348FEF7F7FA07B054
:103D900000BD0000303802400008024000B587B086
:103DA00000200390049005900690019002904FF03F
:103DB00080401449086042F2CF0048600021114859
:103DC000816042F20F71C160002101618161FFF7E2
:103DD000F1F808B1FDF704FA4FF48050039003A9FD
:103DE0000848FFF791F908B1FDF7FAF900200190B2
:103DF000029001A90348FFF783F808B1FDF7F0F935
:103E000007B000BDCC07002010B50B480B49086077
:103E10004FF4E1204860002108488160C1600161E1
:103E20000C21416100218161C161FFF7DBFC08B118
:103E3000FDF7D6F910BD0000001001401408002065
:103E400000BFFEE700BF012001F0E4FAFBE700BF7E
:103E5000FEE7000010B52DED088B044694ED000A36
:103E6000D4ED010A30EE600A84ED050A94ED0C0AE7
:103E700010EE101A0846FCF773FB41EC190B94ED99
:103E8000050A10EE101A0846FCF76AFB41EC1B0B02
:103E9000B0EE4B0AF0EE6B0A00F0C8FDB0EE40AA9F
:103EA000F0EE60AA53EC192B51EC1A0BFCF76CFBEB
:103EB00003D89FED500A84ED050A94ED0A0A10EE2E
:103EC000101A0846FCF74CFB41EC190B94ED050A5F
:103ED00010EE101A0846FCF743FB41EC1B0BB0EE4A
:103EE0004B0AF0EE6B0A00F0A1FDB0EE40AAF0EE36
:103EF00060AA53EC192B51EC1A0BFCF745FB07D2C7
:103F000094ED070AD4ED050A30EE200A84ED070A85
:103F100094ED070AD4ED090AB4EEE00AF1EE10FAC6
:103F200004DD94ED090A84ED070A10E094ED070A18
:103F3000D4ED090AF1EE600AB4EEE00AF1EE10FAEF
:103F400005D294ED090AB1EE400A84ED070A94ED1A
:103F5000020AD4ED050A20EE200A84ED0D0A94ED44
:103F6000030AD4ED070A20EE200A84ED0E0A94ED30
:103F7000050AD4ED060A30EE608A94ED040A20EEBC
:103F8000080A84ED0F0A94ED0D0AD4ED0E0A30EE06
:103F9000200AD4ED0F0A30EE200A84ED080A94EDD1
:103FA000080AD4ED0B0AB4EEE00AF1EE10FA04DDD3
:103FB00094ED0B0A84ED080A10E094ED080AD4EDA4
:103FC0000B0AF1EE600AB4EEE00AF1EE10FA05D247
:103FD00094ED0B0AB1EE400A84ED080A94ED050A4F
:103FE00084ED060A94ED0F0A84ED100ABDEC088BEF
:103FF00010BD00000000000010B5044604F14400AC
:10400000FFF728FF94ED190A84ED000A2046FFF718
:1040100021FF94ED080A84ED220A10BD00BF044878
:10402000808A401C02498882012001F0F3F9F6E7FA
:10403000E246002010B586B00446402001900020E2
:104040008DF80D008DF80C0001208DF80E008DF814
:104050000F4001230DF10F0240210248FCF758FEEA
:1040600006B010BD7C070020B5EEC00AF1EE10FAD4
:1040700001DD01207047B5EEC00AF1EE10FA02D260
:104080004FF0FF30F6E70020F4E7704700BF012053
:1040900001F0C0F9FBE7704710B500BF502080F376
:1040A0001188BFF34F8FBFF36F8F00BF01F0CAFBC2
:1040B00018B14FF080500449086000BF002080F321
:1040C000118800BF10BD000004ED00E000B593B002
:1040D000302107A8FCF720F9142102A8FCF71CF9ED
:1040E00000BF002001902448006840F08050224921
:1040F00008600846006800F08050019000BF00BFD3
:1041000000BF002001901D48006840F480401B491A
:1041100008600846006800F48040019000BF00BFBE
:10412000012007900004089002200D9041050E9197
:1041300004210F91A82110910221119104211291C3
:1041400007A8FEF78DFC08B1FDF74AF80F20029092
:1041500002200390002004904FF4A05005904FF4EB
:1041600080500690052102A8FEF718FB08B1FDF764
:1041700037F813B000BD0000403802400070004026
:104180000348006840F4700001490860704700006F
:1041900088ED00E010B52DED028B0446B0EE408AAC
:1041A00084ED068A2046FCF711FE94ED000ABDEC72
:1041B000028B10BD10B50248FFF72DF810BD0000AE
:1041C0001C09002010B50248FFF725F810BD0000BB
:1041D000CC07002010B502682B4B98420ED0B0F1EE
:1041E000804F0BD0294B984208D0294B984205D0DC
:1041F000284B984202D0284B984203D122F07002FB
:104200004B681A43204B984220D0B0F1804F1DD00C
:104210001E4B98421AD01E4B984217D01D4B984205
:1042200014D01D4B984211D01C4B98420ED01C4B01
:1042300098420BD01B4B984208D01B4B984205D09C
:104240001A4B984202D01A4B984203D122F4407282
:10425000CB681A4322F080034C6943EA04028B685E
:10426000C3620B688362084B984202D00A4B9842A3
:1042700001D10B690363036843F004030360012366
:104280004361026010BD00000000014000040040D6
:1042900000080040000C00400004014000400140C4
:1042A000004401400048014000180040001C00404C
:1042B0000020004030B50C46816821F47F4142EA7D
:1042C000032525432943816030BD0A46816821F0DA
:1042D000700142F0070319438160704730B50B4607
:1042E0001446026A056A25F001050562816921F01C
:1042F000F00141EA041122F00A021A4381610262CC
:1043000030BD30B50B461446026A056A25F010052B
:104310000562816921F4704141EA043122F0A00272
:1043200042EA03128161026230BD000000BF04480E
:10433000408A401C02494882012001F06BF8F6E7F0
:10434000E246002070B50446A56B0020E8852846AB
:10435000FFF7C2F870BD70B506460025B46B206843
:104360004069C0F3C01594F84100212805D125B15A
:104370000020E084204600F0C8F820684069C0F3BF
:10438000801594F84200222805D125B10020E0854F
:10439000204600F074F8606C40F010006064204625
:1043A000FFF79AF870BD70B50546AC6B28680068D9
:1043B00000F48070002842D1E08500BF00BF216872
:1043C0000C3151E8001F21F4807021680C3141E864
:1043D0000002002AF3D100BF00BF00BF21681431E2
:1043E00051E8001F21F001002168143141E800026A
:1043F000002AF3D100BF00BF00BF2168143151E88B
:10440000001F21F040002168143141E80002002A19
:10441000F3D100BF202084F84200206B01280ED188
:1044200000BF00BF21680C3151E8001F21F01000CF
:1044300021680C3141E80002002AF3D100BF0020BE
:104440006063206B012804D1A18D2046FEF7A9FFEF
:1044500002E02046FFF7A6FA70BD70B50546AC6BCA
:1044600001206063206B012805D1A08D4108204602
:10447000FEF797FF02E02046FFF795FA70BD00BFF8
:1044800000BF02680C3252E8002F22F490710268DB
:104490000C3242E80013002BF3D100BF00BF00BF75
:1044A0000268143252E8002F22F00101026814322F
:1044B00042E80013002BF3D100BF016B01290ED19C
:1044C00000BF00BF02680C3252E8002F22F010013A
:1044D00002680C3242E80013002BF3D100BF202108
:1044E00080F8421000210163704710B5044620682F
:1044F000C06820F040002168C860202084F8410096
:104500002046FFF751FA002010BD00BF00BF02682F
:104510000C3252E8002F22F0C00102680C3242E84F
:104520000013002BF3D100BF202180F84110704709
:10453000F8B504460025002694F84200222873D1DD
:10454000A068B0F5805F0BD1206948B9A66A2068E1
:104550004068C0F308003080A06A801CA06214E0AC
:10456000A56AA068B0F5805F03D0A06828B920696B
:1045700018B920684068287004E02068406800F09E
:104580007F002870A06A401CA062E08D401E80B2AF
:10459000E085002846D12068C06820F0200021680E
:1045A000C8602068C06820F480702168C8602068F6
:1045B000406920F0010021684861202084F8420011
:1045C00000206063206B012826D10020206300BFFB
:1045D00000BF21680C3151E8001F21F01000216854
:1045E0000C3141E80002002AF3D100BF20680068C6
:1045F00000F0100010280AD100BF002000902068B1
:104600000068009020684068009000BF00BFA18D46
:104610002046FEF7C6FE02E02046FFF7C3F9002061
:10462000F8BD01E00020FBE70220F9E72DE9F84F93
:1046300004462068006920F44050E168084321687E
:1046400008612169A068084361690843E16908437A
:1046500000902068C06849F20C61884300990843C3
:104660002168C8602068406920F44070A16908434F
:104670002168486176492068884203D075492068DE
:10468000884203D1FEF784F9814602E0FEF770F913
:104690008146E069B0F5004F6CD102206168A0FB53
:1046A000015003461920A9FB007001462A463846EE
:1046B000FBF7E8FD6421B0FBF1F04FEA001A02209D
:1046C0006168A0FB01510B461920A9FB00712A4625
:1046D0003846FBF7D7FD834602206168A0FB0150F6
:1046E00003461920A9FB00712A463846FBF7CAFD8C
:1046F0006421B0FBF1F000EBC00101EB0010ABEB6B
:104700008000322101EBC0006421B0FBF1F000F029
:10471000F8000AEB400A02206168A0FB0150034642
:104720001920A9FB007001462A463846FBF7AAFD6E
:10473000834602206168A0FB015003461920A9FBB3
:1047400000712A463846FBF79DFD6421B0FBF1F06D
:1047500000EBC00101EB0010ABEB8000322101EB5C
:10476000C0006421B0FBF1F000F007005044216864
:1047700088606AE004206168A0FB015003461920AC
:10478000A9FB007001462A463846FBF77BFD8246AE
:1047900004206168A0FB015003461920A9FB0070AA
:1047A00001462A463846FBF76DFD6421B0FBF1F067
:1047B00000EBC00101EB0010AAEB8000322101EBFD
:1047C00000106421B0FBF1F000F0F00A04206168F1
:1047D000A0FB017003461920A9FB00513A46284668
:1047E000FBF750FD6421B0FBF1F00AEB001A042046
:1047F0006168A0FB01510B461920A9FB00712A46F4
:104800003846FBF73FFD834604206168A0FB01505A
:1048100003461920A9FB007001462A463846FBF7DB
:1048200031FD6421B0FBF1F000EBC00101EB0010A1
:10483000ABEB8000322101EB00106421B0FBF1F002
:1048400000F00F00504421688860BDE8F88F000038
:10485000001001400014014077B581B004461546B0
:104860000298A062A58500206064222084F842009E
:104870002C48E16BC8632C48E16B08642B48E16B62
:10488000C8640020E16B086502AE32682368191D18
:104890002B46E06BFDF728FD38B110206064202026
:1048A00084F84200012004B070BD00BF00200090D9
:1048B00020680068009020684068009000BF00BF3A
:1048C000206970B100BF00BF21680C3151E8001FA2
:1048D00041F4807021680C3141E80002002AF3D1D4
:1048E00000BF00BF00BF2168143151E8001F41F034
:1048F00001002168143141E80002002AF3D100BF11
:1049000000BF00BF2168143151E8001F41F0400092
:104910002168143141E80002002AF3D100BF0020D1
:10492000C1E70000A74300085B44000857430008A4
:10493000014691F84100212828D18868B0F5805FB0
:104940000BD1086948B90A6A1088C0F308000B68DF
:104950005860086A801C086205E00B6A581C0862EF
:1049600018780B685860C88C401E80B2C88458B94B
:104970000868C06820F080000B68D8600868C068CC
:1049800040F040000B68D860002070470220FCE730
:1049900008B5144800680068C0F30010E8B100BF13
:1049A000002000900F480068006800900D480068E3
:1049B0004068009000BF00BF0A48FEF748FD094864
:1049C000C06B00684068084908601E220749054816
:1049D000FEF7D2FF0348FEF7E5FC0248FEF77EFD36
:1049E00008BD0000140800201C0000206C460020B8
:1049F00000BFFEE702480068C0F3022070470000D5
:104A00000CED00E010B5002804DB0A07130E054A80
:104A1000135406E00A07140E034A00F00F031B1F8D
:104A2000D45410BD00E400E018ED00E02DED020BC1
:104A3000019820F0004001909DED000B02B07047FE
:104A400000B52DED048BB0EE409AF0EE609A83B085
:104A500051EC190BFBF7A9FE41EC180B18EE100AEC
:104A600018EE901A8DED008B002818BF0120084326
:104A700020F00040C0F17F6000F1E040C00F14D092
:104A800019EE101A19EE900A8DED009B002918BF3F
:104A90000121084320F00040C0F17F6000F1E040B8
:104AA000C00F04BF012000F017F8B0EE480A03B0B1
:104AB000F0EE680ABDEC048B00BD02E008C8121FCE
:104AC00008C1002AFAD170477047002001E001C1F7
:104AD000121F002AFBD1704701490860704700008F
:104AE0002405002010B50548FCF7BAF80348FDF787
:104AF000C4F902210148FCF7A5FB10BD7C0700208A
:104B000010B50548FCF7D8F80348FDF7B6F90221BF
:104B10000148FCF797FB10BDA4070020FDF740FDFE
:104B2000FFF7D4FAFFF7DEF8FFF75EF8FFF718F8A3
:104B3000FFF738F8FFF768F9FFF730F900F04AFBA4
:104B4000FFF776F800F015F800BFFEE701460020F9
:104B5000842901D0CA1C1044704770B5044625460C
:104B60000DB1294600E00121084600F053FC002069
:104B700070BD10B500F07CFC002010BD7FB5044670
:104B80000D46606998B1A06988B1B4F90800FFF7D3
:104B9000DDFF0646D4E90510CDE9006102902B4601
:104BA0002269D4E9001000F0EFFD039013E0B4F99E
:104BB0000800FFF7CBFF064603A8CDE90060238A73
:104BC0009AB22B46D4E9001000F0ACFD012802D0C7
:104BD000002004B070BD0398FBE700002DE9F04110
:104BE00005460E461C4807681C480068001D00F07A
:104BF0000DFB50B91948006890F82C10012088402E
:104C000017490968814316480160681C38B936B1F4
:104C100012480168091D134800F042FB1AE07C1994
:104C20000E4800684460BC4207D20C480168091D68
:104C30000D48006800F01AFB0CE008480168091DE7
:104C40000A48006800F012FB09480068844201D25B
:104C500007480460BDE8F0814400002030000020D7
:104C600048000020400A00203800002034000020C6
:104C70006000002010B5044600F01EFB23480068C9
:104C8000401C224908602248006840B9204804605E
:104C90000846006801280DD100F03EF90AE01D48E1
:104CA000006838B91A480068C06AE16A884201D8C9
:104CB0001748046018480068401C1749086094F8B9
:104CC0002C100120884015490968084313490860E1
:104CD000E16A01EB8101124A02EB8100211D00F023
:104CE000DFFA00F013FB0B48006868B10848006861
:104CF000C06AE16A884207D24FF0805009490860D3
:104D0000BFF34F8FBFF36F8F10BD00004000002036
:104D1000300000204C0000205C00002048000020F3
:104D20006409002004ED00E010B516E000F0C4FABC
:104D30000C48C068C468201D00F068FA0A48006882
:104D4000401E0949086009480068401E074908607C
:104D500000F0DCFA204600F00BF804480068002858
:104D6000E4D110BD2C0A0020400000203C000020AF
:104D700010B5044694F8510030B9206B00F0E4FA05
:104D8000204600F0E1FA1AE094F85100012803D11E
:104D9000204600F0D9FA12E094F85100022801D11F
:104DA000012000E0002050B900BF502080F311889E
:104DB000BFF34F8FBFF36F8F00BF00BFFEE710BD83
:104DC00030B54FF47053174800F007042CB1C01DE4
:104DD00020F00700134C041B1B1B0246124C2260E0
:104DE0000024114D6C60D018083820F007000F4CDB
:104DF000206000240D4D2D686C600C4D2D682C60DA
:104E00001146441A4C60094C24680C60084D4C68EB
:104E10002C60084D4C682C604FF00044064D2C600F
:104E200030BD0000540A00206C00002074000020F7
:104E30007C000020780000208800002000BFFFF7E1
:104E400073FF064800680128F9D94FF080500449E3
:104E50000860BFF34F8FBFF36F8FF0E76409002046
:104E600004ED00E02DE9FF5F81460E469246DDE944
:104E70000E7B109CAAF10100216B01EB800828F049
:104E8000070808F0070008B9012000E0002050B929
:104E900000BF502080F31188BFF34F8FBFF36F8F97
:104EA00000BF00BFFEE786B1002507E0715D04F199
:104EB00034004155705D00B902E06D1C102DF5D332
:104EC00000BF00214320015502E0002084F8340097
:104ED000072F00D30627E76267640020A064201D27
:104EE00000F0C1F904F1180000F0BDF92461C7F128
:104EF0000700A06164620020E06484F85000494625
:104F00004046039A00F050F92060BBF1000F01D039
:104F1000CBF80040BDE8FF9F10B5002407E004EB8C
:104F200084010F4A02EB810000F090F9641C072C09
:104F3000F5D30C4800F08AF90B4800F087F90B48CC
:104F400000F084F90A4800F081F90A4800F07EF97F
:104F500004480949086004480849086010BD000079
:104F600064090020F0090020040A0020180A00202B
:104F70002C0A0020400A00203400002038000020C5
:104F800010B50146164800E0006803688B42FBD369
:104F90000246436813448B4204D143684C6823445F
:104FA000436001460A464B6813440468A34211D18A
:104FB0000C4C03682468A34208D04B6804686468FA
:104FC00023444B6003681B680B6005E0054B1B68BE
:104FD0000B6001E003680B60884200D0016010BDE7
:104FE0006C000020740000200A490968096809B9AA
:104FF000012100E0002121B14FF0FF31064A11608C
:1050000006E004490968C968C868034A4168116034
:105010007047000034000020600000200E48006847
:10502000401C08B9012000E0002050B900BF50200A
:1050300080F31188BFF34F8FBFF36F8F00BF00BFA6
:10504000FEE700BF502080F31188BFF34F8FBFF3FE
:105050006F8F00BF00BFFEE78C0000202DE9F041FC
:1050600004464FF0000800F05BFA4948006808B9B0
:10507000FFF7A6FE474800682040002870D1D4B151
:10508000083404F00700B0B104F00700C0F10800D4
:10509000044404F0070008B9012000E0002050B9E2
:1050A00000BF502080F31188BFF34F8FBFF36F8F85
:1050B00000BF00BFFEE7002C52D037480068844292
:1050C0004ED8364E3046056801E02E462D68686899
:1050D000A04202D228680028F7D12D4800688542F6
:1050E0003ED0306800F10808286830606868001B0E
:1050F000102819D92F1907F0070008B9012000E07E
:10510000002050B900BF502080F31188BFF34F8FAB
:10511000BFF36F8F00BF00BFFEE76868001B7860B9
:105120006C603846FFF72CFF1B4968680968081A4D
:10513000194908600846006819490968884203D27D
:1051400015480068164908601249686809680843EC
:1051500068600020286013480068401C11490860FE
:1051600000F014FC08F0070008B9012000E000205E
:1051700050B900BF502080F31188BFF34F8FBFF3A9
:105180006F8F00BF00BFFEE74046BDE8F081000022
:105190007400002088000020780000206C000020AF
:1051A0007C00002080000020001F4FF0807303600F
:1051B000001F21F001030360001F054B036014383A
:1051C0000260001F6FF00203036020387047000088
:1051D0001D50000810B51E2209490A48FEF7CCFBF5
:1051E00008480068C06840F0100006490968C860B7
:1051F0000548FDF735FFFFF775FCFFF781FC10BD93
:105200006C46002014080020CC07002001460A69E3
:10521000D1E901309860D1E90103586050688842B3
:1052200001D188685060002008611068401E10603D
:1052300010687047034B0360034B0B6080231360BF
:1052400070470000280500207C05002000F10801BF
:1052500041604FF0FF31816000F10801C1600161E0
:1052600000210160704700210161704710B50246BE
:105270000B685C1C0CB9106907E002F1080000E043
:105280004068446824689C42FAD944684C604C6881
:10529000A160886041600A611468641C146010BDDC
:1052A00042684A6093688B609368596091600861B6
:1052B00003685B1C0360704700BF502080F31188B7
:1052C000BFF34F8FBFF36F8F00BF0E480068401CC5
:1052D0000C49086008460068012812D10A48006895
:1052E000C0B208B9012000E0002050B900BF502032
:1052F00080F31188BFF34F8FBFF36F8F00BF00BFE4
:10530000FEE770478C00002004ED00E00D480068C7
:1053100050B900BF502080F31188BFF34F8FBFF307
:105320006F8F00BF00BFFEE706480068401E0549BA
:1053300008600846006820B9002080F3118800BF8B
:1053400000BF70478C00002070B506463546002E21
:1053500044D0083D2C46224960680968084008B1DD
:10536000012000E0002050B900BF502080F31188D8
:10537000BFF34F8FBFF36F8F00BF00BFFEE7206802
:1053800008B9012000E0002050B900BF502080F390
:105390001188BFF34F8FBFF36F8F00BF00BFFEE7D1
:1053A0000F49606809680840C0B12068B0B90C496D
:1053B000606809688843606000F0B2F80949606875
:1053C00009680844074908602046FFF7D9FD0648E8
:1053D0000068401C0449086000F0D8FA70BD000065
:1053E00088000020780000208400002000204FF07A
:1053F000E02108618861064800684FF47A71B0FBCB
:10540000F1F0401E4FF0E02148610720086170472D
:105410002C00002070B504460025D4B11248006865
:1054200008B9012000E0002050B900BF502080F3EF
:105430001188BFF34F8FBFF36F8F00BF00BFFEE730
:1054400000F06EF800212046FFF7C8FB00F09EFA3E
:1054500005463DB94FF0805004490860BFF34F8FB7
:10546000BFF36F8F70BD00006800002004ED00E006
:1054700010B586B000200590049003AA04A905A8E1
:10548000FFF7D8FE0022DDE904101346CDE9002124
:1054900002901CA11D48039A00F076F91C4908608F
:1054A0000846006808B1012400E00024012C15D151
:1054B00000BF502080F31188BFF34F8FBFF36F8F71
:1054C00000BF4FF0FF301349086001201249086007
:1054D00000201249086000F071F810E0601C08B16B
:1054E000012000E0002050B900BF502080F3118857
:1054F000BFF34F8FBFF36F8F00BF00BFFEE706B053
:1055000010BD000049444C45000000003D4E00081D
:1055100064000020600000204C00002044000020B7
:1055200002480068401C014908607047680000207C
:105530001D48006818B101201C49086032E00020B5
:105540001A4908601A480068B0FA80F0C0F11F01DB
:1055500001EB8100174A52F8200008B1012000E059
:10556000002050B900BF502080F31188BFF34F8F47
:10557000BFF36F8F00BF00BFFEE701EB81020D4B51
:1055800003EB820042685268426000F108024368FF
:10559000934202D14268526842604268D268064B28
:1055A0001A6000BF7047000068000020540000200F
:1055B0004800002064090020300000201CB552483B
:1055C00000685249884201D0012000E0002050B913
:1055D00000BF502080F31188BFF34F8FBFF36F8F50
:1055E00000BF00BFFEE7484800684849491E88429E
:1055F00001D0012000E0002050B900BF502080F30E
:105600001188BFF34F8FBFF36F8F00BF00BFFEE75E
:105610003F49084600780190FF200A46107008466E
:10562000007800909DF8000000F0F0009DF8002048
:10563000904201D1012000E0002050B900BF50206D
:1056400080F31188BFF34F8FBFF36F8F00BF00BF90
:10565000FEE79DF8000000F050002E4A1070072071
:105660002D4A106009E02C480068401E2A4A10604C
:105670009DF800004006000E00909DF8000000F02C
:1056800080008028EFD024480068C0F1070004287B
:1056900001D1012000E0002050B900BF502080F36C
:1056A0001188BFF34F8FBFF36F8F00BF00BFFEE7BE
:1056B000194800680002184A10601046008800F47B
:1056C000E0601060124A019810700F4820300068A6
:1056D00040F470000C49203108600846006840F032
:1056E00070400860FFF782FE00200C490860FAF75E
:1056F0007BFD0B48006840F0404009490860FAF71C
:105700005FFD00201CBD000000ED00E071C20F41F4
:1057100000E400E090000020940000208C000020B5
:1057200034EF00E02DE9FF4F85B0804689461746EB
:10573000DDE912ABB800FFF791FC064656B15420E4
:10574000FFF78CFC04460CB1266304E03046FFF7FB
:10575000FBFD00E000248CB1002084F85100CDE96D
:1057600000ABCDE902403A4649464046089BFFF768
:1057700079FB2046FFF77EFA012501E04FF0FF3567
:10578000284609B0BDE8F08F2DE9F04F85B00746F7
:10579000884691469A46DDE90EB6109C0EB101206E
:1057A00000E0002050B900BF502080F31188BFF303
:1057B0004F8FBFF36F8F00BF00BFFEE70CB101201A
:1057C00000E0002050B900BF502080F31188BFF3E3
:1057D0004F8FBFF36F8F00BF00BFFEE754200390D1
:1057E0000398542801D1012000E0002050B900BFE7
:1057F000502080F31188BFF34F8FBFF36F8F00BF2E
:1058000000BFFEE700BFB4B1AEB125462C462E6303
:10581000022085F85100002004A953464A46CDE9EC
:1058200000B1CDE9025041463846FFF71BFB284640
:10583000FFF720FA01E000200490049805B0BDE8CD
:10584000F08F00002DE9F0414FF000084448006857
:1058500000287CD143480068451C4248056015BBC0
:1058600041480068006808B9012000E0002050B9F4
:1058700000BF502080F31188BFF34F8FBFF36F8FAD
:1058800000BF00BFFEE7384807683848006836495F
:1058900008603648076036480068401C3449086094
:1058A000FFF7A2FB00BF3348006885423CD300BF2E
:1058B0002D480068006808B9012000E0002020B1F0
:1058C0004FF0FF302B4908602DE027480068C06882
:1058D000C4686668B54202D22648066023E0201DEF
:1058E000FFF794FCA06A18B104F11800FFF78EFCD2
:1058F00094F82C10012088401F49096808431E496C
:105900000860E16A01EB81011C4A02EB8100211D64
:10591000FFF7C6FC1A49E06A0968C96A8842C7D31A
:105920004FF00108C4E700BF15480068C06A00EBEB
:105930008000124951F82000012801D94FF00108D8
:105940001048006808B14FF0010805E0FFE70E4875
:105950000068401C0C4908604046BDE8F08100002A
:10596000680000204400002034000020380000209F
:10597000580000206000002048000020640900203A
:1059800030000020540000205000002070B500249A
:1059900000263648006850B900BF502080F31188B7
:1059A000BFF34F8FBFF36F8F00BF00BFFEE7FFF75E
:1059B00083FC2E480068401E2C4908600846006899
:1059C00000284FD12A48006800284BD024E02948FD
:1059D000C068C46804F11800FFF718FC201DFFF729
:1059E00015FC94F82C1001208840234909680843CD
:1059F00021490860E16A01EB8101204A02EB810044
:105A0000211DFFF74DFC1E49E06A0968C96A8842FA
:105A100002D301201B4908601648006808B901201C
:105A200000E000200028D2D00CB1FFF7DDFA1648C4
:105A3000056865B100BFFFF705FF10B101201149EE
:105A400008606D1E002DF6D100200F4908600D483A
:105A5000006838B1012630070C490860BFF34F8F4A
:105A6000BFF36F8FFFF752FC304670BD6800002017
:105A700040000020180A002048000020640900208F
:105A800030000020540000205000002004ED00E011
:105A9000705B00088D40000800000000000000005E
:105AA000000100000000000000000000685B00082A
:105AB0002D3B0008FDFF0000000000000001000079
:105AC00000000000000000007C5B0008C90F000817
:105AD000FDFF0000000000000001000000000000C9
