:020000040800F2
:10000000684E002061020008655300087948000826
:100010002D530008F5110008956600080000000047
:10002000000000000000000000000000A101000826
:100030005B1A000800000000FD0100083D570008A1
:100040007B0200087B0200087B0200087B0200089C
:100050007B0200087B0200087B0200087B0200088C
:100060007B0200087B0200087B0200087B0200087C
:100070007B0200087B0200087B0200087B0200086C
:1000800011190008211900087B0200087B020008F2
:10009000411200087B0200087B0200087B02000876
:1000A0007B020008095900087B0200087B02000857
:1000B0001959000855590008655900087B020008C5
:1000C0007B0200087B0200087B0200087B0200081C
:1000D0007B02000825660008856600087B02000890
:1000E0007B0200087B0200087B0200087B020008FC
:1000F0007B0200087B0200087B0200087B020008EC
:100100007B0200087B0200087B0200087B020008DB
:100110007B0200087B0200087B0200087B020008CB
:100120007B0200087B020008311900087B020008EE
:100130007B0200087B0200087B0200087B020008AB
:10014000991200087B0200087B0200087B0200086D
:100150007B0200087B020008411900087B020008AE
:100160007B0200087B0200087B0200087B0200087B
:100170007B0200087B0200087B02000800000000F0
:100180007B0200087B020008DFF810D000F0C0FB03
:100190000048004745690008AFF30080684E002022
:1001A0002C4B19680868B0E8F04F80F30988BFF35A
:1001B0006F8F4FF0000080F311887047000000003F
:1001C00008480068006880F308884FF0000080F35A
:1001D000148862B661B6BFF34F8FBFF36F8F00DF35
:1001E00000BF00BF08ED00E0DFF80C00016841F43B
:1001F00070010160704700BF88ED00E0EFF30980F7
:10020000BFF36F8F134B1A681EF0100F08BF20ED5D
:10021000108A20E9F04F106009B44FF0500080F3CD
:100220001188BFF34F8FBFF36F8F07F073F84FF054
:10023000000080F3118809BC19680868B0E8F04F25
:100240001EF0100F08BFB0EC108A80F30988BFF3CE
:100250006F8F704734000020EFF305807047000077
:100260000648804706480047FEE7FEE7FEE7FEE750
:10027000FEE7FEE7FEE7FEE7FEE7FEE7255800089B
:10028000890100082DE9F05F0546002092469B4653
:1002900088460646814640241BE02846414647469C
:1002A000224600F0EAF953465A46C01A914110D34B
:1002B00011461846224600F0D1F92D1A67EB0108C5
:1002C0004F4622460120002100F0C8F917EB000933
:1002D0004E41201EA4F10104DFDC484631462A4687
:1002E0004346BDE8F09F40EA01039B0703D009E0C5
:1002F00008C9121F08C0042AFAD203E011F8013B12
:1003000000F8013B521EF9D27047D2B201E000F86A
:10031000012B491EFBD270470022F6E710B51346A9
:100320000A4604461946FFF7F0FF204610BD2DE9A6
:10033000FE4F804681EA0300C00F0C46009021F07A
:10034000004123F00045B8EB0200A94105D2404628
:10035000214690461C460B46024623F000401043BF
:1003600047D0270DC7F30A00C3F30A510290401A81
:10037000019040286BDAC3F3130040F4801B00980F
:10038000924620B10023D2EB030A63EB0B0B0198DA
:100390005946C0F14002504600F060F906460D464D
:1003A00050465946019A00F078F910EB0800614177
:1003B000002487EA115284EAE7731A4340D0009A76
:1003C00062B3019A012A4FEA075215DC001B61EB68
:1003D00002014FF0004202EA0752CDE90042001C40
:1003E00041F5801132462B4600F0AFF903B0BDE86D
:1003F000F08F40462146F9E7001B61EB0201001C2B
:1004000041F5801300185B412018A2F5001747EB57
:10041000030140EAD570B6196D4111E06D084FEA4D
:10042000360645EAC0754FEA0752001B61EB020130
:10043000001C41F5801149084FEA30000019514174
:1004400032462B4603B0BDE8F04F00F06FB900987C
:10045000012240000023D0EB020263EBE07300981E
:1004600021464FEAE074B8EB000061EB0401E9E7D4
:1004700083F000435BE781F0004158E72DE9FE4F30
:1004800081EA030404F0004421F0004100944FF09D
:10049000000B23F0004350EA01045ED052EA03044B
:1004A0005BD0C3F30A54C1F30A552C44A4F2F334CD
:1004B0000194A0FB0254C1F3130141F48011C3F372
:1004C000130343F4801301FB024400FB034E840A30
:1004D000970A44EA815447EA8357A4FB07680295C8
:1004E0008D0A05FB07854FEA932C04FB0C54270566
:1004F000029D4FEA065847EA1637B5EB08056EEB42
:10050000070C870E920E47EA811742EA8312A7FB77
:100510000201B6EB0B0164EB00042B0D43EA0C3334
:100520005E1844EB1C50DA465146E7FB0201C5F366
:1005300013044FEA0B3343EA14534FEA0432019C8D
:1005400043EA0603A4F10C040294009CCDE900B434
:1005500000F0FBF803B0BDE8F08F00200146F9E79A
:1005600070B5C1F30A5201F000450024C1F3130134
:1005700040F2FF3341F480119A4201DA002070BD4D
:1005800040F233439A42A2F2334203DC524200F07B
:1005900074F800E090402C43F1D0404270BD00F070
:1005A000004230F000400AD0C10D01F56071C0F387
:1005B000160042EA0151C20840071143704700206B
:1005C0000146704730B5041E71F1000404DB4FF0A2
:1005D0000044404264EB0101141E73F1000405DB8A
:1005E0001C464FF00043524263EB04038B4208BFAA
:1005F000824230BD30B5041E71F1000404DB4FF0BF
:100600000044404264EB0101141E73F1000405DB59
:100610001C464FF00043524263EB0403994208BF6B
:10062000904230BD01F0004330B421F0004150EA67
:10063000010206D00A0DA2F56072C1F31301002A6F
:1006400002DC30BC00207047440F44EAC104C10002
:10065000E01830BC00EBC25000F031B8202A04DBB7
:10066000203A00FA02F1002070479140C2F12003C5
:1006700020FA03F3194390407047202A04DB203A04
:1006800021FA02F00021704721FA02F3D040C2F1B2
:1006900020029140084319467047202A06DBCB17F9
:1006A000203A41FA02F043EAE07306E041FA02F32D
:1006B000D040C2F1200291400843194670470029FA
:1006C000A8BF7047401C490008BF20F001007047D8
:1006D00010B4B0FA80FC00FA0CF050EA010404BF38
:1006E00010BC704749B1CCF1200421FA04F411FA8E
:1006F0000CF118BF012121430843A3EB0C01CB1DD2
:100700004FEA00614FEA102042BF002010BC704742
:1007100000EBC35010440029A4BF10BC7047401C1C
:10072000490008BF20F0010010BC704710B5141E2E
:1007300073F1000408DA401C41F1000192185B419A
:100740001A4301D120F0010010BD2DE9F04D924671
:100750009B4611B1B1FA81F202E0B0FA80F2203288
:100760009046FFF77BFF04460F4640EA0A0041EA45
:100770000B0153465A46084313D0114653EA010071
:1007800019D0C8F140025046FFF777FF05460E46E4
:10079000504659464246FFF761FF084305D0012005
:1007A00004E020463946BDE8F08D0020054346EAC6
:1007B000E0762C4337430A986305E40AA0EB08006F
:1007C0000022FD0A44EA47540A3002D500200146BF
:1007D000E9E7010510196941DDE90845001969419A
:1007E000BDE8F04DA2E72DE9F04D00231A461B1A93
:1007F0008A4103DB00200146BDE8F08DC1F30A52B7
:10080000C1F3130141F480154FF0000BD10702D161
:1008100000186D41521E0027044640F2FF11384671
:1008200001EB620A3E468046024600204FF48011EA
:10083000FFF723FFC2197141BB1846EB0100B4EB6F
:10084000030C75EB000C04D3E41A65EB00051746A6
:100850000E46241908F101006D4180463428E3DD7D
:10086000F91946EB0600091BA84103D24FF0FF32ED
:10087000134601E0002213461BEB070046EB0A512A
:10088000BDE8F04DFFF752BF2DE9F041054621F0DC
:1008900000400C46284309D0C4F30A5040F23341CB
:1008A000884205DD28462146BDE8F0812846FBE761
:1008B00040F2FE31884210DC0CDB4FEA043040EAA3
:1008C000155050EA053105D0104804F000410143AD
:1008D0000020E9E700200146E6E7A0F23340464267
:1008E000C6F1400228462146FFF7B8FE0746884673
:1008F000284621463246FFF7C0FE43463A46FFF7F8
:1009000015FF3246BDE8F041FFF7A8BE0000F03FFA
:10091000064C074D06E0E06840F0010394E807004C
:1009200098471034AC42F6D3FFF732FC74790008D4
:100930009479000870B58C1810F8015B15F0070366
:1009400001D110F8013B2A1106D110F8012B03E068
:1009500010F8016B01F8016B5B1EF9D12B0705D470
:100960000023521E0DD401F8013BFAE710F8013BB9
:10097000CB1A921C03E013F8015B01F8015B521ED5
:10098000F9D5A142D8D3002070BD10B502684260ED
:100990000160D0E90023D21A8260426902EBD2746E
:1009A0008368B3EB640F04DD43698268D21A826006
:1009B0000BE043695A4202EBD2748368B3EB640FD5
:1009C00003DA436982681A448260D0E902321A4429
:1009D000C260C269012A02D10022C260C26110BD98
:1009E0000FB410B52DED048B494890F9000010B1FB
:1009F00001287DD182E00220464908600020464956
:100A000008609FED460A464880ED000A9DED0F0AFA
:100A1000BCEEC00A10EE100A424908809FED420A5F
:100A2000424880ED000ADDED0F0A414890ED000AD2
:100A3000B8EEC00A30EE600A10EE101A0846FFF752
:100A4000AEFD41EC190BB0EE490AF0EE690A05F073
:100A500091FEB0EE408AF0EE608A9FED360B53ECCB
:100A6000102B51EC180BFFF7ADFD46D2334890ED3B
:100A7000000ADFED2D0A30EE600A10EE101A08466B
:100A8000FFF78DFD41EC190BB0EE490AF0EE690A53
:100A900005F070FEB0EE408AF0EE608A9FED280B04
:100AA00053EC102B51EC180BFFF78CFD25D2264888
:100AB00090ED000ADFED190A30EE600A10EE101A10
:100AC0000846FFF76CFD41EC190BB0EE490AF0EE59
:100AD000690A05F04FFEB0EE408AF0EE608A9FEDA5
:100AE000150B53EC102B51EC180BFFF76BFD00E0CE
:100AF00008E002D201200649087003E000201349F3
:100B0000087000BF00BFBDEC048B10BC5DF814FB87
:100B10007C050020EC000020F0000020000048C20E
:100B2000B4000020B000002000000000BC00002045
:100B3000CC0000200000000000001440D80000207D
:100B4000000000000000F03FD0000020EA05002077
:100B50000FB410B52DED048B974890F900000728CD
:100B60007ED2DFE800F00487A4BBD2E9FC000220BB
:100B7000924908600020924908609FED920A9248CD
:100B800080ED000A9DED0F0ABCEEC00A10EE100ABF
:100B90008E4908809FED8E0A8E4880ED000ADDEDBB
:100BA0000F0A8D4890ED000AB8EEC00A30EE600AD8
:100BB00010EE101A0846FFF7F2FC41EC190BB0EEEC
:100BC000490AF0EE690A05F0D5FDB0EE408AF0EE74
:100BD000608A9FED820B53EC102B51EC180BFFF742
:100BE000F1FC46D27F4890ED000ADFED790A30EE45
:100BF000600A10EE101A0846FFF7D1FC41EC190B01
:100C0000B0EE490AF0EE690A05F0B4FDB0EE408A94
:100C1000F0EE608A9FED740B53EC102B51EC180B27
:100C2000FFF7D0FC25D2724890ED000ADFED650A8F
:100C300030EE600A10EE101A0846FFF7B0FC41ECE7
:100C4000190BB0EE490AF0EE690A05F093FDB0EE1B
:100C5000408AF0EE608A9FED670B53EC102B00E0AA
:100C6000A4E051EC180BFFF7ADFC02D20120524971
:100C700008709BE00020514908600120504908603D
:100C80005E480068401C5D490860084600685C4991
:100C9000096888420ADD9FED4E0A5A4880ED000A35
:100CA0000220454908700020544908607EE09DED0F
:100CB000100AB1EE400A534880ED000A4C4890ED0E
:100CC000000ADFED510A30EEC00AB5EEC00AF1EEBF
:100CD00010FA02DD03203849087067E04B480068CD
:100CE000401C4A4908609FED4A0A464880ED000AC8
:100CF0000846006847490968884205DD04202E49F6
:100D0000087000204149086050E09FED310A3D48DD
:100D100080ED000A40480068401C3F4908600846D2
:100D200000683E490968884205DD052022490870AF
:100D300000203949086039E00220204908609FED11
:100D4000210A214880ED000A294890ED000ADFEDD4
:100D50001D0A30EE600A10EE101A084600E01FE08F
:100D6000FFF71DFC41EC190BB0EE490AF0EE690AE1
:100D700005F000FDB0EE408AF0EE608A9FED1A0BA0
:100D800053EC102B51EC180BFFF71CFC07D206207C
:100D9000094908709FED0E0A1A4880ED000A05E027
:100DA0000020074908601E49087000BF00BFBDEC65
:100DB000048B10BC5DF814FB7D050020EC000020C6
:100DC000F0000020000048C2B4000020B000002065
:100DD00000000000BC000020CC000020000000004B
:100DE00000002440D8000020000000000000F03F78
:100DF000D00000200000000000002040D8050020A6
:100E000024060020B8000020008009C5DC05002071
:100E10000000C84228060020E00500202C06002023
:100E2000EB0500200FB410B52DED068BCE4890F9E0
:100E3000000008284CD2DFE800F0044CBDFCFBFAAF
:100E4000F9F80220C94908600020C94908609FEDEF
:100E5000C90AC94880ED000A0120C84908709FED01
:100E6000C80AC84880ED000A41F28830C6490880A7
:100E7000C64890ED000ADFEDBF0A30EE600A10EEC2
:100E8000101A0846FFF78BFB41EC190BB0EE490A2C
:100E9000F0EE690A05F06EFCB0EE408AF0EE608A72
:100EA0009FEDBB0B53EC102B51EC180BFFF78AFB9B
:100EB0000ED20120AC490870B74890ED000AB7483F
:100EC00080ED0B0AB44890ED000AB54880ED0B0A9E
:100ED00044E1B44890ED000AB34880ED000AB348FD
:100EE00090ED000AB24880ED000AB2480068FFF7B2
:100EF00056FB41EC180BB04890ED000AA948D0ED24
:100F0000000A30EE600A10EE101A0846FFF747FBA1
:100F100041EC1A0BB0EE4A0AF0EE6A0A05F02AFC20
:100F2000B0EE409AF0EE609A53EC182B51EC190B8E
:100F3000FFF748FB2AD29F480068FFF730FB41ECDF
:100F4000180B9E4890ED000A9848D0ED000A30EE4C
:100F5000600A10EE101A0846FFF721FB41EC1A0B4D
:100F6000B0EE4A0AF0EE6A0A05F004FCB0EE409AD0
:100F7000F0EE609A53EC182B51EC190BFFF722FBA3
:100F800004D28F480068401C8D4908608C4890ED61
:100F9000000AB8EEC00A8B48D0ED000AB4EEE00AB1
:100FA000F1EE10FA05DD02206F4908700020844937
:100FB0000860D3E000207149087083480068FFF79B
:100FC000EEFA41EC180B7C4890ED000A7548D0ED24
:100FD000000A30EE600A10EE101A0846FFF7DFFA3A
:100FE00041EC1A0BB0EE4A0AF0EE6A0A05F0C2FBB9
:100FF000B0EE409AF0EE609A53EC182B51EC190BBE
:10100000FFF7F8FA3AD270480068FFF7C8FA41ECE7
:10101000180B6A4890ED000A6448D0ED000A30EEE3
:10102000600A10EE101A084604E093E058E050E021
:1010300049E024E0FFF7B3FA41EC1A0BB0EE4A0A9C
:10104000F0EE6A0A05F096FBB0EE409AF0EE609A78
:1010500053EC182B51EC190BFFF7CCFA0ED20320EE
:1010600041490870594890ED000A4C4880ED0B0A40
:10107000564890ED000A4A4880ED0B0A6EE054484D
:101080000068401C52490860084690ED000AB8EE1E
:10109000C00A5048D0ED000AB4EEE00AF1EE10FAB2
:1010A00010DD4D4890ED000A3F4880ED000A4B48A6
:1010B00090ED000A3E4880ED000A00200860042000
:1010C000294908704AE0109810B90520264908708F
:1010D00044E01098012802D10620234908703DE021
:1010E0003F480068401C3E490860084690ED000AF1
:1010F000B8EEC00A3B48D0ED000AB4EEE00AF1EECB
:1011000010FA05DD01201D490870002034490860EF
:1011100035480068401C34490860084690ED000AD4
:10112000B8EEC00A3148D0ED000AB4EEE00AF1EEA4
:1011300010FA0EDD9FED0F0A1B4880ED000A9FEDAF
:101140000D0A1B4880ED000A0020086007200649B0
:10115000087003E000202649087000BF00BFBDEC06
:10116000068B10BC5DF814FB7A050020EC00002013
:10117000F000002000000000BC000020C80000209B
:1011800000806DC4B4000020B0000020D800002012
:1011900000000000000014401C0600206003002036
:1011A000A4030020F0050020C0000020F40500206A
:1011B000C400002014060020DC000020E000002015
:1011C00094050020000600201806002020060020BC
:1011D0009805002004060020F8050020FC050020EA
:1011E0009C05002008060020A00500200C06002019
:1011F000E805002000BFFEE710B58AB004460020D5
:10120000059006900120079047F6FE7000900020A0
:1012100002900190039004900E2009900120089004
:101220006946064800F004FD044801F080FA0221F6
:10123000024800F043FC0AB010BD000088080020FE
:1012400010B5024800F04FFE10BD000088080020D5
:1012500010B58AB004460E200590002006900120AB
:10126000079047F6FE7000900020029001900390D6
:1012700004901C200990012008906946054800F060
:10128000D7FC044801F053FA0221024800F016FC92
:101290000AB010BDB008002010B5024800F023FECF
:1012A00010BD0000B00800202DE9F04106460C46B4
:1012B00017461D460E48046000200D4948608860AE
:1012C000C8600846056101233A46304600F00BFC31
:1012D00060B102233A460649304600F004FC28B1CA
:1012E00004233A460249304600F0FDFBBDE8F08198
:1012F000F84800202DE9FC4781460E4614461D465D
:10130000DDE90A78200A8DF80000E0B28DF80100CE
:10131000280A8DF80200E8B28DF80300380A8DF82B
:101320000400F8B28DF805004FEA18208DF8060089
:1013300008F0FF008DF80700B1B208236A4648465E
:10134000FFF7B2FFBDE8FC8790ED020AD0ED060A78
:1013500030EE600A80ED070A90ED020A80ED060A81
:101360007047000030B52DED108B83B004469FED23
:101370007B0AB0EE40FA94ED000AD4ED060A30EE96
:10138000600A84ED020A94ED030AD4ED040A20EE0B
:10139000200AB0EE408A94ED040A20EE080A10EE0E
:1013A000105A94ED020AD4ED040A94ED011A00EEED
:1013B000810AF0EE408A18EE900AFFF7F0F841EC4F
:1013C0001E0BB0EE4E0AF0EE6E0A05F0D3F9B0EE49
:1013D00040DAF0EE60DA94ED030AF2EE000A20EE55
:1013E000200A10EE101A0846FFF7D9F853EC1D2B0F
:1013F000CDE900019DED000B51EC100BFFF73EF81D
:1014000041EC1B0B28EE080A10EE101A0846FFF7F5
:10141000C6F841EC1C0B53EC1B2BFEF788FF41EC8C
:101420001A0BB0EE4A0AF0EE6A0A05F01DFAB0EEA9
:10143000409AF0EE609A51EC190BFFF7F3F8029026
:101440002846FFF7ACF841EC190B18EE900AFFF7AD
:10145000A6F841EC1B0BB0EE4B0AF0EE6B0A05F060
:1014600089F9B0EE40AAF0EE60AA53EC192B51ECCA
:101470001A0BFFF7BFF818D2B0EE680A04F0AEF806
:1014800000EE100AF8EEC00A9DED020A30EE480A9E
:1014900060EE800AB0EE001A80EE810AD4ED010AF7
:1014A00030EE200AB0EE40FA09E0D4ED040A88EEEE
:1014B000A00AD4ED010A30EE200AB0EE40FA18EE90
:1014C000100AFFF76CF841EC190B1FEE100AFFF73A
:1014D00066F841EC1B0BB0EE4B0AF0EE6B0A05F020
:1014E00049F9B0EE40AAF0EE60AA53EC192B51EC8A
:1014F0001A0BFFF77FF810D2B0EE4F0A04F06EF827
:1015000000EE100AB8EEC00AD4ED030ABFEE001ACE
:1015100060EE810A60EE20FA09E094ED030AFFEE26
:10152000000A20EE200A20EE0F0AC0EE08FA94ED21
:10153000000AD4ED050A94ED011A00EE810A84ED4B
:10154000000A94ED010AD4ED050A00EEAF0A84ED1D
:10155000010A03B0BDEC108B30BD0000000000009C
:101560001CB500BF8F4890ED000A8F4880ED000A3F
:101570008E4890ED0B0A8C4880ED010A03F0F4FED2
:101580008B4890ED000A8B4880ED000A8A4890ED68
:101590000B0A884880ED010A03F0E6FE874890EDCB
:1015A000000A874804F09FF9864880ED110A8648B2
:1015B00090ED0A0A834880ED120A834890ED0B0AE9
:1015C000804880ED010A03F0A1FF804890ED000AF9
:1015D0007F4880ED060AFFF7C5FE7E48006820B10F
:1015E000012834D002286FD16FE07B48006820B119
:1015F0009FED7A0A7A4880ED070A7A4890ED000A52
:10160000774880ED000A784890ED020A744880ED32
:10161000010A03F0A9FE002000900190704890EDAF
:10162000080ABDEEC00A10EE100A03B26C4890ED35
:10163000080ABDEEC00A10EE100A02B24FF40071A3
:101640006A48FFF757FE0020634908607BE0624864
:101650000068012808D09FED610A654880ED180AEE
:101660009FED5E0A80ED070A584890ED000A604839
:1016700080ED110A5C4890ED040A5D4880ED120A85
:10168000594890ED020A5A4880ED010A03F03EFFE6
:10169000002000900190564890ED220ABDEEC00A4D
:1016A00010EE100A03B2524890ED220ABDEEC00AB5
:1016B00010EE100A02B24FF400714C48FFF71AFE08
:1016C0000120454908603EE03CE0434800680228AC
:1016D00008D09FED420A464880ED180A9FED3F0A68
:1016E00080ED070A3A4890ED000A414880ED110A62
:1016F0003D4890ED040A3E4880ED120A3A4890EDCC
:10170000020A3B4880ED010A03F000FF0020009030
:101710000190374890ED220ABDEEC00A10EE100A83
:1017200003B2334890ED220ABDEEC00A10EE100A53
:1017300002B24FF400712D48FFF7DCFD022026496C
:10174000086000E000BF00BF0021174890ED080AC4
:10175000BDEEC00A10EE100A00B2CDE90001154836
:1017600090ED080ABDEEC00A10EE100A03B215484B
:1017700090ED220ABDEEC00A10EE100A02B24FF43C
:1017800000711C48FFF7B6FD1B48007803F00CFF02
:101790001A48008A401C19490882012005F02CFDD6
:1017A000E0E60000C000002060030020F4000020FC
:1017B000C4000020A403002034010020BC0000204D
:1017C0002C020020D402002074010020B40000206C
:1017D00010020020EC0000200000002000000000AB
:1017E000E8030020B8000020B40100208808002091
:1017F00048020020B0080020C800002086490020D0
:101800002DE9F0412DED068B05460E4614469FED61
:101810003A0AB0EE408A0027B84642F21C50854290
:1018200004DD9FED360AB0EE408A0EE041F224302E
:10183000854204DA9FED320AB0EE408A05E000EE00
:10184000105AB8EE400AB0EE408A84ED008A00EEED
:10185000106AB8EE400A84ED010A204603F084FDC8
:1018600094ED080A10EE101A0846FEF798FE41ECB7
:101870001A0BB0EE4A0AF0EE6A0A04F085FFB0EEE9
:10188000409AF0EE609A51EC190BFEF769FE00F5F4
:10189000FA6794ED080A10EE101A0846FEF77FFE6C
:1018A00041EC1A0BB0EE4A0AF0EE6A0A04F06CFF43
:1018B000B0EE409AF0EE609A51EC190BFEF750FE34
:1018C000C0F5FA680F48006830B90F480068C0F8E2
:1018D00038800E480068C7630A480068012807D1AD
:1018E0004FF4FA6008490968886308490968C863C1
:1018F000BDEC068BBDE8F0810000000000701446CE
:1019000000209945F00000206809002020090020EF
:1019100010B5024800F0ACFF10BD0000000B002025
:1019200010B5024800F0A4FF10BD0000600B0020BD
:1019300010B5024800F09CFF10BD0000400A0020D6
:1019400010B5024800F094FF10BD0000A00A00206E
:101950000146087810381823B0FBF3F20848805C81
:10196000C865032A05D908686FF30900001D88655A
:1019700003E008686FF309008865886D7047000010
:101980001C790008014600208A6A8B69CBB932B104
:10199000012A0DD0022A03D0032A10D10EE000BF85
:1019A000CB6A03F08073B3F1807F00D1012007E0A0
:1019B000CB6AB3F1C07F00D1012001E000E000BF9D
:1019C00034E08B69B3F5005F1AD132B1012A07D038
:1019D000022A03D0032A11D10AE000BF01200EE041
:1019E000CB6A03F08073B3F1807F00D1012006E061
:1019F000CB6AB3F1C07F00D1012000E000BF15E049
:101A000032B1012A05D0022A04D0032A0CD103E006
:101A100000BF00BF012008E0CB6A03F08073B3F180
:101A2000807F00D1012000E000BF00BF704730B5CB
:101A30000468246824F4802405682C6004686360CA
:101A40008468402C04D10468A2600468E16003E06B
:101A50000468A1600468E26030BD704772B600BFE0
:101A6000FEE7024648780B7840EA032000EE100AB1
:101A7000B8EEC00A82ED080A92ED080ABDEEC00A6F
:101A800010EE100A00B2704730B503460A4A8C784F
:101A900004F080043CB114048D7844EA0524CD7828
:101AA00044EA050003E0CC788D7844EA052000EE96
:101AB000100AB8EEC00A30BDFFFF0F0010B5024695
:101AC00092F82030012B01D0022B06D1106840691A
:101AD000084314686061002010BD506A40F4802003
:101AE00050620120F8E7F0B504460D461E4694F812
:101AF000207020688368A86800B900E000BF012F4B
:101B000001D0022F7DD103F0806030B903F0006076
:101B100018B903F0805000287ED0C3F30161012082
:101B200088403060A86860B9B5F800C0E86840EA4D
:101B30004C5C206800F5C07000EB0110C0F800C0DC
:101B40000FE0D5E901C040EACC00D5F80CC040EA6E
:101B50000C00D4F800C00CF5C07C0CEB011CCCF8D8
:101B60000000D5F810C0206800F5C07000EB01102F
:101B7000C0F804C0287D01280ED1206800F5C0708F
:101B800000EB0110406840F4807C206800F5C070D4
:101B900000EB0110C0F804C0D079000692F806C02E
:101BA00040EA0C4092F805C040EA0C2092F804C0CC
:101BB00040EA0C00D4F800C00CF5C07C0CEB011C12
:101BC000CCF80C00D078000692F802C040EA0C4035
:101BD00092F801C040EA0C2092F800C040EA0C00E4
:101BE000D4F800C00CF5C07C0CEB011CCCF808004C
:101BF000206800F5C07000EB0110006840F0010C97
:101C000001E00FE008E0206800F5C07000EB011073
:101C1000C0F800C00020F0BD606A40F400106062AF
:101C20000120F8E7606A40F4802060620120F2E75A
:101C3000F0B504460A4694F82050012D01D0022D3B
:101C40007ED1424901F50071086840F0010008604A
:101C5000086820F47C5008600868566A40EA06204C
:101C60000860107D00F01F06012000FA06F3C86925
:101C70009843C861A1F50071D069C8B9D1F80C02C8
:101C80009843C1F80C02908880B2968940EA0646D3
:101C900001F51070576940F83760108880B21689D6
:101CA00040EA064601F51070576900EBC700466030
:101CB000D069012819D1D1F80C021843C1F80C02DF
:101CC000908880B2168840EA064601F51070576980
:101CD00040F83760908980B2168940EA064601F5DF
:101CE0001070576900EBC7004660906928B9D1F8B9
:101CF00004029843C1F8040204E0D1F80402184336
:101D0000C1F80402106928B9D1F814029843C1F847
:101D1000140204E0D1F814021843C1F81402106A46
:101D2000012804D1D1F81C021843C1F81C02D1F8D3
:101D3000000220F00100C1F800020020F0BDFFE722
:101D4000606A40F4802060620120F7E70064004090
:101D5000704770B5044694F82050012D01D0022D33
:101D60007DD151B92068C06800F0030080B9606A75
:101D700040F400106062012070BD2068006900F02E
:101D8000030028B9606A40F4001060620120F3E7A4
:101D9000206800F5D87000EB0110006800F0040026
:101DA0009060906840B9206800F5D87000EB011091
:101DB0000068400D106007E0206800F5D87000EB67
:101DC00001100068C0085060206800F5D87000EB72
:101DD0000110006800F00200D060206800F5D870A3
:101DE00000EB0110406800F00F00082802D3082023
:101DF000106108E0206800F5D87000EB0110406821
:101E000000F00F001061206800F5D87000EB0110A1
:101E1000406800F47F40000A9061206800F5D870A7
:101E200000EB01104068000C5061206800F5D8708C
:101E300000EB011080681870206800F5D87000EB86
:101E40000110806800F47F40000A5870206800F597
:101E5000D87000EB0110806800F47F0000E03CE0E7
:101E6000000C9870206800F5D87000EB01108068B5
:101E7000000ED870206800F5D87000EB0110C06823
:101E80001871206800F5D87000EB0110C06800F4EC
:101E90007F40000A5871206800F5D87000EB0110EF
:101EA000C06800F47F00000C9871206800F5D870BD
:101EB00000EB0110C068000ED87131B92068C0680D
:101EC00040F020002668F06005E02068006940F0DE
:101ED00020002668306100204EE7606A40F48020D0
:101EE0006062012048E72DE9F05F04460025206884
:101EF00046692068D0F80490206887682068D0F888
:101F00000CA02068D0F810B02068D0F8188006F037
:101F10000100002855D007F00100C0B10120216860
:101F2000886007F0020018B1204600F030FC0EE097
:101F300007F0040010B145F4006508E007F0080060
:101F400010B145F4805502E0204600F01FFC07F474
:101F50008070C8B14FF480702168886007F4007009
:101F600018B1204600F015FC0EE007F4806010B1B7
:101F700045F4005508E007F4006010B145F48045D1
:101F800002E0204600F004FC07F48030C8B14FF4B2
:101F900080302168886007F4003018B1204600F0D6
:101FA000FAFB0EE007F4802010B145F4004508E08C
:101FB00007F4002010B145F4803502E0204600F01F
:101FC000E9FB06F0080038B10AF0100020B145F432
:101FD000007510202168C86006F0040040B10AF0C6
:101FE000080028B108202168C860204600F00CFADB
:101FF00006F0020038B12068C06800F0030010B19C
:10200000204600F003FA06F0400038B10BF0100053
:1020100020B145F4806510202168086106F0200099
:1020200040B10BF0080028B1082021680861204663
:1020300000F07AFB06F0100038B12068006900F06B
:10204000030010B1204600F070FB06F4003040B1F0
:1020500009F0100028B1102021684860204600F0E7
:1020600065FB06F4803040B109F0080028B1082073
:1020700021684860204600F08FFB06F4004088B3DA
:1020800009F0040078B306F4807020B108F0010074
:1020900008B145F0010506F4007020B108F0020017
:1020A00008B145F0020506F4806020B108F0040094
:1020B00008B145F0040506F40060A0B108F0700016
:1020C00088B108F07000402817D006DC10280BD02B
:1020D00020280CD0302819D10CE0502810D06028CE
:1020E00014D110E01DE019E045F008050FE045F0BF
:1020F00010050CE045F0200509E045F0400506E03C
:1021000045F0800503E045F4807500E000BF00BFA6
:102110002068806920F070002168886104202168AF
:1021200048602DB1606A284360622046FFF710FEC8
:10213000BDE8F09F70B504460CB9012070BD94F85D
:10214000200010B9204600F0AFF82068006840F089
:1021500001002168086000F06BFE05460DE000F00C
:1021600067FE401B0A2808D9606A40F400306062AC
:10217000052084F820000120E0E72068406800F096
:1021800001000028EBD02068006820F002002168E0
:10219000086000F04DFE05460DE000F049FE401BD2
:1021A0000A2808D9606A40F400306062052084F88B
:1021B00020000120C2E72068406800F002000028EB
:1021C000EBD1207E012806D12068006840F0800015
:1021D0002168086005E02068006820F08000216820
:1021E0000860607E012806D12068006840F0400049
:1021F0002168086005E02068006820F04000216840
:102200000860A07E012806D12068006840F0200008
:102210002168086005E02068006820F0200021683F
:102220000860E07E012806D12068006820F01000D8
:102230002168086005E02068006840F0100021680F
:102240000860207F012806D12068006840F008005F
:102250002168086005E02068006820F00800216817
:102260000860607F012806D12068006840F0040003
:102270002168086005E02068006820F004002168FB
:102280000860D4E9020108432169084361690843F1
:102290006168491E08432168C8610020606201200E
:1022A00084F82000002049E710B586B004461421C8
:1022B00001A8FEF731F84F492068884242D14E48C4
:1022C0000068401C4C4908600846006801280FD18E
:1022D00000BF002000904948006840F00070474966
:1022E00008600846006800F00070009000BF00BF62
:1022F00000BF0020009041481038006840F0020004
:102300003E49103908600846006800F0020000905D
:1023100000BF00BF4FF440700190022002900120E6
:102320000390032004900920059001A9344800F08F
:102330007FFC00220521142000F038FE142000F05C
:1023400021FE54E02F492068884250D100BF002070
:1023500000902A48006840F08060284908600846DC
:10236000006800F08060009000BF00BF2248006855
:10237000401C214908600846006801280FD100BFB1
:10238000002000901D48006840F000701B49086064
:102390000846006800F00070009000BF00BF00BF5A
:1023A0000020009015481038006840F002001349E2
:1023B000103908600846006800F00200009000BF75
:1023C00000BF6020019002200290012003900320B2
:1023D00004900920059001A9094800F029FC002279
:1023E0000521402000F0E2FD402000F0CBFD06B0CA
:1023F00010BD0000006400401C0000204038024076
:1024000000040240006800407047000010B588B02A
:102410000446B149206888427DD1B04B01AA002111
:102420002046FFF796FC0198202819D0A0F2012041
:1024300068B301284FD0A0F20F1000287ED1A74822
:1024400040784FF47F4101EA0020A449097808430D
:10245000A3490860A3480088401CA24908806EE098
:102460009E48407800F0080010B900209E4908629C
:102470009A48407800F00800082802D101209A49C3
:1024800008629848C08A401C9649C88257E097481D
:102490000068012807D195489049096841610020EA
:1024A000924908600BE091488C490968C16090ED41
:1024B000030AD0ED050A30EE600A80ED040A8B486D
:1024C000864949688160FEF73FFF86488088401C46
:1024D0008449888033E086480068012807D1844811
:1024E0007E49096841610020814908600BE080480D
:1024F0007A490968C16090ED030AD0ED050A30EE13
:10250000600A80ED040A7A48744949688160FEF7E0
:102510001BFF774801E014E010E090ED020A7548D7
:1025200080ED000A724890ED040A734880ED000ABD
:102530006C484088401C6B49488000E000BF00BFE9
:1025400000BF6E49206888427ED16D4B01AA0021F0
:102550002046FFF7FEFB0198A0F2012020B10128E0
:1025600042D0022871D17AE065496648FFF779FACE
:1025700000EE100AB8EEC00A624880ED080A604911
:1025800001A8FFF781FA5F4880ED090A90ED080A7B
:10259000BCEEC00A10EE101AFEF7F7F9594890ED9C
:1025A000030AB8EEC00ADFED580A80EE201A9FED4C
:1025B000570A21EE000ADFED560A80EE201A80ED60
:1025C0000A1A90ED090AF3EE030A80EE201A80ED54
:1025D0000B1A90ED0A0A4F4880ED000A4148C08866
:1025E000401C4049C88073E045494B48FFF739FA21
:1025F00000EE100AB8EEC00A474880ED080A4049CC
:1026000001A8FFF741FA444880ED090A90ED080A55
:10261000BCEEC00A10EE101AFEF7B7F93E4890ED76
:10262000030AB8EEC00ADFED380A80EE201A9FEDEB
:10263000370A21EE000A80ED0A0A90ED090A80EDC2
:102640000B0A90ED0B0A01E044E040E0334880EDD6
:10265000000A24484089401C2249488138E0284922
:102660002F48FFF7FEF900EE100AB8EEC00A2C481A
:1026700080ED080A224901A8FFF706FA284880EDF4
:10268000090A90ED080ABCEEC00A10EE101AFEF717
:102690007CF9234890ED030AF8EEC00A9FED1A1A60
:1026A00080EE810ADFED190A20EE200A80ED0A0A89
:1026B00090ED090A80ED0B0A90ED0B0A194880EDA8
:1026C000000A08480089401C0649088100E000BF54
:1026D00000BF00BF08B010BD006400409D00002096
:1026E000CC00002086490020D0490020D4010020E1
:1026F000B4010020D4000020D00000200068004079
:10270000A500002074010020000000460000B44332
:1027100000001042D800002034010020E00000201A
:10272000F4000020DC00002070477047704770B54F
:10273000044694F82000012822D1022084F82000C9
:102740002068006820F001002168086000F070FB3C
:1027500005460DE000F06CFB401B0A2808D9606AB2
:1027600040F400306062052084F82000012070BD34
:102770002068406800F001000028EBD16062F6E7B5
:10278000606A40F4002060620120F0E77047704703
:102790007047704770477047704770B50446A56D25
:1027A00000F046FB064694F83500022808D0802049
:1027B000606500BF002084F8340000BF012070BDB8
:1027C0002068006820F016002168086020684069D1
:1027D00020F0800021684861206C08B9A06C28B105
:1027E0002068006820F00800216808602068006800
:1027F00020F001002168086010E000F019FB801B48
:1028000005280BD920206065032084F8350000BF1F
:10281000002084F8340000BF0320D0E7206800685F
:1028200000F001000028E8D194F85C103F208840B7
:10283000A860012084F8350000BF002084F834002F
:1028400000BF00BFBBE7014691F83500022803D066
:102850008020486501207047052081F83500086810
:10286000006820F001000A6810600020F3E7000013
:10287000F8B50446002000908C4800684FF41651CB
:10288000B0FBF1F7A56D2E6894F85C100820884025
:10289000304098B12068006800F0040070B12068F2
:1028A000006820F004002168086094F85C1008209B
:1028B0008840A860606D40F00100606594F85C108D
:1028C00001208840304068B12068406900F08000F5
:1028D00040B194F85C1001208840A860606D40F021
:1028E0000200606594F85C1004208840304068B1B4
:1028F0002068006800F0020040B194F85C100420E9
:102900008840A860606D40F00400606594F85C1039
:1029100010208840304078B32068006800F008003C
:1029200050B394F85C1010208840A86020680068BC
:1029300000F4802080B12068006800F4002028B9ED
:10294000206CC8B12046216C884715E0A06C98B176
:102950002046A16C88470FE02068006800F4807072
:1029600028B92068006820F0080021680860206C01
:1029700010B12046216C884794F85C1020208840D4
:102980003040002865D02068006800F01000002862
:102990005FD094F85C1020208840A86094F835003F
:1029A000052828D12068006820F0160021680860FA
:1029B0002068406920F0800021684861206C08B9D7
:1029C000A06C28B12068006820F008002168086029
:1029D00094F85C103F208840A860012084F83500FE
:1029E00000BF002084F8340000BF206D10B12046E5
:1029F000216D8847F8BD2068006800F4802080B110
:102A00002068006800F4002028B9606C10B12046EE
:102A1000616C88471DE0E06BD8B12046E16B8847C8
:102A200017E02068006800F4807068B920680068CA
:102A300020F0100021680860012084F8350000BFF4
:102A4000002084F8340000BFE06B10B12046E16B39
:102A50008847606D38B3606D00F00100F0B105206B
:102A600084F835002068006820F0010021680860C3
:102A700000BF0098401C0090B84200D905E02068D3
:102A8000006800F001000028F3D100BF012084F8A5
:102A9000350000BF002084F8340000BFE06C10B1A6
:102AA0002046E16C884700BFA4E70000300000200A
:102AB0002DE9F0410446002500F0BAF9074614B9A3
:102AC0000120BDE8F081606A00B100BF022084F8F7
:102AD000350000BF002084F8340000BF2068006883
:102AE00020F00100216808600AE000F0A1F9C01B95
:102AF000052805D920206065032084F83500E0E72B
:102B00002068006800F001000028EED12068056808
:102B100021480540D4E901010843E16808432169DF
:102B2000084361690843A1690843E1690843216AD0
:102B300008430543606A042803D1D4E90B01084324
:102B40000543206805602068456925F00705606A2F
:102B50000543606A04280DD1A06A0543E06A48B1C4
:102B60002046FEF70FFF28B140206065012084F861
:102B70003500A6E7206845612046FEF7E9FE0646D7
:102B800094F85C103F208840B06000206065012010
:102B900084F83500002094E73F8010F02DE9F047DD
:102BA00004460D4616461F464FF00008D4F85890CC
:102BB00000BF94F83400012802D10220BDE8F0875C
:102BC000012084F8340000BF94F83500012825D195
:102BD000022084F83500002060653B4632462946D5
:102BE0002046FEF724FF94F85C103F208840C9F887
:102BF00008002068006840F0160021680860206C1A
:102C000028B12068006840F008002168086020684A
:102C1000006840F001002168086006E000BF002065
:102C200084F8340000BF4FF002084046C6E70000B9
:102C3000F8B502460B460025002400200021D6E00E
:102C4000012606FA01F51E6806EA0504AC4274D1B5
:102C50001E7906F00306012E04D01E7906F0030645
:102C6000022E13D190684F000326BE40B0434F00A0
:102C7000DE68BE4030439060506801268E40B0430D
:102C80001E79C6F300168E40304350601E7906F060
:102C90000306032E09D0D0684F000326BE40B04380
:102CA0004F009E68BE403043D0601E7906F0030698
:102CB000022E13D1CF0802F1200656F827004E0746
:102CC000F70E0F26BE40B0434F07FF0E1E69BE40F1
:102CD0003043CF0802F1200646F8270010684F0065
:102CE0000326BE40B0431E7906F003064F00BE40E7
:102CF000304310605E6806F44036002E76D000BF88
:102D0000002600963C4E366846F480463A4F3E60B8
:102D10003E46366806F48046009600BF00BF374E38
:102D20008F0856F827008E07370F0F26BE40B04396
:102D3000334EB24202D1002624E057E0314EB24277
:102D400001D101261EE0304EB24201D1022619E027
:102D50002E4EB24201D1032614E02D4EB24201D1D3
:102D600004260FE02B4EB24201D105260AE02A4E7E
:102D7000B24201D1062605E0284EB24201D1072613
:102D800000E008268F073F0FBE4030431B4E8F08E0
:102D900046F82700224E3068A0435E6806F480168D
:102DA00006B120431E4E3060361D3068A0435E6879
:102DB00006F4001606B12043194E361D3060184E39
:102DC000361F3068A0435E6806F4003606B1204323
:102DD000134E361F3060361F3068A0435E6806F41D
:102DE000803606B120430E4E083E3060491C102943
:102DF000FFF426AFF8BD0000443802400838014017
:102E0000000002400004024000080240000C0240A2
:102E1000001002400014024000180240001C024052
:102E2000083C01400AB1816101E00B0483617047F5
:102E30000148006870470000240000200348006833
:102E400003490978084401490860704724000020BC
:102E50002C00002010B50D48006840F400700B49AC
:102E600008600846006840F4806008600846006812
:102E700040F480700860032000F0D6F80F2000F0C6
:102E800007F800F055F8002010BD0000003C02409B
:102E9000F0B587B004460026002700BF0020009050
:102EA0001E48006840F001001C49086008460068A0
:102EB00000F00100009000BF00BF01A902A800F0CF
:102EC00089F900F0BFF946001548B6FBF0F0471E3F
:102ED00014481549086040F2E7311348C160476063
:102EE000002101618160816100F0BEFC054695B959
:102EF0000D4800F00FFD05466DB9192000F042F8AD
:102F0000102C07D200222146192000F04FF8074864
:102F1000046000E00125284607B0F0BD44380240B7
:102F200040420F0000000140C00B0020280000209C
:102F300008B500BF002000901148006840F48040B0
:102F40000F4908600846006800F48040009000BF08
:102F500000BF00BF00200090081F006840F08050B4
:102F6000091F08600846006800F08050009000BF0C
:102F700000BF00220F21901E00F018F808BD0000CD
:102F8000443802400146084600280DDB00BF00BF60
:102F900000F01F0301229A4043099B0003F1E02344
:102FA000C3F8002100BF00BF00BF70472DE9F05FEC
:102FB00080460D461646002703F0C0FB07463946FB
:102FC0002A46334601F00700C0F1070ABAF1040FA0
:102FD00002D94FF0040A01E0C0F1070AD14600F11E
:102FE000040ABAF1070F02D24FF0000A01E0A0F183
:102FF000030AD4464FF0010A0AFA09FAAAF1010AB3
:103000000AEA020A0AFA0CFA4FF0010B0BFA0CFB5F
:10301000ABF1010B0BEA030B4AEA0B0421464046D5
:1030200003F094FBBDE8F09F00BF00F00702064BE1
:1030300019684FF6FF031940044B0B4343EA022182
:10304000014B196000BF70470CED00E00000FA056D
:1030500070B504460D460CB9012070BD5848006893
:1030600000F00700A84209D255490D7008460068D3
:1030700000F00700A84201D00120EEE7207800F020
:10308000020002281DD1207800F00400042805D198
:103090004C48006840F4E0504A490860207800F04D
:1030A0000800082805D14748006840F460404549B9
:1030B00008604448006820F0F000A16808434149D6
:1030C0000860207800F00100A8B36068012807D1EB
:1030D0003C4808380068C0F34040B8B90120BCE75C
:1030E0006068022802D06068032807D13548083894
:1030F0000068C0F3406048B90120AEE731480838A5
:103100000068C0F3400008B90120A6E72D48006818
:1031100020F00300616808432A490860FFF788FE31
:10312000064609E0FFF784FE801B41F288318842A1
:1031300002D9032091E707E02248006800F00C0064
:103140006168B0EB810FEDD11D48006800F0070009
:10315000A84209D91A490D700846006800F0070016
:10316000A84201D0012078E7207800F0040004286C
:1031700007D11448006820F4E050E1680843114981
:103180000860207800F00800082808D10D48006881
:1031900020F46040216940EAC1000A49086000F05B
:1031A00061F808490968C1F30311074A515CC84036
:1031B0000649086006480068FFF76AFE00204CE7F1
:1031C000003C02400838024024790008300000200A
:1031D000280000200F2202600D4A126802F003024C
:1031E00042600B4A126802F0F0028260084A1268DC
:1031F00002F4E052C260064A126802F46042D20849
:103200000261044A126802F007020A607047000077
:1032100008380240003C0240014800687047000046
:103220003000002000B5FFF7F7FF04490968C1F33B
:103230008221034A515CC84000BD000008380240AA
:103240003479000800B5FFF7E7FF04490968C1F3C6
:103250004231034A515CC84000BD000008380240BA
:10326000347900082DE9F047002400250026A14606
:103270002548006800F00C0020B1042805D008287B
:103280003AD105E0DFF8849039E0DFF8849036E049
:103290001D48001F006800F03F041B48001F006825
:1032A00000F4800078B11A481749091F0968C1F372
:1032B0008811A0FB01700146224600233846FCF726
:1032C000E1FF05460EE011480F49091F0968C1F3E7
:1032D0008811A0FB01700146224600233846FCF706
:1032E000D1FF05460848001F0068C0F30140401C9C
:1032F0004600B5FBF6F902E0DFF8109000BF00BF12
:103300004846BDE8F0870000083802400024F40079
:1033100000127A00F8B504460CB90120F8BD2078F7
:1033200000F00100002874D0F948006800F00C009B
:1033300004280DD0F648006800F00C00082813D1CE
:10334000F348001F006800F48000B0F5800F0BD137
:10335000EF4808380068C0F34040002859D0606842
:10336000002856D10120D9E700BF6068B0F5803F42
:1033700008D1E7480838006840F48030E44908394B
:1033800008601EE06068B0F5A02F0DD1E048083855
:10339000006840F48020DE4908390860084600686B
:1033A00040F4803008600CE0D9480838006820F408
:1033B0008030D749083908600846006820F480202A
:1033C000086000BF606890B1FFF732FD054606E077
:1033D000FFF72EFD401B642801D903209EE7CC484F
:1033E00008380068C0F340400028F1D011E0FFF732
:1033F0001FFD054606E0FFF71BFD401B642801D9B1
:1034000003208BE7C24808380068C0F3404000281A
:10341000F1D1207800F0020002285FD1BC4800689A
:1034200000F00C0058B1BA48006800F00C00082801
:103430001CD1B748001F006800F48000B0B9B44840
:1034400008380068C0F3400020B1E068012801D0CE
:10345000012063E7AE480838006820F0F8002169D1
:1034600040EAC100AA490839086037E0E06800B3C3
:103470000120A8490860FFF7DBFC054606E0FFF7DE
:10348000D7FC401B022801D9032047E7A048083891
:103490000068C0F340000028F1D09D48083800685B
:1034A00020F0F800216940EAC10099490839086014
:1034B00014E0002097490860FFF7BAFC054606E0D3
:1034C000FFF7B6FC401B022801D9032026E79048ED
:1034D00008380068C0F340000028F1D1207800F0DF
:1034E000080008282CD16069A8B101208A49086029
:1034F000FFF79EFC054606E0FFF79AFC401B0228FA
:1035000001D903200AE782486C300068C0F340000C
:103510000028F1D014E000207F490860FFF788FC04
:10352000054606E0FFF784FC401B022801D9032072
:10353000F4E677486C300068C0F340000028F1D111
:10354000207800F00400042870D10027704838303B
:10355000006800F0805090B900BF002000906C48D7
:103560003830006840F080506949383108600846BA
:10357000006800F08050009000BF00BF012767483E
:10358000006800F48070B0B96448006840F480704E
:1035900062490860FFF74CFC054606E0FFF748FC6F
:1035A000401B022801D90320B8E65C48006800F4FB
:1035B00080700028F2D000BFA068012808D15448CC
:1035C0006830006840F001005149683108601DE032
:1035D000A06805280DD14E486830006840F004000E
:1035E0004B49683108600846006840F001000860F7
:1035F0000CE047486830006820F001004449683119
:1036000008600846006820F00400086000BFA06859
:10361000A8B1FFF70DFC054609E0FFF709FC401BC8
:1036200041F28831884202D9032077E626E0384803
:1036300068300068C0F340000028EED013E0FFF7C8
:10364000F7FB054608E0FFF7F3FB401B41F288312A
:10365000884201D9032061E62D4868300068C0F334
:1036600040000028EFD1012F07D1294838300068E9
:1036700020F0805026493831086000BFA06900283A
:1036800045D02348006800F00C0008285DD0A069F0
:10369000022845D100201F490866FFF7C9FB0546EF
:1036A00006E0FFF7C5FB401B022801D9032035E6E1
:1036B000174808380068C0F340600028F1D1D4E909
:1036C00007010843616A40EA81110122A06AC2EB46
:1036D000500041EA00412C20005D41EA00600C49A5
:1036E000091F086001200B490866FFF7A1FB05468A
:1036F00006E0FFF79DFB401B022801D903200DE6E1
:10370000034808380068C0F340600028F1D049E061
:103710000838024000004742800E474200700040D7
:10372000002021490866FFF783FB054606E0FFF706
:103730007FFB401B022801D90320EFE51B480068EE
:10374000C0F340600028F2D12CE0A069012800D12C
:10375000E4E51648001D0668A069012820D006F49B
:103760008001E06981421BD106F03F01206A81425D
:1037700016D147F6C0703040616AB0EB811F0FD19F
:1037800006F440310122A06AC2EB5000B1EB004FB9
:1037900006D106F070612C20005DB1EB006F01D006
:1037A0000120BBE50020B9E5000047420038024097
:1037B0007047704730B502460B4600BF92F83C0098
:1037C000012801D1022030BD012082F83C0000BF59
:1037D000022082F83D00106844681068816824F077
:1037E00070041868044310684460184D1068A842BB
:1037F0001BD01068B0F1804F17D0154D1068A8424B
:1038000013D0144D1068A8420FD0134D1068A84271
:103810000BD0124D1068A84207D0114D1068A84275
:1038200003D0104D1068A84205D121F080015868DE
:10383000014310688160012082F83D0000BF002034
:1038400082F83C0000BF00BFBDE70000000001405F
:103850000004004000080040000C0040000401404B
:10386000004001400018004010B504460CB901208A
:1038700010BD94F83D0028B9002084F83C00204693
:1038800000F026F8022084F83D00211D206802F097
:1038900071F8012084F8460000BF84F83E00012141
:1038A0003F200155402001554120015500BF00BF78
:1038B000012084F842004320015544200155452051
:1038C000015500BF012084F83D000020D0E7000032
:1038D00038B504462068B0F1804F17D100BF0020F2
:1038E00000900B48006840F0010009490860084654
:1038F000006800F00100009000BF00BF0022052119
:103900001C20FFF753FB1C20FFF73CFB38BD0000D9
:1039100040380240014691F83D00012801D00120C5
:103920007047022081F83D000868C06840F001003F
:103930000B68D8601A4B086898421BD00868B0F131
:10394000804F17D0174B0868984213D0164B086861
:1039500098420FD0154B086898420BD0144B08685A
:10396000984207D0134B0868984203D0124B08685E
:1039700098420CD10868806800F00702062A0CD033
:103980000868006840F001000B68186005E00868EE
:10399000006840F001000B6818600020C0E70000DC
:1039A000000001400004004000080040000C0040FE
:1039B0000004014000400140001800402DE9F041A2
:1039C00004460D46002700BF94F83C00012802D1B0
:1039D0000220BDE8F081012084F83C0000BF0220F5
:1039E00084F83D002068866826F0770626F47F4636
:1039F000206886602868502833D00CDC202850D0FE
:103A000004DC00284BD0102851D149E0302849D09F
:103A100040284CD139E060282DD0702807D0B0F56F
:103A2000805F03D0B0F5005F41D10DE041E0D5E902
:103A300002136A68206802F01EF82068866846F063
:103A400077062068866034E0D5E902136A6820684A
:103A500002F011F82068806840F480402168886096
:103A600027E0EA686968206802F0F6F850212068CB
:103A700002F00CF81DE0EA686968206802F0FFF8BF
:103A80006021206802F002F813E0EA6869682068A3
:103A900002F0E2F84021206801F0F8FF09E000BFE1
:103AA00000BF00BF2968206801F0F0FF01E0012796
:103AB00000BF00BF012084F83D0000BF002084F853
:103AC0003C0000BF384684E7704770B50446206864
:103AD000C5682068066906F00200022819D105F0C1
:103AE0000200022815D1401F2168086101202077BB
:103AF0002068806900F0030018B12046FFF7E4FF5A
:103B000005E0204600F0F2F8204600F0E7F900203A
:103B1000207706F00400042819D105F004000428D9
:103B200015D1C04321680861022020772068806990
:103B300000F4407018B12046FFF7C6FF05E02046AC
:103B400000F0D4F8204600F0C9F90020207706F0F4
:103B50000800082819D105F00800082815D1C0432D
:103B600021680861042020772068C06900F0030004
:103B700018B12046FFF7A8FF05E0204600F0B6F890
:103B8000204600F0ABF90020207706F01000102846
:103B900019D105F01000102815D1C0432168086123
:103BA000082020772068C06900F4407018B12046D2
:103BB000FFF78AFF05E0204600F098F8204600F065
:103BC0008DF90020207706F0010048B105F00100D2
:103BD00030B16FF0010021680861204600F006FA5C
:103BE00006F08000802809D105F08000802805D1EA
:103BF000C043216808612046FFF7DAFD06F0400067
:103C0000402809D105F04000402805D1C043216873
:103C10000861204600F0F6F906F02000202809D1BE
:103C200005F02000202805D1C04321680861204606
:103C3000FFF7BFFD70BD000010B586B0044614212B
:103C400001A8FCF769FB2449206888421ED100BF07
:103C5000002000902148006840F002001F490860E1
:103C60000846006800F00200009000BF00BF01207D
:103C70000190022002900120039003200490022072
:103C8000059001A91648FEF7D3FF22E015492068E8
:103C900088421ED100BF002000901048006840F00C
:103CA00008000E4908600846006800F0080000900F
:103CB00000BF00BF4FF4005001900220029001208D
:103CC0000390032004900220059001A90648FEF706
:103CD000AFFF06B010BD00000004004030380240C5
:103CE0000004024000080040000C024070472DE92B
:103CF000F04104460D461646002700BF94F83C00EC
:103D0000012802D10220BDE8F081012084F83C00A6
:103D100000BF36B1042E1BD0082E31D00C2E5ED140
:103D200045E02946206801F0BBFE2068806940F02C
:103D30000800216888612068806920F004002168FB
:103D4000886120688069296908432168886148E0A2
:103D50002946206801F0DCFE2068806940F400609C
:103D6000216888612068806920F48060216888610A
:103D700020688069296940EA01202168886130E073
:103D80002946206801F002FF2068C06940F0080061
:103D90002168C8612068C06920F004002168C861FA
:103DA0002068C069296908432168C86119E029466B
:103DB000206801F027FF2068C06940F40060216896
:103DC000C8612068C06920F480602168C8612068EB
:103DD000C069296940EA01202168C86101E0012722
:103DE00000BF00BF00BF002084F83C0000BF384681
:103DF00089E710B504460CB9012010BD94F83D00C8
:103E000028B9002084F83C00204600F025F8022064
:103E100084F83D00211D206801F0ACFD012084F8EC
:103E2000460000BF84F83E0001213F20015540209C
:103E300001554120015500BF00BF012084F8420018
:103E400043200155442001554520015500BF012064
:103E500084F83D000020D0E738B504461C492068AE
:103E6000884218D100BF002000901A48006840F036
:103E70000200184908600846006800F0020000903F
:103E800000BF00BF002205211D20FFF78FF81D2075
:103E9000FFF778F81BE010492068884217D100BF6F
:103EA000002000900B48006840F0040009490860B9
:103EB0000846006800F00400009000BF00BF002228
:103EC00005211E20FFF772F81E20FFF75BF838BDB2
:103ED00000040040403802400008004070470000E5
:103EE00070B504460D4615B994F83E000BE0042D5C
:103EF00002D13F20005D06E0082D02D14020005D88
:103F000001E04120005D012801D0012070BD1DB9F4
:103F1000022084F83E000EE0042D03D102213F2050
:103F2000015508E0082D03D102214020015502E08F
:103F300002214120015501222946206801F08AFD15
:103F400023492068884203D022492068884201D151
:103F5000012000E0002028B12068406C40F40040BF
:103F6000216848641A49206888421BD02068B0F153
:103F7000804F17D018492068884213D0174920680D
:103F800088420FD01649206888420BD0114920681A
:103F9000884207D013492068884203D0124920681C
:103FA00088420CD12068806800F00706062E0CD0ED
:103FB0002068006840F001002168086005E0206882
:103FC000006840F001002168086000209EE70000C2
:103FD00000000140000401400004004000080040CF
:103FE000000C0040004001400018004010B504469D
:103FF00003492068884201D1FEF720FF10BD000070
:10400000000001407047704708B5014691F8410033
:1040100021280ED100BF00BF0A68143252E8002FD9
:1040200042F080000A68143242E80003002BF3D10A
:1040300000BF91F84200222839D100BF0020009033
:1040400008680068009008684068009000BF00BFE2
:10405000086970B100BF00BF0A680C3252E8002F37
:1040600042F480700A680C3242E80003002BF3D15E
:1040700000BF00BF00BF0A68143252E8002F42F0B0
:1040800001000A68143242E80003002BF3D100BF9C
:1040900000BF00BF0A68143252E8002F42F040000F
:1040A0000A68143242E80003002BF3D100BF00205D
:1040B00008BD70B50446002520684069C0F3C015EE
:1040C00094F84100212817D1B5B100BF00BF216885
:1040D000143151E8001F21F080002168143141E8BB
:1040E0000002002AF3D100BFA06B10B1A06BFEF755
:1040F00054FB204602F00CF820684069C0F380159C
:1041000094F84200222817D1B5B100BF00BF216842
:10411000143151E8001F21F040002168143141E8BA
:104120000002002AF3D100BFE06B10B1E06BFEF794
:1041300034FB204601F0A6FF002070BD7047000050
:104140002DE9F84F0446206805682068C668206895
:1041500047694FF00009CA4605F00F09B9F1000F91
:104160000AD105F0200038B106F0200020B1204629
:1041700001F0E1FFBDE8F88FB9F1000F7CD007F046
:10418000010018B906F49070002875D005F0010000
:1041900030B106F4807018B1606C40F001006064CA
:1041A00005F0040030B107F0010018B1606C40F078
:1041B0000200606405F0020030B107F0010018B1A0
:1041C000606C40F00400606405F0080048B106F03F
:1041D000200010B907F0010018B1606C40F0080031
:1041E0006064606C002846D005F0200028B106F01D
:1041F000200010B1204601F09EFF20684069C0F306
:10420000801A606C00F0080010B9BAF1000F2DD0D0
:10421000204601F037FF2068406900F04000402848
:1042200020D100BF00BF2168143151E8001F21F0E8
:1042300040002168143141E80002002AF3D100BF98
:10424000E06B50B17F48E16B0865E06BFEF7FBFA6D
:1042500088B1E06B016D88470DE02046FFF76EFFE7
:1042600009E009E02046FFF769FF04E02046FFF778
:1042700065FF002060647DE7206B012878D105F0A0
:104280001000002874D006F010000028FAD000BFFB
:10429000002000902068006800902068406800902E
:1042A00000BF00BF2068406900F04000402870D186
:1042B000E06B006840681FFA80F8B8F1000F58D032
:1042C000A08D404555DDA4F82E80E06BC069B0F5A7
:1042D000807F43D000BF00BF21680C3151E8001F30
:1042E00021F4807021680C3141E80002002AF3D1EA
:1042F00000BF00BF00BF2168143151E8001F21F04A
:1043000001002168143141E80002002AF3D100BF06
:1043100000BF00BF2168143151E8001F21F04000A8
:104320002168143141E80002002AF3D100BF2020A7
:1043300084F842000020206300BF00BF21680C31D8
:1043400051E8001F21F0100021680C3141E8000203
:10435000002AF3D100BFE06BFEF71FFA0220606372
:10436000A08DE28D801A81B22046FFF74CFE0EE050
:1043700052E0A08D40450AD1E06BC069B0F5807F66
:1043800005D102206063A18D2046FFF73CFEF1E6D7
:10439000FFE7A08DE18D401A1FFA80F8E08DD0B3C1
:1043A000B8F1000F37D000BF00BF21680C3151E8D1
:1043B000001F21F4907021680C3141E80002002AAE
:1043C000F3D100BF00BF00BF2168143151E8001FC6
:1043D00021F001002168143141E80002002AF3D1E4
:1043E00000BF202084F842000020206300BF00BFEF
:1043F00021680C3151E8001F21F0100021680C31B8
:1044000041E80002002AF3D100BF02206063414668
:104410002046FFF7F8FDADE605F0800030B106F06C
:10442000800018B1204602F087F8A3E605F04000AE
:1044300030B106F0400018B1204601F059FE99E66F
:1044400000BF97E6E55E000810B504460CB90120F0
:1044500010BDA06900B100E000BF94F8410028B988
:10446000002084F84000204600F02AF8242084F838
:1044700041002068C06820F400502168C8602046D0
:1044800001F0D8FE2068006920F49040216808619E
:104490002068406920F02A00216848612068C068CF
:1044A00040F400502168C86000206064202084F837
:1044B000410084F842000020606300BFC8E70000AC
:1044C00010B586B00446142101A8FBF725FF7B49EF
:1044D0002068884276D100BF0020009078480068AC
:1044E00040F01000764908600846006800F01000AF
:1044F000009000BF00BF00BF00200090704814383B
:10450000006840F001006E491439086008460068F0
:1045100000F00100009000BF00BF4FF4C0600190A8
:1045200002200290012003900320049007200590B0
:1045300001A96448FEF77CFB6348644908604FF0BA
:1045400000604860002161488160C1604FF4806173
:104550000161002141618161C16101624162FEF737
:10456000A7FA08B1FDF77AFA00BF5848E063846300
:1045700000BF55487830564908604FF000604860E9
:104580004021534881600021C1604FF48061016186
:10459000002141618161C16101624162FEF788FAD7
:1045A00008B1FDF75BFA00BF4948A063846300BF10
:1045B000002205212520FEF7F9FC2520FEF7E2FC6C
:1045C0007AE0FFE743492068884275D100BF0020A8
:1045D00000903B48001F006840F400303849091F34
:1045E00008600846006800F40030009000BF00BF7B
:1045F00000BF0020009032481438006840F00800E6
:104600002F49143908600846006800F0080000903F
:1046100000BF00BF602001900220029001200390A3
:10462000032004900720059001A92B48FEF700FB0A
:104630002A482B4908604FF0006048600021284854
:104640008160C1604FF4806101610021416181613D
:10465000C16101624162FEF72BFA08B1FDF7FEF974
:1046600000BF1F48E063846300BF1C4818301D4929
:1046700008604FF00060486040211A4881600021C6
:10468000C1604FF480610161002141618161C161BC
:1046900001624162FEF70CFA08B1FDF7DFF900BFD5
:1046A0001048A063846300BF002205212620FEF786
:1046B0007DFC2620FEF766FC06B010BD0010014010
:1046C000443802400000024040640240400A00209A
:1046D000A00A002000440040000C02408860024014
:1046E000000B0020600B002070B504460D461646F6
:1046F00094F8420020280BD105B10EB9012070BDFD
:104700000020206332462946204601F0A9FEF6E744
:104710000220F4E7704770472DE9F84F04460E4633
:10472000174699464FF0000A94F84100202850D1CE
:1047300006B117B90120BDE8F88F00206064212080
:1047400084F84100FEF774FB8246A784E784A068E2
:10475000B0F5805F04D1206910B90025B04602E0B1
:1047600035464FF000081EE05346002280212046C7
:10477000CDF8009001F010FF20B1202084F8410016
:104780000320D8E745B9B8F80000C0F30800216855
:10479000486008F1020803E02878216848606D1C31
:1047A000E08C401EE084E08C0028DDD153460022DE
:1047B00040212046CDF8009001F0EEFE20B12020EF
:1047C00084F841000320B6E7202084F8410000204F
:1047D000B1E70220AFE70000F7B50446154694F8AC
:1047E000410020283ED1019800B10DB90120FEBD45
:1047F00001982062A584E58400206064212084F86B
:1048000041001948A16BC8631848A16B0864184897
:10481000A16BC8640020A16B086501AE23681A1D56
:1048200031682B46A06BFEF7B9F930B110206064F7
:10483000202084F841000120D9E76FF04000216872
:10484000086000BF00BF2168143151E8001F41F02B
:1048500080002168143141E80002002AF3D100BF32
:104860000020C4E70220C2E71F600008776000084C
:10487000F75E00087047704700BFFEE710B52DEDEA
:10488000048B3D4890F9000020B1012842D0022855
:104890006ED169E00020394908600120384908706C
:1048A0009FED380A384880ED000A41F6E840374964
:1048B0000880374890ED000ADFED320A30EE600ADA
:1048C00010EE101A0846FBF76AFE41EC190BB0EE29
:1048D000490AF0EE690A01F04DFFB0EE408AF0EEB1
:1048E000608A9FED2C0B53EC102B51EC180BFBF74F
:1048F00069FE0ED229480068A0F5E054E83C002C7F
:1049000001DB204600E06042052802DA01201A4956
:1049100008702DE09FED220A224880ED000A22480F
:1049200090ED000ADFED1E0A30EE600A10EE101A5C
:104930000846FBF734FE41EC190BB0EE490AF0EEE5
:10494000690A01F017FFB0EE408AF0EE608A9FED31
:10495000110B53EC102B51EC180BFBF733FE02D26A
:1049600002200549087003E000201049087000BFCC
:1049700000BFBDEC048B10BD78050020F0000020C6
:10498000C800002000002FC4B4000020B0000020A8
:10499000D00000200000000000001440CC000020E7
:1049A0000000E143BC000020D8000020EC050020FE
:1049B00010B52DED048BD24890F90000072847D29E
:1049C000DFE800F0044771C1D4FCFB000020CD49B2
:1049D00008600220CC4908600120CC4908709FED96
:1049E000CC0ACC4880ED000A41F28830CA490880E0
:1049F000CA4890ED000ADFEDC60A30EE600A10EEFC
:104A0000101A0846FBF7CBFD41EC190BB0EE490A32
:104A1000F0EE690A01F0AEFEB0EE408AF0EE608A78
:104A20009FEDBF0B53EC102B51EC180BFBF7CAFD9D
:104A30000ED2BD480068A0F59854883C002C01DBDC
:104A4000204600E06042052802DA0120AC490870E7
:104A500051E19FEDB60AB64880ED000AB54890EDE9
:104A6000000ADFEDB20A30EE600A10EE101A0846B6
:104A7000FBF795FD41EC190BB0EE490AF0EE690A1F
:104A800001F078FEB0EE408AF0EE608A9FEDA40B54
:104A900053EC102B51EC180BFBF794FD02D20220C3
:104AA0009749087027E19FEDA40AA44880ED000A09
:104AB0009FEDA30AA34880ED000AA34890ED000AE9
:104AC000DFED9D0A30EE600A10EE101A0846FBF783
:104AD00066FD41EC190BB0EE490AF0EE690A01F0EF
:104AE00049FEB0EE408AF0EE608A9FED980B53ECE1
:104AF000102B51EC180BFBF765FD23D2954890ED78
:104B0000000ADFED8F0A30EE600A10EE101A084638
:104B1000FBF745FD41EC190BB0EE490AF0EE690ACE
:104B200001F028FEB0EE408AF0EE608A9FED870B20
:104B300053EC102B51EC180BFBF744FD02D2032071
:104B40006F490870D7E084480068401C82490860BB
:104B500008460068142808DD00206C49087004200D
:104B60006749087000207C490860C4E0764890EDF1
:104B7000000A7A48D0ED000A30EE600A10EE101AF2
:104B80000846FBF70CFD41EC190BB0EE490AF0EEBC
:104B9000690A01F0EFFDB0EE408AF0EE608A9FED09
:104BA000700B53EC102B51EC180BFBF723FD29D2A3
:104BB000684890ED000A6C4801E070E037E0D0ED05
:104BC000000A30EE600A10EE101A0846FBF7E7FC08
:104BD00041EC190BB0EE490AF0EE690A01F0CAFD8A
:104BE000B0EE408AF0EE608A9FED5D0B53EC102B27
:104BF00051EC180BFBF7FEFC04D25C480068401C2B
:104C00005A49086059480068AA280FDD9FED580AE4
:104C10004A4880ED000A9FED560A4A4880ED000A96
:104C200000205249086005203549087063E051486A
:104C30000068401C4F49086008460068462809DDA6
:104C4000002008600120314908709FED4B0A31486F
:104C500080ED000A314890ED000ADFED470A30EEA2
:104C6000600A10EE101A0846FBF799FC41EC190B8C
:104C7000B0EE490AF0EE690A01F07CFDB0EE408A20
:104C8000F0EE608A9FED3D0B53EC102B51EC180BAE
:104C9000FBF798FC02D20620194908702BE09FED23
:104CA000340A234880ED000A224890ED000ADFED27
:104CB000300A30EE600A10EE101A0846FBF76FFC5F
:104CC00041EC190BB0EE490AF0EE690A01F052FD11
:104CD000B0EE408AF0EE608A9FED110B53EC102B82
:104CE00051EC180BFBF76EFC04D20020254908702C
:104CF0000549086000BF00BFBDEC048B10BD00007B
:104D00007B050020F0000020EC000020C8000020FF
:104D100000806DC4B4000020B0000020D00000204E
:104D20000000000000001440CC00002000800E4471
:104D3000BC000020D8000020000048C4C0000020B3
:104D400000006144C4000020DC00002000000000DE
:104D500000002440E0000020A8050020F00500200D
:104D60000000000000004940F4050020AC050020D0
:104D700000000000B0050020000048C20000000054
:104D800000008940E90500200FB400B587B00898FD
:104D900028B10120314908700020314908702F489E
:104DA000007808B1FFF76AFD099828B101202D4964
:104DB000087000202C4908702A48007808B100F0DB
:104DC00023FC0A9828B101202849087000202849AE
:104DD00008702648007840B11C220CA96846FBF7F1
:104DE00082FA08A80FC8FCF71DF80B9828B101201B
:104DF000204908700020204908701E48007808B13A
:104E0000FFF7D6FD0C9828B101201C49087000203E
:104E10001B4908701948007840B11C220CA968464B
:104E2000FBF761FA08A80FC8FBF7DAFD0D9828B167
:104E300001201449087000201349087011480078B7
:104E400040B11C220CA96846FBF74DFA08A80FC810
:104E5000FBF77EFE07B05DF814FB0000EC050020B8
:104E600078050020ED05002079050020E8050020E8
:104E70007A050020E90500207B050020EA050020D6
:104E80007C050020EB0500207D05002088B000BFD8
:104E90001C2209496846FBF726FA074810380FC854
:104EA000FFF772FF0548C089401C0449C8810120F2
:104EB00002F0A2F9ECE70000E0490020864900205A
:104EC00010B50E480E4908600320486000210C48C8
:104ED0008160C1604FF4002101614FF440114161D4
:104EE0000021017641768176C17601774177FDF721
:104EF00021F908B1FCF7B2FD10BD000000640040CC
:104F00008808002010B50E480E490860032048604C
:104F100000210C488160C1604FF4002101614FF411
:104F2000401141610021017641768176C176017799
:104F30004177FDF7FFF808B1FCF790FD10BD0000C8
:104F400000680040B008002008B500BF00200090B5
:104F50001E48006840F480001C490860084600684C
:104F600000F48000009000BF00BF00BF0020009050
:104F70000846006840F4001008600846006800F425
:104F80000010009000BF00BF002205211020FEF796
:104F90000DF81020FDF7F6FF002205211120FEF785
:104FA00005F81120FDF7EEFF002205213A20FDF75C
:104FB000FDFF3A20FDF7E6FF002205214620FDF720
:104FC000F5FF4620FDF7DEFF08BD00003038024047
:104FD00000B5ABB01C22244924A8FBF784F90021BA
:104FE00024A801F0D9FC214908601C221E491C316B
:104FF0001DA8FBF778F900211DA801F0CDFC1C4984
:1050000008601C221849383116A8FBF76CF90021FA
:1050100016A801F0C1FC174908601C22124954313E
:105020000FA8FBF760F900210FA801F0B5FC1249A9
:1050300008601C220C49703108A8FBF754F90021C4
:1050400008A801F0A9FC0D4908601C2206498C3112
:1050500001A8FBF748F9002101A801F09DFC0849CF
:1050600008602BB000BD0000747800080400002028
:10507000080000200C000020100000201400002078
:105080001800002000B587B0142102A8FBF744F9EE
:1050900000BF002001902E48006840F080002C499D
:1050A00008600846006800F08000019000BF00BF63
:1050B00000BF002001900846006840F00200086030
:1050C0000846006800F00200019000BF00BF00BF6A
:1050D000002001900846006840F00800086008467B
:1050E000006800F00800019000BF00BF00BF002072
:1050F00001900846006840F0040008600846006817
:1051000000F00400019000BF00BF00BF002001902C
:105110000846006840F0010008600846006800F09A
:105120000100019000BF00BF01224FF488610948CF
:10513000FDF778FE4FF48860029001200390049000
:105140000320059002A90348FDF772FD07B000BDDA
:10515000303802400008024000B587B000200390BC
:10516000049005900690019002904FF08040144901
:10517000086042F2CF00486000211148816042F28D
:105180000F71C160002101618161FEF76DFB08B103
:10519000FCF764FC4FF48050039003A90848FEF725
:1051A0000DFC08B1FCF75AFC00200190029001A907
:1051B0000348FEF7FFFA08B1FCF750FC07B000BD4A
:1051C000D808002000B589B00020079008901C2165
:1051D0006846FBF7A1F81848184908601420486091
:1051E00000211648816040F69F71C1600021016175
:1051F0008161FEF7FEFD08B1FCF730FC002007904E
:10520000089007A90D48FEF7D5FA08B1FCF726FC6F
:1052100060200090002001900290049008226946CE
:105220000648FEF764FD08B1FCF718FC0348FEF7DA
:1052300003FD09B000BD000000040040200900206B
:1052400000B589B00020079008901C216846FBF744
:1052500063F818481849086014204860002116486F
:10526000816040F69F71C160002101618161FEF79C
:10527000C0FD08B1FCF7F2FB00200790089007A9D9
:105280000D48FEF797FA08B1FCF7E8FB60200090A4
:105290000020019002900490042269460648FEF71F
:1052A00026FD08B1FCF7DAFB0348FEF7C5FC09B0A0
:1052B00000BD0000000800406809002010B50B4840
:1052C0000B4908604FF4E1204860002108488160E4
:1052D000C16001610C21416100218161C161FFF761
:1052E000B3F808B1FCF7BAFB10BD00000010014094
:1052F000B009002010B50B480B4908604FF4E120BD
:105300004860002108488160C16001610C21416151
:1053100000218161C161FFF797F808B1FCF79EFB9E
:1053200010BD000000440040F809002000BFFEE767
:1053300030B5841A23B21C1E01DB254600E065420D
:10534000322D02DA01240C8001E000240C8030BDF3
:1053500000BF034800F070FA012001F04DFFF8E7AC
:105360008649002000BFFEE710B52DED088B0446EE
:1053700094ED000AD4ED010A30EE600A84ED050ACE
:1053800094ED0C0A10EE101A0846FBF708F941ECF0
:10539000190B94ED050A10EE101A0846FBF7FFF8FA
:1053A00041EC1B0BB0EE4B0AF0EE6B0A01F0E2F998
:1053B000B0EE40AAF0EE60AA53EC192B51EC1A0B98
:1053C000FBF700F903D89FED500A84ED050A94ED30
:1053D0000A0A10EE101A0846FBF7E1F841EC190B27
:1053E00094ED050A10EE101A0846FBF7D8F841ECC8
:1053F0001B0BB0EE4B0AF0EE6B0A01F0BBF9B0EEFE
:1054000040AAF0EE60AA53EC192B51EC1A0BFBF7F3
:10541000D9F807D294ED070AD4ED050A30EE200A38
:1054200084ED070A94ED070AD4ED090AB4EEE00A08
:10543000F1EE10FA04DD94ED090A84ED070A10E09C
:1054400094ED070AD4ED090AF1EE600AB4EEE00A21
:10545000F1EE10FA05D294ED090AB1EE400A84ED9E
:10546000070A94ED020AD4ED050A20EE200A84ED25
:105470000D0A94ED030AD4ED070A20EE200A84ED0C
:105480000E0A94ED050AD4ED060A30EE608A94ED1A
:10549000040A20EE080A84ED0F0A94ED0D0AD4EDFB
:1054A0000E0A30EE200AD4ED0F0A30EE200A84ED09
:1054B000080A94ED080AD4ED0B0AB4EEE00AF1EE06
:1054C00010FA04DD94ED0B0A84ED080A10E094ED67
:1054D000080AD4ED0B0AF1EE600AB4EEE00AF1EE30
:1054E00010FA05D294ED0B0AB1EE400A84ED080AD9
:1054F00094ED050A84ED060A94ED0F0A84ED100A76
:10550000BDEC088B10BD00000000000010B5044683
:1055100004F14400FFF728FF94ED190A84ED000A16
:105520002046FFF721FF94ED080A84ED220A10BD02
:1055300010B51E220D490E48FFF7D6F80C4800683A
:10554000C06840F010000A490968C8600948FEF7C1
:10555000E1F908210848FEF7C3FC04210748FEF7DB
:10556000BFFC01F0D3F901F0DFF910BD10490020B4
:10557000B0090020D8080020200900206809002078
:1055800000BF0649064801F087F80648808A401C9B
:1055900004498882012001F02FFEF2E71049002023
:1055A000D04900208649002010B586B0044640202E
:1055B000019000208DF80D008DF80C0001208DF871
:1055C0000E008DF80F4001230DF10F02402102481B
:1055D000FBF76AFE06B010BD88080020B5EEC00AD1
:1055E000F1EE10FA01DD01207047B5EEC00AF1EED0
:1055F00010FA02D24FF0FF30F6E70020F4E700BFC8
:10560000012001F0F9FDFBE710B52DED048B3D48BD
:1056100090F9000020B1012832D002286ED169E053
:105620000020394908609FED390A394880ED000AA9
:10563000012038490870384890ED000ADFED330A40
:1056400030EE600A10EE101A0846FAF7A8FF41EC97
:10565000190BB0EE490AF0EE690A01F08BF8B0EED2
:10566000408AF0EE608A9FED2D0B53EC102B51EC2D
:10567000180BFAF7A7FF02D20120224908703DE07B
:105680009FED280A284880ED000A41F2883027491A
:105690000880274890ED000ADFED220A30EE600A0C
:1056A00010EE101A0846FAF77AFF41EC190BB0EE2B
:1056B000490AF0EE690A01F05DF8B0EE408AF0EEBA
:1056C000608A9FED160B53EC102B51EC180BFAF778
:1056D00079FF0ED217480068A0F59854883C002C3A
:1056E00001DB204600E06042052802DA022005497D
:1056F000087003E000201049087000BF00BFBDEC37
:10570000048B10BD79050020F0000020000000008F
:10571000BC000020C8000020D800002000000000CD
:105720000000144000806DC4B4000020B0000020D0
:10573000D0000020CC000020ED05002010B500BFF7
:10574000502080F31188BFF34F8FBFF36F8F00BFDE
:1057500001F06AFF18B14FF080500449086000BFA3
:10576000002080F3118800BF10BD000004ED00E0B0
:1057700000B593B0302107A8FAF7CEFD142102A896
:10578000FAF7CAFD00BF002001902448006840F0ED
:105790008050224908600846006800F0805001905F
:1057A00000BF00BF00BF002001901D48006840F40A
:1057B00080401B4908600846006800F48040019062
:1057C00000BF00BF012007900004089002200D9048
:1057D00041050E9104210F91A821109102211191F0
:1057E0000421129107A8FDF795FD08B1FCF736F9E1
:1057F0000F20029002200390002004904FF4A0504C
:1058000005904FF480500690052102A8FDF720FC7A
:1058100008B1FCF723F913B000BD00004038024086
:10582000007000400348006840F4700001490860BF
:105830007047000088ED00E010B50446E08D4FF49D
:105840007A7204F14601FFF773FD208D4FF47A72EE
:1058500004F14001FFF76CFDE08C4FF47A7204F123
:105860003E01FFF765FDA08D4FF47A7204F144010B
:10587000FFF75EFD608D4FF47A7204F14201FFF78D
:1058800057FD208C4FF47A7204F13801FFF750FD78
:10589000608C4FF47A7204F13A01FFF749FD208BD6
:1058A0004FF47A7204F13001FFF742FDE08B4FF4C0
:1058B0007A7204F13601FFF73BFDA08B4FF47A7248
:1058C00004F13401FFF734FD608B4FF47A7204F178
:1058D0003201FFF72DFDA08C4FF47A7204F13C01E8
:1058E000FFF726FD10BD10B52DED028B0446B0EE7E
:1058F000408A84ED068A2046FBF734FD94ED000AC9
:10590000BDEC028B10BD000010B50248FEF7DDF8BB
:1059100010BD0000C00B002010B50C4800680069E5
:1059200000F0010070B16FF00100084909680861DA
:105930001822074901F11800FAF7D5FC182104488C
:10594000FAF7EAFC0148FEF7C0F810BDD8080020BD
:105950008649002010B50248FEF7B7F810BD0000D8
:105960002009002010B50248FEF7AFF810BD000076
:105970006809002010B502682B4B98420ED0B0F198
:10598000804F0BD0294B984208D0294B984205D024
:10599000284B984202D0284B984203D122F0700243
:1059A0004B681A43204B984220D0B0F1804F1DD055
:1059B0001E4B98421AD01E4B984217D01D4B98424E
:1059C00014D01D4B984211D01C4B98420ED01C4B4A
:1059D00098420BD01B4B984208D01B4B984205D0E5
:1059E0001A4B984202D01A4B984203D122F44072CB
:1059F000CB681A4322F080034C6943EA04028B68A7
:105A0000C3620B688362084B984202D00A4B9842EB
:105A100001D10B690363036843F0040303600123AE
:105A20004361026010BD000000000140000400401E
:105A300000080040000C004000040140004001400C
:105A4000004401400048014000180040001C004094
:105A50000020004030B501F01F05012404FA05F3D1
:105A6000046A9C430462046A01F01F0502FA05F50A
:105A70002C43046230BD30B50C46816821F47F416F
:105A800042EA032525432943816030BD0A468168E7
:105A900021F0700142F00703194381607047000054
:105AA00030B5026A056A25F001050562436884691C
:105AB00024F0700424F003040D682C4322F0020249
:105AC0008D682A43104DA84200D103E00F4DA84233
:105AD00006D100BF22F00802CD682A4322F004025A
