:020000040800F2
:10000000284F00206102000809570008854B0008AE
:10001000D156000839130008456C000800000000A4
:10002000000000000000000000000000A101000826
:10003000BD1D000800000000FD010008B95C0008BB
:100040007B0200087B0200087B0200087B0200089C
:100050007B0200087B0200087B0200087B0200088C
:100060007B0200087B0200087B0200087B0200087C
:100070007B0200087B0200087B0200087B0200086C
:10008000311B0008411B00087B0200087B020008AE
:10009000851300087B0200087B0200087B02000831
:1000A0007B020008855E00087B0200087B020008D6
:1000B000955E0008D15E0008E15E00087B02000842
:1000C0007B0200087B0200087B0200087B0200081C
:1000D0007B020008D56B0008356C00087B02000825
:1000E0007B0200087B0200087B0200087B020008FC
:1000F0007B0200087B0200087B0200087B020008EC
:100100007B0200087B0200087B0200087B020008DB
:100110007B0200087B0200087B0200087B020008CB
:100120007B0200087B020008511B00087B020008CC
:100130007B0200087B0200087B0200087B020008AB
:10014000DD1300087B0200087B0200087B02000828
:100150007B0200087B020008611B00087B0200088C
:100160007B0200087B0200087B0200087B0200087B
:100170007B0200087B0200087B02000800000000F0
:100180007B0200087B020008DFF810D000F0C0FB03
:1001900000480047AF6F0008AFF30080284F0020F1
:1001A0002C4B19680868B0E8F04F80F30988BFF35A
:1001B0006F8F4FF0000080F311887047000000003F
:1001C00008480068006880F308884FF0000080F35A
:1001D000148862B661B6BFF34F8FBFF36F8F00DF35
:1001E00000BF00BF08ED00E0DFF80C00016841F43B
:1001F00070010160704700BF88ED00E0EFF30980F7
:10020000BFF36F8F134B1A681EF0100F08BF20ED5D
:10021000108A20E9F04F106009B44FF0500080F3CD
:100220001188BFF34F8FBFF36F8F07F0A7FB4FF01D
:10023000000080F3118809BC19680868B0E8F04F25
:100240001EF0100F08BFB0EC108A80F30988BFF3CE
:100250006F8F704740000020EFF30580704700006B
:100260000648804706480047FEE7FEE7FEE7FEE750
:10027000FEE7FEE7FEE7FEE7FEE7FEE7A15D00081A
:10028000890100082DE9F05F0546002092469B4653
:1002900088460646814640241BE02846414647469C
:1002A000224600F0EAF953465A46C01A914110D34B
:1002B00011461846224600F0D1F92D1A67EB0108C5
:1002C0004F4622460120002100F0C8F917EB000933
:1002D0004E41201EA4F10104DFDC484631462A4687
:1002E0004346BDE8F09F40EA01039B0703D009E0C5
:1002F00008C9121F08C0042AFAD203E011F8013B12
:1003000000F8013B521EF9D27047D2B201E000F86A
:10031000012B491EFBD270470022F6E710B51346A9
:100320000A4604461946FFF7F0FF204610BD2DE9A6
:10033000FE4F804681EA0300C00F0C46009021F07A
:10034000004123F00045B8EB0200A94105D2404628
:10035000214690461C460B46024623F000401043BF
:1003600047D0270DC7F30A00C3F30A510290401A81
:10037000019040286BDAC3F3130040F4801B00980F
:10038000924620B10023D2EB030A63EB0B0B0198DA
:100390005946C0F14002504600F060F906460D464D
:1003A00050465946019A00F078F910EB0800614177
:1003B000002487EA115284EAE7731A4340D0009A76
:1003C00062B3019A012A4FEA075215DC001B61EB68
:1003D00002014FF0004202EA0752CDE90042001C40
:1003E00041F5801132462B4600F0AFF903B0BDE86D
:1003F000F08F40462146F9E7001B61EB0201001C2B
:1004000041F5801300185B412018A2F5001747EB57
:10041000030140EAD570B6196D4111E06D084FEA4D
:10042000360645EAC0754FEA0752001B61EB020130
:10043000001C41F5801149084FEA30000019514174
:1004400032462B4603B0BDE8F04F00F06FB900987C
:10045000012240000023D0EB020263EBE07300981E
:1004600021464FEAE074B8EB000061EB0401E9E7D4
:1004700083F000435BE781F0004158E72DE9FE4F30
:1004800081EA030404F0004421F0004100944FF09D
:10049000000B23F0004350EA01045ED052EA03044B
:1004A0005BD0C3F30A54C1F30A552C44A4F2F334CD
:1004B0000194A0FB0254C1F3130141F48011C3F372
:1004C000130343F4801301FB024400FB034E840A30
:1004D000970A44EA815447EA8357A4FB07680295C8
:1004E0008D0A05FB07854FEA932C04FB0C54270566
:1004F000029D4FEA065847EA1637B5EB08056EEB42
:10050000070C870E920E47EA811742EA8312A7FB77
:100510000201B6EB0B0164EB00042B0D43EA0C3334
:100520005E1844EB1C50DA465146E7FB0201C5F366
:1005300013044FEA0B3343EA14534FEA0432019C8D
:1005400043EA0603A4F10C040294009CCDE900B434
:1005500000F0FBF803B0BDE8F08F00200146F9E79A
:1005600070B5C1F30A5201F000450024C1F3130134
:1005700040F2FF3341F480119A4201DA002070BD4D
:1005800040F233439A42A2F2334203DC524200F07B
:1005900074F800E090402C43F1D0404270BD00F070
:1005A000004230F000400AD0C10D01F56071C0F387
:1005B000160042EA0151C20840071143704700206B
:1005C0000146704730B5041E71F1000404DB4FF0A2
:1005D0000044404264EB0101141E73F1000405DB8A
:1005E0001C464FF00043524263EB04038B4208BFAA
:1005F000824230BD30B5041E71F1000404DB4FF0BF
:100600000044404264EB0101141E73F1000405DB59
:100610001C464FF00043524263EB0403994208BF6B
:10062000904230BD01F0004330B421F0004150EA67
:10063000010206D00A0DA2F56072C1F31301002A6F
:1006400002DC30BC00207047440F44EAC104C10002
:10065000E01830BC00EBC25000F031B8202A04DBB7
:10066000203A00FA02F1002070479140C2F12003C5
:1006700020FA03F3194390407047202A04DB203A04
:1006800021FA02F00021704721FA02F3D040C2F1B2
:1006900020029140084319467047202A06DBCB17F9
:1006A000203A41FA02F043EAE07306E041FA02F32D
:1006B000D040C2F1200291400843194670470029FA
:1006C000A8BF7047401C490008BF20F001007047D8
:1006D00010B4B0FA80FC00FA0CF050EA010404BF38
:1006E00010BC704749B1CCF1200421FA04F411FA8E
:1006F0000CF118BF012121430843A3EB0C01CB1DD2
:100700004FEA00614FEA102042BF002010BC704742
:1007100000EBC35010440029A4BF10BC7047401C1C
:10072000490008BF20F0010010BC704710B5141E2E
:1007300073F1000408DA401C41F1000192185B419A
:100740001A4301D120F0010010BD2DE9F04D924671
:100750009B4611B1B1FA81F202E0B0FA80F2203288
:100760009046FFF77BFF04460F4640EA0A0041EA45
:100770000B0153465A46084313D0114653EA010071
:1007800019D0C8F140025046FFF777FF05460E46E4
:10079000504659464246FFF761FF084305D0012005
:1007A00004E020463946BDE8F08D0020054346EAC6
:1007B000E0762C4337430A986305E40AA0EB08006F
:1007C0000022FD0A44EA47540A3002D500200146BF
:1007D000E9E7010510196941DDE90845001969419A
:1007E000BDE8F04DA2E72DE9F04D00231A461B1A93
:1007F0008A4103DB00200146BDE8F08DC1F30A52B7
:10080000C1F3130141F480154FF0000BD10702D161
:1008100000186D41521E0027044640F2FF11384671
:1008200001EB620A3E468046024600204FF48011EA
:10083000FFF723FFC2197141BB1846EB0100B4EB6F
:10084000030C75EB000C04D3E41A65EB00051746A6
:100850000E46241908F101006D4180463428E3DD7D
:10086000F91946EB0600091BA84103D24FF0FF32ED
:10087000134601E0002213461BEB070046EB0A512A
:10088000BDE8F04DFFF752BF2DE9F041054621F0DC
:1008900000400C46284309D0C4F30A5040F23341CB
:1008A000884205DD28462146BDE8F0812846FBE761
:1008B00040F2FE31884210DC0CDB4FEA043040EAA3
:1008C000155050EA053105D0104804F000410143AD
:1008D0000020E9E700200146E6E7A0F23340464267
:1008E000C6F1400228462146FFF7B8FE0746884673
:1008F000284621463246FFF7C0FE43463A46FFF7F8
:1009000015FF3246BDE8F041FFF7A8BE0000F03FFA
:10091000064C074D06E0E06840F0010394E807004C
:1009200098471034AC42F6D3FFF732FCDC7F000866
:10093000FC7F000870B58C1810F8015B15F00703F8
:1009400001D110F8013B2A1106D110F8012B03E068
:1009500010F8016B01F8016B5B1EF9D12B0705D470
:100960000023521E0DD401F8013BFAE710F8013BB9
:10097000CB1A921C03E013F8015B01F8015B521ED5
:10098000F9D5A142D8D3002070BD10B502684260ED
:100990000160D0E90023D21A8260426902EBD2746E
:1009A0008368B3EB640F04DD43698268D21A826006
:1009B0000BE043695A4202EBD2748368B3EB640FD5
:1009C00003DA436982681A448260D0E902321A4429
:1009D000C260C269012A02D10022C260C26110BD98
:1009E0000FB410B52DED048B494890F9000010B1FB
:1009F00001287DD182E00220464908600020464956
:100A000008609FED460A464880ED000A9DED110AF8
:100A1000BCEEC00A10EE100A424908809FED420A5F
:100A2000424880ED000ADDED110A414890ED000AD0
:100A3000B8EEC00A30EE600A10EE101A0846FFF752
:100A4000AEFD41EC190BB0EE490AF0EE690A06F072
:100A5000A9F9B0EE408AF0EE608A9FED360B53ECB8
:100A6000102B51EC180BFFF7ADFD46D2334890ED3B
:100A7000000ADFED2D0A30EE600A10EE101A08466B
:100A8000FFF78DFD41EC190BB0EE490AF0EE690A53
:100A900006F088F9B0EE408AF0EE608A9FED280BF0
:100AA00053EC102B51EC180BFFF78CFD25D2264888
:100AB00090ED000ADFED190A30EE600A10EE101A10
:100AC0000846FFF76CFD41EC190BB0EE490AF0EE59
:100AD000690A06F067F9B0EE408AF0EE608A9FED91
:100AE0001B0B53EC102B51EC180BFFF76BFD00E0C8
:100AF00008E002D201200649087003E000201549F1
:100B0000087000BF00BFBDEC048B10BC5DF814FB87
:100B100020060020F8000020FC000020000048C251
:100B2000C0000020BC00002000000000C800002021
:100B3000D80000200000000000002440E400002055
:100B4000000000000000F03FDC000020000000007A
:100B500000001440A20600200FB410B52DED048B48
:100B6000A54890F9000007287DD2DFE800F0048C4A
:100B7000A9C1F0EEED000220A04908600020A049C4
:100B800008609FEDA00AA04880ED000A9FED9F0A33
:100B90009F4880ED000A9DED110ABCEEC00A10EEE0
:100BA000100A9C4908809FED970A9B4880ED000A37
:100BB000DDED110A994890ED000AB8EEC00A30EE5A
:100BC000600A10EE101A0846FFF7E9FC41EC190B19
:100BD000B0EE490AF0EE690A06F0E4F8B0EE408A99
:100BE000F0EE608A9FED8E0B53EC102B51EC180B3E
:100BF000FFF7E8FC46D28C4890ED000ADFED810A51
:100C000030EE600A10EE101A0846FFF7C8FC41ECFF
:100C1000190BB0EE490AF0EE690A06F0C3F8B0EE1F
:100C2000408AF0EE608A9FED810B53EC102B51EC63
:100C3000180BFFF7C7FC25D27E4890ED000ADFEDC8
:100C4000730A30EE600A10EE101A0846FFF7A7FC90
:100C500041EC190BB0EE490AF0EE690A06F0A2F871
:100C6000B0EE408A00E0C1E0F0EE608A9FED720BCA
:100C700053EC102B51EC180BFFF7A4FC02D201200F
:100C80005D490870B2E000205C49086001205C49C1
:100C900008606B480068401C6949086008460068A5
:100CA0006849096888420ADD9FED560A664880ED6A
:100CB000000A02205049087000206149086095E050
:100CC0009DED120AB1EE400A5F4880ED000A5F48D0
:100CD00090ED000A5748D0ED000A30EE600AB5EEFC
:100CE000C00AF1EE10FA02DD0320434908707DE0EE
:100CF00057480068401C5649086003203F49086077
:100D0000544890ED000A504880ED000A494890EDA3
:100D1000000A3D48D0ED000AB4EEE00AF1EE10FA08
:100D200005DD444890ED000A374880ED000A484848
:100D3000006849490968884205DD04202E49087089
:100D400000204349086051E04AE017E0FFE79FEDCB
:100D50002D0A3D4880ED000A40480068401C3F498C
:100D60000860084600683E490968884205DD05209C
:100D70002149087000203949086037E002201F49E6
:100D800008609FED220A224880ED000A294890ED74
:100D9000000ADFED1E0A30EE600A10EE101A084657
:100DA000FFF7FDFB41EC190BB0EE490AF0EE690AC2
:100DB00005F0F8FFB0EE408AF0EE608A9FED1B0B65
:100DC00053EC102B51EC180BFFF7FCFB07D206205D
:100DD000094908709FED0B0A1B4880ED000A05E0E9
:100DE0000020074908601F49087000BF00BFBDEC24
:100DF000048B10BC5DF814FB21060020F8000020D5
:100E0000FC0000200000000024060020000048C272
:100E1000C0000020BC000020C8000020D800002036
:100E20000000000000005940E40000200000000025
:100E30000000F03FDC000020000000000000144033
:100E400080060020DC060020C400002018060020D8
:100E500084060020E8060020E00600208806002026
:100E6000E4060020A30600200FB4334890F90000E8
:100E700030B1012817D002281CD0032858D153E0E4
:100E800000202E4908702E4890ED000A2D4880ED74
:100E9000000A2D4890ED000A2C4880ED000A012040
:100EA0002549087044E00A98012802D1022022490D
:100EB00008703DE026480068401C25490860084647
:100EC00090ED000AB8EEC00A2248D0ED000AB4EE58
:100ED000E00AF1EE10FA05DD012018490870002043
:100EE0001B4908601C480068401C1B4908600846F4
:100EF00090ED000AB8EEC00A1848D0ED000AB4EE32
:100F0000E00AF1EE10FA0EDD9FED150A0D4880EDB6
:100F1000000A9FED130A0D4880ED000A00200860CA
:100F200003200549087003E000200E49087000BF47
:100F300000BF04B07047000022060020D40000204B
:100F4000B0060020CC000020B4060020D000002015
:100F500094060020C006002098060020C406002049
:100F600000000000A60600200FB410B52DED068B82
:100F7000CD4890F9000008284CD2DFE800F0044C7E
:100F8000BDFCFBFAF9F80220C84908600020C849F6
:100F900008609FEDC80AC84880ED000A0120C749D3
:100FA00008709FEDC70AC74880ED000A41F28830FB
:100FB000C5490880C54890ED000ADFEDBE0A30EE55
:100FC000600A10EE101A0846FFF7E9FA41EC190B17
:100FD000B0EE490AF0EE690A05F0E4FEB0EE408A90
:100FE000F0EE608A9FEDBA0B53EC102B51EC180B0E
:100FF000FFF7E8FA0ED20120AB490870B64890ED31
:10100000000AB64880ED0B0AB54890ED000AB548D5
:1010100080ED0B0A42E1B44890ED000AB34880ED40
:10102000000AB34890ED000AB24880ED000AB248C9
:101030000068FFF7B4FA41EC180BB04890ED000AD5
:10104000A948D0ED000A30EE600A10EE101A0846EA
:10105000FFF7A5FA41EC1A0BB0EE4A0AF0EE6A0A65
:1010600005F0A0FEB0EE409AF0EE609A53EC182B1B
:1010700051EC190BFFF7A6FA2AD29F480068FFF738
:101080008EFA41EC180B9E4890ED000A9848D0ED7E
:10109000000A30EE600A10EE101A0846FFF77FFAD9
:1010A00041EC1A0BB0EE4A0AF0EE6A0A05F07AFE3D
:1010B000B0EE409AF0EE609A53EC182B51EC190BFD
:1010C000FFF780FA04D28F480068401C8D49086001
:1010D0008C4890ED000AB8EEC00A8B48D0ED000AAB
:1010E000B4EEE00AF1EE10FA05DD02206E49087058
:1010F000002084490860D1E00020704908708348CE
:101100000068FFF74CFA41EC180B7C4890ED000AA0
:101110007548D0ED000A30EE600A10EE101A08464D
:10112000FFF73DFA41EC1A0BB0EE4A0AF0EE6A0AFC
:1011300005F038FEB0EE409AF0EE609A53EC182BB2
:1011400051EC190BFFF756FA38D270480068FFF7D8
:1011500026FA41EC180B6A4890ED000A6448D0ED7D
:10116000000A30EE600A10EE101A084604E091E022
:1011700056E04EE047E022E0FFF711FA41EC1A0B8F
:10118000B0EE4A0AF0EE6A0A05F00CFEB0EE409AA4
:10119000F0EE609A53EC182B51EC190BFFF72AFA7A
:1011A0000CD20320404908709FED590A4B4880ED4E
:1011B0000B0A9FED570A4B4880ED0B0A6EE055482D
:1011C0000068401C53490860084690ED000AB8EEDC
:1011D000C00A5148D0ED000AB4EEE00AF1EE10FA70
:1011E00010DD4E4890ED000A404880ED000A4C4862
:1011F00090ED000A3F4880ED000A002008600420BE
:10120000294908704AE0129810B90520264908704B
:1012100044E01298012802D10620234908703DE0DD
:1012200040480068401C3F490860084690ED000AAD
:10123000B8EEC00A3C48D0ED000AB4EEE00AF1EE88
:1012400010FA05DD01201D490870002035490860AD
:1012500036480068401C35490860084690ED000A91
:10126000B8EEC00A3248D0ED000AB4EEE00AF1EE62
:1012700010FA0EDD9FED0F0A1C4880ED000A9FED6D
:101280000D0A1C4880ED000A00200860072006496E
:10129000087003E000202749087000BF00BFBDECC4
:1012A000068B10BC5DF814FB1E060020F800002021
:1012B000FC00002000000000C8000020D400002036
:1012C00000806DC4C0000020BC000020E4000020AD
:1012D0000000000000001440D40600202804002074
:1012E000D80600206C040020A8060020CC000020B6
:1012F000AC060020D0000020CC060020E800002032
:10130000EC0000203C060020B8060020D00600209B
:1013100000C05A4640060020BC060020B00600204F
:10132000B406002044060020C00600204806002025
:10133000C4060020A006002000BFFEE710B58AB05A
:1013400004460020059006900120079047F6FE70A5
:101350000090002002900190039004900E200990CC
:10136000012008906946064800F014FE044801F088
:10137000ACFB0221024800F053FD0AB010BD000092
:101380004409002010B5024800F05FFF10BD0000C6
:101390004409002010B58AB004460E2005900020B4
:1013A00006900120079047F6FE7000900020029002
:1013B0000190039004901C20099001200890694638
:1013C000054800F0E7FD044801F07FFB02210248D8
:1013D00000F026FD0AB010BD6C09002010B50248CF
:1013E00000F033FF10BD00006C0900202DE9F04132
:1013F00006460C4617461D460E48046000200D495F
:1014000048608860C8600846056101233A46304656
:1014100000F01BFD60B102233A460649304600F059
:1014200014FD28B104233A460249304600F00DFD70
:10143000BDE8F081B44900202DE9FC4781460E4605
:1014400014461D46DDE90A78200A8DF80000E0B256
:101450008DF80100280A8DF80200E8B28DF803002B
:10146000380A8DF80400F8B28DF805004FEA18200C
:101470008DF8060008F0FF008DF80700B1B20823D0
:101480006A464846FFF7B2FFBDE8FC8790ED030AC5
:10149000D0ED070A30EE600A80ED080A90ED030AED
:1014A00080ED070A7047000030B52DED108B83B03A
:1014B00004469FED7B0AB0EE40FA94ED000AD4EDAD
:1014C000060A30EE600A84ED020A94ED030AD4EDB8
:1014D000040A20EE200AB0EE408A94ED040A20EEC1
:1014E000080A10EE105A94ED020AD4ED040A94EDA5
:1014F000011A00EE810AF0EE408A18EE900AFFF71A
:101500004EF841EC1E0BB0EE4E0AF0EE6E0A05F0FE
:1015100049FCB0EE40DAF0EE60DA94ED030AF2EE48
:10152000000A20EE200A10EE101A0846FFF737F8DE
:1015300053EC1D2BCDE900019DED000B51EC100B80
:10154000FEF79CFF41EC1B0B28EE080A10EE101A68
:101550000846FFF724F841EC1C0B53EC1B2BFEF75D
:10156000E6FE41EC1A0BB0EE4A0AF0EE6A0A05F00C
:1015700093FCB0EE409AF0EE609A51EC190BFFF735
:1015800051F802902846FFF70AF841EC190B18EEC3
:10159000900AFFF704F841EC1B0BB0EE4B0AF0EE9B
:1015A0006B0A05F0FFFBB0EE40AAF0EE60AA53EC28
:1015B000192B51EC1A0BFFF71DF818D2B0EE680A80
:1015C00004F0CAFA00EE100AF8EEC00A9DED020A15
:1015D00030EE480A60EE800AB0EE001A80EE810A12
:1015E000D4ED010A30EE200AB0EE40FA09E0D4ED65
:1015F000040A88EEA00AD4ED010A30EE200AB0EE0B
:1016000040FA18EE100AFEF7CAFF41EC190B1FEE64
:10161000100AFEF7C4FF41EC1B0BB0EE4B0AF0EED4
:101620006B0A05F0BFFBB0EE40AAF0EE60AA53ECE7
:10163000192B51EC1A0BFEF7DDFF10D2B0EE4F0A5A
:1016400004F08AFA00EE100AB8EEC00AD4ED030ADC
:10165000BFEE001A60EE810A60EE20FA09E094ED18
:10166000030AFFEE000A20EE200A20EE0F0AC0EE69
:1016700008FA94ED000AD4ED050A94ED011A00EE83
:10168000810A84ED000A94ED010AD4ED050A00EE0A
:10169000AF0A84ED010A03B0BDEC108B30BD000031
:1016A000000000001CB500BFC04890ED000AC04813
:1016B00080ED000ABF4890ED0B0ABD4880ED010A9D
:1016C00004F024F8BC4890ED000ABC4880ED000A04
:1016D000BB4890ED0B0AB94880ED010A04F016F8FA
:1016E000B84890ED000AB84804F0BBFBB74880ED5D
:1016F000110AB74890ED0A0AB44880ED120AB448BE
:1017000090ED0B0AB14880ED010A04F0D1F8B14820
:1017100090ED000AB04880ED060AFFF7C5FEAF481D
:10172000006830B101284AD002287CD003287BD140
:10173000D2E0AB48006820B19FEDAA0AAA4880ED2C
:10174000070AAA4890ED000AA74880ED020AA848B7
:1017500090ED000AA44880ED030AA64890ED000A27
:10176000A14880ED000AA44890ED030A9E4880ED50
:10177000010A03F0CBFF0020009001909A4890ED01
:10178000080ADFED9E0A30EE600ABDEEC00A10EED8
:10179000100A03B2944890ED080ADFED980A30EE83
:1017A000600ABDEEC00A10EE100A02B24FF40071DA
:1017B0009348FFF741FE002089490860C8E0884847
:1017C0000068012808D09FED870A8E4880ED180A2E
:1017D0009FED840A80ED070A7E4890ED000A894853
:1017E00080ED110A844890ED050A864880ED120AC2
:1017F000814890ED030A834880ED010A04F058F80F
:101800000020009001907F4890ED220ADFED7E0AD3
:1018100030EE600ABDEEC00A10EE100A03B279483D
:1018200090ED220A01E012E091E0DFED770A30EE60
:10183000600ABDEEC00A10EE100A02B24FF4007149
:101840006F48FFF7F9FD01206549086080E06448B2
:101850000068022808D09FED630A6A4880ED180AE4
:101860009FED600A80ED070A5B4890ED000A65482D
:1018700080ED110A604890ED050A624880ED120A79
:101880005D4890ED030A5F4880ED010A04F010F80E
:101890000020009001905B4890ED220ADFED5A0A8B
:1018A00030EE600ABDEEC00A10EE100A03B25548D1
:1018B00090ED220ADFED540A30EE600ABDEEC00A58
:1018C00010EE100A02B24FF400714D48FFF7B4FD5C
:1018D0000220434908603BE041480068032804D0E7
:1018E0009FED400A404880ED070A424890ED000A0B
:1018F0003D4880ED000A9FED450A80ED020A9FED0C
:10190000440A80ED030A3C4890ED030A364880ED16
:10191000010A03F0FBFE002000900190324890ED98
:10192000080ABDEEC00A10EE100A03B22E4890ED70
:10193000080ABDEEC00A10EE100A02B24FF40071A0
:101940002F48FFF779FD03202549086000E000BF1C
:1019500000BF0021164890ED080ABDEEC00A10EE47
:10196000100A00B2CDE90001144890ED080ABDEE5E
:10197000C00A10EE100A03B2144890ED220ABDEE20
:10198000C00A10EE100A02B24FF400712148FFF7AE
:1019900053FD2148007804F0C3F82048008A401C19
:1019A0001E490882012005F05BFF7DE6CC00002087
:1019B0002804002000010020D00000206C0400203A
:1019C00040010020C8000020400200209C030020AD
:1019D00080010020C000002024020020F800002028
:1019E0000000002000000000B004002004000020DF
:1019F00008000020C4000020C0010020000048446E
:101A00004409002084020020000096430000204387
:101A10009A99193F6C090020D4000020424A002006
:101A20002DE9F0412DED068B05460E4614469FED3F
:101A30003A0AB0EE408A0027B84642F2602085425A
:101A400004DD9FED360AB0EE408A0EE041F25040D0
:101A5000854204DA9FED320AB0EE408A05E000EEDE
:101A6000105AB8EE400AB0EE408A84ED008A00EECB
:101A7000106AB8EE400A84ED010A204603F02AFFFE
:101A800094ED080A10EE101A0846FEF788FD41ECA6
:101A90001A0BB0EE4A0AF0EE6A0A05F08DF9B0EEC4
:101AA000409AF0EE609A51EC190BFEF759FD00F5E3
:101AB000FA6794ED080A10EE101A0846FEF76FFD5B
:101AC00041EC1A0BB0EE4A0AF0EE6A0A05F074F91E
:101AD000B0EE409AF0EE609A51EC190BFEF740FD23
:101AE000C0F5FA680F48006830B90F480068C0F8C0
:101AF00038800E480068C7630A480068012807D18B
:101B00004FF4FA6008490968886308490968C8639E
:101B1000BDEC068BBDE8F0810000000000800946A6
:101B20000080A245FC000020240A0020DC090020DF
:101B300010B5024801F06AF810BD0000BC0B00208F
:101B400010B5024801F062F810BD00001C0C002026
:101B500010B5024801F05AF810BD0000FC0A002040
:101B600010B5024801F052F810BD00005C0B0020D7
:101B70000146087810381823B0FBF3F20848805C5F
:101B8000C865032A05D908686FF30900001D886538
:101B900003E008686FF309008865886D70470000EE
:101BA000847F0008014600208A6A8B69CBB932B174
:101BB000012A0DD0022A03D0032A10D10EE000BF63
:101BC000CB6A03F08073B3F1807F00D1012007E07E
:101BD000CB6AB3F1C07F00D1012001E000E000BF7B
:101BE00034E08B69B3F5005F1AD132B1012A07D016
:101BF000022A03D0032A11D10AE000BF01200EE01F
:101C0000CB6A03F08073B3F1807F00D1012006E03E
:101C1000CB6AB3F1C07F00D1012000E000BF15E026
:101C200032B1012A05D0022A04D0032A0CD103E0E4
:101C300000BF00BF012008E0CB6A03F08073B3F15E
:101C4000807F00D1012000E000BF00BF704730B5A9
:101C50000468246824F4802405682C6004686360A8
:101C60008468402C04D10468A2600468E16003E049
:101C70000468A1600468E26030BD000010B52DED7D
:101C8000048B3F4890F9000020B1012845D002287C
:101C900071D16CE000203B49086002203A4908609D
:101CA00001203A4908709FED3A0A3A4880ED000A4F
:101CB00041F2883038490880384890ED000ADFED5D
:101CC000340A30EE600A10EE101A0846FEF767FC80
:101CD00041EC190BB0EE490AF0EE690A05F062F822
:101CE000B0EE408AF0EE608A9FED2D0B53EC102B86
:101CF00051EC180BFEF766FC0ED22B480068A0F5DD
:101D00009854883C002C01DB204600E060420A2801
:101D100002DA01201A4908702DE09FED240A2448B8
:101D200080ED000A234890ED000ADFED200A30EE36
:101D3000600A10EE101A0846FEF731FC41EC190B50
:101D4000B0EE490AF0EE690A05F02CF8B0EE408AD0
:101D5000F0EE608A9FED120B53EC102B51EC180B38
:101D6000FEF730FC02D202200549087003E0002093
:101D70001149087000BF00BFBDEC048B10BD00000E
:101D800023060020FC000020F8000020D4000020E2
:101D900000806DC4C0000020BC000020DC000020DA
:101DA0000000000000001440D80000200000FA43AA
:101DB000C8000020E4000020A7060020704772B68B
:101DC00000BFFEE7024648780B7840EA032000EEA9
:101DD000100AB8EEC00A82ED080A92ED080ABDEEBC
:101DE000C00A10EE100A00B27047000030B503467A
:101DF0000A4A8C7804F080043CB114048D7844EADB
:101E00000524CD7844EA050003E0CC788D7844EAD7
:101E1000052000EE100AB8EEC00A30BDFFFF0F002B
:101E200010B5024692F82030012B01D0022B06D1CA
:101E300010684069084314686061002010BD506A52
:101E400040F4802050620120F8E7F0B504460D46CA
:101E50001E4694F8207020688368A86800B900E0E6
:101E600000BF012F01D0022F7DD103F0806030B977
:101E700003F0006018B903F0805000287ED0C3F34F
:101E80000161012088403060A86860B9B5F800C0E1
:101E9000E86840EA4C5C206800F5C07000EB011077
:101EA000C0F800C00FE0D5E901C040EACC00D5F889
:101EB0000CC040EA0C00D4F800C00CF5C07C0CEB60
:101EC000011CCCF80000D5F810C0206800F5C070E7
:101ED00000EB0110C0F804C0287D01280ED1206855
:101EE00000F5C07000EB0110406840F4807C206871
:101EF00000F5C07000EB0110C0F804C0D0790006F6
:101F000092F806C040EA0C4092F805C040EA0C2066
:101F100092F804C040EA0C00D4F800C00CF5C07C74
:101F20000CEB011CCCF80C00D078000692F802C033
:101F300040EA0C4092F801C040EA0C2092F800C040
:101F400040EA0C00D4F800C00CF5C07C0CEB011C7E
:101F5000CCF80800206800F5C07000EB01100068A4
:101F600040F0010C01E00FE008E0206800F5C070CF
:101F700000EB0110C0F800C00020F0BD606A40F422
:101F8000001060620120F8E7606A40F4802060621F
:101F90000120F2E7F0B504460A4694F82050012DDE
:101FA00001D0022D7ED1424901F50071086840F050
:101FB00001000860086820F47C5008600868566AD0
:101FC00040EA06200860107D00F01F06012000FA9C
:101FD00006F3C8699843C861A1F50071D069C8B912
:101FE000D1F80C029843C1F80C02908880B296890F
:101FF00040EA064601F51070576940F837601088CE
:1020000080B2168940EA064601F51070576900EB68
:10201000C7004660D069012819D1D1F80C021843D5
:10202000C1F80C02908880B2168840EA064601F595
:102030001070576940F83760908980B2168940EA7D
:10204000064601F51070576900EBC70046609069BD
:1020500028B9D1F804029843C1F8040204E0D1F889
:1020600004021843C1F80402106928B9D1F8140217
:102070009843C1F8140204E0D1F814021843C1F8DF
:102080001402106A012804D1D1F81C021843C1F8C7
:102090001C02D1F8000220F00100C1F8000200206B
:1020A000F0BDFFE7606A40F4802060620120F7E73E
:1020B00000640040704770B5044694F82050012D2C
:1020C00001D0022D7DD151B92068C06800F0030015
:1020D00080B9606A40F400106062012070BD206821
:1020E000006900F0030028B9606A40F400106062E3
:1020F0000120F3E7206800F5D87000EB01100068BC
:1021000000F004009060906840B9206800F5D87035
:1021100000EB01100068400D106007E0206800F53A
:10212000D87000EB01100068C0085060206800F50E
:10213000D87000EB0110006800F00200D060206849
:1021400000F5D87000EB0110406800F00F0008287F
:1021500002D30820106108E0206800F5D87000EB79
:102160000110406800F00F001061206800F5D87081
:1021700000EB0110406800F47F40000A9061206885
:1021800000F5D87000EB01104068000C5061206829
:1021900000F5D87000EB011080681870206800F519
:1021A000D87000EB0110806800F47F40000A58707E
:1021B000206800F5D87000EB0110806800F47F0003
:1021C00000E03CE0000C9870206800F5D87000EB4F
:1021D00001108068000ED870206800F5D87000EB00
:1021E0000110C0681871206800F5D87000EB01106C
:1021F000C06800F47F40000A5871206800F5D8706C
:1022000000EB0110C06800F47F00000C987120689A
:1022100000F5D87000EB0110C068000ED87131B91C
:102220002068C06840F020002668F06005E0206863
:10223000006940F020002668306100204EE7606AA7
:1022400040F480206062012048E72DE9F05F0446F9
:102250000025206846692068D0F8049020688768C7
:102260002068D0F80CA02068D0F810B02068D0F812
:10227000188006F00100002855D007F00100C0B119
:1022800001202168886007F0020018B1204600F0A4
:102290004CFC0EE007F0040010B145F4006508E0C6
:1022A00007F0080010B145F4805502E0204600F028
:1022B0003BFC07F48070C8B14FF4807021688860DF
:1022C00007F4007018B1204600F031FC0EE007F46E
:1022D000806010B145F4005508E007F4006010B1CB
:1022E00045F4804502E0204600F020FC07F48030F1
:1022F000C8B14FF480302168886007F4003018B10D
:10230000204600F016FC0EE007F4802010B145F4E2
:10231000004508E007F4002010B145F4803502E0E4
:10232000204600F005FC06F0080038B10AF0100065
:1023300020B145F4007510202168C86006F0040043
:1023400040B10AF0080028B108202168C860204682
:1023500000F00CFA06F0020038B12068C06800F006
:10236000030010B1204600F003FA06F0400038B137
:102370000BF0100020B145F4806510202168086141
:1023800006F0200040B10BF0080028B108202168B9
:102390000861204600F096FB06F0100038B1206876
:1023A000006900F0030010B1204600F08CFB06F439
:1023B000003040B109F0100028B1102021684860B9
:1023C000204600F081FB06F4803040B109F008009F
:1023D00028B1082021684860204600F0ABFB06F4D5
:1023E000004088B309F0040078B306F4807020B18F
:1023F00008F0010008B145F0010506F4007020B1B5
:1024000008F0020008B145F0020506F4806020B132
:1024100008F0040008B145F0040506F40060A0B11E
:1024200008F0700088B108F07000402817D006DC72
:1024300010280BD020280CD0302819D10CE05028BF
:1024400010D0602814D110E01DE019E045F0080517
:102450000FE045F010050CE045F0200509E045F0DF
:10246000400506E045F0800503E045F4807500E096
:1024700000BF00BF2068806920F07000216888617B
:102480000420216848602DB1606A284360622046BC
:10249000FFF710FEBDE8F09F70B504460CB90120AF
:1024A00070BD94F8200010B9204600F0AFF8206805
:1024B000006840F001002168086000F087FE0546D2
:1024C0000DE000F083FE401B0A2808D9606A40F442
:1024D00000306062052084F820000120E0E72068D9
:1024E000406800F001000028EBD02068006820F070
:1024F00002002168086000F069FE05460DE000F06A
:1025000065FE401B0A2808D9606A40F4003060620A
:10251000052084F820000120C2E72068406800F010
:1025200002000028EBD1207E012806D12068006837
:1025300040F080002168086005E02068006820F015
:10254000800021680860607E012806D1206800684C
:1025500040F040002168086005E02068006820F035
:10256000400021680860A07E012806D1206800682C
:1025700040F020002168086005E02068006820F035
:10258000200021680860E07E012806D120680068EC
:1025900020F010002168086005E02068006840F025
:1025A000100021680860207F012806D1206800689B
:1025B00040F008002168086005E02068006820F00D
:1025C000080021680860607F012806D12068006843
:1025D00040F004002168086005E02068006820F0F1
:1025E000040021680860D4E9020108432169084316
:1025F000616908436168491E08432168C861002079
:102600006062012084F82000002049E710B586B000
:102610000446142101A8FDF77FFE4F492068884237
:1026200042D14E480068401C4C490860084600688A
:1026300001280FD100BF002000904948006840F0F9
:102640000070474908600846006800F0007000907C
:1026500000BF00BF00BF0020009041481038006854
:1026600040F002003E49103908600846006800F05A
:102670000200009000BF00BF4FF4407001900220A4
:10268000029001200390032004900920059001A9E5
:10269000344800F09BFC00220521142000F054FE79
:1026A000142000F03DFE54E02F492068884250D1AC
:1026B00000BF002000902A48006840F08060284950
:1026C00008600846006800F08060009000BF00BF0E
:1026D00022480068401C214908600846006801281B
:1026E0000FD100BF002000901D48006840F000702E
:1026F0001B4908600846006800F00070009000BFA9
:1027000000BF00BF0020009015481038006840F05E
:1027100002001349103908600846006800F0020002
:10272000009000BF00BF60200190022002900120B5
:102730000390032004900920059001A9094800F0A6
:1027400045FC00220521402000F0FEFD402000F065
:10275000E7FD06B010BD0000006400402800002026
:10276000403802400004024000680040704700000A
:1027700010B588B00446BD492068884273D1BC4B6F
:1027800001AA00212046FFF796FC0198A0F2012043
:1027900060B301285BD0A0F20F1000287DD1B448AF
:1027A00040784FF47F4101EA0020B149097808439D
:1027B000B0490860B0480088401CAF490880AC4868
:1027C000807800F0080010B90020AC498862A84861
:1027D000807800F00800082802D10120A74988620B
:1027E000A548C08A401CA449C88271E0A44800687A
:1027F000012807D1A2489E49096881610020A049AB
:1028000008600BE09E489A490968016190ED040A4E
:10281000D0ED060A30EE600A80ED050A984894492A
:102820004968816090ED020A964880ED020A02F044
:10283000F5FC944890ED010A914880ED030AFEF7FB
:1028400025FE8D488088401C8B49888040E08E485A
:102850000068012808D18C488549096881610020F9
:10286000894908600CE035E08748814909680161C1
:1028700090ED040AD0ED060A30EE600A80ED050AFC
:1028800081487B494968816090ED020A7F4880ED6C
:10289000020A02F0C3FC7D4800E018E090ED010A56
:1028A000794880ED030AFEF7F1FD774890ED030AC1
:1028B000774880ED000A744890ED050A754880ED70
:1028C000000A6D484088401C6B49488000E000BF0A
:1028D00000BF00BF7049206888427CD16F4B01AABD
:1028E00000212046FFF7E7FB0198A0F2012020B16C
:1028F000012842D002286FD17AE068496848FFF782
:1029000061FA00EE100AB8EEC00A654880ED080AC8
:10291000624901A8FFF76AFA614880ED090A90ED63
:10292000080ABCEEC00A10EE101AFEF72EF85C483A
:1029300090ED030AB8EEC00A9FED5A1AC0EE010AE4
:102940009FED590A20EE800ADFED580A80EE201A2A
:1029500080ED0A1A90ED090AF3EE030A80EE201AC0
:1029600080ED0B1A90ED0A0A514880ED000A4248AA
:10297000C088401C4049C88073E048494D48FFF773
:1029800021FA00EE100AB8EEC00A4A4880ED080AA3
:10299000424901A8FFF72AFA464880ED090A90ED5E
:1029A000080ABCEEC00A10EE101AFDF7EEFF41480F
:1029B00090ED030AB8EEC00ADFED3A0A80EE201A65
:1029C0009FED390A21EE000A80ED0A0A90ED090A0E
:1029D00080ED0B0A01E046E042E090ED0B0A36483C
:1029E00080ED000A24484089401C2349488138E092
:1029F0002A493248FFF7E6F900EE100AB8EEC00A9D
:102A00002E4880ED080A254901A8FFF7EFF92B4869
:102A100080ED090A90ED080ABCEEC00A10EE101A0B
:102A2000FDF7B3FF254890ED030AB8EEC00ADFEDCD
:102A30001D0A80EE201A9FED1C0A21EE000A80ED8F
:102A40000A0A90ED090A80ED0B0A90ED0B0A1C486A
:102A500080ED000A08480089401C0749088100E011
:102A600000BF00BF00BF08B010BD00000064004000
:102A7000A9000020D8000020424A00208C4A0020F3
:102A8000E401002070020020C00100205C02002050
:102A9000E0000020DC00002000680040B1000020C1
:102AA00080010020000000460000B44300001042F6
:102AB000E400002040010020EC0000200001002084
:102AC000E800002070477047704770B5044694F8DE
:102AD0002000012822D1022084F82000206800680C
:102AE00020F001002168086000F070FB05460DE051
:102AF00000F06CFB401B0A2808D9606A40F40030E3
:102B00006062052084F82000012070BD20684068C4
:102B100000F001000028EBD16062F6E7606A40F443
:102B2000002060620120F0E77047704770477047EF
:102B300070477047704770B50446A56D00F046FBBE
:102B4000064694F83500022808D08020606500BF52
:102B5000002084F8340000BF012070BD20680068A8
:102B600020F01600216808602068406920F080008D
:102B700021684861206C08B9A06C28B12068006801
:102B800020F00800216808602068006820F001003B
:102B90002168086010E000F019FB801B05280BD9A4
:102BA00020206065032084F8350000BF002084F8F1
:102BB000340000BF0320D0E72068006800F0010067
:102BC0000028E8D194F85C103F208840A8600120DC
:102BD00084F8350000BF002084F8340000BF00BF37
:102BE000BBE7014691F83500022803D080204865F4
:102BF00001207047052081F835000868006820F042
:102C000001000A6810600020F3E70000F8B50446F0
:102C1000002000908C4800684FF41651B0FBF1F78B
:102C2000A56D2E6894F85C1008208840304098B15B
:102C30002068006800F0040070B12068006820F08F
:102C400004002168086094F85C1008208840A8609F
:102C5000606D40F00100606594F85C1001208840D0
:102C6000304068B12068406900F0800040B194F8BD
:102C70005C1001208840A860606D40F00200606533
:102C800094F85C1004208840304068B120680068E7
:102C900000F0020040B194F85C1004208840A86065
:102CA000606D40F00400606594F85C10102088406E
:102CB000304078B32068006800F0080050B394F802
:102CC0005C1010208840A8602068006800F4802014
:102CD00080B12068006800F4002028B9206CC8B1D9
:102CE0002046216C884715E0A06C98B12046A16C65
:102CF00088470FE02068006800F4807028B92068D9
:102D0000006820F0080021680860206C10B120469F
:102D1000216C884794F85C102020884030400028BF
:102D200065D02068006800F0100000285FD094F89B
:102D30005C1020208840A86094F83500052828D130
:102D40002068006820F0160021680860206840694B
:102D500020F0800021684861206C08B9A06C28B17F
:102D60002068006820F008002168086094F85C1072
:102D70003F208840A860012084F8350000BF002073
:102D800084F8340000BF206D10B12046216D8847C3
:102D9000F8BD2068006800F4802080B120680068D9
:102DA00000F4002028B9606C10B12046616C88479F
:102DB0001DE0E06BD8B12046E16B884717E0206842
:102DC000006800F4807068B92068006820F0100086
:102DD00021680860012084F8350000BF002084F8D5
:102DE000340000BFE06B10B12046E16B8847606D96
:102DF00038B3606D00F00100F0B1052084F83500B3
:102E00002068006820F001002168086000BF009879
:102E1000401C0090B84200D905E02068006800F02E
:102E200001000028F3D100BF012084F8350000BF65
:102E3000002084F8340000BFE06C10B12046E16C43
:102E4000884700BFA4E700003C0000202DE9F041C6
:102E50000446002500F0BAF9074614B90120BDE880
:102E6000F081606A00B100BF022084F8350000BF25
:102E7000002084F8340000BF2068006820F00100C2
:102E8000216808600AE000F0A1F9C01B052805D9F7
:102E900020206065032084F83500E0E720680068A2
:102EA00000F001000028EED12068056821480540A7
:102EB000D4E901010843E1680843216908436169D5
:102EC0000843A1690843E1690843216A08430543AF
:102ED000606A042803D1D4E90B0108430543206844
:102EE00005602068456925F00705606A0543606A4A
:102EF00004280DD1A06A0543E06A48B12046FEF7D8
:102F000051FE28B140206065012084F83500A6E715
:102F1000206845612046FEF72BFE064694F85C10BB
:102F20003F208840B06000206065012084F83500B3
:102F3000002094E73F8010F02DE9F04704460D464D
:102F400016461F464FF00008D4F8589000BF94F87A
:102F50003400012802D10220BDE8F087012084F866
:102F6000340000BF94F83500012825D1022084F8F0
:102F70003500002060653B46324629462046FEF774
:102F800066FE94F85C103F208840C9F8080020686D
:102F9000006840F0160021680860206C28B12068A5
:102FA000006840F00800216808602068006840F070
:102FB00001002168086006E000BF002084F83400AA
:102FC00000BF4FF002084046C6E70000F8B50246D1
:102FD0000B460025002400200021D6E0012606FA39
:102FE00001F51E6806EA0504AC4274D11E7906F0AC
:102FF0000306012E04D01E7906F00306022E13D11B
:1030000090684F000326BE40B0434F00DE68BE40CC
:1030100030439060506801268E40B0431E79C6F35D
:1030200000168E40304350601E7906F00306032ED2
:1030300009D0D0684F000326BE40B0434F009E68C1
:10304000BE403043D0601E7906F00306022E13D135
:10305000CF0802F1200656F827004E07F70E0F267C
:10306000BE40B0434F07FF0E1E69BE403043CF083D
:1030700002F1200646F8270010684F000326BE40E4
:10308000B0431E7906F003064F00BE403043106087
:103090005E6806F44036002E76D000BF002600960B
:1030A0003C4E366846F480463A4F3E603E463668AF
:1030B00006F48046009600BF00BF374E8F0856F8D2
:1030C00027008E07370F0F26BE40B043334EB24263
:1030D00002D1002624E057E0314EB24201D1012650
:1030E0001EE0304EB24201D1022619E02E4EB2420D
:1030F00001D1032614E02D4EB24201D104260FE087
:103100002B4EB24201D105260AE02A4EB24201D12D
:10311000062605E0284EB24201D1072600E0082627
:103120008F073F0FBE4030431B4E8F0846F82700E5
:10313000224E3068A0435E6806F4801606B1204334
:103140001E4E3060361D3068A0435E6806F40016DF
:1031500006B12043194E361D3060184E361F3068B8
:10316000A0435E6806F4003606B12043134E361FB6
:103170003060361F3068A0435E6806F4803606B1C2
:1031800020430E4E083E3060491C1029FFF426AF44
:10319000F8BD0000443802400838014000000240F9
:1031A0000004024000080240000C024000100240EF
:1031B0000014024000180240001C0240083C01407C
:1031C0000AB1816101E00B04836170470148006826
:1031D0007047000030000020034800680349097868
:1031E0000844014908607047300000203800002082
:1031F00010B50D48006840F400700B49086008469F
:10320000006840F4806008600846006840F4807000
:103210000860032000F0D6F80F2000F007F800F057
:1032200055F8002010BD0000003C0240F0B587B00A
:1032300004460026002700BF002000901E480068BA
:1032400040F001001C4908600846006800F00100D9
:10325000009000BF00BF01A902A800F089F900F0AA
:10326000BFF946001548B6FBF0F0471E1448154953
:10327000086040F2E7311348C160476000210161F6
:103280008160816100F0BEFC054695B90D4800F0F3
:103290000FFD05466DB9192000F042F8102C07D239
:1032A00000222146192000F04FF80748046000E092
:1032B0000125284607B0F0BD4438024040420F00C7
:1032C000000001407C0C00203400002008B500BF45
:1032D000002000901148006840F480400F490860C9
:1032E0000846006800F48040009000BF00BF00BFA7
:1032F00000200090081F006840F08050091F0860FF
:103300000846006800F08050009000BF00BF002217
:103310000F21901E00F018F808BD0000443802404C
:103320000146084600280DDB00BF00BF00F01F0368
:1033300001229A4043099B0003F1E023C3F80021D6
:1033400000BF00BF00BF70472DE9F05F80460D460B
:103350001646002703F00AFD074639462A4633463B
:1033600001F00700C0F1070ABAF1040F02D94FF0CB
:10337000040A01E0C0F1070AD14600F1040ABAF1DB
:10338000070F02D24FF0000A01E0A0F1030AD44671
:103390004FF0010A0AFA09FAAAF1010A0AEA020A36
:1033A0000AFA0CFA4FF0010B0BFA0CFBABF1010B14
:1033B0000BEA030B4AEA0B042146404603F0DEFC0D
:1033C000BDE8F09F00BF00F00702064B19684FF6FA
:1033D000FF031940044B0B4343EA0221014B1960E0
:1033E00000BF70470CED00E00000FA0570B5044620
:1033F0000D460CB9012070BD5848006800F0070068
:10340000A84209D255490D700846006800F007002F
:10341000A84201D00120EEE7207800F00200022847
:103420001DD1207800F00400042805D14C48006824
:1034300040F4E0504A490860207800F0080008286D
:1034400005D14748006840F4604045490860444859
:10345000006820F0F000A168084341490860207826
:1034600000F00100A8B36068012807D13C48083883
:103470000068C0F34040B8B90120BCE7606802288A
:1034800002D06068032807D1354808380068C0F3C7
:10349000406048B90120AEE7314808380068C0F301
:1034A000400008B90120A6E72D48006820F003007D
:1034B000616808432A490860FFF788FE064609E06C
:1034C000FFF784FE801B41F28831884202D9032035
:1034D00091E707E02248006800F00C006168B0EB5B
:1034E000810FEDD11D48006800F00700A84209D9FE
:1034F0001A490D700846006800F00700A84201D084
:10350000012078E7207800F00400042807D114484F
:10351000006820F4E050E168084311490860207811
:1035200000F00800082808D10D48006820F4604029
:10353000216940EAC1000A49086000F061F80849C1
:103540000968C1F30311074A515CC8400649086085
:1035500006480068FFF76AFE00204CE7003C024086
:10356000083802408C7F00083C0000203400002016
:103570000F2202600D4A126802F0030242600B4AF9
:10358000126802F0F0028260084A126802F4E05207
:10359000C260064A126802F46042D2080261044A1C
:1035A000126802F007020A60704700000838024003
:1035B000003C024001480068704700003C000020C9
:1035C00000B5FFF7F7FF04490968C1F38221034AF8
:1035D000515CC84000BD0000083802409C7F0008D4
:1035E00000B5FFF7E7FF04490968C1F34231034A18
:1035F000515CC84000BD0000083802409C7F0008B4
:103600002DE9F047002400250026A1462548006842
:1036100000F00C0020B1042805D008283AD105E0BC
:10362000DFF8849039E0DFF8849036E01D48001F11
:10363000006800F03F041B48001F006800F4800091
:1036400078B11A481749091F0968C1F38811A0FB0E
:1036500001700146224600233846FCF713FE05465A
:103660000EE011480F49091F0968C1F38811A0FB3A
:1036700001700146224600233846FCF703FE05464A
:103680000848001F0068C0F30140401C4600B5FB1D
:10369000F6F902E0DFF8109000BF00BF4846BDE831
:1036A000F0870000083802400024F40000127A007D
:1036B000F8B504460CB90120F8BD207800F00100EF
:1036C000002874D0F948006800F00C0004280DD0E0
:1036D000F648006800F00C00082813D1F348001FDA
:1036E000006800F48000B0F5800F0BD1EF48083877
:1036F0000068C0F34040002859D06068002856D1C7
:103700000120D9E700BF6068B0F5803F08D1E748E5
:103710000838006840F48030E449083908601EE049
:103720006068B0F5A02F0DD1E0480838006840F47B
:103730008020DE49083908600846006840F480307F
:1037400008600CE0D9480838006820F48030D74978
:10375000083908600846006820F48020086000BF2F
:10376000606890B1FFF732FD054606E0FFF72EFDD9
:10377000401B642801D903209EE7CC480838006824
:10378000C0F340400028F1D011E0FFF71FFD0546CF
:1037900006E0FFF71BFD401B642801D903208BE7DF
:1037A000C24808380068C0F340400028F1D12078B2
:1037B00000F0020002285FD1BC48006800F00C0055
:1037C00058B1BA48006800F00C0008281CD1B7486E
:1037D000001F006800F48000B0B9B44808380068E1
:1037E000C0F3400020B1E068012801D0012063E768
:1037F000AE480838006820F0F800216940EAC100AE
:10380000AA490839086037E0E06800B30120A849F8
:103810000860FFF7DBFC054606E0FFF7D7FC401B1E
:10382000022801D9032047E7A04808380068C0F300
:1038300040000028F1D09D480838006820F0F800CA
:10384000216940EAC10099490839086014E0002064
:1038500097490860FFF7BAFC054606E0FFF7B6FC9B
:10386000401B022801D9032026E790480838006849
:10387000C0F340000028F1D1207800F008000828AB
:103880002CD16069A8B101208A490860FFF79EFC2D
:10389000054606E0FFF79AFC401B022801D90320E9
:1038A0000AE782486C300068C0F340000028F1D07D
:1038B00014E000207F490860FFF788FC054606E019
:1038C000FFF784FC401B022801D90320F4E6774867
:1038D0006C300068C0F340000028F1D1207800F07F
:1038E0000400042870D1002770483830006800F0C8
:1038F000805090B900BF002000906C4838300068BC
:1039000040F080506949383108600846006800F08E
:103910008050009000BF00BF01276748006800F496
:103920008070B0B96448006840F4807062490860F3
:10393000FFF74CFC054606E0FFF748FC401B022859
:1039400001D90320B8E65C48006800F480700028C4
:10395000F2D000BFA068012808D154486830006840
:1039600040F001005149683108601DE0A068052859
:103970000DD14E486830006840F004004B49683172
:1039800008600846006840F0010008600CE0474805
:103990006830006820F0010044496831086008463A
:1039A000006820F00400086000BFA068A8B1FFF71D
:1039B0000DFC054609E0FFF709FC401B41F2883188
:1039C000884202D9032077E626E03848683000684C
:1039D000C0F340000028EED013E0FFF7F7FB0546E8
:1039E00008E0FFF7F3FB401B41F28831884201D920
:1039F000032061E62D4868300068C0F340000028CD
:103A0000EFD1012F07D129483830006820F08050CD
:103A100026493831086000BFA069002845D02348F6
:103A2000006800F00C0008285DD0A069022845D18C
:103A300000201F490866FFF7C9FB054606E0FFF7AF
:103A4000C5FB401B022801D9032035E6174808387A
:103A50000068C0F340600028F1D1D4E907010843B1
:103A6000616A40EA81110122A06AC2EB500041EA7A
:103A700000412C20005D41EA00600C49091F0860EC
:103A800001200B490866FFF7A1FB054606E0FFF79A
:103A90009DFB401B022801D903200DE6034808388E
:103AA0000068C0F340600028F1D049E008380240C7
:103AB00000004742800E474200700040002021492C
:103AC0000866FFF783FB054606E0FFF77FFB401B18
:103AD000022801D90320EFE51B480068C0F34060CD
:103AE0000028F2D12CE0A069012800D1E4E51648B5
:103AF000001D0668A069012820D006F48001E06955
:103B000081421BD106F03F01206A814216D147F65F
:103B1000C0703040616AB0EB811F0FD106F44031B4
:103B20000122A06AC2EB5000B1EB004F06D106F0B3
:103B300070612C20005DB1EB006F01D00120BBE56E
:103B40000020B9E500004742003802407047704746
:103B500030B502460B4600BF92F83C00012801D167
:103B6000022030BD012082F83C0000BF022082F814
:103B70003D00106844681068816824F0700418687B
:103B8000044310684460184D1068A8421BD01068A8
:103B9000B0F1804F17D0154D1068A84213D0144DC6
:103BA0001068A8420FD0134D1068A8420BD0124DD8
:103BB0001068A84207D0114D1068A84203D0104DDC
:103BC0001068A84205D121F08001586801431068AF
:103BD0008160012082F83D0000BF002082F83C0097
:103BE00000BF00BFBDE7000000000140000400402E
:103BF00000080040000C004000040140004001406B
:103C00000018004010B504460CB9012010BD94F80E
:103C10003D0028B9002084F83C00204600F026F83A
:103C2000022084F83D00211D206802F061F9012086
:103C300084F8460000BF84F83E0001213F20015572
:103C4000402001554120015500BF00BF012084F8EC
:103C5000420043200155442001554520015500BF35
:103C6000012084F83D000020D0E7000038B504466C
:103C70002068B0F1804F17D100BF002000900B48A2
:103C8000006840F00100094908600846006800F03B
:103C90000100009000BF00BF002205211C20FFF79B
:103CA00053FB1C20FFF73CFB38BD000040380240AE
:103CB000014691F83D00012801D001207047022003
:103CC00081F83D000868C06840F001000B68D860CA
:103CD0001A4B086898421BD00868B0F1804F17D083
:103CE000174B0868984213D0164B086898420FD0BB
:103CF000154B086898420BD0144B0868984207D0BF
:103D0000134B0868984203D0124B086898420CD1B4
:103D10000868806800F00702062A0CD0086800686E
:103D200040F001000B68186005E00868006840F08A
:103D300001000B6818600020C0E70000000001408F
:103D40000004004000080040000C00400004014056
:103D500000400140001800402DE9F04104460D46A6
:103D6000002700BF94F83C00012802D10220BDE8E2
:103D7000F081012084F83C0000BF022084F83D005F
:103D80002068866826F0770626F47F4620688660DD
:103D90002868502833D00CDC202850D004DC0028C0
:103DA0004BD0102851D149E0302849D040284CD17F
:103DB00039E060282DD0702807D0B0F5805F03D09F
:103DC000B0F5005F41D10DE041E0D5E902136A682A
:103DD000206802F00EF92068866846F077062068B1
:103DE000866034E0D5E902136A68206802F001F9C0
:103DF0002068806840F480402168886027E0EA6895
:103E00006968206802F0E6F95021206802F0FCF8A9
:103E10001DE0EA686968206802F0EFF96021206817
:103E200002F0F2F813E0EA686968206802F0D2F95B
:103E30004021206802F0E8F809E000BF00BF00BFA1
:103E40002968206802F0E0F801E0012700BF00BF08
:103E5000012084F83D0000BF002084F83C0000BF32
:103E6000384684E7704770B504462068C568206806
:103E7000066906F00200022819D105F002000228A6
:103E800015D1401F216808610120207720688069D2
:103E900000F0030018B12046FFF7E4FF05E02046DC
:103EA00000F0F2F8204600F0E7F90020207706F055
:103EB0000400042819D105F00400042815D1C043DA
:103EC00021680861022020772068806900F4407032
:103ED00018B12046FFF7C6FF05E0204600F0D4F8F1
:103EE000204600F0C9F90020207706F008000828D5
:103EF00019D105F00800082815D1C04321680861D0
:103F0000042020772068C06900F0030018B1204623
:103F1000FFF7A8FF05E0204600F0B6F8204600F0C5
:103F2000ABF90020207706F01000102819D105F019
:103F30001000102815D1C04321680861082020779F
:103F40002068C06900F4407018B12046FFF78AFF6E
:103F500005E0204600F098F8204600F08DF900209A
:103F6000207706F0010048B105F0010030B16FF094
:103F7000010021680861204600F006FA06F0800082
:103F8000802809D105F08000802805D1C043216830
:103F900008612046FFF7DAFD06F04000402809D10D
:103FA00005F04000402805D1C04321680861204643
:103FB00000F0F6F906F02000202809D105F02000D5
:103FC000202805D1C043216808612046FFF7BFFDC6
:103FD00070BD000010B586B00446142101A8FCF79E
:103FE0009BF92449206888421ED100BF0020009020
:103FF0002148006840F002001F4908600846006838
:1040000000F00200009000BF00BF012001900220DC
:10401000029001200390032004900220059001A942
:104020001648FEF7D3FF22E01549206888421ED1CA
:1040300000BF002000901048006840F008000E49C2
:1040400008600846006800F00800009000BF00BF4C
:104050004FF40050019002200290012003900320B1
:1040600004900220059001A90648FEF7AFFF06B0B4
:1040700010BD00000004004030380240000402403F
:1040800000080040000C024070472DE9F041044652
:104090000D461646002700BF94F83C00012802D1C7
:1040A0000220BDE8F081012084F83C0000BF36B159
:1040B000042E1BD0082E31D00C2E5ED145E02946AF
:1040C000206801F0ABFF2068806940F0080021689B
:1040D00088612068806920F0040021688861206878
:1040E0008069296908432168886148E02946206879
:1040F00001F0CCFF2068806940F40060216888618D
:104100002068806920F48060216888612068806967
:10411000296940EA01202168886130E02946206849
:1041200001F0F2FF2068C06940F008002168C86112
:104130002068C06920F004002168C8612068C06957
:10414000296908432168C86119E02946206802F0FE
:1041500017F82068C06940F400602168C8612068D1
:10416000C06920F480602168C8612068C06929693D
:1041700040EA01202168C86101E0012700BF00BFBB
:1041800000BF002084F83C0000BF384689E710B526
:1041900004460CB9012010BD94F83D0028B9002058
:1041A00084F83C00204600F025F8022084F83D0009
:1041B000211D206801F09CFE012084F8460000BF0C
:1041C00084F83E0001213F20015540200155412047
:1041D000015500BF00BF012084F842004320015573
:1041E000442001554520015500BF012084F83D00C1
:1041F0000020D0E738B504461C492068884218D111
:1042000000BF002000901A48006840F002001849E2
:1042100008600846006800F00200009000BF00BF80
:10422000002205211D20FFF78FF81D20FFF778F8E9
:104230001BE010492068884217D100BF0020009081
:104240000B48006840F0040009490860084600680F
:1042500000F00400009000BF00BF002205211E20D6
:10426000FFF772F81E20FFF75BF838BD000400402E
:1042700040380240000800407047000070B5044616
:104280000D4615B994F83E000BE0042D02D13F20F5
:10429000005D06E0082D02D14020005D01E04120D4
:1042A000005D012801D0012070BD1DB9022084F8F5
:1042B0003E000EE0042D03D102213F20015508E00D
:1042C000082D03D102214020015502E002214120A6
:1042D000015501222946206801F07AFE2349206811
:1042E000884203D022492068884201D1012000E0A1
:1042F000002028B12068406C40F4004021684864E8
:104300001A49206888421BD02068B0F1804F17D02E
:1043100018492068884213D01749206888420FD076
:104320001649206888420BD011492068884207D07E
:1043300013492068884203D01249206888420CD172
:104340002068806800F00706062E0CD02068006800
:1043500040F001002168086005E02068006840F036
:1043600001002168086000209EE700000000014075
:10437000000401400004004000080040000C004020
:10438000004001400018004010B504460349206871
:10439000884201D1FEF720FF10BD0000000001405F
:1043A0007047704770B50446002520684069C0F327
:1043B000C01594F84100212817D1B5B100BF00BF46
:1043C0002168143151E8001F21F080002168143168
:1043D00041E80002002AF3D100BFA06B10B1A06B2E
:1043E000FEF7A9FB204602F06BF920684069C0F394
:1043F000801594F84200222817D1B5B100BF00BF44
:104400002168143151E8001F21F040002168143167
:1044100041E80002002AF3D100BFE06B10B1E06B6D
:10442000FEF789FB204602F005F9002070BD7047B9
:104430002DE9F84F0446206805682068C6682068A2
:1044400047694FF00009CA4605F00F09B9F1000F9E
:104450000AD105F0200038B106F0200020B1204636
:1044600002F041F9BDE8F88FB9F1000F7CD007F0F8
:10447000010018B906F49070002875D005F001000D
:1044800030B106F4807018B1606C40F001006064D7
:1044900005F0040030B107F0010018B1606C40F085
:1044A0000200606405F0020030B107F0010018B1AD
:1044B000606C40F00400606405F0080048B106F04C
:1044C000200010B907F0010018B1606C40F008003E
:1044D0006064606C002846D005F0200028B106F02A
:1044E000200010B1204602F0FEF820684069C0F3B9
:1044F000801A606C00F0080010B9BAF1000F2DD0DE
:10450000204602F097F82068406900F040004028FB
:1045100020D100BF00BF2168143151E8001F21F0F5
:1045200040002168143141E80002002AF3D100BFA5
:10453000E06B50B17F48E16B0865E06BFEF751FB23
:1045400088B1E06B016D88470DE02046FFF76FFFF3
:1045500009E009E02046FFF76AFF04E02046FFF784
:1045600066FF002060647DE7206B012878D105F0AC
:104570001000002874D006F010000028FAD000BF08
:10458000002000902068006800902068406800903B
:1045900000BF00BF2068406900F04000402870D193
:1045A000E06B006840681FFA80F8B8F1000F58D03F
:1045B000A08D404555DDA4F82E80E06BC069B0F5B4
:1045C000807F43D000BF00BF21680C3151E8001F3D
:1045D00021F4807021680C3141E80002002AF3D1F7
:1045E00000BF00BF00BF2168143151E8001F21F057
:1045F00001002168143141E80002002AF3D100BF14
:1046000000BF00BF2168143151E8001F21F04000B5
:104610002168143141E80002002AF3D100BF2020B4
:1046200084F842000020206300BF00BF21680C31E5
:1046300051E8001F21F0100021680C3141E8000210
:10464000002AF3D100BFE06BFEF775FA0220606329
:10465000A08DE28D801A81B22046FFF7A2FE0EE007
:1046600052E0A08D40450AD1E06BC069B0F5807F73
:1046700005D102206063A18D2046FFF792FEF1E68E
:10468000FFE7A08DE18D401A1FFA80F8E08DD0B3CE
:10469000B8F1000F37D000BF00BF21680C3151E8DE
:1046A000001F21F4907021680C3141E80002002ABB
:1046B000F3D100BF00BF00BF2168143151E8001FD3
:1046C00021F001002168143141E80002002AF3D1F1
:1046D00000BF202084F842000020206300BF00BFFC
:1046E00021680C3151E8001F21F0100021680C31C5
:1046F00041E80002002AF3D100BF02206063414676
:104700002046FFF74EFEADE605F0800030B106F022
:10471000800018B1204602F0E7F9A3E605F040005A
:1047200030B106F0400018B1204601F0B9FF99E61B
:1047300000BF97E69564000810B504460CB9012047
:1047400010BDA06900B100E000BF94F8410028B995
:10475000002084F84000204600F02AF8242084F845
:1047600041002068C06820F400502168C8602046DD
:1047700002F038F82068006920F490402168086150
:104780002068406920F02A00216848612068C068DC
:1047900040F400502168C86000206064202084F844
:1047A000410084F842000020606300BFC8E70000B9
:1047B00010B586B00446142101A8FBF7ADFD82496F
:1047C000206888427DD100BF002000907F480068AB
:1047D00040F010007D4908600846006800F01000B5
:1047E000009000BF00BF00BF002000907748143841
:1047F000006840F0010075491439086008460068F7
:1048000000F00100009000BF00BF48150190022099
:10481000029001200390032004900720059001A935
:104820006B48FEF7D3FB4FF48060019002200290AA
:104830000390032004900720059001A96448FEF727
:10484000C5FB6448644908604FF00060486000217F
:1048500061488160C1604FF4806101610021416164
:104860008161C16101624162FEF7F0FA08B1FDF7B2
:10487000A6FA00BF5848E063846300BF554878300B
:10488000564908604FF000604860402153488160FD
:104890000021C1604FF480610161002141618161AB
:1048A000C16101624162FEF7D1FA08B1FDF787FAF2
:1048B00000BF4A48A063846300BF00220521252071
:1048C00000E005E0FEF740FD2520FEF729FD79E038
:1048D00043492068884275D100BF002000903B48C2
:1048E000001F006840F400303849091F086008467E
:1048F000006800F40030009000BF00BF00BF00203F
:10490000009032481438006840F008002F491439EC
:1049100008600846006800F00800009000BF00BF73
:104920006020019002200290012003900320049057
:104930000720059001A92B48FEF748FB2A482B4980
:1049400008604FF000604860002128488160C16025
:104950004FF480610161002141618161C1610162A7
:104960004162FEF773FA08B1FDF729FA00BF1F484C
:10497000E063846300BF1C4818301D4908604FF095
:104980000060486040211A4881600021C1604FF4F6
:1049900080610161002141618161C1610162416207
:1049A000FEF754FA08B1FDF70AFA00BF1048A063F9
:1049B000846300BF002205212620FEF7C5FC2620C7
:1049C000FEF7AEFC06B010BD0010014044380240B6
:1049D0000000024040640240FC0A00205C0B002002
:1049E00000440040000C024088600240BC0B0020E4
:1049F0001C0C002070B504460D46164694F8420083
:104A000020280BD105B10EB9012070BD0020206314
:104A100032462946204601F0FBFFF6E70220F4E784
:104A2000704770472DE9F84F04460E4617469946E1
:104A30004FF0000A94F84100202850D106B117B970
:104A40000120BDE8F88F00206064212084F8410037
:104A5000FEF7BCFB8246A784E784A068B0F5805FC0
:104A600004D1206910B90025B04602E035464FF068
:104A700000081EE05346002280212046CDF8009019
:104A800002F062F820B1202084F841000320D8E72A
:104A900045B9B8F80000C0F308002168486008F183
:104AA000020803E02878216848606D1CE08C401EF5
:104AB000E084E08C0028DDD15346002240212046CE
:104AC000CDF8009002F040F820B1202084F8410099
:104AD0000320B6E7202084F841000020B1E702203F
:104AE000AFE70000F7B50446154694F841002028CA
:104AF0003ED1019800B10DB90120FEBD01982062A0
:104B0000A584E58400206064212084F841001948D0
:104B1000A16BC8631848A16B08641848A16BC864EE
:104B20000020A16B086501AE23681A1D31682B4671
:104B3000A06BFEF701FA30B110206064202084F8E9
:104B400041000120D9E76FF040002168086000BFF4
:104B500000BF2168143151E8001F41F08000216836
:104B6000143141E80002002AF3D100BF0020C4E75D
:104B70000220C2E7CF65000827660008A764000886
:104B80007047704700BFFEE710B52DED048B3D4820
:104B900090F9000020B1012842D002286ED169E0CE
:104BA0000020394908600120384908709FED380A13
:104BB000384880ED000A41F6E84037490880374818
:104BC00090ED000ADFED320A30EE600A10EE101AA6
:104BD0000846FBF7E4FC41EC190BB0EE490AF0EE95
:104BE000690A02F0DFF8B0EE408AF0EE608A9FEDCD
:104BF0002C0B53EC102B51EC180BFBF7E3FC0ED2F3
:104C000029480068A0F5E054E83C002C01DB204670
:104C100000E06042052802DA01201A4908702DE000
:104C20009FED220A224880ED000A224890ED000AFA
:104C3000DFED1E0A30EE600A10EE101A0846FBF790
:104C4000AEFC41EC190BB0EE490AF0EE690A02F035
:104C5000A9F8B0EE408AF0EE608A9FED110B53EC9C
:104C6000102B51EC180BFBF7ADFC02D202200549CA
:104C7000087003E000201049087000BF00BFBDECC1
:104C8000048B10BD1C060020FC000020D400002076
:104C900000002FC4C0000020BC000020DC00002069
:104CA0000000000000001440D80000200000E14394
:104CB000C8000020E4000020A406002010B52DED5F
:104CC000048BD14890F90000072847D2DFE800F0B4
:104CD000044771C1D4FCFB000020CC4908600220CD
:104CE000CB4908600120CB4908709FEDCB0ACB4827
:104CF00080ED000A41F28830C9490880C94890ED2A
:104D0000000ADFEDC50A30EE600A10EE101A084600
:104D1000FBF745FC41EC190BB0EE490AF0EE690ACD
:104D200002F040F8B0EE408AF0EE608A9FEDBE0BD4
:104D300053EC102B51EC180BFBF744FC0ED2BC4883
:104D40000068A0F59854883C002C01DB204600E068
:104D500060420A2802DA0120AB4908704FE19FED5A
:104D6000B50AB54880ED000AB44890ED000ADFEDC1
:104D7000B10A30EE600A10EE101A0846FBF70FFC7D
:104D800041EC190BB0EE490AF0EE690A02F00AF89C
:104D9000B0EE408AF0EE608A9FEDA30B53EC102B2F
:104DA00051EC180BFBF70EFC02D20220964908705A
:104DB00025E19FEDA30AA34880ED000A9FEDA20A1A
:104DC000A24880ED000AA24890ED000ADFED9C0A9F
:104DD00030EE600A10EE101A0846FBF7E0FB41ECDB
:104DE000190BB0EE490AF0EE690A01F0DBFFB0EEF4
:104DF000408AF0EE608A9FED970B53EC102B51EC3C
:104E0000180BFBF7DFFB23D2944890ED000ADFED8F
:104E10008E0A30EE600A10EE101A0846FBF7BFFB50
:104E200041EC190BB0EE490AF0EE690A01F0BAFF45
:104E3000B0EE408AF0EE608A9FED860B53EC102BAB
:104E400051EC180BFBF7BEFB02D203206E49087031
:104E5000D5E083480068401C814908600846006826
:104E6000142808DD00206B4908700420664908708A
:104E700000207B490860C2E0754890ED000A79483F
:104E8000D0ED000A30EE600A10EE101A0846FBF76B
:104E900086FB41EC190BB0EE490AF0EE690A01F00D
:104EA00081FFB0EE408AF0EE608A9FED6F0B53EC0D
:104EB000102B51EC180BFBF79DFB29D2674890EDA6
:104EC000000A6B4801E070E037E0D0ED000A30EEF8
:104ED000600A10EE101A0846FBF761FB41EC190B53
:104EE000B0EE490AF0EE690A01F05CFFB0EE408ACC
:104EF000F0EE608A9FED5C0B53EC102B51EC180B1D
:104F0000FBF778FB04D25B480068401C59490860F5
:104F100058480068AA280FDD9FED570A494880EDE0
:104F2000000A9FED560A494880ED000A00205149C9
:104F3000086005203449087061E051480068401C51
:104F40004F49086008460068462809DD00200860CF
:104F50000120304908709FED4B0A304880ED000A6F
:104F6000304890ED000ADFED470A30EE600A10EE9F
:104F7000101A0846FBF713FB41EC190BB0EE490A77
:104F8000F0EE690A01F00EFFB0EE408AF0EE608AA2
:104F90009FED3D0B53EC102B51EC180BFBF712FB64
:104FA00002D206201849087029E09FED330A2248F2
:104FB00080ED000A214890ED000ADFED2F0A30EE67
:104FC000600A10EE101A0846FBF7E9FA41EC190BDB
:104FD000B0EE490AF0EE690A01F0E4FEB0EE408A54
:104FE000F0EE608A9FED100B53EC102B51EC180B78
:104FF000FBF7E8FA02D200202549087000BF00BF85
:10500000BDEC048B10BD00001F060020FC0000203A
:10501000F8000020D400002000806DC4C0000020F3
:10502000BC000020DC000020000000000000144054
:10503000D80000200000FA43C8000020E40000204F
:10504000000048C4CC00002000006144D0000020D3
:10505000E80000200000000000002440EC000020D8
:1050600050060020A8060020000000000000494073
:10507000AC0600205406002000000000000016448A
:1050800058060020000048C20000000000008940CF
:10509000A10600200FB400B589B00A9828B10120FC
:1050A000414908700020414908703F48007808B124
:1050B000FFF76AFD0B9828B101203D4908700020D8
:1050C0003C4908703A48007808B100F05BFD0C9844
:1050D00028B1012038490870002038490870364846
:1050E000007840B124220EA96846FBF7FCF80AA814
:1050F0000FC8FBF739FF0D9828B10120304908701F
:105100000020304908702E48007808B1FFF7D6FD1E
:105110000E9828B101202C49087000202B490870F6
:105120002948007840B124220EA96846FBF7DBF835
:105130000AA80FC8FBF754FC0F9828B10120244996
:1051400008700020234908702148007840B12422CB
:105150000EA96846FBF7C7F80AA80FC8FBF7FCFCC6
:10516000109828B101201C49087000201B490870C4
:105170001948007840B124220EA96846FBF7B3F81D
:105180000AA80FC8FBF770FE119828B10120144936
:1051900008700020134908701148007808B1FCF726
:1051A0006DFD09B05DF814FBA40600201C0600206C
:1051B000A50600201D060020A00600201E060020D7
:1051C000A10600201F060020A206002020060020C5
:1051D000A306002021060020A606002022060020AB
:1051E000A7060020230600208AB000BF2422094918
:1051F0006846FBF778F8074810380FC8FFF74AFFF2
:105200000548C089401C0449C881012002F028FBE0
:10521000ECE700009C4A0020424A002090ED031A6F
:10522000D0ED041AF7EE000A41EE210AB7EE001A9B
:10523000C1EE201AB0EE610AF7EE000A70EEC00A65
:1052400090ED021A60EE810A90ED001A40EE010A1C
:10525000C0ED010AD0ED010AC0ED000A7047000060
:1052600010B50F480F4908600320486000210D4821
:105270008160C1604FF4002101614FF44011416130
:1052800000210176417681760121C17600210177E6
:105290004177FDF701F908B1FCF791FD10BD000061
:1052A000006400404409002010B50E480E49086013
:1052B0000320486000210C488160C1604FF4002148
:1052C00001614FF440114161002101764176817600
:1052D000C17601774177FDF7DFF808B1FCF76FFD84
:1052E00010BD0000006800406C09002008B500BF38
:1052F000002000901E48006840F480001C490860AF
:105300000846006800F48000009000BF00BF00BFA6
:10531000002000900846006840F40010086008462D
:10532000006800F40010009000BF00BF00220521BB
:105330001020FEF709F81020FDF7F2FF00220521EA
:105340001120FEF701F81120FDF7EAFF00220521E8
:105350003A20FDF7F9FF3A20FDF7E2FF0022052190
:105360004620FDF7F1FF4620FDF7DAFF08BD0000FB
:105370003038024000B5ABB01C22244924A8FAF70B
:10538000B2FF002124A801F03CFE214908601C2244
:105390001E491C311DA8FAF7A6FF00211DA801F027
:1053A00030FE1C4908601C221849383116A8FAF74B
:1053B0009AFF002116A801F024FE174908601C225C
:1053C000124954310FA8FAF78EFF00210FA801F0FF
:1053D00018FE124908601C220C49703108A8FAF71F
:1053E00082FF002108A801F00CFE0D4908601C2274
:1053F00006498C3101A8FAF776FF002101A801F0D7
:1054000000FE084908602BB000BD0000DC7E0008EB
:105410001000002014000020180000201C000020B4
:10542000200000202400002000B587B0142102A82D
:10543000FAF772FF00BF002001902E48006840F08C
:1054400080002C4908600846006800F08000019048
:1054500000BF00BF00BF002001900846006840F078
:10546000020008600846006800F00200019000BFDA
:1054700000BF00BF002001900846006840F008000F
:1054800008600846006800F00800019000BF00BFF7
:1054900000BF002001900846006840F0040008604A
:1054A0000846006800F00400019000BF00BF00BF84
:1054B000002001900846006840F00100086008469E
:1054C000006800F00100019000BF00BF01224FF40E
:1054D00088610948FDF774FE4FF48860029001204E
:1054E000039004900320059002A90348FDF76EFD88
:1054F00007B000BD303802400008024000B587B058
:1055000000200390049005900690019002904FF0C7
:1055100080401449086042F2CF00486000211148E1
:10552000816042F20F71C160002101618161FEF76B
:1055300069FB08B1FCF743FC4FF48050039003A9CA
:105540000848FEF709FC08B1FCF739FC002001907F
:10555000029001A90348FEF7FBFA08B1FCF72FFC03
:1055600007B000BD9409002000B589B00020079065
:1055700008901C216846FAF7CFFE184818490860C1
:105580001420486000211648816040F69F71C16078
:10559000002101618161FEF7FAFD08B1FCF70FFC03
:1055A00000200790089007A90D48FEF7D1FA08B12E
:1055B000FCF705FC60200090002001900290049010
:1055C000082269460648FEF760FD08B1FCF7F7FBC4
:1055D0000348FEF7FFFC09B000BD000000040040D6
:1055E000DC09002000B589B00020079008901C213C
:1055F0006846FAF791FE1848184908601420486078
:1056000000211648816040F69F71C1600021016150
:105610008161FEF7BCFD08B1FCF7D1FB00200790CB
:10562000089007A90D48FEF793FA08B1FCF7C7FBED
:1056300060200090002001900290049004226946AE
:105640000648FEF722FD08B1FCF7B9FB0348FEF758
:10565000C1FC09B000BD000000080040240A002081
:1056600010B50B480B4908604FF4E1204860002159
:1056700008488160C16001610C21416100218161A4
:10568000C161FFF759F808B1FCF799FB10BD0000A4
:10569000001001406C0A002010B50B480B4908604F
:1056A0004FF4E1204860002108488160C160016139
:1056B0000C21416100218161C161FFF73DF808B112
:1056C000FCF77DFB10BD000000440040B40A002040
:1056D00000BFFEE730B5841A23B21C1E01DB25464D
:1056E00000E06542322D02DA01240C8001E0002442
:1056F0000C8030BD00BF034800F05CFB012002F0CD
:10570000AFF8F8E7424A002000BFFEE710B52DEDE4
:10571000088B044694ED000AD4ED010A30EE600ACD
:1057200084ED050A94ED0C0A10EE101A0846FAF7FB
:1057300036FF41EC190B94ED050A10EE101A0846DD
:10574000FAF72DFF41EC1B0BB0EE4B0AF0EE6B0AA3
:1057500001F028FBB0EE40AAF0EE60AA53EC192B42
:1057600051EC1A0BFAF72EFF03D89FED500A84ED87
:10577000050A94ED0A0A10EE101A0846FAF70FFF10
:1057800041EC190B94ED050A10EE101A0846FAF7D1
:1057900006FF41EC1B0BB0EE4B0AF0EE6B0A01F07A
:1057A00001FBB0EE40AAF0EE60AA53EC192B51ECCD
:1057B0001A0BFAF707FF07D294ED070AD4ED050A92
:1057C00030EE200A84ED070A94ED070AD4ED090AA9
:1057D000B4EEE00AF1EE10FA04DD94ED090A84ED6E
:1057E000070A10E094ED070AD4ED090AF1EE600A09
:1057F000B4EEE00AF1EE10FA05D294ED090AB1EE2A
:10580000400A84ED070A94ED020AD4ED050A20EE61
:10581000200A84ED0D0A94ED030AD4ED070A20EE68
:10582000200A84ED0E0A94ED050AD4ED060A30EE46
:10583000608A94ED040A20EE080A84ED0F0A94EDC4
:105840000D0AD4ED0E0A30EE200AD4ED0F0A30EE28
:10585000200A84ED080A94ED080AD4ED0B0AB4EE90
:10586000E00AF1EE10FA04DD94ED0B0A84ED080A6B
:1058700010E094ED080AD4ED0B0AF1EE600AB4EEE4
:10588000E00AF1EE10FA05D294ED0B0AB1EE400AEF
:1058900084ED080A94ED050A84ED060A94ED0F0ADA
:1058A00084ED100ABDEC088B10BD00000000000064
:1058B00010B5044604F14400FFF728FF94ED190ADF
:1058C00084ED000A2046FFF721FF94ED080A84EDDD
:1058D000220A10BD10B52DED088B044694ED000A88
:1058E000D4ED010A30EE600A84ED050A94ED0C0A4D
:1058F00010EE101A0846FAF752FE41EC190B94ED1F
:10590000050A10EE101A0846FAF749FE41EC1B0B87
:10591000B0EE4B0AF0EE6B0A01F044FAB0EE40AA8A
:10592000F0EE60AA53EC192B51EC1A0BFAF74AFE71
:1059300003D89FED5A0A84ED050A94ED0A0A10EE89
:10594000101A0846FAF72BFE41EC190B94ED050AE4
:1059500010EE101A0846FAF722FE41EC1B0BB0EECF
:105960004B0AF0EE6B0A01F01DFAB0EE40AAF0EE21
:1059700060AA53EC192B51EC1A0BFAF723FE07D24D
:1059800094ED070AD4ED050A30EE200A84ED070AEB
:1059900094ED070A10EE101A0846FAF700FE41ECE3
:1059A0001A0B9FED3F0B53EC102BFAF767FD41EC00
:1059B000190BFAF737FEE06194ED070AD4ED090AF6
:1059C000B4EEE00AF1EE10FA04DD94ED090A84ED7C
:1059D000070A10E094ED070AD4ED090AF1EE600A17
:1059E000B4EEE00AF1EE10FA05D294ED090AB1EE38
:1059F000400A84ED070A94ED020AD4ED050A20EE70
:105A0000200A84ED0D0A94ED030AD4ED070A20EE76
:105A1000200A84ED0E0A94ED050AD4ED060A30EE54
:105A2000608A94ED040A20EE080A84ED0F0A94EDD2
:105A30000D0AD4ED0E0A30EE200AD4ED0F0A30EE36
:105A4000200A84ED080A94ED080AD4ED0B0AB4EE9E
:105A5000E00AF1EE10FA04DD94ED0B0A84ED080A79
:105A600010E094ED080AD4ED0B0AF1EE600AB4EEF2
:105A7000E00AF1EE10FA05D294ED0B0AB1EE400AFD
:105A800084ED080A94ED050A84ED060A94ED0F0AE8
:105A900084ED100ABDEC088B10BD00000000000072
:105AA000AE47E17A14AEEF3F10B51E220D490E4805
:105AB000FEF7A0FF0C480068C06840F010000A49DB
:105AC0000968C8600948FEF7F3F808210848FEF79E
:105AD000D5FB04210748FEF7D1FB01F02FFA01F0B6
