:020000040800F2
:10000000484F0020610200088D540008F94A00089A
:100010005554000841130008B169000800000000B1
:10002000000000000000000000000000A101000826
:10003000D51D000800000000FD0100088D5B0008D0
:100040007B0200087B0200087B0200087B0200089C
:100050007B0200087B0200087B0200087B0200088C
:100060007B0200087B0200087B0200087B0200087C
:100070007B0200087B0200087B0200087B0200086C
:10008000491B0008591B00087B0200087B0200087E
:100090008D1300087B0200087B0200087B02000829
:1000A0007B020008555D00087B0200087B02000807
:1000B000655D0008A15D0008B15D00087B020008D5
:1000C0007B0200087B0200087B0200087B0200081C
:1000D0007B02000841690008A16900087B02000852
:1000E0007B0200087B0200087B0200087B020008FC
:1000F0007B0200087B0200087B0200087B020008EC
:100100007B0200087B0200087B0200087B020008DB
:100110007B0200087B0200087B0200087B020008CB
:100120007B0200087B020008691B00087B020008B4
:100130007B0200087B0200087B0200087B020008AB
:10014000E51300087B0200087B0200087B02000820
:100150007B0200087B020008791B00087B02000874
:100160007B0200087B0200087B0200087B0200087B
:100170007B0200087B0200087B02000800000000F0
:100180007B0200087B020008DFF810D000F0C0FB03
:10019000004800474D6D0008AFF30080484F002035
:1001A0002C4B19680868B0E8F04F80F30988BFF35A
:1001B0006F8F4FF0000080F311887047000000003F
:1001C00008480068006880F308884FF0000080F35A
:1001D000148862B661B6BFF34F8FBFF36F8F00DF35
:1001E00000BF00BF08ED00E0DFF80C00016841F43B
:1001F00070010160704700BF88ED00E0EFF30980F7
:10020000BFF36F8F134B1A681EF0100F08BF20ED5D
:10021000108A20E9F04F106009B44FF0500080F3CD
:100220001188BFF34F8FBFF36F8F07F087FA4FF03E
:10023000000080F3118809BC19680868B0E8F04F25
:100240001EF0100F08BFB0EC108A80F30988BFF3CE
:100250006F8F704740000020EFF30580704700006B
:100260000648804706480047FEE7FEE7FEE7FEE750
:10027000FEE7FEE7FEE7FEE7FEE7FEE7755C000847
:10028000890100082DE9F05F0546002092469B4653
:1002900088460646814640241BE02846414647469C
:1002A000224600F0EAF953465A46C01A914110D34B
:1002B00011461846224600F0D1F92D1A67EB0108C5
:1002C0004F4622460120002100F0C8F917EB000933
:1002D0004E41201EA4F10104DFDC484631462A4687
:1002E0004346BDE8F09F40EA01039B0703D009E0C5
:1002F00008C9121F08C0042AFAD203E011F8013B12
:1003000000F8013B521EF9D27047D2B201E000F86A
:10031000012B491EFBD270470022F6E710B51346A9
:100320000A4604461946FFF7F0FF204610BD2DE9A6
:10033000FE4F804681EA0300C00F0C46009021F07A
:10034000004123F00045B8EB0200A94105D2404628
:10035000214690461C460B46024623F000401043BF
:1003600047D0270DC7F30A00C3F30A510290401A81
:10037000019040286BDAC3F3130040F4801B00980F
:10038000924620B10023D2EB030A63EB0B0B0198DA
:100390005946C0F14002504600F060F906460D464D
:1003A00050465946019A00F078F910EB0800614177
:1003B000002487EA115284EAE7731A4340D0009A76
:1003C00062B3019A012A4FEA075215DC001B61EB68
:1003D00002014FF0004202EA0752CDE90042001C40
:1003E00041F5801132462B4600F0AFF903B0BDE86D
:1003F000F08F40462146F9E7001B61EB0201001C2B
:1004000041F5801300185B412018A2F5001747EB57
:10041000030140EAD570B6196D4111E06D084FEA4D
:10042000360645EAC0754FEA0752001B61EB020130
:10043000001C41F5801149084FEA30000019514174
:1004400032462B4603B0BDE8F04F00F06FB900987C
:10045000012240000023D0EB020263EBE07300981E
:1004600021464FEAE074B8EB000061EB0401E9E7D4
:1004700083F000435BE781F0004158E72DE9FE4F30
:1004800081EA030404F0004421F0004100944FF09D
:10049000000B23F0004350EA01045ED052EA03044B
:1004A0005BD0C3F30A54C1F30A552C44A4F2F334CD
:1004B0000194A0FB0254C1F3130141F48011C3F372
:1004C000130343F4801301FB024400FB034E840A30
:1004D000970A44EA815447EA8357A4FB07680295C8
:1004E0008D0A05FB07854FEA932C04FB0C54270566
:1004F000029D4FEA065847EA1637B5EB08056EEB42
:10050000070C870E920E47EA811742EA8312A7FB77
:100510000201B6EB0B0164EB00042B0D43EA0C3334
:100520005E1844EB1C50DA465146E7FB0201C5F366
:1005300013044FEA0B3343EA14534FEA0432019C8D
:1005400043EA0603A4F10C040294009CCDE900B434
:1005500000F0FBF803B0BDE8F08F00200146F9E79A
:1005600070B5C1F30A5201F000450024C1F3130134
:1005700040F2FF3341F480119A4201DA002070BD4D
:1005800040F233439A42A2F2334203DC524200F07B
:1005900074F800E090402C43F1D0404270BD00F070
:1005A000004230F000400AD0C10D01F56071C0F387
:1005B000160042EA0151C20840071143704700206B
:1005C0000146704730B5041E71F1000404DB4FF0A2
:1005D0000044404264EB0101141E73F1000405DB8A
:1005E0001C464FF00043524263EB04038B4208BFAA
:1005F000824230BD30B5041E71F1000404DB4FF0BF
:100600000044404264EB0101141E73F1000405DB59
:100610001C464FF00043524263EB0403994208BF6B
:10062000904230BD01F0004330B421F0004150EA67
:10063000010206D00A0DA2F56072C1F31301002A6F
:1006400002DC30BC00207047440F44EAC104C10002
:10065000E01830BC00EBC25000F031B8202A04DBB7
:10066000203A00FA02F1002070479140C2F12003C5
:1006700020FA03F3194390407047202A04DB203A04
:1006800021FA02F00021704721FA02F3D040C2F1B2
:1006900020029140084319467047202A06DBCB17F9
:1006A000203A41FA02F043EAE07306E041FA02F32D
:1006B000D040C2F1200291400843194670470029FA
:1006C000A8BF7047401C490008BF20F001007047D8
:1006D00010B4B0FA80FC00FA0CF050EA010404BF38
:1006E00010BC704749B1CCF1200421FA04F411FA8E
:1006F0000CF118BF012121430843A3EB0C01CB1DD2
:100700004FEA00614FEA102042BF002010BC704742
:1007100000EBC35010440029A4BF10BC7047401C1C
:10072000490008BF20F0010010BC704710B5141E2E
:1007300073F1000408DA401C41F1000192185B419A
:100740001A4301D120F0010010BD2DE9F04D924671
:100750009B4611B1B1FA81F202E0B0FA80F2203288
:100760009046FFF77BFF04460F4640EA0A0041EA45
:100770000B0153465A46084313D0114653EA010071
:1007800019D0C8F140025046FFF777FF05460E46E4
:10079000504659464246FFF761FF084305D0012005
:1007A00004E020463946BDE8F08D0020054346EAC6
:1007B000E0762C4337430A986305E40AA0EB08006F
:1007C0000022FD0A44EA47540A3002D500200146BF
:1007D000E9E7010510196941DDE90845001969419A
:1007E000BDE8F04DA2E72DE9F04D00231A461B1A93
:1007F0008A4103DB00200146BDE8F08DC1F30A52B7
:10080000C1F3130141F480154FF0000BD10702D161
:1008100000186D41521E0027044640F2FF11384671
:1008200001EB620A3E468046024600204FF48011EA
:10083000FFF723FFC2197141BB1846EB0100B4EB6F
:10084000030C75EB000C04D3E41A65EB00051746A6
:100850000E46241908F101006D4180463428E3DD7D
:10086000F91946EB0600091BA84103D24FF0FF32ED
:10087000134601E0002213461BEB070046EB0A512A
:10088000BDE8F04DFFF752BF2DE9F041054621F0DC
:1008900000400C46284309D0C4F30A5040F23341CB
:1008A000884205DD28462146BDE8F0812846FBE761
:1008B00040F2FE31884210DC0CDB4FEA043040EAA3
:1008C000155050EA053105D0104804F000410143AD
:1008D0000020E9E700200146E6E7A0F23340464267
:1008E000C6F1400228462146FFF7B8FE0746884673
:1008F000284621463246FFF7C0FE43463A46FFF7F8
:1009000015FF3246BDE8F041FFF7A8BE0000F03FFA
:10091000064C074D06E0E06840F0010394E807004C
:1009200098471034AC42F6D3FFF732FC9C7D0008A8
:10093000BC7D000870B58C1810F8015B15F007033A
:1009400001D110F8013B2A1106D110F8012B03E068
:1009500010F8016B01F8016B5B1EF9D12B0705D470
:100960000023521E0DD401F8013BFAE710F8013BB9
:10097000CB1A921C03E013F8015B01F8015B521ED5
:10098000F9D5A142D8D3002070BD10B502684260ED
:100990000160D0E90023D21A8260426902EBD2746E
:1009A0008368B3EB640F04DD43698268D21A826006
:1009B0000BE043695A4202EBD2748368B3EB640FD5
:1009C00003DA436982681A448260D0E902321A4429
:1009D000C260C269012A02D10022C260C26110BD98
:1009E0000FB410B52DED048B4A48007810B10128E2
:1009F0007ED182E002204849086000204749086013
:100A00009FED470A474880ED000A9DED130ABCEEB2
:100A1000C00A10EE100A444908809FED440A444879
:100A200080ED000ADDED130A424890ED000AB8EEB1
:100A3000C00A30EE600A10EE101A0846FFF7AFFD4C
:100A400041EC190BB0EE490AF0EE690A06F072F8B3
:100A5000B0EE408AF0EE608A9FED370B53EC102B1E
:100A600051EC180BFFF7AEFD46D2354890ED000A69
:100A7000DFED2E0A30EE600A10EE101A0846FFF77E
:100A80008EFD41EC190BB0EE490AF0EE690A06F052
:100A900051F8B0EE408AF0EE608A9FED2A0B53ECDD
:100AA000102B51EC180BFFF78DFD25D2274890ED48
:100AB000000ADFED1B0A30EE600A10EE101A08463D
:100AC000FFF76DFD41EC190BB0EE490AF0EE690A33
:100AD00006F030F8B0EE408AF0EE608A9FED1C0B15
:100AE00053EC102B51EC180BFFF76CFD04D200E017
:100AF00009E001200749087005E000201649087048
:100B000006F01EF900BF00BFBDEC048B10BC5DF801
:100B100014FB000020060020F8000020FC0000204C
:100B2000000048C2C0000020BC00002000000000FF
:100B3000C8000020D8000020000000000000244071
:100B4000E4000020000000000000F03FDC00002076
:100B50000000000000001440AE0600200FB410B5E5
:100B60002DED048BA648007807287DD2DFE800F041
:100B7000048CA9C1F0EEED000220A249086000201B
:100B8000A14908609FEDA10AA14880ED000A9FEDF0
:100B9000A10AA14880ED000A9DED130ABCEEC00A2F
:100BA00010EE100A9D4908809FED980A9C4880ED40
:100BB000000ADDED130A9B4890ED000AB8EEC00A6A
:100BC00030EE600A10EE101A0846FFF7E8FC41EC20
:100BD000190BB0EE490AF0EE690A05F0ABFFB0EE72
:100BE000408AF0EE608A9FED900B53EC102B51EC95
:100BF000180BFFF7E7FC46D28D4890ED000ADFEDB9
:100C0000830A30EE600A10EE101A0846FFF7C7FCA0
:100C100041EC190BB0EE490AF0EE690A05F08AFFC3
:100C2000B0EE408AF0EE608A9FED820B53EC102B01
:100C300051EC180BFFF7C6FC25D2804890ED000A56
:100C4000DFED740A30EE600A10EE101A0846FFF766
:100C5000A6FC41EC190BB0EE490AF0EE690A05F06A
:100C600069FFB0EE408A00E0C3E0F0EE608A9FEDDD
:100C7000740B53EC102B51EC180BFFF7A3FC02D2B2
:100C800001205F490870B4E000205E49086001203F
:100C90005D4908606C480068401C6B490860084664
:100CA00000686A49096888420ADD9FED580A684869
:100CB00080ED000A02205249087000206249086055
:100CC00097E09DED140AB1EE400A614880ED000AFC
:100CD000604890ED000A5948D0ED000A30EE600AF5
:100CE000B5EEC00AF1EE10FA02DD032044490870A7
:100CF0007FE059480068401C57490860032041497B
:100D00000860564890ED000A514880ED000A4B48B3
:100D100090ED000A3E48D0ED000AB4EEE00AF1EE94
:100D200010FA05DD454890ED000A394880ED000ACB
:100D3000494800684A490968884205DD042030496D
:100D4000087000204449086053E04AE017E0FFE7DC
:100D50009FED2E0A3E4880ED000A42480068401C84
:100D600040490860084600683F490968884205DD37
:100D700005202349087000203A49086039E0022024
:100D8000204908609FED230A234880ED000A2B4884
:100D900090ED000ADFED1F0A30EE600A10EE101A27
:100DA0000846FFF7FCFB41EC190BB0EE490AF0EEE8
:100DB000690A05F0BFFEB0EE408AF0EE608A9FED52
:100DC0001D0B53EC102B51EC180BFFF7FBFB07D25C
:100DD00006200B4908709FED0D0A1D4880ED000AA2
:100DE00007E00020084908602049087005F0A8FFC6
:100DF00000BF00BFBDEC048B10BC5DF814FB00000D
:100E000021060020F8000020FC0000200000000067
:100E10002C060020000048C2C0000020BC000020BA
:100E2000C8000020D8000020000000000000594049
:100E3000E4000020000000000000F03FDC00002083
:100E4000000000000000144088060020EC0600208E
:100E5000C4000020180600208C060020F8060020A0
:100E6000F006002090060020F4060020AF060020C7
:100E70000FB43248007830B1012817D002281CD0B6
:100E8000032858D153E000202D4908702D4890EDDB
:100E9000000A2D4880ED000A2C4890ED000A2C48ED
:100EA00080ED000A01202549087044E00C980128D3
:100EB00002D10220214908703DE026480068401C0C
:100EC00024490860084690ED000AB8EEC00A22489E
:100ED000D0ED000AB4EEE00AF1EE10FA05DD0120D3
:100EE0001749087000201B4908601C480068401C16
:100EF0001A490860084690ED000AB8EEC00A184882
:100F0000D0ED000AB4EEE00AF1EE10FA0EDD9FED2E
:100F1000150A0D4880ED000A9FED120A0C4880ED7D
:100F2000000A0020086003200449087003E0002044
:100F30000D49087000BF00BF04B0704722060020B2
:100F4000D4000020C0060020CC000020C4060020F1
:100F5000D00000209C060020D0060020A006002023
:100F6000D406002000000000B20600200FB410B527
:100F70002DED068BCE48007808284CD2DFE800F033
:100F8000044CBDFEFDFCFBFA0220CA4908600020AB
:100F9000C94908609FEDC90AC94880ED000A0120CF
:100FA000C84908709FEDC80AC84880ED000A41F69C
:100FB000C810C7490880C74890ED000ADFEDBF0A96
:100FC00030EE600A10EE101A0846FFF7E8FA41EC1E
:100FD000190BB0EE490AF0EE690A05F0ABFDB0EE70
:100FE000408AF0EE608A9FEDBC0B53EC102B51EC65
:100FF000180BFFF7E7FA0ED20120AD490870B84888
:1010000090ED000AB74880ED0B0AB74890ED000A52
:10101000B64880ED0B0A44E1B54890ED000AB548AA
:1010200080ED000AB44890ED000AB44880ED000A53
:10103000B3480068FFF7B3FA41EC180BB14890EDE4
:10104000000AAB48D0ED000A30EE600A10EE101A2C
:101050000846FFF7A4FA41EC1A0BB0EE4A0AF0EE8C
:101060006A0A05F067FDB0EE409AF0EE609A53EC24
:10107000182B51EC190BFFF7A5FA2AD2A0480068EB
:10108000FFF78DFA41EC180B9F4890ED000A9A4843
:10109000D0ED000A30EE600A10EE101A0846FFF795
:1010A0007EFA41EC1A0BB0EE4A0AF0EE6A0A05F03D
:1010B00041FDB0EE409AF0EE609A53EC182B51ECE3
:1010C000190BFFF77FFA04D290480068401C8F4943
:1010D00008608E4890ED000AB8EEC00A8C48D0ED4A
:1010E000000AB4EEE00AF1EE10FA05DD02207049C4
:1010F0000870002085490860D3E00020714908701D
:1011000084480068FFF74BFA41EC180B7D4890EDDE
:10111000000A7748D0ED000A30EE600A10EE101A8F
:101120000846FFF73CFA41EC1A0BB0EE4A0AF0EE23
:101130006A0A05F0FFFCB0EE409AF0EE609A53ECBC
:10114000182B51EC190BFFF755FA38D2714800688B
:10115000FFF725FA41EC180B6B4890ED000A664842
:10116000D0ED000A30EE600A10EE101A0846FFF7C4
:1011700016FA04E08FE054E04CE045E020E041EC5A
:101180001A0BB0EE4A0AF0EE6A0A05F0D3FCB0EE94
:10119000409AF0EE609A53EC182B51EC190BFFF7C4
:1011A00029FA0CD20320424908709FED5B0A4D4892
:1011B00080ED0B0A9FED580A4C4880ED0B0A70E059
:1011C00056480068401C55490860084690ED000AE2
:1011D000B8EEC00A5248D0ED000AB4EEE00AF1EED3
:1011E00010FA10DD4F4890ED000A424880ED000AE9
:1011F0004D4890ED000A414880ED000A002008604B
:1012000004202B4908704CE0149810B90520284997
:10121000087046E01498012802D10620244908707D
:101220003FE042480068401C40490860084690ED95
:10123000000AB8EEC00A3E48D0ED000AB4EEE00A5B
:10124000F1EE10FA05DD01201E4908700020374933
:10125000086038480068401C36490860084690ED30
:10126000000AB8EEC00A3448D0ED000AB4EEE00A35
:10127000F1EE10FA0EDD9FED110A1E4880ED000A16
:101280009FED0E0A1D4880ED000A0020086007202F
:101290000749087005E000202849087005F050FD56
:1012A00000BF00BFBDEC068B10BC5DF814FB000056
:1012B0001E060020F8000020FC00002000000000B6
:1012C000C8000020D400002000808EC4C000002090
:1012D000BC000020E40000200000000000001440DA
:1012E000E406002028040020E80600206C0400200A
:1012F000B8060020CC000020BC060020D000002052
:10130000DC060020E8000020EC000020440600205D
:10131000C8060020E006002000C05A46480600200B
:10132000CC060020C0060020C40600204C06002089
:10133000D006002050060020D4060020AC06002075
:1013400000BFFEE710B58AB0044600200590069065
:101350000120079047F6FE70009000200290019057
:10136000039004900E2009900120089069460648D9
:1013700000F01CFE044801F0C2FB0221024800F00C
:101380005BFD0AB010BD00005409002010B50248F2
:1013900000F067FF10BD00005409002010B58AB0AE
:1013A00004460E200590002006900120079047F685
:1013B000FE700090002002900190039004901C2089
:1013C0000990012008906946054800F0EFFD0448A7
:1013D00001F095FB0221024800F02EFD0AB010BD7D
:1013E0007C09002010B5024800F03BFF10BD000052
:1013F0007C0900202DE9F04106460C4617461D46A3
:101400000E48046000200D4948608860C8600846A6
:10141000056101233A46304600F023FD60B1022306
:101420003A460649304600F01CFD28B104233A46EE
:101430000249304600F015FDBDE8F081C4490020A6
:101440002DE9FC4781460E4614461D46DDE90A7823
:10145000200A8DF80000E0B28DF80100280A8DF80E
:101460000200E8B28DF80300380A8DF80400F8B2E3
:101470008DF805004FEA18208DF8060008F0FF00EF
:101480008DF80700B1B208236A464846FFF7B2FF5D
:10149000BDE8FC8790ED030AD0ED070A30EE600A44
:1014A00080ED080A90ED030A80ED070A70470000FE
:1014B00030B52DED108B83B004469FED7B0AB0EE66
:1014C00040FA94ED000AD4ED060A30EE600A84ED8D
:1014D000020A94ED030AD4ED040A20EE200AB0EECD
:1014E000408A94ED040A20EE080A10EE105A94ED9A
:1014F000020AD4ED040A94ED011A00EE810AF0EE1E
:10150000408A18EE900AFFF74AF841EC1E0BB0EE45
:101510004E0AF0EE6E0A05F00DFBB0EE40DAF0EE8A
:1015200060DA94ED030AF2EE000A20EE200A10EED3
:10153000101A0846FFF733F853EC1D2BCDE90001D4
:101540009DED000B51EC100BFEF798FF41EC1B0BCF
:1015500028EE080A10EE101A0846FFF720F841ECB2
:101560001C0B53EC1B2BFEF7E2FE41EC1A0BB0EE0A
:101570004A0AF0EE6A0A05F057FBB0EE409AF0EE28
:10158000609A51EC190BFFF74DF802902846FFF7CF
:1015900006F841EC190B18EE900AFFF700F841EC41
:1015A0001B0BB0EE4B0AF0EE6B0A05F0C3FAB0EE7F
:1015B00040AAF0EE60AA53EC192B51EC1A0BFFF77E
:1015C00019F818D2B0EE680A04F020FA00EE100AFA
:1015D000F8EEC00A9DED020A30EE480A60EE800A7D
:1015E000B0EE001A80EE810AD4ED010A30EE200A36
:1015F000B0EE40FA09E0D4ED040A88EEA00AD4ED7A
:10160000010A30EE200AB0EE40FA18EE100AFEF79A
:10161000C6FF41EC190B1FEE100AFEF7C0FF41ECAC
:101620001B0BB0EE4B0AF0EE6B0A05F083FAB0EE3E
:1016300040AAF0EE60AA53EC192B51EC1A0BFEF7FE
:10164000D9FF10D2B0EE4F0A04F0E0F900EE100A14
:10165000B8EEC00AD4ED030ABFEE001A60EE810AAC
:1016600060EE20FA09E094ED030AFFEE000A20EE96
:10167000200A20EE0F0AC0EE08FA94ED000AD4ED1D
:10168000050A94ED011A00EE810A84ED000A94ED3A
:10169000010AD4ED050A00EEAF0A84ED010A03B099
:1016A000BDEC108B30BD0000000000001CB500BF79
:1016B000C24890ED000AC24880ED000AC14890ED92
:1016C0000B0ABF4880ED010A03F0E2FEBE4890ED30
:1016D000000ABE4880ED000ABD4890ED0B0ABB48E9
:1016E00080ED010A03F0D4FEBA4890ED000ABA4832
:1016F00004F01FFBB94880ED110AB94890ED0A0AC1
:10170000B64880ED120AB64890ED0B0AB34880ED5A
:10171000010A03F08FFFB34890ED000AB24880ED54
:10172000060AFFF7C5FEB148006830B101284AD06B
:1017300002287CD003287BD1D2E0AD48006820B1DC
:101740009FEDAC0AAC4880ED070AAC4890ED000A6A
:10175000A94880ED020AAA4890ED000AA64880ED4B
:10176000030AA84890ED000AA34880ED000AA648A5
:1017700090ED030AA04880ED010A03F089FE0020E5
:10178000009001909C4890ED080ADFEDA00A30EE31
:10179000600ABDEEC00A10EE100A03B2964890ED42
:1017A000080ADFED9A0A30EE600ABDEEC00A10EEBC
:1017B000100A02B24FF400719548FFF741FE002075
:1017C0008B490860C8E08A480068012808D09FED6E
:1017D000890A904880ED180A9FED860A80ED070A75
:1017E000804890ED000A8B4880ED110A864890ED04
:1017F000050A884880ED120A834890ED030A85485F
:1018000080ED010A03F016FF00200090019081484E
:1018100090ED220ADFED800A30EE600ABDEEC00ACC
:1018200010EE100A03B27B4890ED220A01E012E0AC
:1018300091E0DFED790A30EE600ABDEEC00A10EEED
:10184000100A02B24FF400717148FFF7F9FD012050
:101850006749086080E066480068022808D09FED6C
:10186000650A6C4880ED180A9FED620A80ED070A50
:101870005D4890ED000A674880ED110A624890EDDE
:10188000050A644880ED120A5F4890ED030A61483A
:1018900080ED010A03F0CEFE0020009001905D482B
:1018A00090ED220ADFED5C0A30EE600ABDEEC00A60
:1018B00010EE100A03B2574890ED220ADFED560AE7
:1018C00030EE600ABDEEC00A10EE100A02B24FF40C
:1018D00000714F48FFF7B4FD0220454908603BE026
:1018E00043480068032804D09FED420A424880ED37
:1018F000070A444890ED000A3F4880ED000A9FED3A
:10190000470A80ED020A9FED460A80ED030A3E4831
:1019100090ED030A384880ED010A03F0B9FD00207C
:1019200000900190344890ED080ABDEEC00A10EE18
:10193000100A03B2304890ED080ABDEEC00A10EE5E
:10194000100A02B24FF400713148FFF779FD03200D
:101950002749086000E000BF00BF0021184890ED53
:10196000080ABDEEC00A10EE100A00B2CDE900016F
:10197000164890ED080ABDEEC00A10EE100A03B238
:10198000164890ED220ABDEEC00A10EE100A02B20F
:101990004FF400712348FFF753FD23480278234892
:1019A00001782348007804F00BF82248008A401C94
:1019B00020490882012005F033FE79E6CC000020A2
:1019C0002804002000010020D00000206C0400202A
:1019D00040010020C8000020400200209C0300209D
:1019E00080010020C000002024020020F800002018
:1019F0000000002000000000B004002004000020CF
:101A000008000020C4000020C0010020000048445D
:101A10005409002084020020000096430000204367
:101A20009A99193F7C090020D6000020D50000209B
:101A3000D40000205A4A00202DE9F0412DED068BFC
:101A400005460E4614469FED3A0AB0EE408A00273E
:101A5000B84642F21C50854204DD9FED360AB0EED6
:101A6000408A0EE041F25040854204DA9FED320A8E
:101A7000B0EE408A05E000EE105AB8EE400AB0EE33
:101A8000408A84ED008A00EE106AB8EE400A84EDC8
:101A9000010A204603F0E0FD94ED080A10EE101A4A
:101AA0000846FEF77CFD41EC1A0BB0EE4A0AF0EE58
:101AB0006A0A05F049F8B0EE409AF0EE609A51ECEF
:101AC000190BFEF74DFD00F5FA6794ED080A10EECC
:101AD000101A0846FEF763FD41EC1A0BB0EE4A0AF5
:101AE000F0EE6A0A05F030F8B0EE409AF0EE609A37
:101AF00051EC190BFEF734FDC0F5FA680F48006889
:101B000030B90F480068C0F838800E480068C763D5
:101B10000A480068012807D14FF4FA6008490968AB
:101B2000886308490968C863BDEC068BBDE8F0818D
:101B300000000000007014460080A245FC00002058
:101B4000340A0020EC09002010B5024801F078F8B2
:101B500010BD0000CC0B002010B5024801F070F859
:101B600010BD00002C0C002010B5024801F068F8F0
:101B700010BD00000C0B002010B5024801F060F809
:101B800010BD00006C0B00200146087810381823A7
:101B9000B0FBF3F20848805CC865032A05D90868E1
:101BA0006FF30900001D886503E008686FF3090002
:101BB0008865886D70470000447D0008014600205C
:101BC0008A6A8B69CBB932B1012A0DD0022A03D0BF
:101BD000032A10D10EE000BFCB6A03F08073B3F18B
:101BE000807F00D1012007E0CB6AB3F1C07F00D134
:101BF000012001E000E000BF34E08B69B3F5005F35
:101C00001AD132B1012A07D0022A03D0032A11D1F6
:101C10000AE000BF01200EE0CB6A03F08073B3F14D
:101C2000807F00D1012006E0CB6AB3F1C07F00D1F4
:101C3000012000E000BF15E032B1012A05D0022AE0
:101C400004D0032A0CD103E000BF00BF012008E04C
:101C5000CB6A03F08073B3F1807F00D1012000E0F4
:101C600000BF00BF704730B50468246824F48024A6
:101C700005682C60046863608468402C04D10468A3
:101C8000A2600468E16003E00468A1600468E260A7
:101C900030BD000010B52DED048B3F48007820B119
:101CA000012845D0022873D16CE000203B49086030
:101CB00002203B49086001203A4908709FED3A0A2A
:101CC0003A4880ED000A41F6C81039490880394881
:101CD00090ED000ADFED340A30EE600A10EE101AC3
:101CE0000846FEF75CFC41EC190BB0EE490AF0EE39
:101CF000690A04F01FFFB0EE408AF0EE608A9FEDA3
:101D00002E0B53EC102B51EC180BFEF75BFC0ED294
:101D10002B480068A0F5C854C83C002C01DB2046C5
:101D200000E060420A2802DA01201B4908702FE017
:101D30009FED240A244880ED000A244890ED000A13
:101D4000DFED200A30EE600A10EE101A0846FEF7AA
:101D500026FC41EC190BB0EE490AF0EE690A04F0DA
:101D6000E9FEB0EE408AF0EE608A9FED130B53EC73
:101D7000102B51EC180BFEF725FC02D2022006496D
:101D8000087005E000201249087004F0D9FF00BF78
:101D900000BFBDEC048B10BD23060020FC0000201A
:101DA000F8000020D400002000808EC4C000002075
:101DB000BC000020DC0000200000000000001440F7
:101DC000D80000200080E843C8000020E400002084
:101DD000B3060020704772B600BFFEE7024648789F
:101DE0000B7840EA032000EE100AB8EEC00A82ED3C
:101DF000080A92ED080ABDEEC00A10EE100A00B201
:101E00007047000030B503460A4A8C7804F080041D
:101E10003CB114048D7844EA0524CD7844EA0500E9
:101E200003E0CC788D7844EA052000EE100AB8EE85
:101E3000C00A30BDFFFF0F0010B5024692F82030F7
:101E4000012B01D0022B06D11068406908431468A9
:101E50006061002010BD506A40F480205062012073
:101E6000F8E7F0B504460D461E4694F82070206849
:101E70008368A86800B900E000BF012F01D0022FDD
:101E80007DD103F0806030B903F0006018B903F031
:101E9000805000287ED0C3F301610120884030606B
:101EA000A86860B9B5F800C0E86840EA4C5C2068F2
:101EB00000F5C07000EB0110C0F800C00FE0D5E9DC
:101EC00001C040EACC00D5F80CC040EA0C00D4F8C0
:101ED00000C00CF5C07C0CEB011CCCF80000D5F860
:101EE00010C0206800F5C07000EB0110C0F804C0FD
:101EF000287D01280ED1206800F5C07000EB01108C
:101F0000406840F4807C206800F5C07000EB011050
:101F1000C0F804C0D079000692F806C040EA0C4030
:101F200092F805C040EA0C2092F804C040EA0C0088
:101F3000D4F800C00CF5C07C0CEB011CCCF80C00F4
:101F4000D078000692F802C040EA0C4092F801C036
:101F500040EA0C2092F800C040EA0C00D4F800C01F
:101F60000CF5C07C0CEB011CCCF80800206800F5D7
:101F7000C07000EB0110006840F0010C01E00FE0C0
:101F800008E0206800F5C07000EB0110C0F800C048
:101F90000020F0BD606A40F4001060620120F8E7A4
:101FA000606A40F4802060620120F2E7F0B50446E8
:101FB0000A4694F82050012D01D0022D7ED14249CD
:101FC00001F50071086840F001000860086820F41D
:101FD0007C5008600868566A40EA06200860107D58
:101FE00000F01F06012000FA06F3C8699843C86193
:101FF000A1F50071D069C8B9D1F80C029843C1F8B5
:102000000C02908880B2968940EA064601F510706D
:10201000576940F83760108880B2168940EA064652
:1020200001F51070576900EBC7004660D0690128C0
:1020300019D1D1F80C021843C1F80C02908880B273
:10204000168840EA064601F51070576940F8376077
:10205000908980B2168940EA064601F510705769EA
:1020600000EBC7004660906928B9D1F80402984394
:10207000C1F8040204E0D1F804021843C1F80402D4
:10208000106928B9D1F814029843C1F8140204E089
:10209000D1F814021843C1F81402106A012804D1BF
:1020A000D1F81C021843C1F81C02D1F8000220F03C
:1020B0000100C1F800020020F0BDFFE7606A40F4B3
:1020C000802060620120F7E700640040704770B52F
:1020D000044694F82050012D01D0022D7DD151B934
:1020E0002068C06800F0030080B9606A40F4001006
:1020F0006062012070BD2068006900F0030028B90B
:10210000606A40F4001060620120F3E7206800F587
:10211000D87000EB0110006800F004009060906837
:1021200040B9206800F5D87000EB01100068400D40
:10213000106007E0206800F5D87000EB011000681F
:10214000C0085060206800F5D87000EB01100068EE
:1021500000F00200D060206800F5D87000EB01109C
:10216000406800F00F00082802D30820106108E042
:10217000206800F5D87000EB0110406800F00F00F7
:102180001061206800F5D87000EB0110406800F481
:102190007F40000A9061206800F5D87000EB0110C4
:1021A0004068000C5061206800F5D87000EB011009
:1021B00080681870206800F5D87000EB0110806806
:1021C00000F47F40000A5870206800F5D87000EBDA
:1021D0000110806800F47F0000E03CE0000C987083
:1021E000206800F5D87000EB01108068000ED870F0
:1021F000206800F5D87000EB0110C06818712068E5
:1022000000F5D87000EB0110C06800F47F40000AB0
:102210005871206800F5D87000EB0110C06800F418
:102220007F00000C9871206800F5D87000EB011059
:10223000C068000ED87131B92068C06840F0200035
:102240002668F06005E02068006940F020002668FC
:10225000306100204EE7606A40F480206062012017
:1022600048E72DE9F05F04460025206846692068AC
:10227000D0F80490206887682068D0F80CA0206807
:10228000D0F810B02068D0F8188006F001000028BF
:1022900055D007F00100C0B101202168886007F027
:1022A000020018B1204600F05AFC0EE007F00400CE
:1022B00010B145F4006508E007F0080010B145F4DE
:1022C000805502E0204600F049FC07F48070C8B158
:1022D0004FF480702168886007F4007018B12046C0
:1022E00000F03FFC0EE007F4806010B145F40055AB
:1022F00008E007F4006010B145F4804502E0204694
:1023000000F02EFC07F48030C8B14FF48030216813
:10231000886007F4003018B1204600F024FC0EE07D
:1023200007F4802010B145F4004508E007F40020D0
:1023300010B145F4803502E0204600F013FC06F0B1
:10234000080038B10AF0100020B145F400751020E3
:102350002168C86006F0040040B10AF0080028B106
:1023600008202168C860204600F00CFA06F0020040
:1023700038B12068C06800F0030010B1204600F0BA
:1023800003FA06F0400038B10BF0100020B145F41C
:10239000806510202168086106F0200040B10BF034
:1023A000080028B1082021680861204600F0A4FB3D
:1023B00006F0100038B12068006900F0030010B189
:1023C000204600F09AFB06F4003040B109F01000FE
:1023D00028B1102021684860204600F08FFB06F4E9
:1023E000803040B109F0080028B108202168486019
:1023F000204600F0B9FB06F4004088B309F0040061
:1024000078B306F4807020B108F0010008B145F0FF
:10241000010506F4007020B108F0020008B145F093
:10242000020506F4806020B108F0040008B145F010
:10243000040506F40060A0B108F0700088B108F04F
:102440007000402817D006DC10280BD020280CD0B4
:10245000302819D10CE0502810D0602814D110E099
:102460001DE019E045F008050FE045F010050CE00F
:1024700045F0200509E045F0400506E045F08005FF
:1024800003E045F4807500E000BF00BF206880696C
:1024900020F07000216888610420216848602DB117
:1024A000606A284360622046FFF710FEBDE8F09F97
:1024B00070B504460CB9012070BD94F8200010B925
:1024C000204600F0AFF82068006840F00100216865
:1024D000086000F095FE05460DE000F091FE401BFF
:1024E0000A2808D9606A40F400306062052084F848
:1024F00020000120E0E72068406800F0010000288B
:10250000EBD02068006820F002002168086000F02D
:1025100077FE05460DE000F073FE401B0A2808D93F
:10252000606A40F400306062052084F820000120D9
:10253000C2E72068406800F002000028EBD1207E4E
:10254000012806D12068006840F0800021680860FA
:1025500005E02068006820F0800021680860607E47
:10256000012806D12068006840F04000216808601A
:1025700005E02068006820F0400021680860A07E27
:10258000012806D12068006840F02000216808601A
:1025900005E02068006820F0200021680860E07EE7
:1025A000012806D12068006820F01000216808602A
:1025B00005E02068006840F0100021680860207F76
:1025C000012806D12068006840F0080021680860F2
:1025D00005E02068006820F0080021680860607F3E
:1025E000012806D12068006840F0040021680860D6
:1025F00005E02068006820F0040021680860D4E944
:102600000201084321690843616908436168491E62
:1026100008432168C86100206062012084F820001E
:10262000002049E710B586B00446142101A8FDF743
:1026300073FE4F492068884242D14E480068401CD2
:102640004C4908600846006801280FD100BF0020EF
:1026500000904948006840F000704749086008460B
:10266000006800F00070009000BF00BF00BF0020B5
:10267000009041481038006840F002003E4910398F
:1026800008600846006800F00200009000BF00BF2C
:102690004FF440700190022002900120039003202B
:1026A00004900920059001A9344800F0A9FC0022FB
:1026B0000521142000F062FE142000F04BFE54E0CF
:1026C0002F492068884250D100BF002000902A483E
:1026D000006840F08060284908600846006800F003
:1026E0008060009000BF00BF22480068401C214964
:1026F00008600846006801280FD100BF0020009044
:102700001D48006840F000701B49086008460068DA
:1027100000F00070009000BF00BF00BF00200090DC
:1027200015481038006840F002001349103908605D
:102730000846006800F00200009000BF00BF602063
:1027400001900220029001200390032004900920B0
:10275000059001A9094800F053FC00220521402002
:1027600000F00CFE402000F0F5FD06B010BD0000AA
:10277000006400402800002040380240000402406D
:10278000006800407047000010B588B00446C34997
:102790002068884272D1C24B01AA00212046FFF76F
:1027A00096FC0198A0F20120B0B3012868D00F2850
:1027B00004D0A0F20F1000287ED106E0B948B84935
:1027C0000A680260496841609AE0B54840784FF471
:1027D0007F4101EA0020B24909780843B249086004
:1027E000B2480088401CB1490880AD48807800F0AC
:1027F000080010B90020AE490863A948807800F0AD
:102800000800082802D10120A9490863A748C08A06
:10281000401CA649C88273E0FFE7A648006801286B
:1028200007D1A4489E49096881610020A149086038
:102830000BE0A0489A490968016190ED040AD0EDC7
:10284000060A30EE600A80ED050A9A489449496804
:10285000816090ED020A984880ED020A02F0A0FB28
:10286000954890ED010A934880ED030AFEF712FEA9
:102870008E488088401C8D49888041E042E0FFE717
:102880008E480068012807D18C4885490968816114
:1028900000208A4908600BE0884881490968016185
:1028A00090ED040AD0ED060A30EE600A80ED050ACC
:1028B00082487B49496800E021E0816090ED020A8E
:1028C0007F4880ED020A02F06BFB7D4890ED010A23
:1028D0007A4880ED030AFEF7DDFD784890ED030AA3
:1028E000784880ED000A754890ED050A764880ED3D
:1028F000000A6E484088401C6C49488000E000BFD8
:1029000000BF00BF7149206888427CD1704B01AA8A
:1029100000212046FFF7DBFB0198A0F2012020B147
:10292000012842D002286FD17AE069496948FFF74F
:1029300055FA00EE100AB8EEC00A664880ED080AA3
:10294000634901A8FFF75EFA624880ED090A90ED3D
:10295000080ABCEEC00A10EE101AFEF716F85D4821
:1029600090ED030AB8EEC00ADFED5B0A80EE201A94
:102970009FED5A0A21EE000ADFED590A80EE201A77
:1029800080ED0A1A90ED090AF3EE030A80EE201A90
:1029900080ED0B1A90ED0A0A524880ED000A434878
:1029A000C088401C4149C88073E049494E48FFF740
:1029B00015FA00EE100AB8EEC00A4B4880ED080A7E
:1029C000434901A8FFF71EFA474880ED090A90ED38
:1029D000080ABCEEC00A10EE101AFDF7D6FF4248F6
:1029E00090ED030AB8EEC00ADFED3B0A80EE201A34
:1029F0009FED3A0A21EE000A80ED0A0A90ED090ADD
:102A000080ED0B0A01E046E042E090ED0B0A37480A
:102A100080ED000A25484089401C2449488138E05F
:102A20002B493348FFF7DAF900EE100AB8EEC00A76
:102A30002F4880ED080A264901A8FFF7E3F92C4842
:102A400080ED090A90ED080ABCEEC00A10EE101ADB
:102A5000FDF79BFF264890ED030AF8EEC00A9FEDB4
:102A60001E1A80EE810ADFED1D0A20EE200A80ED9D
:102A70000A0A90ED090A80ED0B0A90ED0B0A1D4839
:102A800080ED000A09480089401C0849088100E0DF
:102A900000BF00BF00BF08B010BD000000640040D0
:102AA000A90000204D4A0020D80000205A4A0020EA
:102AB000A44A0020E401002070020020C001002090
:102AC0005C020020E0000020DC00002000680040E4
:102AD000B100002080010020000000460000B44347
:102AE00000001042E400002040010020EC00002023
:102AF00000010020E800002070477047704770B563
:102B0000044694F82000012822D1022084F82000F5
:102B10002068006820F001002168086000F070FB68
:102B200005460DE000F06CFB401B0A2808D9606ADE
:102B300040F400306062052084F82000012070BD60
:102B40002068406800F001000028EBD16062F6E7E1
:102B5000606A40F4002060620120F0E7704770472F
:102B60007047704770477047704770B50446A56D51
:102B700000F046FB064694F83500022808D0802075
:102B8000606500BF002084F8340000BF012070BDE4
:102B90002068006820F016002168086020684069FD
:102BA00020F0800021684861206C08B9A06C28B131
:102BB0002068006820F0080021680860206800682C
:102BC00020F001002168086010E000F019FB801B74
:102BD00005280BD920206065032084F8350000BF4C
:102BE000002084F8340000BF0320D0E7206800688C
:102BF00000F001000028E8D194F85C103F208840E4
:102C0000A860012084F8350000BF002084F834005B
:102C100000BF00BFBBE7014691F83500022803D092
:102C20008020486501207047052081F8350008683C
:102C3000006820F001000A6810600020F3E700003F
:102C4000F8B50446002000908C4800684FF41651F7
:102C5000B0FBF1F7A56D2E6894F85C100820884051
:102C6000304098B12068006800F0040070B120681E
:102C7000006820F004002168086094F85C100820C7
:102C80008840A860606D40F00100606594F85C10B9
:102C900001208840304068B12068406900F0800021
:102CA00040B194F85C1001208840A860606D40F04D
:102CB0000200606594F85C1004208840304068B1E0
:102CC0002068006800F0020040B194F85C10042015
:102CD0008840A860606D40F00400606594F85C1066
:102CE00010208840304078B32068006800F0080069
:102CF00050B394F85C1010208840A86020680068E9
:102D000000F4802080B12068006800F4002028B919
:102D1000206CC8B12046216C884715E0A06C98B1A2
:102D20002046A16C88470FE02068006800F480709E
:102D300028B92068006820F0080021680860206C2D
:102D400010B12046216C884794F85C102020884000
:102D50003040002865D02068006800F0100000288E
:102D60005FD094F85C1020208840A86094F835006B
:102D7000052828D12068006820F016002168086026
:102D80002068406920F0800021684861206C08B903
:102D9000A06C28B12068006820F008002168086055
:102DA00094F85C103F208840A860012084F835002A
:102DB00000BF002084F8340000BF206D10B1204611
:102DC000216D8847F8BD2068006800F4802080B13C
:102DD0002068006800F4002028B9606C10B120461B
:102DE000616C88471DE0E06BD8B12046E16B8847F5
:102DF00017E02068006800F4807068B920680068F7
:102E000020F0100021680860012084F8350000BF20
:102E1000002084F8340000BFE06B10B12046E16B65
:102E20008847606D38B3606D00F00100F0B1052097
:102E300084F835002068006820F0010021680860EF
:102E400000BF0098401C0090B84200D905E02068FF
:102E5000006800F001000028F3D100BF012084F8D1
:102E6000350000BF002084F8340000BFE06C10B1D2
:102E70002046E16C884700BFA4E700003C0000202A
:102E80002DE9F0410446002500F0BAF9074614B9CF
:102E90000120BDE8F081606A00B100BF022084F823
:102EA000350000BF002084F8340000BF20680068AF
:102EB00020F00100216808600AE000F0A1F9C01BC1
:102EC000052805D920206065032084F83500E0E757
:102ED0002068006800F001000028EED12068056835
:102EE00021480540D4E901010843E168084321690C
:102EF000084361690843A1690843E1690843216AFD
:102F000008430543606A042803D1D4E90B01084350
:102F10000543206805602068456925F00705606A5B
:102F20000543606A04280DD1A06A0543E06A48B1F0
:102F30002046FEF743FE28B140206065012084F85A
:102F40003500A6E7206845612046FEF71DFE0646CF
:102F500094F85C103F208840B0600020606501203C
:102F600084F83500002094E73F8010F02DE9F04709
:102F700004460D4616461F464FF00008D4F85890F8
:102F800000BF94F83400012802D10220BDE8F08788
:102F9000012084F8340000BF94F83500012825D1C1
:102FA000022084F83500002060653B463246294601
:102FB0002046FEF758FE94F85C103F208840C9F880
:102FC00008002068006840F0160021680860206C46
:102FD00028B12068006840F0080021680860206877
:102FE000006840F001002168086006E000BF002092
:102FF00084F8340000BF4FF002084046C6E70000E6
:10300000F8B502460B460025002400200021D6E03A
:10301000012606FA01F51E6806EA0504AC4274D1E1
:103020001E7906F00306012E04D01E7906F0030671
:10303000022E13D190684F000326BE40B0434F00CC
:10304000DE68BE4030439060506801268E40B04339
:103050001E79C6F300168E40304350601E7906F08C
:103060000306032E09D0D0684F000326BE40B043AC
:103070004F009E68BE403043D0601E7906F00306C4
:10308000022E13D1CF0802F1200656F827004E0772
:10309000F70E0F26BE40B0434F07FF0E1E69BE401D
:1030A0003043CF0802F1200646F8270010684F0091
:1030B0000326BE40B0431E7906F003064F00BE4013
:1030C000304310605E6806F44036002E76D000BFB4
:1030D000002600963C4E366846F480463A4F3E60E5
:1030E0003E46366806F48046009600BF00BF374E65
:1030F0008F0856F827008E07370F0F26BE40B043C3
:10310000334EB24202D1002624E057E0314EB242A3
:1031100001D101261EE0304EB24201D1022619E053
:103120002E4EB24201D1032614E02D4EB24201D1FF
:1031300004260FE02B4EB24201D105260AE02A4EAA
:10314000B24201D1062605E0284EB24201D107263F
:1031500000E008268F073F0FBE4030431B4E8F080C
:1031600046F82700224E3068A0435E6806F48016B9
:1031700006B120431E4E3060361D3068A0435E68A5
:1031800006F4001606B12043194E361D3060184E65
:10319000361F3068A0435E6806F4003606B120434F
:1031A000134E361F3060361F3068A0435E6806F449
:1031B000803606B120430E4E083E3060491C10296F
:1031C000FFF426AFF8BD0000443802400838014043
:1031D000000002400004024000080240000C0240CF
:1031E000001002400014024000180240001C02407F
:1031F000083C01400AB1816101E00B048361704722
:103200000148006870470000300000200348006853
:1032100003490978084401490860704730000020DC
:103220003800002010B50D48006840F400700B49CC
:1032300008600846006840F480600860084600683E
:1032400040F480700860032000F0D6F80F2000F0F2
:1032500007F800F055F8002010BD0000003C0240C7
:10326000F0B587B004460026002700BF002000907C
:103270001E48006840F001001C49086008460068CC
:1032800000F00100009000BF00BF01A902A800F0FB
:1032900089F900F0BFF946001548B6FBF0F0471E6B
:1032A00014481549086040F2E7311348C16047608F
:1032B000002101618160816100F0BEFC054695B985
:1032C0000D4800F00FFD05466DB9192000F042F8D9
:1032D000102C07D200222146192000F04FF8074891
:1032E000046000E00125284607B0F0BD44380240E4
:1032F00040420F00000001408C0C002034000020F0
:1033000008B500BF002000901148006840F48040DC
:103310000F4908600846006800F48040009000BF34
:1033200000BF00BF00200090081F006840F08050E0
:10333000091F08600846006800F08050009000BF38
:1033400000BF00220F21901E00F018F808BD0000F9
:10335000443802400146084600280DDB00BF00BF8C
:1033600000F01F0301229A4043099B0003F1E02370
:10337000C3F8002100BF00BF00BF70472DE9F05F18
:1033800080460D461646002703F0B8FB074639462F
:103390002A46334601F00700C0F1070ABAF1040FCC
:1033A00002D94FF0040A01E0C0F1070AD14600F14A
:1033B000040ABAF1070F02D24FF0000A01E0A0F1AF
:1033C000030AD4464FF0010A0AFA09FAAAF1010ADF
:1033D0000AEA020A0AFA0CFA4FF0010B0BFA0CFB8C
:1033E000ABF1010B0BEA030B4AEA0B042146404602
:1033F00003F08CFBBDE8F09F00BF00F00702064B16
:1034000019684FF6FF031940044B0B4343EA0221AE
:10341000014B196000BF70470CED00E00000FA0599
:1034200070B504460D460CB9012070BD58480068BF
:1034300000F00700A84209D255490D7008460068FF
:1034400000F00700A84201D00120EEE7207800F04C
:10345000020002281DD1207800F00400042805D1C4
:103460004C48006840F4E0504A490860207800F079
:103470000800082805D14748006840F460404549E5
:1034800008604448006820F0F000A1680843414902
:103490000860207800F00100A8B36068012807D117
:1034A0003C4808380068C0F34040B8B90120BCE788
:1034B0006068022802D06068032807D135480838C0
:1034C0000068C0F3406048B90120AEE731480838D1
:1034D0000068C0F3400008B90120A6E72D48006845
:1034E00020F00300616808432A490860FFF788FE5E
:1034F000064609E0FFF784FE801B41F288318842CE
:1035000002D9032091E707E02248006800F00C0090
:103510006168B0EB810FEDD11D48006800F0070035
:10352000A84209D91A490D700846006800F0070042
:10353000A84201D0012078E7207800F00400042898
:1035400007D11448006820F4E050E16808431149AD
:103550000860207800F00800082808D10D480068AD
:1035600020F46040216940EAC1000A49086000F087
:1035700061F808490968C1F30311074A515CC84062
:103580000649086006480068FFF76AFE00204CE71D
:10359000003C0240083802404C7D00083C000020FE
:1035A000340000200F2202600D4A126802F003026C
:1035B00042600B4A126802F0F0028260084A126808
:1035C00002F4E052C260064A126802F46042D20875
:1035D0000261044A126802F007020A6070470000A4
:1035E00008380240003C0240014800687047000073
:1035F0003C00002000B5FFF7F7FF04490968C1F35C
:103600008221034A515CC84000BD000008380240D6
:103610005C7D000800B5FFF7E7FF04490968C1F3C6
:103620004231034A515CC84000BD000008380240E6
:103630005C7D00082DE9F047002400250026A14606
:103640002548006800F00C0020B1042805D00828A7
:103650003AD105E0DFF8849039E0DFF8849036E075
:103660001D48001F006800F03F041B48001F006851
:1036700000F4800078B11A481749091F0968C1F39E
:103680008811A0FB01700146224600233846FCF752
:10369000F9FD05460EE011480F49091F0968C1F3FD
:1036A0008811A0FB01700146224600233846FCF732
:1036B000E9FD05460848001F0068C0F30140401CB2
:1036C0004600B5FBF6F902E0DFF8109000BF00BF3E
:1036D0004846BDE8F0870000083802400024F400A6
:1036E00000127A00F8B504460CB90120F8BD207824
:1036F00000F00100002874D0F948006800F00C00C8
:1037000004280DD0F648006800F00C00082813D1FA
:10371000F348001F006800F48000B0F5800F0BD163
:10372000EF4808380068C0F34040002859D060686E
:10373000002856D10120D9E700BF6068B0F5803F6E
:1037400008D1E7480838006840F48030E449083977
:1037500008601EE06068B0F5A02F0DD1E048083881
:10376000006840F48020DE49083908600846006897
:1037700040F4803008600CE0D9480838006820F434
:103780008030D749083908600846006820F4802056
:10379000086000BF606890B1FFF732FD054606E0A3
:1037A000FFF72EFD401B642801D903209EE7CC487B
:1037B00008380068C0F340400028F1D011E0FFF75E
:1037C0001FFD054606E0FFF71BFD401B642801D9DD
:1037D00003208BE7C24808380068C0F34040002847
:1037E000F1D1207800F0020002285FD1BC480068C7
:1037F00000F00C0058B1BA48006800F00C0008282E
:103800001CD1B748001F006800F48000B0B9B4486C
:1038100008380068C0F3400020B1E068012801D0FA
:10382000012063E7AE480838006820F0F8002169FD
:1038300040EAC100AA490839086037E0E06800B3EF
:103840000120A8490860FFF7DBFC054606E0FFF70A
:10385000D7FC401B022801D9032047E7A0480838BD
:103860000068C0F340000028F1D09D480838006887
:1038700020F0F800216940EAC10099490839086040
:1038800014E0002097490860FFF7BAFC054606E0FF
:10389000FFF7B6FC401B022801D9032026E7904819
:1038A00008380068C0F340000028F1D1207800F00B
:1038B000080008282CD16069A8B101208A49086055
:1038C000FFF79EFC054606E0FFF79AFC401B022826
:1038D00001D903200AE782486C300068C0F3400039
:1038E0000028F1D014E000207F490860FFF788FC31
:1038F000054606E0FFF784FC401B022801D903209F
:10390000F4E677486C300068C0F340000028F1D13D
:10391000207800F00400042870D100277048383067
:10392000006800F0805090B900BF002000906C4803
:103930003830006840F080506949383108600846E6
:10394000006800F08050009000BF00BF012767486A
:10395000006800F48070B0B96448006840F480707A
:1039600062490860FFF74CFC054606E0FFF748FC9B
:10397000401B022801D90320B8E65C48006800F427
:1039800080700028F2D000BFA068012808D15448F8
:103990006830006840F001005149683108601DE05E
:1039A000A06805280DD14E486830006840F004003A
:1039B0004B49683108600846006840F00100086023
:1039C0000CE047486830006820F001004449683145
:1039D00008600846006820F00400086000BFA06886
:1039E000A8B1FFF70DFC054609E0FFF709FC401BF5
:1039F00041F28831884202D9032077E626E0384830
:103A000068300068C0F340000028EED013E0FFF7F4
:103A1000F7FB054608E0FFF7F3FB401B41F2883156
:103A2000884201D9032061E62D4868300068C0F360
:103A300040000028EFD1012F07D129483830006815
:103A400020F0805026493831086000BFA069002866
:103A500045D02348006800F00C0008285DD0A0691C
:103A6000022845D100201F490866FFF7C9FB05461B
:103A700006E0FFF7C5FB401B022801D9032035E60D
:103A8000174808380068C0F340600028F1D1D4E935
:103A900007010843616A40EA81110122A06AC2EB72
:103AA000500041EA00412C20005D41EA00600C49D1
:103AB000091F086001200B490866FFF7A1FB0546B6
:103AC00006E0FFF79DFB401B022801D903200DE60D
:103AD000034808380068C0F340600028F1D049E08E
:103AE0000838024000004742800E47420070004004
:103AF000002021490866FFF783FB054606E0FFF733
:103B00007FFB401B022801D90320EFE51B4800681A
:103B1000C0F340600028F2D12CE0A069012800D158
:103B2000E4E51648001D0668A069012820D006F4C7
:103B30008001E06981421BD106F03F01206A814289
:103B400016D147F6C0703040616AB0EB811F0FD1CB
:103B500006F440310122A06AC2EB5000B1EB004FE5
:103B600006D106F070612C20005DB1EB006F01D032
:103B70000120BBE50020B9E50000474200380240C3
:103B80007047704730B502460B4600BF92F83C00C4
:103B9000012801D1022030BD012082F83C0000BF85
:103BA000022082F83D00106844681068816824F0A3
:103BB00070041868044310684460184D1068A842E7
:103BC0001BD01068B0F1804F17D0154D1068A84277
:103BD00013D0144D1068A8420FD0134D1068A8429E
:103BE0000BD0124D1068A84207D0114D1068A842A2
:103BF00003D0104D1068A84205D121F0800158680B
:103C0000014310688160012082F83D0000BF002060
:103C100082F83C0000BF00BFBDE70000000001408B
:103C20000004004000080040000C00400004014077
:103C3000004001400018004010B504460CB90120B6
:103C400010BD94F83D0028B9002084F83C002046BF
:103C500000F026F8022084F83D00211D206802F0C3
:103C6000AFF8012084F8460000BF84F83E0001212F
:103C70003F200155402001554120015500BF00BFA4
:103C8000012084F84200432001554420015545207D
:103C9000015500BF012084F83D000020D0E700005E
:103CA00038B504462068B0F1804F17D100BF00201E
:103CB00000900B48006840F0010009490860084680
:103CC000006800F00100009000BF00BF0022052145
:103CD0001C20FFF753FB1C20FFF73CFB38BD000006
:103CE00040380240014691F83D00012801D00120F2
:103CF0007047022081F83D000868C06840F001006C
:103D00000B68D8601A4B086898421BD00868B0F15D
:103D1000804F17D0174B0868984213D0164B08688D
:103D200098420FD0154B086898420BD0144B086886
:103D3000984207D0134B0868984203D0124B08688A
:103D400098420CD10868806800F00702062A0CD05F
:103D50000868006840F001000B68186005E008681A
:103D6000006840F001000B6818600020C0E7000008
:103D7000000001400004004000080040000C00402A
:103D80000004014000400140001800402DE9F041CE
:103D900004460D46002700BF94F83C00012802D1DC
:103DA0000220BDE8F081012084F83C0000BF022021
:103DB00084F83D002068866826F0770626F47F4662
:103DC000206886602868502833D00CDC202850D02A
:103DD00004DC00284BD0102851D149E0302849D0CC
:103DE00040284CD139E060282DD0702807D0B0F59C
:103DF000805F03D0B0F5005F41D10DE041E0D5E92F
:103E000002136A68206802F05CF82068866846F051
:103E100077062068866034E0D5E902136A68206876
:103E200002F04FF82068806840F480402168886084
:103E300027E0EA686968206802F034F950212068B8
:103E400002F04AF81DE0EA686968206802F03DF96E
:103E50006021206802F040F813E0EA686968206891
:103E600002F020F94021206802F036F809E000BF96
:103E700000BF00BF2968206802F02EF801E001278A
:103E800000BF00BF012084F83D0000BF002084F87F
:103E90003C0000BF384684E7704770B50446206890
:103EA000C5682068066906F00200022819D105F0ED
:103EB0000200022815D1401F2168086101202077E7
:103EC0002068806900F0030018B12046FFF7E4FF86
:103ED00005E0204600F0F2F8204600F0E7F9002067
:103EE000207706F00400042819D105F00400042806
:103EF00015D1C043216808610220207720688069BD
:103F000000F4407018B12046FFF7C6FF05E02046D8
:103F100000F0D4F8204600F0C9F90020207706F020
:103F20000800082819D105F00800082815D1C04359
:103F300021680861042020772068C06900F0030030
:103F400018B12046FFF7A8FF05E0204600F0B6F8BC
:103F5000204600F0ABF90020207706F01000102872
:103F600019D105F01000102815D1C043216808614F
:103F7000082020772068C06900F4407018B12046FE
:103F8000FFF78AFF05E0204600F098F8204600F091
:103F90008DF90020207706F0010048B105F00100FE
:103FA00030B16FF0010021680861204600F006FA88
:103FB00006F08000802809D105F08000802805D116
:103FC000C043216808612046FFF7DAFD06F0400093
:103FD000402809D105F04000402805D1C0432168A0
:103FE0000861204600F0F6F906F02000202809D1EB
:103FF00005F02000202805D1C04321680861204633
:10400000FFF7BFFD70BD000010B586B00446142157
:1040100001A8FCF781F92449206888421ED100BF1D
:10402000002000902148006840F002001F4908600D
:104030000846006800F00200009000BF00BF0120A9
:10404000019002200290012003900320049002209E
:10405000059001A91648FEF7D3FF22E01549206814
:1040600088421ED100BF002000901048006840F038
:1040700008000E4908600846006800F0080000903B
:1040800000BF00BF4FF400500190022002900120B9
:104090000390032004900220059001A90648FEF732
:1040A000AFFF06B010BD00000004004030380240F1
:1040B0000004024000080040000C024070472DE957
:1040C000F04104460D461646002700BF94F83C0018
:1040D000012802D10220BDE8F081012084F83C00D3
:1040E00000BF36B1042E1BD0082E31D00C2E5ED16D
:1040F00045E02946206801F0F9FE2068806940F01B
:104100000800216888612068806920F00400216827
:10411000886120688069296908432168886148E0CE
:104120002946206801F01AFF2068806940F4006089
:10413000216888612068806920F480602168886136
:1041400020688069296940EA01202168886130E09F
:104150002946206801F040FF2068C06940F008004F
:104160002168C8612068C06920F004002168C86126
:104170002068C069296908432168C86119E0294697
:10418000206801F065FF2068C06940F40060216884
:10419000C8612068C06920F480602168C861206817
:1041A000C069296940EA01202168C86101E001274E
:1041B00000BF00BF00BF002084F83C0000BF3846AD
:1041C00089E710B504460CB9012010BD94F83D00F4
:1041D00028B9002084F83C00204600F025F8022091
:1041E00084F83D00211D206801F0EAFD012084F8DB
:1041F000460000BF84F83E0001213F2001554020C9
:1042000001554120015500BF00BF012084F8420044
:1042100043200155442001554520015500BF012090
:1042200084F83D000020D0E738B504461C492068DA
:10423000884218D100BF002000901A48006840F062
:104240000200184908600846006800F0020000906B
:1042500000BF00BF002205211D20FFF78FF81D20A1
:10426000FFF778F81BE010492068884217D100BF9B
:10427000002000900B48006840F0040009490860E5
:104280000846006800F00400009000BF00BF002254
:1042900005211E20FFF772F81E20FFF75BF838BDDE
:1042A0000004004040380240000800407047000011
:1042B00070B504460D4615B994F83E000BE0042D88
:1042C00002D13F20005D06E0082D02D14020005DB4
:1042D00001E04120005D012801D0012070BD1DB921
:1042E000022084F83E000EE0042D03D102213F207D
:1042F000015508E0082D03D102214020015502E0BC
:1043000002214120015501222946206801F0C8FD03
:1043100023492068884203D022492068884201D17D
:10432000012000E0002028B12068406C40F40040EB
:10433000216848641A49206888421BD02068B0F17F
:10434000804F17D018492068884213D01749206839
:1043500088420FD01649206888420BD01149206846
:10436000884207D013492068884203D01249206848
:1043700088420CD12068806800F00706062E0CD019
:104380002068006840F001002168086005E02068AE
:10439000006840F001002168086000209EE70000EE
:1043A00000000140000401400004004000080040FB
:1043B000000C0040004001400018004010B50446C9
:1043C00003492068884201D1FEF720FF10BD00009C
:1043D000000001407047704770B504460025206812
:1043E0004069C0F3C01594F84100212817D1B5B138
:1043F00000BF00BF2168143151E8001F21F0800088
:104400002168143141E80002002AF3D100BFA06BFB
:1044100010B1A06BFEF7A9FB204602F04DF8206812
:104420004069C0F3801594F84200222817D1B5B135
:1044300000BF00BF2168143151E8001F21F0400087
:104440002168143141E80002002AF3D100BFE06B7B
:1044500010B1E06BFEF789FB204601F0E7FF00207A
:1044600070BD70472DE9F84F044620680568206844
:10447000C668206847694FF00009CA4605F00F0971
:10448000B9F1000F0AD105F0200038B106F0200084
:1044900020B1204602F023F8BDE8F88FB9F1000FF3
:1044A0007CD007F0010018B906F49070002875D090
:1044B00005F0010030B106F4807018B1606C40F076
:1044C0000100606405F0040030B107F0010018B18C
:1044D000606C40F00200606405F0020030B107F04B
:1044E000010018B1606C40F00400606405F0080041
:1044F00048B106F0200010B907F0010018B1606C57
:1045000040F008006064606C002846D005F0200090
:1045100028B106F0200010B1204601F0E0FF20682D
:104520004069C0F3801A606C00F0080010B9BAF15D
:10453000000F2DD0204601F079FF2068406900F07F
:104540004000402820D100BF00BF2168143151E84D
:10455000001F21F040002168143141E80002002AC8
:10456000F3D100BFE06B50B17F48E16B0865E06BB1
:10457000FEF751FB88B1E06B016D88470DE02046E6
:10458000FFF76FFF09E009E02046FFF76AFF04E04C
:104590002046FFF766FF002060647DE7206B01285E
:1045A00078D105F01000002874D006F01000002823
:1045B000FAD000BF002000902068006800902068BA
:1045C0004068009000BF00BF2068406900F04000D4
:1045D000402870D1E06B006840681FFA80F8B8F19D
:1045E000000F58D0A08D404555DDA4F82E80E06B1B
:1045F000C069B0F5807F43D000BF00BF21680C3197
:1046000051E8001F21F4807021680C3141E800025C
:10461000002AF3D100BF00BF00BF2168143151E868
:10462000001F21F001002168143141E80002002A36
:10463000F3D100BF00BF00BF2168143151E8001F53
:1046400021F040002168143141E80002002AF3D132
:1046500000BF202084F842000020206300BF00BF7C
:1046600021680C3151E8001F21F0100021680C3145
:1046700041E80002002AF3D100BFE06BFEF775FAB3
:1046800002206063A08DE28D801A81B22046FFF780
:10469000A2FE0EE052E0A08D40450AD1E06BC06959
:1046A000B0F5807F05D102206063A18D2046FFF721
:1046B00092FEF1E6FFE7A08DE18D401A1FFA80F827
:1046C000E08DD0B3B8F1000F37D000BF00BF216834
:1046D0000C3151E8001F21F4907021680C3141E841
:1046E0000002002AF3D100BF00BF00BF21681431CF
:1046F00051E8001F21F001002168143141E8000257
:10470000002AF3D100BF202084F84200002020635B
:1047100000BF00BF21680C3151E8001F21F01000DC
:1047200021680C3141E80002002AF3D100BF0220C9
:10473000606341462046FFF74EFEADE605F080007F
:1047400030B106F0800018B1204602F0C9F8A3E6A7
:1047500005F0400030B106F0400018B1204601F0ED
:104760009BFE99E600BF97E68D62000810B50446EF
:104770000CB9012010BDA06900B100E000BF94F8A1
:10478000410028B9002084F84000204600F02AF8B3
:10479000242084F841002068C06820F4005021687B
:1047A000C860204601F01AFF2068006920F490409C
:1047B000216808612068406920F02A00216848616A
:1047C0002068C06840F400502168C8600020606420
:1047D000202084F8410084F842000020606300BF7C
:1047E000C8E7000010B586B00446142101A8FBF705
:1047F00093FD8249206888427DD100BF002000904F
:104800007F48006840F010007D4908600846006855
:1048100000F01000009000BF00BF00BF002000901B
:1048200077481438006840F0010075491439086071
:104830000846006800F00100009000BF00BF481566
:104840000190022002900120039003200490072091
:10485000059001A96B48FEF7D3FB4FF480600190EF
:10486000022002900390032004900720059001A9E4
:104870006448FEF7C5FB6448644908604FF0006077
:104880004860002161488160C1604FF4806101612E
:10489000002141618161C16101624162FEF7F0FA6C
:1048A00008B1FDF798FA00BF5848E063846300BF81
:1048B00055487830564908604FF000604860402104
:1048C000534881600021C1604FF480610161002183
:1048D00041618161C16101624162FEF7D1FA08B1B3
:1048E000FDF779FA00BF4A48A063846300BF002245
:1048F0000521252000E005E0FEF740FD2520FEF71C
:1049000029FD79E043492068884275D100BF002025
:1049100000903B48001F006840F400303849091FF0
:1049200008600846006800F40030009000BF00BF37
:1049300000BF0020009032481438006840F00800A2
:104940002F49143908600846006800F008000090FC
:1049500000BF00BF60200190022002900120039060
:10496000032004900720059001A92B48FEF748FB7F
:104970002A482B4908604FF0006048600021284811
:104980008160C1604FF480610161002141618161FA
:10499000C16101624162FEF773FA08B1FDF71BFACB
:1049A00000BF1F48E063846300BF1C4818301D49E6
:1049B00008604FF00060486040211A488160002183
:1049C000C1604FF480610161002141618161C16179
:1049D00001624162FEF754FA08B1FDF7FCF900BF2D
:1049E0001048A063846300BF002205212620FEF743
:1049F000C5FC2620FEF7AEFC06B010BD001001403D
:104A00004438024000000240406402400C0B002089
:104A10006C0B002000440040000C02408860024003
:104A2000CC0B00202C0C002070B504460D46164619
:104A300094F8420020280BD105B10EB9012070BDB9
:104A40000020206332462946204601F0DDFEF6E7CD
:104A50000220F4E770477047F7B50446154694F80E
:104A6000410020283ED1019800B10DB90120FEBDC2
:104A700001982062A584E58400206064212084F8E8
:104A800041001948A16BC8631848A16B0864184815
:104A9000A16BC8640020A16B086501AE23681A1DD4
:104AA00031682B46A06BFEF761FA30B110206064CC
:104AB000202084F841000120D9E76FF040002168F0
:104AC000086000BF00BF2168143151E8001F41F0A9
:104AD00080002168143141E80002002AF3D100BFB0
:104AE0000020C4E70220C2E7C76300081F64000873
:104AF0009F6200087047704700BFFEE710B52DEDBC
:104B0000048BAC480078072847D2DFE800F0044760
:104B100071C1D4FEFD000020A74908600220A7490A
:104B200008600120A64908709FEDA60AA64880EDFE
:104B3000000A41F6C810A5490880A54890ED000A72
:104B4000DFEDA00A30EE600A10EE101A0846FBF7FF
:104B500026FD41EC190BB0EE490AF0EE690A01F0AE
:104B6000E9FFB0EE408AF0EE608A9FED9A0B53ECBD
:104B7000102B51EC180BFBF725FD0ED2974800685F
:104B8000A0F5C854C83C002C01DB204600E0604280
:104B90000A2802DA01208749087006E19FED900A91
:104BA000904880ED000A904890ED000ADFED8C0AF5
:104BB00030EE600A10EE101A0846FBF7F0FC41ECEC
:104BC000190BB0EE490AF0EE690A01F0B3FFB0EE3E
:104BD000408AF0EE608A9FED7F0B53EC102B51EC76
:104BE000180BFBF7EFFC02D2022072490870DCE0E0
:104BF0009FED7E0A7E4880ED000A9FED7E0A7E488A
:104C000080ED000A7D4890ED000ADFED780A30EE75
:104C1000600A10EE101A0846FBF7C1FC41EC190BB4
:104C2000B0EE490AF0EE690A01F084FFB0EE408A66
:104C3000F0EE608A9FED720B53EC102B51EC180BC9
:104C4000FBF7C0FC23D2704890ED000ADFED690A43
:104C500030EE600A10EE101A0846FBF7A0FC41EC9B
:104C6000190BB0EE490AF0EE690A01F063FFB0EEED
:104C7000408AF0EE608A9FED620B53EC102B51ECF2
:104C8000180BFBF79FFC02D203204A4908708CE006
:104C90005E480068401C5D490860084600681428AA
:104CA00008DD0020464908700420424908700020B1
:104CB0005649086079E0514890ED000A5448D0ED1B
:104CC000000A30EE600A10EE101A0846FBF767FC87
:104CD00041EC190BB0EE490AF0EE690A01F02AFF27
:104CE000B0EE408AF0EE608A9FED4A0B53EC102B39
:104CF00051EC180BFBF77EFC29D2434890ED000ADB
:104D00004648D0ED000A01E049E035E030EE600AA7
:104D100010EE101A0846FBF742FC41EC190BB0EEFE
:104D2000490AF0EE690A01F005FFB0EE408AF0EEA4
:104D3000608A9FED380B53EC102B51EC180BFBF7EE
:104D400059FC04D236480068401C35490860344894
:104D50000068D2280FDD9FED330A254880ED000A58
:104D60009FED300A244880ED000A00202C4908609D
:104D700005201049087018E02B480068401C2A499B
:104D8000086008460068B0F5967F07DD00200860DF
:104D900001200B49087006200649087005E0002034
:104DA0002249087001F0CCFF00BF00BFBDEC048BAE
:104DB00010BD00001F060020FC000020F8000020AD
:104DC000D400002000808EC4C0000020BC00002061
:104DD000DC0000200000000000001440D80000208B
:104DE0000080E843C8000020E400002000007AC4EE
:104DF000CC00002000401C45D0000020E80000202E
:104E00000000000000002440EC00002058060020B4
:104E1000B80600200000000000004940BC06002049
:104E20005C0600200000000060060020AD060020A7
:104E30000FB400B58BB00D9818B13C493C4802F056
:104E4000DBFA3B48007808B100F000FE0E9818B17C
:104E50003849394802F0D0FA3748007840B12C225E
:104E600010A96846FBF73FFA0CA80FC8FCF77EF8BC
:104E70000F9818B13149324802F0BEFA3048007834
:104E800008B1FFF73BFE109818B12E492E4802F0EA
:104E9000B3FA2D48007840B12C2210A96846FBF7E0
:104EA00022FA0CA80FC8FBF79BFD119818B12749EF
:104EB000274802F0A1FA2648007840B12C2210A918
:104EC0006846FBF710FA0CA80FC8FBF747FE1298CC
:104ED00028B101201F49087000201F4908701D4893
:104EE000007840B12C2210A96846FBF7FCF90CA809
:104EF0000FC8FBF7BDFF149828B1012017490870AF
:104F00000020174908701548007808B100F080FCAF
:104F1000139818B11349144802F06EFA1248007839
:104F200008B1FCF7B7FE0BB05DF814FB1D060020BE
:104F3000B10600201E060020AC0600201F0600203F
:104F4000AD06002020060020AE060020210600202D
:104F5000AF060020B206002022060020B406002082
:104F60002406002023060020B30600208CB000BFDA
:104F70002C2209496846FBF7B6F9074810380FC8D4
:104F8000FFF756FF0548C089401C0449C88101202D
:104F900002F046FBECE70000B44A00205A4A002029
:104FA00090ED031AD0ED041AF7EE000A41EE210A43
:104FB000B7EE001AC1EE201AB0EE610AF7EE000A51
:104FC00070EEC00A90ED021A60EE810A90ED001AB0
:104FD00040EE010AC0ED010AD0ED010AC0ED000A61
:104FE0007047000010B50F480F4908600320486063
:104FF00000210D488160C1604FF4002101614FF430
:105000004011416100210176417681760121C1760E
:10501000002101774177FDF74BFA08B1FCF7DBFE81
:1050200010BD0000006400405409002010B50E4877
:105030000E4908600320486000210C488160C1606F
:105040004FF4002101614FF44011416100210176CC
:1050500041768176C17601774177FDF729FA08B16B
:10506000FCF7B9FE10BD0000006800407C0900207C
:1050700008B500BF002000901E48006840F4800082
:105080001C4908600846006800F48000009000BFDA
:1050900000BF00BF002000900846006840F40010E8
:1050A00008600846006800F40010009000BF00BFD0
:1050B000002205211020FEF761F91020FEF74AF9C1
:1050C000002205211120FEF759F91120FEF742F9BF
:1050D000002205213A20FEF751F93A20FEF73AF96D
:1050E000002205214620FEF749F94620FEF732F955
:1050F00008BD00003038024000B5ABB01C22244986
:1051000024A8FBF7F0F8002124A801F049FE21496A
:1051100008601C221E491C311DA8FBF7E4F8002181
:105120001DA801F03DFE1C4908601C2218493831B9
:1051300016A8FBF7D8F8002116A801F031FE174990
:1051400008601C22124954310FA8FBF7CCF800214B
:105150000FA801F025FE124908601C220C4970318D
:1051600008A8FBF7C0F8002108A801F019FE0D49B6
:1051700008601C2206498C3101A8FBF7B4F8002115
:1051800001A801F00DFE084908602BB000BD000029
:105190009C7C000810000020140000201800002053
:1051A0001C000020200000202400002000B587B053
:1051B000142102A8FBF7B0F800BF002001902E4890
:1051C000006840F080002C4908600846006800F044
:1051D0008000019000BF00BF00BF00200190084682
:1051E000006840F0020008600846006800F0020015
:1051F000019000BF00BF00BF00200190084600687A
:1052000040F0080008600846006800F008000190BF
:1052100000BF00BF00BF002001900846006840F0BA
:10522000040008600846006800F00400019000BF18
:1052300000BF00BF002001900846006840F0010058
:1052400008600846006800F00100019000BF00BF40
:1052500001224FF488610948FDF7CCFF4FF48860C4
:1052600002900120039004900320059002A90348B6
:10527000FDF7C6FE07B000BD30380240000802400E
:1052800000B587B00020039004900590069001902F
:1052900002904FF080401449086042F2CF0048600D
:1052A00000211148816042F20F71C160002101614B
:1052B0008161FEF7C1FC08B1FCF78DFD4FF4805011
:1052C000039003A90848FEF761FD08B1FCF783FDD0
:1052D00000200190029001A90348FEF753FC08B199
:1052E000FCF779FD07B000BDA409002000B589B026
:1052F0000020079008901C216846FBF70DF818481D
:10530000184908601420486000211648816040F662
:105310009F71C160002101618161FEF752FF08B1F8
:10532000FCF759FD00200790089007A90D48FEF7EB
:1053300029FC08B1FCF74FFD60200090002001908F
:1053400002900490082269460648FEF7B8FE08B1AC
:10535000FCF741FD0348FEF757FE09B000BD000011
:1053600000040040EC09002000B589B0002007903F
:1053700008901C216846FAF7CFFF184818490860C2
:105380001420486000211648816040F69F71C1607A
:10539000002101618161FEF714FF08B1FCF71BFDDC
:1053A00000200790089007A90D48FEF7EBFB08B115
:1053B000FCF711FD60200090002001900290049005
:1053C000042269460648FEF77AFE08B1FCF703FDA1
:1053D0000348FEF719FE09B000BD000000080040B8
:1053E000340A002010B50B480B4908604FF46120C7
:1053F0004860002108488160C16001610C21416161
:1054000000218161C161FFF7B1F908B1FCF7E3FC4C
:1054100010BD0000001001407C0A002010B50B48B0
:105420000B4908604FF4E120486000210848816082
:10543000C16001610C21416100218161C161FFF7FF
:1054400095F908B1FCF7C7FC10BD0000004400400E
:10545000C40A002000BFFEE730B5841A23B21C1E28
:1054600001DB254600E06542322D02DA01240C8082
:1054700001E000240C8030BD00BF034800F004FCB4
:10548000012002F0CDF8F8E75A4A002000BFFEE7FD
:1054900010B52DED088B044694ED000AD4ED010AF9
:1054A00030EE600A84ED050A94ED0C0A10EE101A35
:1054B0000846FBF774F841EC190B94ED050A10EE61
:1054C000101A0846FBF76BF841EC1B0BB0EE4B0AC9
:1054D000F0EE6B0A01F02EFBB0EE40AAF0EE60AAEF
:1054E00053EC192B51EC1A0BFBF76CF803D89FED1A
:1054F000500A84ED050A94ED0A0A10EE101A0846C7
:10550000FBF74DF841EC190B94ED050A10EE101A5B
:105510000846FBF744F841EC1B0BB0EE4B0AF0EEEB
:105520006B0A01F007FBB0EE40AAF0EE60AA53EC64
:10553000192B51EC1A0BFBF745F807D294ED070A2B
:10554000D4ED050A30EE200A84ED070A94ED070A2F
:10555000D4ED090AB4EEE00AF1EE10FA04DD94EDA0
:10556000090A84ED070A10E094ED070AD4ED090A50
:10557000F1EE600AB4EEE00AF1EE10FA05D294ED15
:10558000090AB1EE400A84ED070A94ED020AD4ED4F
:10559000050A20EE200A84ED0D0A94ED030AD4EDED
:1055A000070A20EE200A84ED0E0A94ED050AD4EDD8
:1055B000060A30EE608A94ED040A20EE080A84EDB3
:1055C0000F0A94ED0D0AD4ED0E0A30EE200AD4ED48
:1055D0000F0A30EE200A84ED080A94ED080AD4ED93
:1055E0000B0AB4EEE00AF1EE10FA04DD94ED0B0ABA
:1055F00084ED080A10E094ED080AD4ED0B0AF1EEF0
:10560000600AB4EEE00AF1EE10FA05D294ED0B0A4E
:10561000B1EE400A84ED080A94ED050A84ED060A0D
:1056200094ED0F0A84ED100ABDEC088B10BD00004C
:105630000000000010B5044604F14400FFF728FF05
:1056400094ED190A84ED000A2046FFF721FF94ED3E
:10565000080A84ED220A10BD10B52DED088B044612
:1056600094ED000AD4ED010A30EE600A84ED050ADB
:1056700094ED0C0A10EE101A0846FAF790FF41EC70
:10568000190B94ED050A10EE101A0846FAF787FF79
:1056900041EC1B0BB0EE4B0AF0EE6B0A01F04AFA3C
:1056A000B0EE40AAF0EE60AA53EC192B51EC1A0BA5
:1056B000FAF788FF03D89FED540A84ED050A94EDAC
:1056C0000A0A10EE101A0846FAF769FF41EC190BA6
:1056D00094ED050A10EE101A0846FAF760FF41EC47
:1056E0001B0BB0EE4B0AF0EE6B0A01F023FAB0EEA2
:1056F00040AAF0EE60AA53EC192B51EC1A0BFAF702
:1057000061FF07D294ED070AD4ED050A30EE200AB6
:1057100084ED070A94ED070ADFED3C0A20EE200A2B
:1057200084ED070A94ED070AD4ED090AB4EEE00A05
:10573000F1EE10FA04DD94ED090A84ED070A10E099
:1057400094ED070AD4ED090AF1EE600AB4EEE00A1E
:10575000F1EE10FA05D294ED090AB1EE400A84ED9B
:10576000070A94ED020AD4ED050A20EE200A84ED22
:105770000D0A94ED030AD4ED070A20EE200A84ED09
:105780000E0A94ED050AD4ED060A30EE608A94ED17
:10579000040A20EE080A84ED0F0A94ED0D0AD4EDF8
:1057A0000E0A30EE200AD4ED0F0A30EE200A84ED06
:1057B000080A94ED080AD4ED0B0AB4EEE00AF1EE03
:1057C00010FA04DD94ED0B0A84ED080A10E094ED64
:1057D000080AD4ED0B0AF1EE600AB4EEE00AF1EE2D
:1057E00010FA05D294ED0B0AB1EE400A84ED080AD6
:1057F00094ED050A84ED060A94ED0F0A84ED100A73
:10580000BDEC088B10BD000000000000A4707D3FBF
:105810001248007820B101280CD002281BD116E0D4
:105820000F480078C0F101000D49087001200B49B4
:10583000087010E00B480068401C0A4908600846E0
:105840000068C82802DD02200449087003E0002037
:105850000549087000BF00BF704700002406002003
:10586000D5000020A8060020B406002010B5202294
:105870000D490E48FFF7D8F80C480068C06840F0A2
:1058800010000A490968C8600948FEF72BFA082188
:105890000848FEF70DFD04210748FEF709FD01F059
:1058A00015FA01F021FA10BDDC4900207C0A002025
:1058B000A4090020EC090020340A002000BF662063
:1058C000334908708820487000208870C87000BF75
:1058D0000BE0304911F81010C0F1070291402C4A3A
:1058E000927811432A4A9170401C0828F1DB082065
:1058F0000BE0284911F81010C0F10F029140244A22
:10590000D2781143224AD170401C0C28F1DB0020D0
:105910001F49087148718871C8710872487288728D
:10592000C87208731C48007808711C4800784871D8
:105930001B48007888711B480078C8711A480078A5
:1059400008721A4800784872194800788872194815
:105950000078C87218480078087314210C48801C1D
:1059600001F0D0F904460A498C75200AC875FF2059
:10597000087619221148FFF76FF806483038808AF8
:10598000401C044930398882052001F049FE96E721
:10599000404A00208A4A0020B0060020B1060020BC
:1059A000AC060020AD060020AE060020AF060020A9
:1059B000B2060020B3060020B40600207C0A0020B6
:1059C00070B586B006460C4615464FF480600190CF
:1059D00000208DF80D008DF80C0001208DF80E00D0
:1059E00004F00101304661F35F0005F0010140EA77
:1059F00081008DF80F0001230DF10F02990202487A
:105A0000FBF7F8FC06B070BD54090020B5EEC00AE3
:105A1000F1EE10FA01DD01207047B5EEC00AF1EE9B
:105A200010FA02D24FF0FF30F6E70020F4E7000052
:105A300000BF0449044800F0BDFF052001F0F0FD5F
:105A4000F7E70000DC490020A44A002010B52DED46
:105A5000048B3F48007820B101283ED0022872D143
:105A60006BE002203B4908609FED3B0A3B4880ED1C
:105A7000000A4FF4E1503A4908803A4890ED000A94
:105A8000DFED350A30EE600A10EE101A0846FAF71C
:105A900086FD41EC190BB0EE490AF0EE690A01F0FF
:105AA00049F8B0EE408AF0EE608A9FED2F0B53EC80
:105AB000102B51EC180BFAF785FD0DD22C4800681D
:105AC000A0F5E154002C01DB204600E060420528EF
:105AD00002DA01201E49087035E0002025490860DF
